{"contracts/FeesCalculator.sol":{"FeesCalculator":{"abi":[{"inputs":[{"internalType":"uint256","name":"amount","type":"uint256"},{"internalType":"uint256","name":"scale","type":"uint256"},{"internalType":"uint256","name":"promille_fee_","type":"uint256"}],"name":"CalculateAbstractFee","outputs":[{"internalType":"uint256","name":"","type":"uint256"}],"stateMutability":"pure","type":"function"}],"evm":{"bytecode":{"linkReferences":{},"object":"61038b610052600b82828239805160001a6073146045577f4e487b7100000000000000000000000000000000000000000000000000000000600052600060045260246000fd5b30600052607381538281f3fe73000000000000000000000000000000000000000030146080604052600436106100355760003560e01c8063a285b8941461003a575b600080fd5b610054600480360381019061004f919061016e565b61006a565b60405161006191906101d0565b60405180910390f35b60008083856100799190610249565b905060008486610089919061027a565b9050600085856100999190610249565b9050600086866100a9919061027a565b90508660018883866100bb91906102ab565b6100c591906102ed565b6100cf9190610321565b6100d99190610249565b82846100e591906102ab565b82866100f191906102ab565b8985886100fe91906102ab565b61010891906102ab565b61011291906102ed565b61011c91906102ed565b61012691906102ed565b9450505050509392505050565b600080fd5b6000819050919050565b61014b81610138565b811461015657600080fd5b50565b60008135905061016881610142565b92915050565b60008060006060848603121561018757610186610133565b5b600061019586828701610159565b93505060206101a686828701610159565b92505060406101b786828701610159565b9150509250925092565b6101ca81610138565b82525050565b60006020820190506101e560008301846101c1565b92915050565b7f4e487b7100000000000000000000000000000000000000000000000000000000600052601260045260246000fd5b7f4e487b7100000000000000000000000000000000000000000000000000000000600052601160045260246000fd5b600061025482610138565b915061025f83610138565b92508261026f5761026e6101eb565b5b828204905092915050565b600061028582610138565b915061029083610138565b9250826102a05761029f6101eb565b5b828206905092915050565b60006102b682610138565b91506102c183610138565b92508282026102cf81610138565b915082820484148315176102e6576102e561021a565b5b5092915050565b60006102f882610138565b915061030383610138565b925082820190508082111561031b5761031a61021a565b5b92915050565b600061032c82610138565b915061033783610138565b925082820390508181111561034f5761034e61021a565b5b9291505056fea26469706673582212201605994742b5c59bd323aa7f75423a415f62866d661f111137a08ab916e97a2864736f6c634300081c0033","opcodes":"PUSH2 0x38B PUSH2 0x52 PUSH1 0xB DUP3 DUP3 DUP3 CODECOPY DUP1 MLOAD PUSH1 0x0 BYTE PUSH1 0x73 EQ PUSH1 0x45 JUMPI PUSH32 0x4E487B7100000000000000000000000000000000000000000000000000000000 PUSH1 0x0 MSTORE PUSH1 0x0 PUSH1 0x4 MSTORE PUSH1 0x24 PUSH1 0x0 REVERT JUMPDEST ADDRESS PUSH1 0x0 MSTORE PUSH1 0x73 DUP2 MSTORE8 DUP3 DUP2 RETURN INVALID PUSH20 0x0 ADDRESS EQ PUSH1 0x80 PUSH1 0x40 MSTORE PUSH1 0x4 CALLDATASIZE LT PUSH2 0x35 JUMPI PUSH1 0x0 CALLDATALOAD PUSH1 0xE0 SHR DUP1 PUSH4 0xA285B894 EQ PUSH2 0x3A JUMPI JUMPDEST PUSH1 0x0 DUP1 REVERT JUMPDEST PUSH2 0x54 PUSH1 0x4 DUP1 CALLDATASIZE SUB DUP2 ADD SWAP1 PUSH2 0x4F SWAP2 SWAP1 PUSH2 0x16E JUMP JUMPDEST PUSH2 0x6A JUMP JUMPDEST PUSH1 0x40 MLOAD PUSH2 0x61 SWAP2 SWAP1 PUSH2 0x1D0 JUMP JUMPDEST PUSH1 0x40 MLOAD DUP1 SWAP2 SUB SWAP1 RETURN JUMPDEST PUSH1 0x0 DUP1 DUP4 DUP6 PUSH2 0x79 SWAP2 SWAP1 PUSH2 0x249 JUMP JUMPDEST SWAP1 POP PUSH1 0x0 DUP5 DUP7 PUSH2 0x89 SWAP2 SWAP1 PUSH2 0x27A JUMP JUMPDEST SWAP1 POP PUSH1 0x0 DUP6 DUP6 PUSH2 0x99 SWAP2 SWAP1 PUSH2 0x249 JUMP JUMPDEST SWAP1 POP PUSH1 0x0 DUP7 DUP7 PUSH2 0xA9 SWAP2 SWAP1 PUSH2 0x27A JUMP JUMPDEST SWAP1 POP DUP7 PUSH1 0x1 DUP9 DUP4 DUP7 PUSH2 0xBB SWAP2 SWAP1 PUSH2 0x2AB JUMP JUMPDEST PUSH2 0xC5 SWAP2 SWAP1 PUSH2 0x2ED JUMP JUMPDEST PUSH2 0xCF SWAP2 SWAP1 PUSH2 0x321 JUMP JUMPDEST PUSH2 0xD9 SWAP2 SWAP1 PUSH2 0x249 JUMP JUMPDEST DUP3 DUP5 PUSH2 0xE5 SWAP2 SWAP1 PUSH2 0x2AB JUMP JUMPDEST DUP3 DUP7 PUSH2 0xF1 SWAP2 SWAP1 PUSH2 0x2AB JUMP JUMPDEST DUP10 DUP6 DUP9 PUSH2 0xFE SWAP2 SWAP1 PUSH2 0x2AB JUMP JUMPDEST PUSH2 0x108 SWAP2 SWAP1 PUSH2 0x2AB JUMP JUMPDEST PUSH2 0x112 SWAP2 SWAP1 PUSH2 0x2ED JUMP JUMPDEST PUSH2 0x11C SWAP2 SWAP1 PUSH2 0x2ED JUMP JUMPDEST PUSH2 0x126 SWAP2 SWAP1 PUSH2 0x2ED JUMP JUMPDEST SWAP5 POP POP POP POP POP SWAP4 SWAP3 POP POP POP JUMP JUMPDEST PUSH1 0x0 DUP1 REVERT JUMPDEST PUSH1 0x0 DUP2 SWAP1 POP SWAP2 SWAP1 POP JUMP JUMPDEST PUSH2 0x14B DUP2 PUSH2 0x138 JUMP JUMPDEST DUP2 EQ PUSH2 0x156 JUMPI PUSH1 0x0 DUP1 REVERT JUMPDEST POP JUMP JUMPDEST PUSH1 0x0 DUP2 CALLDATALOAD SWAP1 POP PUSH2 0x168 DUP2 PUSH2 0x142 JUMP JUMPDEST SWAP3 SWAP2 POP POP JUMP JUMPDEST PUSH1 0x0 DUP1 PUSH1 0x0 PUSH1 0x60 DUP5 DUP7 SUB SLT ISZERO PUSH2 0x187 JUMPI PUSH2 0x186 PUSH2 0x133 JUMP JUMPDEST JUMPDEST PUSH1 0x0 PUSH2 0x195 DUP7 DUP3 DUP8 ADD PUSH2 0x159 JUMP JUMPDEST SWAP4 POP POP PUSH1 0x20 PUSH2 0x1A6 DUP7 DUP3 DUP8 ADD PUSH2 0x159 JUMP JUMPDEST SWAP3 POP POP PUSH1 0x40 PUSH2 0x1B7 DUP7 DUP3 DUP8 ADD PUSH2 0x159 JUMP JUMPDEST SWAP2 POP POP SWAP3 POP SWAP3 POP SWAP3 JUMP JUMPDEST PUSH2 0x1CA DUP2 PUSH2 0x138 JUMP JUMPDEST DUP3 MSTORE POP POP JUMP JUMPDEST PUSH1 0x0 PUSH1 0x20 DUP3 ADD SWAP1 POP PUSH2 0x1E5 PUSH1 0x0 DUP4 ADD DUP5 PUSH2 0x1C1 JUMP JUMPDEST SWAP3 SWAP2 POP POP JUMP JUMPDEST PUSH32 0x4E487B7100000000000000000000000000000000000000000000000000000000 PUSH1 0x0 MSTORE PUSH1 0x12 PUSH1 0x4 MSTORE PUSH1 0x24 PUSH1 0x0 REVERT JUMPDEST PUSH32 0x4E487B7100000000000000000000000000000000000000000000000000000000 PUSH1 0x0 MSTORE PUSH1 0x11 PUSH1 0x4 MSTORE PUSH1 0x24 PUSH1 0x0 REVERT JUMPDEST PUSH1 0x0 PUSH2 0x254 DUP3 PUSH2 0x138 JUMP JUMPDEST SWAP2 POP PUSH2 0x25F DUP4 PUSH2 0x138 JUMP JUMPDEST SWAP3 POP DUP3 PUSH2 0x26F JUMPI PUSH2 0x26E PUSH2 0x1EB JUMP JUMPDEST JUMPDEST DUP3 DUP3 DIV SWAP1 POP SWAP3 SWAP2 POP POP JUMP JUMPDEST PUSH1 0x0 PUSH2 0x285 DUP3 PUSH2 0x138 JUMP JUMPDEST SWAP2 POP PUSH2 0x290 DUP4 PUSH2 0x138 JUMP JUMPDEST SWAP3 POP DUP3 PUSH2 0x2A0 JUMPI PUSH2 0x29F PUSH2 0x1EB JUMP JUMPDEST JUMPDEST DUP3 DUP3 MOD SWAP1 POP SWAP3 SWAP2 POP POP JUMP JUMPDEST PUSH1 0x0 PUSH2 0x2B6 DUP3 PUSH2 0x138 JUMP JUMPDEST SWAP2 POP PUSH2 0x2C1 DUP4 PUSH2 0x138 JUMP JUMPDEST SWAP3 POP DUP3 DUP3 MUL PUSH2 0x2CF DUP2 PUSH2 0x138 JUMP JUMPDEST SWAP2 POP DUP3 DUP3 DIV DUP5 EQ DUP4 ISZERO OR PUSH2 0x2E6 JUMPI PUSH2 0x2E5 PUSH2 0x21A JUMP JUMPDEST JUMPDEST POP SWAP3 SWAP2 POP POP JUMP JUMPDEST PUSH1 0x0 PUSH2 0x2F8 DUP3 PUSH2 0x138 JUMP JUMPDEST SWAP2 POP PUSH2 0x303 DUP4 PUSH2 0x138 JUMP JUMPDEST SWAP3 POP DUP3 DUP3 ADD SWAP1 POP DUP1 DUP3 GT ISZERO PUSH2 0x31B JUMPI PUSH2 0x31A PUSH2 0x21A JUMP JUMPDEST JUMPDEST SWAP3 SWAP2 POP POP JUMP JUMPDEST PUSH1 0x0 PUSH2 0x32C DUP3 PUSH2 0x138 JUMP JUMPDEST SWAP2 POP PUSH2 0x337 DUP4 PUSH2 0x138 JUMP JUMPDEST SWAP3 POP DUP3 DUP3 SUB SWAP1 POP DUP2 DUP2 GT ISZERO PUSH2 0x34F JUMPI PUSH2 0x34E PUSH2 0x21A JUMP JUMPDEST JUMPDEST SWAP3 SWAP2 POP POP JUMP INVALID LOG2 PUSH5 0x6970667358 0x22 SLT KECCAK256 AND SDIV SWAP10 SELFBALANCE TIMESTAMP 0xB5 0xC5 SWAP12 0xD3 0x23 0xAA PUSH32 0x75423A415F62866D661F111137A08AB916E97A2864736F6C634300081C003300 "},"methodIdentifiers":{"CalculateAbstractFee(uint256,uint256,uint256)":"a285b894"}}}}}