{"contracts/pool.sol":{"Pool":{"abi":[{"inputs":[{"internalType":"address","name":"llm_nft","type":"address"},{"internalType":"address","name":"credit_","type":"address"}],"stateMutability":"nonpayable","type":"constructor"},{"inputs":[{"internalType":"address","name":"owner","type":"address"}],"name":"OwnableInvalidOwner","type":"error"},{"inputs":[{"internalType":"address","name":"account","type":"address"}],"name":"OwnableUnauthorizedAccount","type":"error"},{"anonymous":false,"inputs":[{"indexed":false,"internalType":"address","name":"user","type":"address"},{"indexed":false,"internalType":"uint256","name":"amount","type":"uint256"}],"name":"Deposit","type":"event"},{"anonymous":false,"inputs":[{"indexed":false,"internalType":"address","name":"worker","type":"address"},{"indexed":false,"internalType":"bool","name":"isApproved","type":"bool"}],"name":"NewWorker","type":"event"},{"anonymous":false,"inputs":[{"indexed":true,"internalType":"address","name":"previousOwner","type":"address"},{"indexed":true,"internalType":"address","name":"newOwner","type":"address"}],"name":"OwnershipTransferred","type":"event"},{"anonymous":false,"inputs":[{"indexed":false,"internalType":"address","name":"provider","type":"address"},{"indexed":false,"internalType":"uint256","name":"llm_id","type":"uint256"},{"indexed":false,"internalType":"uint256","name":"amount","type":"uint256"}],"name":"Payout","type":"event"},{"anonymous":false,"inputs":[{"indexed":false,"internalType":"uint256","name":"id","type":"uint256"},{"indexed":false,"internalType":"uint256","name":"llm_id","type":"uint256"},{"indexed":false,"internalType":"address","name":"worker","type":"address"},{"indexed":false,"internalType":"uint256","name":"llmInputTokens","type":"uint256"},{"indexed":false,"internalType":"uint256","name":"llmOutputTokens","type":"uint256"},{"indexed":false,"internalType":"uint256","name":"cost","type":"uint256"},{"indexed":false,"internalType":"uint256","name":"processingTime","type":"uint256"},{"indexed":false,"internalType":"uint256","name":"timestamp","type":"uint256"}],"name":"Response","type":"event"},{"inputs":[{"internalType":"uint256","name":"token_id","type":"uint256"},{"internalType":"uint256","name":"hw_price_in","type":"uint256"},{"internalType":"uint256","name":"hw_price_out","type":"uint256"}],"name":"AddModel","outputs":[],"stateMutability":"nonpayable","type":"function"},{"inputs":[{"internalType":"string","name":"lai_public_key","type":"string"}],"name":"ApproveWorker","outputs":[],"stateMutability":"nonpayable","type":"function"},{"inputs":[{"internalType":"string","name":"lai_pub_key","type":"string"}],"name":"Ban","outputs":[],"stateMutability":"nonpayable","type":"function"},{"inputs":[{"internalType":"uint256","name":"hw_cost","type":"uint256"}],"name":"CalculateServiceFee","outputs":[{"internalType":"uint256","name":"","type":"uint256"}],"stateMutability":"view","type":"function"},{"inputs":[{"internalType":"uint256","name":"llm_id","type":"uint256"}],"name":"DeleteModel","outputs":[],"stateMutability":"nonpayable","type":"function"},{"inputs":[{"internalType":"uint256","name":"amount","type":"uint256"}],"name":"DepositCredit","outputs":[],"stateMutability":"nonpayable","type":"function"},{"inputs":[{"internalType":"uint256","name":"llm_id","type":"uint256"}],"name":"GetMetaLLM","outputs":[{"components":[{"internalType":"uint256","name":"token_id","type":"uint256"},{"internalType":"uint256","name":"author_royalty","type":"uint256"},{"internalType":"address","name":"author_wallet","type":"address"},{"internalType":"uint256","name":"hw_price_per_input_token","type":"uint256"},{"internalType":"uint256","name":"hw_price_per_output_token","type":"uint256"},{"internalType":"enum Pool.Pay_type","name":"pay_type_","type":"uint8"}],"internalType":"struct Pool.LLM_meta","name":"","type":"tuple"}],"stateMutability":"view","type":"function"},{"inputs":[{"internalType":"uint256","name":"llm_id","type":"uint256"}],"name":"GetModel","outputs":[{"components":[{"internalType":"uint256","name":"token_id","type":"uint256"},{"internalType":"uint256","name":"author_royalty","type":"uint256"},{"internalType":"address","name":"author_wallet","type":"address"},{"internalType":"uint256","name":"hw_price_per_input_token","type":"uint256"},{"internalType":"uint256","name":"hw_price_per_output_token","type":"uint256"},{"internalType":"enum Pool.Pay_type","name":"pay_type_","type":"uint8"}],"internalType":"struct Pool.LLM_meta","name":"","type":"tuple"}],"stateMutability":"view","type":"function"},{"inputs":[{"internalType":"uint256","name":"llm_id","type":"uint256"}],"name":"GetTotalPrice","outputs":[{"internalType":"uint256","name":"","type":"uint256"}],"stateMutability":"view","type":"function"},{"inputs":[{"internalType":"string","name":"lai_id","type":"string"}],"name":"GetWorkerAddress","outputs":[{"internalType":"address","name":"","type":"address"}],"stateMutability":"view","type":"function"},{"inputs":[{"internalType":"uint256","name":"llm_id","type":"uint256"},{"internalType":"address","name":"user","type":"address"}],"name":"Pre_request","outputs":[],"stateMutability":"view","type":"function"},{"inputs":[{"internalType":"uint256","name":"request_id","type":"uint256"},{"internalType":"string","name":"worker_id","type":"string"},{"internalType":"uint256","name":"llm_id","type":"uint256"},{"internalType":"uint256","name":"llmInputTokens","type":"uint256"},{"internalType":"uint256","name":"llmOutputTokens","type":"uint256"},{"internalType":"uint256","name":"processingTime","type":"uint256"}],"name":"ProcessResponse","outputs":[],"stateMutability":"nonpayable","type":"function"},{"inputs":[{"internalType":"string","name":"lai_public_key","type":"string"}],"name":"RegisterWorker","outputs":[],"stateMutability":"nonpayable","type":"function"},{"inputs":[{"internalType":"string","name":"lai_pub_key","type":"string"}],"name":"Unban","outputs":[],"stateMutability":"nonpayable","type":"function"},{"inputs":[{"internalType":"string","name":"lai_pub_key","type":"string"}],"name":"Unregister","outputs":[],"stateMutability":"nonpayable","type":"function"},{"inputs":[{"internalType":"uint256","name":"llm_id","type":"uint256"},{"internalType":"uint256","name":"new_royalty","type":"uint256"},{"internalType":"address","name":"new_address","type":"address"}],"name":"UpdateModel","outputs":[],"stateMutability":"nonpayable","type":"function"},{"inputs":[{"internalType":"string","name":"","type":"string"}],"name":"blacklist","outputs":[{"internalType":"bool","name":"","type":"bool"}],"stateMutability":"view","type":"function"},{"inputs":[{"internalType":"string","name":"","type":"string"}],"name":"isApproved","outputs":[{"internalType":"bool","name":"","type":"bool"}],"stateMutability":"view","type":"function"},{"inputs":[],"name":"owner","outputs":[{"internalType":"address","name":"","type":"address"}],"stateMutability":"view","type":"function"},{"inputs":[],"name":"renounceOwnership","outputs":[],"stateMutability":"nonpayable","type":"function"},{"inputs":[{"internalType":"address","name":"newOwner","type":"address"}],"name":"transferOwnership","outputs":[],"stateMutability":"nonpayable","type":"function"}],"evm":{"bytecode":{"linkReferences":{"contracts/FeesCalculator.sol":{"FeesCalculator":[{"length":20,"start":1772}]}},"object":"6080604052600160035534801561001557600080fd5b506040516133403803806133408339818101604052810190610037919061026a565b33600073ffffffffffffffffffffffffffffffffffffffff168173ffffffffffffffffffffffffffffffffffffffff16036100aa5760006040517f1e4fbdf70000000000000000000000000000000000000000000000000000000081526004016100a191906102b9565b60405180910390fd5b6100b98161014360201b60201c565b5081600160006101000a81548173ffffffffffffffffffffffffffffffffffffffff021916908373ffffffffffffffffffffffffffffffffffffffff16021790555080600260006101000a81548173ffffffffffffffffffffffffffffffffffffffff021916908373ffffffffffffffffffffffffffffffffffffffff16021790555050506102d4565b60008060009054906101000a900473ffffffffffffffffffffffffffffffffffffffff169050816000806101000a81548173ffffffffffffffffffffffffffffffffffffffff021916908373ffffffffffffffffffffffffffffffffffffffff1602179055508173ffffffffffffffffffffffffffffffffffffffff168173ffffffffffffffffffffffffffffffffffffffff167f8be0079c531659141344cd1fd0a4f28419497f9722a3daafe3b4186f6b6457e060405160405180910390a35050565b600080fd5b600073ffffffffffffffffffffffffffffffffffffffff82169050919050565b60006102378261020c565b9050919050565b6102478161022c565b811461025257600080fd5b50565b6000815190506102648161023e565b92915050565b6000806040838503121561028157610280610207565b5b600061028f85828601610255565b92505060206102a085828601610255565b9150509250929050565b6102b38161022c565b82525050565b60006020820190506102ce60008301846102aa565b92915050565b61305d806102e36000396000f3fe608060405234801561001057600080fd5b50600436106101375760003560e01c806397c37d6b116100b8578063bad3191a1161007c578063bad3191a14610334578063bbfb8caa14610350578063c7567cd714610380578063f2fde38b1461039c578063f31fbc9f146103b8578063f6bd2ac8146103e857610137565b806397c37d6b146102805780639fcd8c9d146102b0578063aa389692146102cc578063ad7922d5146102e8578063b9359ea21461031857610137565b8063421d2777116100ff578063421d2777146101dc578063431f90f31461020c578063715018a6146102285780638c0233e9146102325780638da5cb5b1461026257610137565b80630e5fd6d71461013c5780631b988ce41461016c5780631e99f3491461018857806327801534146101a45780633266e290146101c0575b600080fd5b61015660048036038101906101519190611cb2565b610404565b6040516101639190611cee565b60405180910390f35b61018660048036038101906101819190611cb2565b610491565b005b6101a2600480360381019061019d9190611e4f565b6105ce565b005b6101be60048036038101906101b99190611cb2565b6107e9565b005b6101da60048036038101906101d59190611ef6565b610865565b005b6101f660048036038101906101f19190611e4f565b610a46565b6040516102039190611f58565b60405180910390f35b61022660048036038101906102219190611e4f565b610a93565b005b610230610ad5565b005b61024c60048036038101906102479190611e4f565b610ae9565b6040516102599190611f8e565b60405180910390f35b61026a610b1f565b6040516102779190611f58565b60405180910390f35b61029a60048036038101906102959190611cb2565b610b48565b6040516102a79190611cee565b60405180910390f35b6102ca60048036038101906102c59190611e4f565b610b99565b005b6102e660048036038101906102e19190611fa9565b610f1b565b005b61030260048036038101906102fd9190611cb2565b61116b565b60405161030f919061210c565b60405180910390f35b610332600480360381019061032d9190612127565b611251565b005b61034e60048036038101906103499190611e4f565b61140a565b005b61036a60048036038101906103659190611cb2565b61144c565b604051610377919061210c565b60405180910390f35b61039a60048036038101906103959190612167565b611532565b005b6103b660048036038101906103b19190612210565b611926565b005b6103d260048036038101906103cd9190611e4f565b6119ac565b6040516103df9190611f8e565b60405180910390f35b61040260048036038101906103fd9190611e4f565b6119e2565b005b60008073__$6ca259786bae6b18641118eb2a4c0483c3$__63a285b8948460646003546040518463ffffffff1660e01b815260040161044593929190612291565b602060405180830381865af4158015610462573d6000803e3d6000fd5b505050506040513d601f19601f8201168201806040525081019061048691906122dd565b905080915050919050565b600260009054906101000a900473ffffffffffffffffffffffffffffffffffffffff1673ffffffffffffffffffffffffffffffffffffffff166323b872dd3330846040518463ffffffff1660e01b81526004016104f09392919061230a565b6020604051808303816000875af115801561050f573d6000803e3d6000fd5b505050506040513d601f19601f82011682018060405250810190610533919061236d565b61053c57600080fd5b80600660003373ffffffffffffffffffffffffffffffffffffffff1673ffffffffffffffffffffffffffffffffffffffff168152602001908152602001600020600082825461058b91906123c9565b925050819055507fe1fffcc4923d04b559f4d29a8bfc6cda04eb5b0d3c460751c2402c5c5cc9109c33826040516105c39291906123fd565b60405180910390a150565b3373ffffffffffffffffffffffffffffffffffffffff166004826040516105f59190612497565b908152602001604051809103902060009054906101000a900473ffffffffffffffffffffffffffffffffffffffff1673ffffffffffffffffffffffffffffffffffffffff161461067a576040517f08c379a00000000000000000000000000000000000000000000000000000000081526004016106719061250b565b60405180910390fd5b6000600560003373ffffffffffffffffffffffffffffffffffffffff1673ffffffffffffffffffffffffffffffffffffffff168152602001908152602001600020905060005b81805490508110156107a35782805190602001208282815481106106e7576106e661252b565b5b906000526020600020016040516106fe919061265d565b60405180910390200361079657816001838054905061071d9190612674565b8154811061072e5761072d61252b565b5b9060005260206000200182828154811061074b5761074a61252b565b5b9060005260206000200190816107619190612875565b50818054806107735761077261295d565b5b60019003818190600052602060002001600061078f9190611b77565b90556107a3565b80806001019150506106c0565b506004826040516107b49190612497565b908152602001604051809103902060006101000a81549073ffffffffffffffffffffffffffffffffffffffff02191690555050565b6107f1611a24565b6009600082815260200190815260200160002060008082016000905560018201600090556002820160006101000a81549073ffffffffffffffffffffffffffffffffffffffff0219169055600382016000905560048201600090556005820160006101000a81549060ff0219169055505050565b61086d611a24565b6000600960008581526020019081526020016000206040518060c001604052908160008201548152602001600182015481526020016002820160009054906101000a900473ffffffffffffffffffffffffffffffffffffffff1673ffffffffffffffffffffffffffffffffffffffff1673ffffffffffffffffffffffffffffffffffffffff16815260200160038201548152602001600482015481526020016005820160009054906101000a900460ff1660018111156109305761092f61201a565b5b60018111156109425761094161201a565b5b8152505090508281602001818152505081816040019073ffffffffffffffffffffffffffffffffffffffff16908173ffffffffffffffffffffffffffffffffffffffff16815250508060096000868152602001908152602001600020600082015181600001556020820151816001015560408201518160020160006101000a81548173ffffffffffffffffffffffffffffffffffffffff021916908373ffffffffffffffffffffffffffffffffffffffff160217905550606082015181600301556080820151816004015560a08201518160050160006101000a81548160ff02191690836001811115610a3857610a3761201a565b5b021790555090505050505050565b600080600483604051610a599190612497565b908152602001604051809103902060009054906101000a900473ffffffffffffffffffffffffffffffffffffffff16905080915050919050565b610a9b611a24565b6001600882604051610aad9190612497565b908152602001604051809103902060006101000a81548160ff02191690831515021790555050565b610add611a24565b610ae76000611aab565b565b6007818051602081018201805184825260208301602085012081835280955050505050506000915054906101000a900460ff1681565b60008060009054906101000a900473ffffffffffffffffffffffffffffffffffffffff16905090565b600080610b548361116b565b90506000816020015190506000826060015190506000836080015190506000818385610b8091906123c9565b610b8a91906123c9565b90508095505050505050919050565b600781604051610ba99190612497565b908152602001604051809103902060009054906101000a900460ff1615610c05576040517f08c379a0000000000000000000000000000000000000000000000000000000008152600401610bfc906129d8565b60405180910390fd5b600073ffffffffffffffffffffffffffffffffffffffff16600482604051610c2d9190612497565b908152602001604051809103902060009054906101000a900473ffffffffffffffffffffffffffffffffffffffff1673ffffffffffffffffffffffffffffffffffffffff1614610cb2576040517f08c379a0000000000000000000000000000000000000000000000000000000008152600401610ca990612a44565b60405180910390fd5b6014600560003373ffffffffffffffffffffffffffffffffffffffff1673ffffffffffffffffffffffffffffffffffffffff1681526020019081526020016000208054905010610d37576040517f08c379a0000000000000000000000000000000000000000000000000000000008152600401610d2e90612ad6565b60405180910390fd5b600560003373ffffffffffffffffffffffffffffffffffffffff1673ffffffffffffffffffffffffffffffffffffffff16815260200190815260200160002081908060018154018082558091505060019003906000526020600020016000909190919091509081610da89190612af6565b5033600482604051610dba9190612497565b908152602001604051809103902060006101000a81548173ffffffffffffffffffffffffffffffffffffffff021916908373ffffffffffffffffffffffffffffffffffffffff160217905550600180811115610e1957610e1861201a565b5b600060149054906101000a900460ff166001811115610e3b57610e3a61201a565b5b03610e7c576001600882604051610e529190612497565b908152602001604051809103902060006101000a81548160ff021916908315150217905550610eb4565b6000600882604051610e8e9190612497565b908152602001604051809103902060006101000a81548160ff0219169083151502179055505b7fee06bd32f8b2583fd50c0dd94d872913c9fe17bb486e0f9d4b4865752d79efa033600883604051610ee69190612497565b908152602001604051809103902060009054906101000a900460ff16604051610f10929190612bc8565b60405180910390a150565b610f23611a24565b6000600160009054906101000a900473ffffffffffffffffffffffffffffffffffffffff1673ffffffffffffffffffffffffffffffffffffffff166340a24c67856040518263ffffffff1660e01b8152600401610f809190611cee565b600060405180830381865afa158015610f9d573d6000803e3d6000fd5b505050506040513d6000823e3d601f19601f82011682018060405250810190610fc69190612d7d565b9050610fd0611bb7565b6000808360800151905060006001811115610fee57610fed61201a565b5b8160018111156110015761100061201a565b5b0361100f5760009150611014565b600191505b818360a00190600181111561102c5761102b61201a565b5b908160018111156110405761103f61201a565b5b8152505083604001518360200181815250508360600151836040019073ffffffffffffffffffffffffffffffffffffffff16908173ffffffffffffffffffffffffffffffffffffffff16815250508683600001818152505085836060018181525050848360800181815250508260096000898152602001908152602001600020600082015181600001556020820151816001015560408201518160020160006101000a81548173ffffffffffffffffffffffffffffffffffffffff021916908373ffffffffffffffffffffffffffffffffffffffff160217905550606082015181600301556080820151816004015560a08201518160050160006101000a81548160ff0219169083600181111561115a5761115961201a565b5b021790555090505050505050505050565b611173611bb7565b600960008381526020019081526020016000206040518060c001604052908160008201548152602001600182015481526020016002820160009054906101000a900473ffffffffffffffffffffffffffffffffffffffff1673ffffffffffffffffffffffffffffffffffffffff1673ffffffffffffffffffffffffffffffffffffffff16815260200160038201548152602001600482015481526020016005820160009054906101000a900460ff1660018111156112345761123361201a565b5b60018111156112465761124561201a565b5b815250509050919050565b6000600160009054906101000a900473ffffffffffffffffffffffffffffffffffffffff1673ffffffffffffffffffffffffffffffffffffffff166340a24c67846040518263ffffffff1660e01b81526004016112ae9190611cee565b600060405180830381865afa1580156112cb573d6000803e3d6000fd5b505050506040513d6000823e3d601f19601f820116820180604052508101906112f49190612d7d565b90506000816080015190506000808360a00151905060006113148761116b565b905060008160600151905060008060018111156113345761133361201a565b5b8660018111156113475761134661201a565b5b036113635760009450818461135c9190612dc6565b9050611377565b600194506001826113749190612dc6565b90505b6000600660008a73ffffffffffffffffffffffffffffffffffffffff1673ffffffffffffffffffffffffffffffffffffffff168152602001908152602001600020549050818110156113fe576040517f08c379a00000000000000000000000000000000000000000000000000000000081526004016113f590612e7a565b60405180910390fd5b50505050505050505050565b611412611a24565b60006007826040516114249190612497565b908152602001604051809103902060006101000a81548160ff02191690831515021790555050565b611454611bb7565b600960008381526020019081526020016000206040518060c001604052908160008201548152602001600182015481526020016002820160009054906101000a900473ffffffffffffffffffffffffffffffffffffffff1673ffffffffffffffffffffffffffffffffffffffff1673ffffffffffffffffffffffffffffffffffffffff16815260200160038201548152602001600482015481526020016005820160009054906101000a900460ff1660018111156115155761151461201a565b5b60018111156115275761152661201a565b5b815250509050919050565b6007856040516115429190612497565b908152602001604051809103902060009054906101000a900460ff161561159e576040517f08c379a000000000000000000000000000000000000000000000000000000000815260040161159590612ee6565b60405180910390fd5b6008856040516115ae9190612497565b908152602001604051809103902060009054906101000a900460ff16611609576040517f08c379a000000000000000000000000000000000000000000000000000000000815260040161160090612f52565b60405180910390fd5b60006116148561116b565b905060008160a001519050611627611c15565b6000600181111561163b5761163a61201a565b5b82600181111561164e5761164d61201a565b5b036116d957848661165f91906123c9565b8160a0018181525050826060015181600001818152505082608001518160200181815250508481602001516116949190612dc6565b8682600001516116a49190612dc6565b6116ae91906123c9565b8160400181815250508060a0015183602001516116cb9190612dc6565b816080018181525050611712565b82606001518160000181815250508260200151816060018181525050806000015181604001818152505080606001518160800181815250505b600061171d89610a46565b9050600084604001519050600260009054906101000a900473ffffffffffffffffffffffffffffffffffffffff1673ffffffffffffffffffffffffffffffffffffffff1663a9059cbb8385604001516040518363ffffffff1660e01b81526004016117899291906123fd565b6020604051808303816000875af11580156117a8573d6000803e3d6000fd5b505050506040513d601f19601f820116820180604052508101906117cc919061236d565b6117d557600080fd5b600260009054906101000a900473ffffffffffffffffffffffffffffffffffffffff1673ffffffffffffffffffffffffffffffffffffffff1663a9059cbb8285608001516040518363ffffffff1660e01b81526004016118369291906123fd565b6020604051808303816000875af1158015611855573d6000803e3d6000fd5b505050506040513d601f19601f82011682018060405250810190611879919061236d565b61188257600080fd5b7fe682774c095c98275661d05ff664616a641de1592fa52e2412789919e84b01ad8b8a848b8b886080015189604001516118bc91906123c9565b8c426040516118d2989796959493929190612f72565b60405180910390a17f634235fcf5af0adbca1a405ec65f6f6c08f55e1f379c2c45cd10f23cb29e0e31828a856040015160405161191193929190612ff0565b60405180910390a15050505050505050505050565b61192e611a24565b600073ffffffffffffffffffffffffffffffffffffffff168173ffffffffffffffffffffffffffffffffffffffff16036119a05760006040517f1e4fbdf70000000000000000000000000000000000000000000000000000000081526004016119979190611f58565b60405180910390fd5b6119a981611aab565b50565b6008818051602081018201805184825260208301602085012081835280955050505050506000915054906101000a900460ff1681565b6119ea611a24565b60016007826040516119fc9190612497565b908152602001604051809103902060006101000a81548160ff02191690831515021790555050565b611a2c611b6f565b73ffffffffffffffffffffffffffffffffffffffff16611a4a610b1f565b73ffffffffffffffffffffffffffffffffffffffff1614611aa957611a6d611b6f565b6040517f118cdaa7000000000000000000000000000000000000000000000000000000008152600401611aa09190611f58565b60405180910390fd5b565b60008060009054906101000a900473ffffffffffffffffffffffffffffffffffffffff169050816000806101000a81548173ffffffffffffffffffffffffffffffffffffffff021916908373ffffffffffffffffffffffffffffffffffffffff1602179055508173ffffffffffffffffffffffffffffffffffffffff168173ffffffffffffffffffffffffffffffffffffffff167f8be0079c531659141344cd1fd0a4f28419497f9722a3daafe3b4186f6b6457e060405160405180910390a35050565b600033905090565b508054611b8390612589565b6000825580601f10611b955750611bb4565b601f016020900490600052602060002090810190611bb39190611c4b565b5b50565b6040518060c001604052806000815260200160008152602001600073ffffffffffffffffffffffffffffffffffffffff168152602001600081526020016000815260200160006001811115611c0f57611c0e61201a565b5b81525090565b6040518060c001604052806000815260200160008152602001600081526020016000815260200160008152602001600081525090565b5b80821115611c64576000816000905550600101611c4c565b5090565b6000604051905090565b600080fd5b600080fd5b6000819050919050565b611c8f81611c7c565b8114611c9a57600080fd5b50565b600081359050611cac81611c86565b92915050565b600060208284031215611cc857611cc7611c72565b5b6000611cd684828501611c9d565b91505092915050565b611ce881611c7c565b82525050565b6000602082019050611d036000830184611cdf565b92915050565b600080fd5b600080fd5b6000601f19601f8301169050919050565b7f4e487b7100000000000000000000000000000000000000000000000000000000600052604160045260246000fd5b611d5c82611d13565b810181811067ffffffffffffffff82111715611d7b57611d7a611d24565b5b80604052505050565b6000611d8e611c68565b9050611d9a8282611d53565b919050565b600067ffffffffffffffff821115611dba57611db9611d24565b5b611dc382611d13565b9050602081019050919050565b82818337600083830152505050565b6000611df2611ded84611d9f565b611d84565b905082815260208101848484011115611e0e57611e0d611d0e565b5b611e19848285611dd0565b509392505050565b600082601f830112611e3657611e35611d09565b5b8135611e46848260208601611ddf565b91505092915050565b600060208284031215611e6557611e64611c72565b5b600082013567ffffffffffffffff811115611e8357611e82611c77565b5b611e8f84828501611e21565b91505092915050565b600073ffffffffffffffffffffffffffffffffffffffff82169050919050565b6000611ec382611e98565b9050919050565b611ed381611eb8565b8114611ede57600080fd5b50565b600081359050611ef081611eca565b92915050565b600080600060608486031215611f0f57611f0e611c72565b5b6000611f1d86828701611c9d565b9350506020611f2e86828701611c9d565b9250506040611f3f86828701611ee1565b9150509250925092565b611f5281611eb8565b82525050565b6000602082019050611f6d6000830184611f49565b92915050565b60008115159050919050565b611f8881611f73565b82525050565b6000602082019050611fa36000830184611f7f565b92915050565b600080600060608486031215611fc257611fc1611c72565b5b6000611fd086828701611c9d565b9350506020611fe186828701611c9d565b9250506040611ff286828701611c9d565b9150509250925092565b61200581611c7c565b82525050565b61201481611eb8565b82525050565b7f4e487b7100000000000000000000000000000000000000000000000000000000600052602160045260246000fd5b6002811061205a5761205961201a565b5b50565b600081905061206b82612049565b919050565b600061207b8261205d565b9050919050565b61208b81612070565b82525050565b60c0820160008201516120a76000850182611ffc565b5060208201516120ba6020850182611ffc565b5060408201516120cd604085018261200b565b5060608201516120e06060850182611ffc565b5060808201516120f36080850182611ffc565b5060a082015161210660a0850182612082565b50505050565b600060c0820190506121216000830184612091565b92915050565b6000806040838503121561213e5761213d611c72565b5b600061214c85828601611c9d565b925050602061215d85828601611ee1565b9150509250929050565b60008060008060008060c0878903121561218457612183611c72565b5b600061219289828a01611c9d565b965050602087013567ffffffffffffffff8111156121b3576121b2611c77565b5b6121bf89828a01611e21565b95505060406121d089828a01611c9d565b94505060606121e189828a01611c9d565b93505060806121f289828a01611c9d565b92505060a061220389828a01611c9d565b9150509295509295509295565b60006020828403121561222657612225611c72565b5b600061223484828501611ee1565b91505092915050565b61224681611c7c565b82525050565b6000819050919050565b6000819050919050565b600061227b6122766122718461224c565b612256565b611c7c565b9050919050565b61228b81612260565b82525050565b60006060820190506122a6600083018661223d565b6122b36020830185612282565b6122c0604083018461223d565b949350505050565b6000815190506122d781611c86565b92915050565b6000602082840312156122f3576122f2611c72565b5b6000612301848285016122c8565b91505092915050565b600060608201905061231f6000830186611f49565b61232c6020830185611f49565b6123396040830184611cdf565b949350505050565b61234a81611f73565b811461235557600080fd5b50565b60008151905061236781612341565b92915050565b60006020828403121561238357612382611c72565b5b600061239184828501612358565b91505092915050565b7f4e487b7100000000000000000000000000000000000000000000000000000000600052601160045260246000fd5b60006123d482611c7c565b91506123df83611c7c565b92508282019050808211156123f7576123f661239a565b5b92915050565b60006040820190506124126000830185611f49565b61241f6020830184611cdf565b9392505050565b600081519050919050565b600081905092915050565b60005b8381101561245a57808201518184015260208101905061243f565b60008484015250505050565b600061247182612426565b61247b8185612431565b935061248b81856020860161243c565b80840191505092915050565b60006124a38284612466565b915081905092915050565b600082825260208201905092915050565b7f4e6f7420796f757220776f726b6572206b657900000000000000000000000000600082015250565b60006124f56013836124ae565b9150612500826124bf565b602082019050919050565b60006020820190508181036000830152612524816124e8565b9050919050565b7f4e487b7100000000000000000000000000000000000000000000000000000000600052603260045260246000fd5b7f4e487b7100000000000000000000000000000000000000000000000000000000600052602260045260246000fd5b600060028204905060018216806125a157607f821691505b6020821081036125b4576125b361255a565b5b50919050565b600081905092915050565b60008190508160005260206000209050919050565b600081546125e781612589565b6125f181866125ba565b9450600182166000811461260c576001811461262157612654565b60ff1983168652811515820286019350612654565b61262a856125c5565b60005b8381101561264c5781548189015260018201915060208101905061262d565b838801955050505b50505092915050565b600061266982846125da565b915081905092915050565b600061267f82611c7c565b915061268a83611c7c565b92508282039050818111156126a2576126a161239a565b5b92915050565b6000815490506126b781612589565b9050919050565b60008190508160005260206000209050919050565b60008190508160005260206000209050919050565b60006020601f8301049050919050565b600082821b905092915050565b6000600883026127357fffffffffffffffffffffffffffffffffffffffffffffffffffffffffffffffff826126f8565b61273f86836126f8565b95508019841693508086168417925050509392505050565b600061277261276d61276884611c7c565b612256565b611c7c565b9050919050565b6000819050919050565b61278c83612757565b6127a061279882612779565b848454612705565b825550505050565b600090565b6127b56127a8565b6127c0818484612783565b505050565b5b818110156127e4576127d96000826127ad565b6001810190506127c6565b5050565b601f821115612829576127fa816126be565b612803846126e8565b81016020851015612812578190505b61282661281e856126e8565b8301826127c5565b50505b505050565b600082821c905092915050565b600061284c6000198460080261282e565b1980831691505092915050565b6000612865838361283b565b9150826002028217905092915050565b81810361288357505061295b565b61288c826126a8565b67ffffffffffffffff8111156128a5576128a4611d24565b5b6128af8254612589565b6128ba8282856127e8565b6000601f8311600181146128e957600084156128d7578287015490505b6128e18582612859565b865550612954565b601f1984166128f7876126d3565b9650612902866126be565b60005b8281101561292a57848901548255600182019150600185019450602081019050612905565b868310156129475784890154612943601f89168261283b565b8355505b6001600288020188555050505b5050505050505b565b7f4e487b7100000000000000000000000000000000000000000000000000000000600052603160045260246000fd5b7f54686973206b657920697320696e20626c61636b6c6973740000000000000000600082015250565b60006129c26018836124ae565b91506129cd8261298c565b602082019050919050565b600060208201905081810360008301526129f1816129b5565b9050919050565b7f4b657920616c7265616479207265676973746572656400000000000000000000600082015250565b6000612a2e6016836124ae565b9150612a39826129f8565b602082019050919050565b60006020820190508181036000830152612a5d81612a21565b9050919050565b7f4d6178696d756d206e756d626572206f6620776f726b6572732028323029207260008201527f6561636865640000000000000000000000000000000000000000000000000000602082015250565b6000612ac06026836124ae565b9150612acb82612a64565b604082019050919050565b60006020820190508181036000830152612aef81612ab3565b9050919050565b612aff82612426565b67ffffffffffffffff811115612b1857612b17611d24565b5b612b228254612589565b612b2d8282856127e8565b600060209050601f831160018114612b605760008415612b4e578287015190505b612b588582612859565b865550612bc0565b601f198416612b6e866126be565b60005b82811015612b9657848901518255600182019150602085019450602081019050612b71565b86831015612bb35784890151612baf601f89168261283b565b8355505b6001600288020188555050505b505050505050565b6000604082019050612bdd6000830185611f49565b612bea6020830184611f7f565b9392505050565b600080fd5b600080fd5b6000612c0e612c0984611d9f565b611d84565b905082815260208101848484011115612c2a57612c29611d0e565b5b612c3584828561243c565b509392505050565b600082601f830112612c5257612c51611d09565b5b8151612c62848260208601612bfb565b91505092915050565b600081519050612c7a81611eca565b92915050565b60028110612c8d57600080fd5b50565b600081519050612c9f81612c80565b92915050565b600060c08284031215612cbb57612cba612bf1565b5b612cc560c0611d84565b9050600082015167ffffffffffffffff811115612ce557612ce4612bf6565b5b612cf184828501612c3d565b600083015250602082015167ffffffffffffffff811115612d1557612d14612bf6565b5b612d2184828501612c3d565b6020830152506040612d35848285016122c8565b6040830152506060612d4984828501612c6b565b6060830152506080612d5d84828501612c90565b60808301525060a0612d71848285016122c8565b60a08301525092915050565b600060208284031215612d9357612d92611c72565b5b600082015167ffffffffffffffff811115612db157612db0611c77565b5b612dbd84828501612ca5565b91505092915050565b6000612dd182611c7c565b9150612ddc83611c7c565b9250828202612dea81611c7c565b91508282048414831517612e0157612e0061239a565b5b5092915050565b7f757365722062616c616e63652062656c6f77206d617820636f6e74657874207760008201527f696e646f77000000000000000000000000000000000000000000000000000000602082015250565b6000612e646025836124ae565b9150612e6f82612e08565b604082019050919050565b60006020820190508181036000830152612e9381612e57565b9050919050565b7f5468697320776f726b657220697320696e20626c61636b6c6973740000000000600082015250565b6000612ed0601b836124ae565b9150612edb82612e9a565b602082019050919050565b60006020820190508181036000830152612eff81612ec3565b9050919050565b7f5468697320776f726b6572206973206e6f742079657420617070726f76656400600082015250565b6000612f3c601f836124ae565b9150612f4782612f06565b602082019050919050565b60006020820190508181036000830152612f6b81612f2f565b9050919050565b600061010082019050612f88600083018b611cdf565b612f95602083018a611cdf565b612fa26040830189611f49565b612faf6060830188611cdf565b612fbc6080830187611cdf565b612fc960a0830186611cdf565b612fd660c0830185611cdf565b612fe360e0830184611cdf565b9998505050505050505050565b60006060820190506130056000830186611f49565b6130126020830185611cdf565b61301f6040830184611cdf565b94935050505056fea26469706673582212208542328304d9561a66aed525f2fbad6b9beecb274a1e976281f27a9ff7198ff064736f6c634300081c0033","opcodes":"PUSH1 0x80 PUSH1 0x40 MSTORE PUSH1 0x1 PUSH1 0x3 SSTORE CALLVALUE DUP1 ISZERO PUSH2 0x15 JUMPI PUSH1 0x0 DUP1 REVERT JUMPDEST POP PUSH1 0x40 MLOAD PUSH2 0x3340 CODESIZE SUB DUP1 PUSH2 0x3340 DUP4 CODECOPY DUP2 DUP2 ADD PUSH1 0x40 MSTORE DUP2 ADD SWAP1 PUSH2 0x37 SWAP2 SWAP1 PUSH2 0x26A JUMP JUMPDEST CALLER PUSH1 0x0 PUSH20 0xFFFFFFFFFFFFFFFFFFFFFFFFFFFFFFFFFFFFFFFF AND DUP2 PUSH20 0xFFFFFFFFFFFFFFFFFFFFFFFFFFFFFFFFFFFFFFFF AND SUB PUSH2 0xAA JUMPI PUSH1 0x0 PUSH1 0x40 MLOAD PUSH32 0x1E4FBDF700000000000000000000000000000000000000000000000000000000 DUP2 MSTORE PUSH1 0x4 ADD PUSH2 0xA1 SWAP2 SWAP1 PUSH2 0x2B9 JUMP JUMPDEST PUSH1 0x40 MLOAD DUP1 SWAP2 SUB SWAP1 REVERT JUMPDEST PUSH2 0xB9 DUP2 PUSH2 0x143 PUSH1 0x20 SHL PUSH1 0x20 SHR JUMP JUMPDEST POP DUP2 PUSH1 0x1 PUSH1 0x0 PUSH2 0x100 EXP DUP2 SLOAD DUP2 PUSH20 0xFFFFFFFFFFFFFFFFFFFFFFFFFFFFFFFFFFFFFFFF MUL NOT AND SWAP1 DUP4 PUSH20 0xFFFFFFFFFFFFFFFFFFFFFFFFFFFFFFFFFFFFFFFF AND MUL OR SWAP1 SSTORE POP DUP1 PUSH1 0x2 PUSH1 0x0 PUSH2 0x100 EXP DUP2 SLOAD DUP2 PUSH20 0xFFFFFFFFFFFFFFFFFFFFFFFFFFFFFFFFFFFFFFFF MUL NOT AND SWAP1 DUP4 PUSH20 0xFFFFFFFFFFFFFFFFFFFFFFFFFFFFFFFFFFFFFFFF AND MUL OR SWAP1 SSTORE POP POP POP PUSH2 0x2D4 JUMP JUMPDEST PUSH1 0x0 DUP1 PUSH1 0x0 SWAP1 SLOAD SWAP1 PUSH2 0x100 EXP SWAP1 DIV PUSH20 0xFFFFFFFFFFFFFFFFFFFFFFFFFFFFFFFFFFFFFFFF AND SWAP1 POP DUP2 PUSH1 0x0 DUP1 PUSH2 0x100 EXP DUP2 SLOAD DUP2 PUSH20 0xFFFFFFFFFFFFFFFFFFFFFFFFFFFFFFFFFFFFFFFF MUL NOT AND SWAP1 DUP4 PUSH20 0xFFFFFFFFFFFFFFFFFFFFFFFFFFFFFFFFFFFFFFFF AND MUL OR SWAP1 SSTORE POP DUP2 PUSH20 0xFFFFFFFFFFFFFFFFFFFFFFFFFFFFFFFFFFFFFFFF AND DUP2 PUSH20 0xFFFFFFFFFFFFFFFFFFFFFFFFFFFFFFFFFFFFFFFF AND PUSH32 0x8BE0079C531659141344CD1FD0A4F28419497F9722A3DAAFE3B4186F6B6457E0 PUSH1 0x40 MLOAD PUSH1 0x40 MLOAD DUP1 SWAP2 SUB SWAP1 LOG3 POP POP JUMP JUMPDEST PUSH1 0x0 DUP1 REVERT JUMPDEST PUSH1 0x0 PUSH20 0xFFFFFFFFFFFFFFFFFFFFFFFFFFFFFFFFFFFFFFFF DUP3 AND SWAP1 POP SWAP2 SWAP1 POP JUMP JUMPDEST PUSH1 0x0 PUSH2 0x237 DUP3 PUSH2 0x20C JUMP JUMPDEST SWAP1 POP SWAP2 SWAP1 POP JUMP JUMPDEST PUSH2 0x247 DUP2 PUSH2 0x22C JUMP JUMPDEST DUP2 EQ PUSH2 0x252 JUMPI PUSH1 0x0 DUP1 REVERT JUMPDEST POP JUMP JUMPDEST PUSH1 0x0 DUP2 MLOAD SWAP1 POP PUSH2 0x264 DUP2 PUSH2 0x23E JUMP JUMPDEST SWAP3 SWAP2 POP POP JUMP JUMPDEST PUSH1 0x0 DUP1 PUSH1 0x40 DUP4 DUP6 SUB SLT ISZERO PUSH2 0x281 JUMPI PUSH2 0x280 PUSH2 0x207 JUMP JUMPDEST JUMPDEST PUSH1 0x0 PUSH2 0x28F DUP6 DUP3 DUP7 ADD PUSH2 0x255 JUMP JUMPDEST SWAP3 POP POP PUSH1 0x20 PUSH2 0x2A0 DUP6 DUP3 DUP7 ADD PUSH2 0x255 JUMP JUMPDEST SWAP2 POP POP SWAP3 POP SWAP3 SWAP1 POP JUMP JUMPDEST PUSH2 0x2B3 DUP2 PUSH2 0x22C JUMP JUMPDEST DUP3 MSTORE POP POP JUMP JUMPDEST PUSH1 0x0 PUSH1 0x20 DUP3 ADD SWAP1 POP PUSH2 0x2CE PUSH1 0x0 DUP4 ADD DUP5 PUSH2 0x2AA JUMP JUMPDEST SWAP3 SWAP2 POP POP JUMP JUMPDEST PUSH2 0x305D DUP1 PUSH2 0x2E3 PUSH1 0x0 CODECOPY PUSH1 0x0 RETURN INVALID PUSH1 0x80 PUSH1 0x40 MSTORE CALLVALUE DUP1 ISZERO PUSH2 0x10 JUMPI PUSH1 0x0 DUP1 REVERT JUMPDEST POP PUSH1 0x4 CALLDATASIZE LT PUSH2 0x137 JUMPI PUSH1 0x0 CALLDATALOAD PUSH1 0xE0 SHR DUP1 PUSH4 0x97C37D6B GT PUSH2 0xB8 JUMPI DUP1 PUSH4 0xBAD3191A GT PUSH2 0x7C JUMPI DUP1 PUSH4 0xBAD3191A EQ PUSH2 0x334 JUMPI DUP1 PUSH4 0xBBFB8CAA EQ PUSH2 0x350 JUMPI DUP1 PUSH4 0xC7567CD7 EQ PUSH2 0x380 JUMPI DUP1 PUSH4 0xF2FDE38B EQ PUSH2 0x39C JUMPI DUP1 PUSH4 0xF31FBC9F EQ PUSH2 0x3B8 JUMPI DUP1 PUSH4 0xF6BD2AC8 EQ PUSH2 0x3E8 JUMPI PUSH2 0x137 JUMP JUMPDEST DUP1 PUSH4 0x97C37D6B EQ PUSH2 0x280 JUMPI DUP1 PUSH4 0x9FCD8C9D EQ PUSH2 0x2B0 JUMPI DUP1 PUSH4 0xAA389692 EQ PUSH2 0x2CC JUMPI DUP1 PUSH4 0xAD7922D5 EQ PUSH2 0x2E8 JUMPI DUP1 PUSH4 0xB9359EA2 EQ PUSH2 0x318 JUMPI PUSH2 0x137 JUMP JUMPDEST DUP1 PUSH4 0x421D2777 GT PUSH2 0xFF JUMPI DUP1 PUSH4 0x421D2777 EQ PUSH2 0x1DC JUMPI DUP1 PUSH4 0x431F90F3 EQ PUSH2 0x20C JUMPI DUP1 PUSH4 0x715018A6 EQ PUSH2 0x228 JUMPI DUP1 PUSH4 0x8C0233E9 EQ PUSH2 0x232 JUMPI DUP1 PUSH4 0x8DA5CB5B EQ PUSH2 0x262 JUMPI PUSH2 0x137 JUMP JUMPDEST DUP1 PUSH4 0xE5FD6D7 EQ PUSH2 0x13C JUMPI DUP1 PUSH4 0x1B988CE4 EQ PUSH2 0x16C JUMPI DUP1 PUSH4 0x1E99F349 EQ PUSH2 0x188 JUMPI DUP1 PUSH4 0x27801534 EQ PUSH2 0x1A4 JUMPI DUP1 PUSH4 0x3266E290 EQ PUSH2 0x1C0 JUMPI JUMPDEST PUSH1 0x0 DUP1 REVERT JUMPDEST PUSH2 0x156 PUSH1 0x4 DUP1 CALLDATASIZE SUB DUP2 ADD SWAP1 PUSH2 0x151 SWAP2 SWAP1 PUSH2 0x1CB2 JUMP JUMPDEST PUSH2 0x404 JUMP JUMPDEST PUSH1 0x40 MLOAD PUSH2 0x163 SWAP2 SWAP1 PUSH2 0x1CEE JUMP JUMPDEST PUSH1 0x40 MLOAD DUP1 SWAP2 SUB SWAP1 RETURN JUMPDEST PUSH2 0x186 PUSH1 0x4 DUP1 CALLDATASIZE SUB DUP2 ADD SWAP1 PUSH2 0x181 SWAP2 SWAP1 PUSH2 0x1CB2 JUMP JUMPDEST PUSH2 0x491 JUMP JUMPDEST STOP JUMPDEST PUSH2 0x1A2 PUSH1 0x4 DUP1 CALLDATASIZE SUB DUP2 ADD SWAP1 PUSH2 0x19D SWAP2 SWAP1 PUSH2 0x1E4F JUMP JUMPDEST PUSH2 0x5CE JUMP JUMPDEST STOP JUMPDEST PUSH2 0x1BE PUSH1 0x4 DUP1 CALLDATASIZE SUB DUP2 ADD SWAP1 PUSH2 0x1B9 SWAP2 SWAP1 PUSH2 0x1CB2 JUMP JUMPDEST PUSH2 0x7E9 JUMP JUMPDEST STOP JUMPDEST PUSH2 0x1DA PUSH1 0x4 DUP1 CALLDATASIZE SUB DUP2 ADD SWAP1 PUSH2 0x1D5 SWAP2 SWAP1 PUSH2 0x1EF6 JUMP JUMPDEST PUSH2 0x865 JUMP JUMPDEST STOP JUMPDEST PUSH2 0x1F6 PUSH1 0x4 DUP1 CALLDATASIZE SUB DUP2 ADD SWAP1 PUSH2 0x1F1 SWAP2 SWAP1 PUSH2 0x1E4F JUMP JUMPDEST PUSH2 0xA46 JUMP JUMPDEST PUSH1 0x40 MLOAD PUSH2 0x203 SWAP2 SWAP1 PUSH2 0x1F58 JUMP JUMPDEST PUSH1 0x40 MLOAD DUP1 SWAP2 SUB SWAP1 RETURN JUMPDEST PUSH2 0x226 PUSH1 0x4 DUP1 CALLDATASIZE SUB DUP2 ADD SWAP1 PUSH2 0x221 SWAP2 SWAP1 PUSH2 0x1E4F JUMP JUMPDEST PUSH2 0xA93 JUMP JUMPDEST STOP JUMPDEST PUSH2 0x230 PUSH2 0xAD5 JUMP JUMPDEST STOP JUMPDEST PUSH2 0x24C PUSH1 0x4 DUP1 CALLDATASIZE SUB DUP2 ADD SWAP1 PUSH2 0x247 SWAP2 SWAP1 PUSH2 0x1E4F JUMP JUMPDEST PUSH2 0xAE9 JUMP JUMPDEST PUSH1 0x40 MLOAD PUSH2 0x259 SWAP2 SWAP1 PUSH2 0x1F8E JUMP JUMPDEST PUSH1 0x40 MLOAD DUP1 SWAP2 SUB SWAP1 RETURN JUMPDEST PUSH2 0x26A PUSH2 0xB1F JUMP JUMPDEST PUSH1 0x40 MLOAD PUSH2 0x277 SWAP2 SWAP1 PUSH2 0x1F58 JUMP JUMPDEST PUSH1 0x40 MLOAD DUP1 SWAP2 SUB SWAP1 RETURN JUMPDEST PUSH2 0x29A PUSH1 0x4 DUP1 CALLDATASIZE SUB DUP2 ADD SWAP1 PUSH2 0x295 SWAP2 SWAP1 PUSH2 0x1CB2 JUMP JUMPDEST PUSH2 0xB48 JUMP JUMPDEST PUSH1 0x40 MLOAD PUSH2 0x2A7 SWAP2 SWAP1 PUSH2 0x1CEE JUMP JUMPDEST PUSH1 0x40 MLOAD DUP1 SWAP2 SUB SWAP1 RETURN JUMPDEST PUSH2 0x2CA PUSH1 0x4 DUP1 CALLDATASIZE SUB DUP2 ADD SWAP1 PUSH2 0x2C5 SWAP2 SWAP1 PUSH2 0x1E4F JUMP JUMPDEST PUSH2 0xB99 JUMP JUMPDEST STOP JUMPDEST PUSH2 0x2E6 PUSH1 0x4 DUP1 CALLDATASIZE SUB DUP2 ADD SWAP1 PUSH2 0x2E1 SWAP2 SWAP1 PUSH2 0x1FA9 JUMP JUMPDEST PUSH2 0xF1B JUMP JUMPDEST STOP JUMPDEST PUSH2 0x302 PUSH1 0x4 DUP1 CALLDATASIZE SUB DUP2 ADD SWAP1 PUSH2 0x2FD SWAP2 SWAP1 PUSH2 0x1CB2 JUMP JUMPDEST PUSH2 0x116B JUMP JUMPDEST PUSH1 0x40 MLOAD PUSH2 0x30F SWAP2 SWAP1 PUSH2 0x210C JUMP JUMPDEST PUSH1 0x40 MLOAD DUP1 SWAP2 SUB SWAP1 RETURN JUMPDEST PUSH2 0x332 PUSH1 0x4 DUP1 CALLDATASIZE SUB DUP2 ADD SWAP1 PUSH2 0x32D SWAP2 SWAP1 PUSH2 0x2127 JUMP JUMPDEST PUSH2 0x1251 JUMP JUMPDEST STOP JUMPDEST PUSH2 0x34E PUSH1 0x4 DUP1 CALLDATASIZE SUB DUP2 ADD SWAP1 PUSH2 0x349 SWAP2 SWAP1 PUSH2 0x1E4F JUMP JUMPDEST PUSH2 0x140A JUMP JUMPDEST STOP JUMPDEST PUSH2 0x36A PUSH1 0x4 DUP1 CALLDATASIZE SUB DUP2 ADD SWAP1 PUSH2 0x365 SWAP2 SWAP1 PUSH2 0x1CB2 JUMP JUMPDEST PUSH2 0x144C JUMP JUMPDEST PUSH1 0x40 MLOAD PUSH2 0x377 SWAP2 SWAP1 PUSH2 0x210C JUMP JUMPDEST PUSH1 0x40 MLOAD DUP1 SWAP2 SUB SWAP1 RETURN JUMPDEST PUSH2 0x39A PUSH1 0x4 DUP1 CALLDATASIZE SUB DUP2 ADD SWAP1 PUSH2 0x395 SWAP2 SWAP1 PUSH2 0x2167 JUMP JUMPDEST PUSH2 0x1532 JUMP JUMPDEST STOP JUMPDEST PUSH2 0x3B6 PUSH1 0x4 DUP1 CALLDATASIZE SUB DUP2 ADD SWAP1 PUSH2 0x3B1 SWAP2 SWAP1 PUSH2 0x2210 JUMP JUMPDEST PUSH2 0x1926 JUMP JUMPDEST STOP JUMPDEST PUSH2 0x3D2 PUSH1 0x4 DUP1 CALLDATASIZE SUB DUP2 ADD SWAP1 PUSH2 0x3CD SWAP2 SWAP1 PUSH2 0x1E4F JUMP JUMPDEST PUSH2 0x19AC JUMP JUMPDEST PUSH1 0x40 MLOAD PUSH2 0x3DF SWAP2 SWAP1 PUSH2 0x1F8E JUMP JUMPDEST PUSH1 0x40 MLOAD DUP1 SWAP2 SUB SWAP1 RETURN JUMPDEST PUSH2 0x402 PUSH1 0x4 DUP1 CALLDATASIZE SUB DUP2 ADD SWAP1 PUSH2 0x3FD SWAP2 SWAP1 PUSH2 0x1E4F JUMP JUMPDEST PUSH2 0x19E2 JUMP JUMPDEST STOP JUMPDEST PUSH1 0x0 DUP1 PUSH20 0x0 PUSH4 0xA285B894 DUP5 PUSH1 0x64 PUSH1 0x3 SLOAD PUSH1 0x40 MLOAD DUP5 PUSH4 0xFFFFFFFF AND PUSH1 0xE0 SHL DUP2 MSTORE PUSH1 0x4 ADD PUSH2 0x445 SWAP4 SWAP3 SWAP2 SWAP1 PUSH2 0x2291 JUMP JUMPDEST PUSH1 0x20 PUSH1 0x40 MLOAD DUP1 DUP4 SUB DUP2 DUP7 GAS DELEGATECALL ISZERO DUP1 ISZERO PUSH2 0x462 JUMPI RETURNDATASIZE PUSH1 0x0 DUP1 RETURNDATACOPY RETURNDATASIZE PUSH1 0x0 REVERT JUMPDEST POP POP POP POP PUSH1 0x40 MLOAD RETURNDATASIZE PUSH1 0x1F NOT PUSH1 0x1F DUP3 ADD AND DUP3 ADD DUP1 PUSH1 0x40 MSTORE POP DUP2 ADD SWAP1 PUSH2 0x486 SWAP2 SWAP1 PUSH2 0x22DD JUMP JUMPDEST SWAP1 POP DUP1 SWAP2 POP POP SWAP2 SWAP1 POP JUMP JUMPDEST PUSH1 0x2 PUSH1 0x0 SWAP1 SLOAD SWAP1 PUSH2 0x100 EXP SWAP1 DIV PUSH20 0xFFFFFFFFFFFFFFFFFFFFFFFFFFFFFFFFFFFFFFFF AND PUSH20 0xFFFFFFFFFFFFFFFFFFFFFFFFFFFFFFFFFFFFFFFF AND PUSH4 0x23B872DD CALLER ADDRESS DUP5 PUSH1 0x40 MLOAD DUP5 PUSH4 0xFFFFFFFF AND PUSH1 0xE0 SHL DUP2 MSTORE PUSH1 0x4 ADD PUSH2 0x4F0 SWAP4 SWAP3 SWAP2 SWAP1 PUSH2 0x230A JUMP JUMPDEST PUSH1 0x20 PUSH1 0x40 MLOAD DUP1 DUP4 SUB DUP2 PUSH1 0x0 DUP8 GAS CALL ISZERO DUP1 ISZERO PUSH2 0x50F JUMPI RETURNDATASIZE PUSH1 0x0 DUP1 RETURNDATACOPY RETURNDATASIZE PUSH1 0x0 REVERT JUMPDEST POP POP POP POP PUSH1 0x40 MLOAD RETURNDATASIZE PUSH1 0x1F NOT PUSH1 0x1F DUP3 ADD AND DUP3 ADD DUP1 PUSH1 0x40 MSTORE POP DUP2 ADD SWAP1 PUSH2 0x533 SWAP2 SWAP1 PUSH2 0x236D JUMP JUMPDEST PUSH2 0x53C JUMPI PUSH1 0x0 DUP1 REVERT JUMPDEST DUP1 PUSH1 0x6 PUSH1 0x0 CALLER PUSH20 0xFFFFFFFFFFFFFFFFFFFFFFFFFFFFFFFFFFFFFFFF AND PUSH20 0xFFFFFFFFFFFFFFFFFFFFFFFFFFFFFFFFFFFFFFFF AND DUP2 MSTORE PUSH1 0x20 ADD SWAP1 DUP2 MSTORE PUSH1 0x20 ADD PUSH1 0x0 KECCAK256 PUSH1 0x0 DUP3 DUP3 SLOAD PUSH2 0x58B SWAP2 SWAP1 PUSH2 0x23C9 JUMP JUMPDEST SWAP3 POP POP DUP2 SWAP1 SSTORE POP PUSH32 0xE1FFFCC4923D04B559F4D29A8BFC6CDA04EB5B0D3C460751C2402C5C5CC9109C CALLER DUP3 PUSH1 0x40 MLOAD PUSH2 0x5C3 SWAP3 SWAP2 SWAP1 PUSH2 0x23FD JUMP JUMPDEST PUSH1 0x40 MLOAD DUP1 SWAP2 SUB SWAP1 LOG1 POP JUMP JUMPDEST CALLER PUSH20 0xFFFFFFFFFFFFFFFFFFFFFFFFFFFFFFFFFFFFFFFF AND PUSH1 0x4 DUP3 PUSH1 0x40 MLOAD PUSH2 0x5F5 SWAP2 SWAP1 PUSH2 0x2497 JUMP JUMPDEST SWAP1 DUP2 MSTORE PUSH1 0x20 ADD PUSH1 0x40 MLOAD DUP1 SWAP2 SUB SWAP1 KECCAK256 PUSH1 0x0 SWAP1 SLOAD SWAP1 PUSH2 0x100 EXP SWAP1 DIV PUSH20 0xFFFFFFFFFFFFFFFFFFFFFFFFFFFFFFFFFFFFFFFF AND PUSH20 0xFFFFFFFFFFFFFFFFFFFFFFFFFFFFFFFFFFFFFFFF AND EQ PUSH2 0x67A JUMPI PUSH1 0x40 MLOAD PUSH32 0x8C379A000000000000000000000000000000000000000000000000000000000 DUP2 MSTORE PUSH1 0x4 ADD PUSH2 0x671 SWAP1 PUSH2 0x250B JUMP JUMPDEST PUSH1 0x40 MLOAD DUP1 SWAP2 SUB SWAP1 REVERT JUMPDEST PUSH1 0x0 PUSH1 0x5 PUSH1 0x0 CALLER PUSH20 0xFFFFFFFFFFFFFFFFFFFFFFFFFFFFFFFFFFFFFFFF AND PUSH20 0xFFFFFFFFFFFFFFFFFFFFFFFFFFFFFFFFFFFFFFFF AND DUP2 MSTORE PUSH1 0x20 ADD SWAP1 DUP2 MSTORE PUSH1 0x20 ADD PUSH1 0x0 KECCAK256 SWAP1 POP PUSH1 0x0 JUMPDEST DUP2 DUP1 SLOAD SWAP1 POP DUP2 LT ISZERO PUSH2 0x7A3 JUMPI DUP3 DUP1 MLOAD SWAP1 PUSH1 0x20 ADD KECCAK256 DUP3 DUP3 DUP2 SLOAD DUP2 LT PUSH2 0x6E7 JUMPI PUSH2 0x6E6 PUSH2 0x252B JUMP JUMPDEST JUMPDEST SWAP1 PUSH1 0x0 MSTORE PUSH1 0x20 PUSH1 0x0 KECCAK256 ADD PUSH1 0x40 MLOAD PUSH2 0x6FE SWAP2 SWAP1 PUSH2 0x265D JUMP JUMPDEST PUSH1 0x40 MLOAD DUP1 SWAP2 SUB SWAP1 KECCAK256 SUB PUSH2 0x796 JUMPI DUP2 PUSH1 0x1 DUP4 DUP1 SLOAD SWAP1 POP PUSH2 0x71D SWAP2 SWAP1 PUSH2 0x2674 JUMP JUMPDEST DUP2 SLOAD DUP2 LT PUSH2 0x72E JUMPI PUSH2 0x72D PUSH2 0x252B JUMP JUMPDEST JUMPDEST SWAP1 PUSH1 0x0 MSTORE PUSH1 0x20 PUSH1 0x0 KECCAK256 ADD DUP3 DUP3 DUP2 SLOAD DUP2 LT PUSH2 0x74B JUMPI PUSH2 0x74A PUSH2 0x252B JUMP JUMPDEST JUMPDEST SWAP1 PUSH1 0x0 MSTORE PUSH1 0x20 PUSH1 0x0 KECCAK256 ADD SWAP1 DUP2 PUSH2 0x761 SWAP2 SWAP1 PUSH2 0x2875 JUMP JUMPDEST POP DUP2 DUP1 SLOAD DUP1 PUSH2 0x773 JUMPI PUSH2 0x772 PUSH2 0x295D JUMP JUMPDEST JUMPDEST PUSH1 0x1 SWAP1 SUB DUP2 DUP2 SWAP1 PUSH1 0x0 MSTORE PUSH1 0x20 PUSH1 0x0 KECCAK256 ADD PUSH1 0x0 PUSH2 0x78F SWAP2 SWAP1 PUSH2 0x1B77 JUMP JUMPDEST SWAP1 SSTORE PUSH2 0x7A3 JUMP JUMPDEST DUP1 DUP1 PUSH1 0x1 ADD SWAP2 POP POP PUSH2 0x6C0 JUMP JUMPDEST POP PUSH1 0x4 DUP3 PUSH1 0x40 MLOAD PUSH2 0x7B4 SWAP2 SWAP1 PUSH2 0x2497 JUMP JUMPDEST SWAP1 DUP2 MSTORE PUSH1 0x20 ADD PUSH1 0x40 MLOAD DUP1 SWAP2 SUB SWAP1 KECCAK256 PUSH1 0x0 PUSH2 0x100 EXP DUP2 SLOAD SWAP1 PUSH20 0xFFFFFFFFFFFFFFFFFFFFFFFFFFFFFFFFFFFFFFFF MUL NOT AND SWAP1 SSTORE POP POP JUMP JUMPDEST PUSH2 0x7F1 PUSH2 0x1A24 JUMP JUMPDEST PUSH1 0x9 PUSH1 0x0 DUP3 DUP2 MSTORE PUSH1 0x20 ADD SWAP1 DUP2 MSTORE PUSH1 0x20 ADD PUSH1 0x0 KECCAK256 PUSH1 0x0 DUP1 DUP3 ADD PUSH1 0x0 SWAP1 SSTORE PUSH1 0x1 DUP3 ADD PUSH1 0x0 SWAP1 SSTORE PUSH1 0x2 DUP3 ADD PUSH1 0x0 PUSH2 0x100 EXP DUP2 SLOAD SWAP1 PUSH20 0xFFFFFFFFFFFFFFFFFFFFFFFFFFFFFFFFFFFFFFFF MUL NOT AND SWAP1 SSTORE PUSH1 0x3 DUP3 ADD PUSH1 0x0 SWAP1 SSTORE PUSH1 0x4 DUP3 ADD PUSH1 0x0 SWAP1 SSTORE PUSH1 0x5 DUP3 ADD PUSH1 0x0 PUSH2 0x100 EXP DUP2 SLOAD SWAP1 PUSH1 0xFF MUL NOT AND SWAP1 SSTORE POP POP POP JUMP JUMPDEST PUSH2 0x86D PUSH2 0x1A24 JUMP JUMPDEST PUSH1 0x0 PUSH1 0x9 PUSH1 0x0 DUP6 DUP2 MSTORE PUSH1 0x20 ADD SWAP1 DUP2 MSTORE PUSH1 0x20 ADD PUSH1 0x0 KECCAK256 PUSH1 0x40 MLOAD DUP1 PUSH1 0xC0 ADD PUSH1 0x40 MSTORE SWAP1 DUP2 PUSH1 0x0 DUP3 ADD SLOAD DUP2 MSTORE PUSH1 0x20 ADD PUSH1 0x1 DUP3 ADD SLOAD DUP2 MSTORE PUSH1 0x20 ADD PUSH1 0x2 DUP3 ADD PUSH1 0x0 SWAP1 SLOAD SWAP1 PUSH2 0x100 EXP SWAP1 DIV PUSH20 0xFFFFFFFFFFFFFFFFFFFFFFFFFFFFFFFFFFFFFFFF AND PUSH20 0xFFFFFFFFFFFFFFFFFFFFFFFFFFFFFFFFFFFFFFFF AND PUSH20 0xFFFFFFFFFFFFFFFFFFFFFFFFFFFFFFFFFFFFFFFF AND DUP2 MSTORE PUSH1 0x20 ADD PUSH1 0x3 DUP3 ADD SLOAD DUP2 MSTORE PUSH1 0x20 ADD PUSH1 0x4 DUP3 ADD SLOAD DUP2 MSTORE PUSH1 0x20 ADD PUSH1 0x5 DUP3 ADD PUSH1 0x0 SWAP1 SLOAD SWAP1 PUSH2 0x100 EXP SWAP1 DIV PUSH1 0xFF AND PUSH1 0x1 DUP2 GT ISZERO PUSH2 0x930 JUMPI PUSH2 0x92F PUSH2 0x201A JUMP JUMPDEST JUMPDEST PUSH1 0x1 DUP2 GT ISZERO PUSH2 0x942 JUMPI PUSH2 0x941 PUSH2 0x201A JUMP JUMPDEST JUMPDEST DUP2 MSTORE POP POP SWAP1 POP DUP3 DUP2 PUSH1 0x20 ADD DUP2 DUP2 MSTORE POP POP DUP2 DUP2 PUSH1 0x40 ADD SWAP1 PUSH20 0xFFFFFFFFFFFFFFFFFFFFFFFFFFFFFFFFFFFFFFFF AND SWAP1 DUP2 PUSH20 0xFFFFFFFFFFFFFFFFFFFFFFFFFFFFFFFFFFFFFFFF AND DUP2 MSTORE POP POP DUP1 PUSH1 0x9 PUSH1 0x0 DUP7 DUP2 MSTORE PUSH1 0x20 ADD SWAP1 DUP2 MSTORE PUSH1 0x20 ADD PUSH1 0x0 KECCAK256 PUSH1 0x0 DUP3 ADD MLOAD DUP2 PUSH1 0x0 ADD SSTORE PUSH1 0x20 DUP3 ADD MLOAD DUP2 PUSH1 0x1 ADD SSTORE PUSH1 0x40 DUP3 ADD MLOAD DUP2 PUSH1 0x2 ADD PUSH1 0x0 PUSH2 0x100 EXP DUP2 SLOAD DUP2 PUSH20 0xFFFFFFFFFFFFFFFFFFFFFFFFFFFFFFFFFFFFFFFF MUL NOT AND SWAP1 DUP4 PUSH20 0xFFFFFFFFFFFFFFFFFFFFFFFFFFFFFFFFFFFFFFFF AND MUL OR SWAP1 SSTORE POP PUSH1 0x60 DUP3 ADD MLOAD DUP2 PUSH1 0x3 ADD SSTORE PUSH1 0x80 DUP3 ADD MLOAD DUP2 PUSH1 0x4 ADD SSTORE PUSH1 0xA0 DUP3 ADD MLOAD DUP2 PUSH1 0x5 ADD PUSH1 0x0 PUSH2 0x100 EXP DUP2 SLOAD DUP2 PUSH1 0xFF MUL NOT AND SWAP1 DUP4 PUSH1 0x1 DUP2 GT ISZERO PUSH2 0xA38 JUMPI PUSH2 0xA37 PUSH2 0x201A JUMP JUMPDEST JUMPDEST MUL OR SWAP1 SSTORE POP SWAP1 POP POP POP POP POP POP JUMP JUMPDEST PUSH1 0x0 DUP1 PUSH1 0x4 DUP4 PUSH1 0x40 MLOAD PUSH2 0xA59 SWAP2 SWAP1 PUSH2 0x2497 JUMP JUMPDEST SWAP1 DUP2 MSTORE PUSH1 0x20 ADD PUSH1 0x40 MLOAD DUP1 SWAP2 SUB SWAP1 KECCAK256 PUSH1 0x0 SWAP1 SLOAD SWAP1 PUSH2 0x100 EXP SWAP1 DIV PUSH20 0xFFFFFFFFFFFFFFFFFFFFFFFFFFFFFFFFFFFFFFFF AND SWAP1 POP DUP1 SWAP2 POP POP SWAP2 SWAP1 POP JUMP JUMPDEST PUSH2 0xA9B PUSH2 0x1A24 JUMP JUMPDEST PUSH1 0x1 PUSH1 0x8 DUP3 PUSH1 0x40 MLOAD PUSH2 0xAAD SWAP2 SWAP1 PUSH2 0x2497 JUMP JUMPDEST SWAP1 DUP2 MSTORE PUSH1 0x20 ADD PUSH1 0x40 MLOAD DUP1 SWAP2 SUB SWAP1 KECCAK256 PUSH1 0x0 PUSH2 0x100 EXP DUP2 SLOAD DUP2 PUSH1 0xFF MUL NOT AND SWAP1 DUP4 ISZERO ISZERO MUL OR SWAP1 SSTORE POP POP JUMP JUMPDEST PUSH2 0xADD PUSH2 0x1A24 JUMP JUMPDEST PUSH2 0xAE7 PUSH1 0x0 PUSH2 0x1AAB JUMP JUMPDEST JUMP JUMPDEST PUSH1 0x7 DUP2 DUP1 MLOAD PUSH1 0x20 DUP2 ADD DUP3 ADD DUP1 MLOAD DUP5 DUP3 MSTORE PUSH1 0x20 DUP4 ADD PUSH1 0x20 DUP6 ADD KECCAK256 DUP2 DUP4 MSTORE DUP1 SWAP6 POP POP POP POP POP POP PUSH1 0x0 SWAP2 POP SLOAD SWAP1 PUSH2 0x100 EXP SWAP1 DIV PUSH1 0xFF AND DUP2 JUMP JUMPDEST PUSH1 0x0 DUP1 PUSH1 0x0 SWAP1 SLOAD SWAP1 PUSH2 0x100 EXP SWAP1 DIV PUSH20 0xFFFFFFFFFFFFFFFFFFFFFFFFFFFFFFFFFFFFFFFF AND SWAP1 POP SWAP1 JUMP JUMPDEST PUSH1 0x0 DUP1 PUSH2 0xB54 DUP4 PUSH2 0x116B JUMP JUMPDEST SWAP1 POP PUSH1 0x0 DUP2 PUSH1 0x20 ADD MLOAD SWAP1 POP PUSH1 0x0 DUP3 PUSH1 0x60 ADD MLOAD SWAP1 POP PUSH1 0x0 DUP4 PUSH1 0x80 ADD MLOAD SWAP1 POP PUSH1 0x0 DUP2 DUP4 DUP6 PUSH2 0xB80 SWAP2 SWAP1 PUSH2 0x23C9 JUMP JUMPDEST PUSH2 0xB8A SWAP2 SWAP1 PUSH2 0x23C9 JUMP JUMPDEST SWAP1 POP DUP1 SWAP6 POP POP POP POP POP POP SWAP2 SWAP1 POP JUMP JUMPDEST PUSH1 0x7 DUP2 PUSH1 0x40 MLOAD PUSH2 0xBA9 SWAP2 SWAP1 PUSH2 0x2497 JUMP JUMPDEST SWAP1 DUP2 MSTORE PUSH1 0x20 ADD PUSH1 0x40 MLOAD DUP1 SWAP2 SUB SWAP1 KECCAK256 PUSH1 0x0 SWAP1 SLOAD SWAP1 PUSH2 0x100 EXP SWAP1 DIV PUSH1 0xFF AND ISZERO PUSH2 0xC05 JUMPI PUSH1 0x40 MLOAD PUSH32 0x8C379A000000000000000000000000000000000000000000000000000000000 DUP2 MSTORE PUSH1 0x4 ADD PUSH2 0xBFC SWAP1 PUSH2 0x29D8 JUMP JUMPDEST PUSH1 0x40 MLOAD DUP1 SWAP2 SUB SWAP1 REVERT JUMPDEST PUSH1 0x0 PUSH20 0xFFFFFFFFFFFFFFFFFFFFFFFFFFFFFFFFFFFFFFFF AND PUSH1 0x4 DUP3 PUSH1 0x40 MLOAD PUSH2 0xC2D SWAP2 SWAP1 PUSH2 0x2497 JUMP JUMPDEST SWAP1 DUP2 MSTORE PUSH1 0x20 ADD PUSH1 0x40 MLOAD DUP1 SWAP2 SUB SWAP1 KECCAK256 PUSH1 0x0 SWAP1 SLOAD SWAP1 PUSH2 0x100 EXP SWAP1 DIV PUSH20 0xFFFFFFFFFFFFFFFFFFFFFFFFFFFFFFFFFFFFFFFF AND PUSH20 0xFFFFFFFFFFFFFFFFFFFFFFFFFFFFFFFFFFFFFFFF AND EQ PUSH2 0xCB2 JUMPI PUSH1 0x40 MLOAD PUSH32 0x8C379A000000000000000000000000000000000000000000000000000000000 DUP2 MSTORE PUSH1 0x4 ADD PUSH2 0xCA9 SWAP1 PUSH2 0x2A44 JUMP JUMPDEST PUSH1 0x40 MLOAD DUP1 SWAP2 SUB SWAP1 REVERT JUMPDEST PUSH1 0x14 PUSH1 0x5 PUSH1 0x0 CALLER PUSH20 0xFFFFFFFFFFFFFFFFFFFFFFFFFFFFFFFFFFFFFFFF AND PUSH20 0xFFFFFFFFFFFFFFFFFFFFFFFFFFFFFFFFFFFFFFFF AND DUP2 MSTORE PUSH1 0x20 ADD SWAP1 DUP2 MSTORE PUSH1 0x20 ADD PUSH1 0x0 KECCAK256 DUP1 SLOAD SWAP1 POP LT PUSH2 0xD37 JUMPI PUSH1 0x40 MLOAD PUSH32 0x8C379A000000000000000000000000000000000000000000000000000000000 DUP2 MSTORE PUSH1 0x4 ADD PUSH2 0xD2E SWAP1 PUSH2 0x2AD6 JUMP JUMPDEST PUSH1 0x40 MLOAD DUP1 SWAP2 SUB SWAP1 REVERT JUMPDEST PUSH1 0x5 PUSH1 0x0 CALLER PUSH20 0xFFFFFFFFFFFFFFFFFFFFFFFFFFFFFFFFFFFFFFFF AND PUSH20 0xFFFFFFFFFFFFFFFFFFFFFFFFFFFFFFFFFFFFFFFF AND DUP2 MSTORE PUSH1 0x20 ADD SWAP1 DUP2 MSTORE PUSH1 0x20 ADD PUSH1 0x0 KECCAK256 DUP2 SWAP1 DUP1 PUSH1 0x1 DUP2 SLOAD ADD DUP1 DUP3 SSTORE DUP1 SWAP2 POP POP PUSH1 0x1 SWAP1 SUB SWAP1 PUSH1 0x0 MSTORE PUSH1 0x20 PUSH1 0x0 KECCAK256 ADD PUSH1 0x0 SWAP1 SWAP2 SWAP1 SWAP2 SWAP1 SWAP2 POP SWAP1 DUP2 PUSH2 0xDA8 SWAP2 SWAP1 PUSH2 0x2AF6 JUMP JUMPDEST POP CALLER PUSH1 0x4 DUP3 PUSH1 0x40 MLOAD PUSH2 0xDBA SWAP2 SWAP1 PUSH2 0x2497 JUMP JUMPDEST SWAP1 DUP2 MSTORE PUSH1 0x20 ADD PUSH1 0x40 MLOAD DUP1 SWAP2 SUB SWAP1 KECCAK256 PUSH1 0x0 PUSH2 0x100 EXP DUP2 SLOAD DUP2 PUSH20 0xFFFFFFFFFFFFFFFFFFFFFFFFFFFFFFFFFFFFFFFF MUL NOT AND SWAP1 DUP4 PUSH20 0xFFFFFFFFFFFFFFFFFFFFFFFFFFFFFFFFFFFFFFFF AND MUL OR SWAP1 SSTORE POP PUSH1 0x1 DUP1 DUP2 GT ISZERO PUSH2 0xE19 JUMPI PUSH2 0xE18 PUSH2 0x201A JUMP JUMPDEST JUMPDEST PUSH1 0x0 PUSH1 0x14 SWAP1 SLOAD SWAP1 PUSH2 0x100 EXP SWAP1 DIV PUSH1 0xFF AND PUSH1 0x1 DUP2 GT ISZERO PUSH2 0xE3B JUMPI PUSH2 0xE3A PUSH2 0x201A JUMP JUMPDEST JUMPDEST SUB PUSH2 0xE7C JUMPI PUSH1 0x1 PUSH1 0x8 DUP3 PUSH1 0x40 MLOAD PUSH2 0xE52 SWAP2 SWAP1 PUSH2 0x2497 JUMP JUMPDEST SWAP1 DUP2 MSTORE PUSH1 0x20 ADD PUSH1 0x40 MLOAD DUP1 SWAP2 SUB SWAP1 KECCAK256 PUSH1 0x0 PUSH2 0x100 EXP DUP2 SLOAD DUP2 PUSH1 0xFF MUL NOT AND SWAP1 DUP4 ISZERO ISZERO MUL OR SWAP1 SSTORE POP PUSH2 0xEB4 JUMP JUMPDEST PUSH1 0x0 PUSH1 0x8 DUP3 PUSH1 0x40 MLOAD PUSH2 0xE8E SWAP2 SWAP1 PUSH2 0x2497 JUMP JUMPDEST SWAP1 DUP2 MSTORE PUSH1 0x20 ADD PUSH1 0x40 MLOAD DUP1 SWAP2 SUB SWAP1 KECCAK256 PUSH1 0x0 PUSH2 0x100 EXP DUP2 SLOAD DUP2 PUSH1 0xFF MUL NOT AND SWAP1 DUP4 ISZERO ISZERO MUL OR SWAP1 SSTORE POP JUMPDEST PUSH32 0xEE06BD32F8B2583FD50C0DD94D872913C9FE17BB486E0F9D4B4865752D79EFA0 CALLER PUSH1 0x8 DUP4 PUSH1 0x40 MLOAD PUSH2 0xEE6 SWAP2 SWAP1 PUSH2 0x2497 JUMP JUMPDEST SWAP1 DUP2 MSTORE PUSH1 0x20 ADD PUSH1 0x40 MLOAD DUP1 SWAP2 SUB SWAP1 KECCAK256 PUSH1 0x0 SWAP1 SLOAD SWAP1 PUSH2 0x100 EXP SWAP1 DIV PUSH1 0xFF AND PUSH1 0x40 MLOAD PUSH2 0xF10 SWAP3 SWAP2 SWAP1 PUSH2 0x2BC8 JUMP JUMPDEST PUSH1 0x40 MLOAD DUP1 SWAP2 SUB SWAP1 LOG1 POP JUMP JUMPDEST PUSH2 0xF23 PUSH2 0x1A24 JUMP JUMPDEST PUSH1 0x0 PUSH1 0x1 PUSH1 0x0 SWAP1 SLOAD SWAP1 PUSH2 0x100 EXP SWAP1 DIV PUSH20 0xFFFFFFFFFFFFFFFFFFFFFFFFFFFFFFFFFFFFFFFF AND PUSH20 0xFFFFFFFFFFFFFFFFFFFFFFFFFFFFFFFFFFFFFFFF AND PUSH4 0x40A24C67 DUP6 PUSH1 0x40 MLOAD DUP3 PUSH4 0xFFFFFFFF AND PUSH1 0xE0 SHL DUP2 MSTORE PUSH1 0x4 ADD PUSH2 0xF80 SWAP2 SWAP1 PUSH2 0x1CEE JUMP JUMPDEST PUSH1 0x0 PUSH1 0x40 MLOAD DUP1 DUP4 SUB DUP2 DUP7 GAS STATICCALL ISZERO DUP1 ISZERO PUSH2 0xF9D JUMPI RETURNDATASIZE PUSH1 0x0 DUP1 RETURNDATACOPY RETURNDATASIZE PUSH1 0x0 REVERT JUMPDEST POP POP POP POP PUSH1 0x40 MLOAD RETURNDATASIZE PUSH1 0x0 DUP3 RETURNDATACOPY RETURNDATASIZE PUSH1 0x1F NOT PUSH1 0x1F DUP3 ADD AND DUP3 ADD DUP1 PUSH1 0x40 MSTORE POP DUP2 ADD SWAP1 PUSH2 0xFC6 SWAP2 SWAP1 PUSH2 0x2D7D JUMP JUMPDEST SWAP1 POP PUSH2 0xFD0 PUSH2 0x1BB7 JUMP JUMPDEST PUSH1 0x0 DUP1 DUP4 PUSH1 0x80 ADD MLOAD SWAP1 POP PUSH1 0x0 PUSH1 0x1 DUP2 GT ISZERO PUSH2 0xFEE JUMPI PUSH2 0xFED PUSH2 0x201A JUMP JUMPDEST JUMPDEST DUP2 PUSH1 0x1 DUP2 GT ISZERO PUSH2 0x1001 JUMPI PUSH2 0x1000 PUSH2 0x201A JUMP JUMPDEST JUMPDEST SUB PUSH2 0x100F JUMPI PUSH1 0x0 SWAP2 POP PUSH2 0x1014 JUMP JUMPDEST PUSH1 0x1 SWAP2 POP JUMPDEST DUP2 DUP4 PUSH1 0xA0 ADD SWAP1 PUSH1 0x1 DUP2 GT ISZERO PUSH2 0x102C JUMPI PUSH2 0x102B PUSH2 0x201A JUMP JUMPDEST JUMPDEST SWAP1 DUP2 PUSH1 0x1 DUP2 GT ISZERO PUSH2 0x1040 JUMPI PUSH2 0x103F PUSH2 0x201A JUMP JUMPDEST JUMPDEST DUP2 MSTORE POP POP DUP4 PUSH1 0x40 ADD MLOAD DUP4 PUSH1 0x20 ADD DUP2 DUP2 MSTORE POP POP DUP4 PUSH1 0x60 ADD MLOAD DUP4 PUSH1 0x40 ADD SWAP1 PUSH20 0xFFFFFFFFFFFFFFFFFFFFFFFFFFFFFFFFFFFFFFFF AND SWAP1 DUP2 PUSH20 0xFFFFFFFFFFFFFFFFFFFFFFFFFFFFFFFFFFFFFFFF AND DUP2 MSTORE POP POP DUP7 DUP4 PUSH1 0x0 ADD DUP2 DUP2 MSTORE POP POP DUP6 DUP4 PUSH1 0x60 ADD DUP2 DUP2 MSTORE POP POP DUP5 DUP4 PUSH1 0x80 ADD DUP2 DUP2 MSTORE POP POP DUP3 PUSH1 0x9 PUSH1 0x0 DUP10 DUP2 MSTORE PUSH1 0x20 ADD SWAP1 DUP2 MSTORE PUSH1 0x20 ADD PUSH1 0x0 KECCAK256 PUSH1 0x0 DUP3 ADD MLOAD DUP2 PUSH1 0x0 ADD SSTORE PUSH1 0x20 DUP3 ADD MLOAD DUP2 PUSH1 0x1 ADD SSTORE PUSH1 0x40 DUP3 ADD MLOAD DUP2 PUSH1 0x2 ADD PUSH1 0x0 PUSH2 0x100 EXP DUP2 SLOAD DUP2 PUSH20 0xFFFFFFFFFFFFFFFFFFFFFFFFFFFFFFFFFFFFFFFF MUL NOT AND SWAP1 DUP4 PUSH20 0xFFFFFFFFFFFFFFFFFFFFFFFFFFFFFFFFFFFFFFFF AND MUL OR SWAP1 SSTORE POP PUSH1 0x60 DUP3 ADD MLOAD DUP2 PUSH1 0x3 ADD SSTORE PUSH1 0x80 DUP3 ADD MLOAD DUP2 PUSH1 0x4 ADD SSTORE PUSH1 0xA0 DUP3 ADD MLOAD DUP2 PUSH1 0x5 ADD PUSH1 0x0 PUSH2 0x100 EXP DUP2 SLOAD DUP2 PUSH1 0xFF MUL NOT AND SWAP1 DUP4 PUSH1 0x1 DUP2 GT ISZERO PUSH2 0x115A JUMPI PUSH2 0x1159 PUSH2 0x201A JUMP JUMPDEST JUMPDEST MUL OR SWAP1 SSTORE POP SWAP1 POP POP POP POP POP POP POP POP POP JUMP JUMPDEST PUSH2 0x1173 PUSH2 0x1BB7 JUMP JUMPDEST PUSH1 0x9 PUSH1 0x0 DUP4 DUP2 MSTORE PUSH1 0x20 ADD SWAP1 DUP2 MSTORE PUSH1 0x20 ADD PUSH1 0x0 KECCAK256 PUSH1 0x40 MLOAD DUP1 PUSH1 0xC0 ADD PUSH1 0x40 MSTORE SWAP1 DUP2 PUSH1 0x0 DUP3 ADD SLOAD DUP2 MSTORE PUSH1 0x20 ADD PUSH1 0x1 DUP3 ADD SLOAD DUP2 MSTORE PUSH1 0x20 ADD PUSH1 0x2 DUP3 ADD PUSH1 0x0 SWAP1 SLOAD SWAP1 PUSH2 0x100 EXP SWAP1 DIV PUSH20 0xFFFFFFFFFFFFFFFFFFFFFFFFFFFFFFFFFFFFFFFF AND PUSH20 0xFFFFFFFFFFFFFFFFFFFFFFFFFFFFFFFFFFFFFFFF AND PUSH20 0xFFFFFFFFFFFFFFFFFFFFFFFFFFFFFFFFFFFFFFFF AND DUP2 MSTORE PUSH1 0x20 ADD PUSH1 0x3 DUP3 ADD SLOAD DUP2 MSTORE PUSH1 0x20 ADD PUSH1 0x4 DUP3 ADD SLOAD DUP2 MSTORE PUSH1 0x20 ADD PUSH1 0x5 DUP3 ADD PUSH1 0x0 SWAP1 SLOAD SWAP1 PUSH2 0x100 EXP SWAP1 DIV PUSH1 0xFF AND PUSH1 0x1 DUP2 GT ISZERO PUSH2 0x1234 JUMPI PUSH2 0x1233 PUSH2 0x201A JUMP JUMPDEST JUMPDEST PUSH1 0x1 DUP2 GT ISZERO PUSH2 0x1246 JUMPI PUSH2 0x1245 PUSH2 0x201A JUMP JUMPDEST JUMPDEST DUP2 MSTORE POP POP SWAP1 POP SWAP2 SWAP1 POP JUMP JUMPDEST PUSH1 0x0 PUSH1 0x1 PUSH1 0x0 SWAP1 SLOAD SWAP1 PUSH2 0x100 EXP SWAP1 DIV PUSH20 0xFFFFFFFFFFFFFFFFFFFFFFFFFFFFFFFFFFFFFFFF AND PUSH20 0xFFFFFFFFFFFFFFFFFFFFFFFFFFFFFFFFFFFFFFFF AND PUSH4 0x40A24C67 DUP5 PUSH1 0x40 MLOAD DUP3 PUSH4 0xFFFFFFFF AND PUSH1 0xE0 SHL DUP2 MSTORE PUSH1 0x4 ADD PUSH2 0x12AE SWAP2 SWAP1 PUSH2 0x1CEE JUMP JUMPDEST PUSH1 0x0 PUSH1 0x40 MLOAD DUP1 DUP4 SUB DUP2 DUP7 GAS STATICCALL ISZERO DUP1 ISZERO PUSH2 0x12CB JUMPI RETURNDATASIZE PUSH1 0x0 DUP1 RETURNDATACOPY RETURNDATASIZE PUSH1 0x0 REVERT JUMPDEST POP POP POP POP PUSH1 0x40 MLOAD RETURNDATASIZE PUSH1 0x0 DUP3 RETURNDATACOPY RETURNDATASIZE PUSH1 0x1F NOT PUSH1 0x1F DUP3 ADD AND DUP3 ADD DUP1 PUSH1 0x40 MSTORE POP DUP2 ADD SWAP1 PUSH2 0x12F4 SWAP2 SWAP1 PUSH2 0x2D7D JUMP JUMPDEST SWAP1 POP PUSH1 0x0 DUP2 PUSH1 0x80 ADD MLOAD SWAP1 POP PUSH1 0x0 DUP1 DUP4 PUSH1 0xA0 ADD MLOAD SWAP1 POP PUSH1 0x0 PUSH2 0x1314 DUP8 PUSH2 0x116B JUMP JUMPDEST SWAP1 POP PUSH1 0x0 DUP2 PUSH1 0x60 ADD MLOAD SWAP1 POP PUSH1 0x0 DUP1 PUSH1 0x1 DUP2 GT ISZERO PUSH2 0x1334 JUMPI PUSH2 0x1333 PUSH2 0x201A JUMP JUMPDEST JUMPDEST DUP7 PUSH1 0x1 DUP2 GT ISZERO PUSH2 0x1347 JUMPI PUSH2 0x1346 PUSH2 0x201A JUMP JUMPDEST JUMPDEST SUB PUSH2 0x1363 JUMPI PUSH1 0x0 SWAP5 POP DUP2 DUP5 PUSH2 0x135C SWAP2 SWAP1 PUSH2 0x2DC6 JUMP JUMPDEST SWAP1 POP PUSH2 0x1377 JUMP JUMPDEST PUSH1 0x1 SWAP5 POP PUSH1 0x1 DUP3 PUSH2 0x1374 SWAP2 SWAP1 PUSH2 0x2DC6 JUMP JUMPDEST SWAP1 POP JUMPDEST PUSH1 0x0 PUSH1 0x6 PUSH1 0x0 DUP11 PUSH20 0xFFFFFFFFFFFFFFFFFFFFFFFFFFFFFFFFFFFFFFFF AND PUSH20 0xFFFFFFFFFFFFFFFFFFFFFFFFFFFFFFFFFFFFFFFF AND DUP2 MSTORE PUSH1 0x20 ADD SWAP1 DUP2 MSTORE PUSH1 0x20 ADD PUSH1 0x0 KECCAK256 SLOAD SWAP1 POP DUP2 DUP2 LT ISZERO PUSH2 0x13FE JUMPI PUSH1 0x40 MLOAD PUSH32 0x8C379A000000000000000000000000000000000000000000000000000000000 DUP2 MSTORE PUSH1 0x4 ADD PUSH2 0x13F5 SWAP1 PUSH2 0x2E7A JUMP JUMPDEST PUSH1 0x40 MLOAD DUP1 SWAP2 SUB SWAP1 REVERT JUMPDEST POP POP POP POP POP POP POP POP POP POP JUMP JUMPDEST PUSH2 0x1412 PUSH2 0x1A24 JUMP JUMPDEST PUSH1 0x0 PUSH1 0x7 DUP3 PUSH1 0x40 MLOAD PUSH2 0x1424 SWAP2 SWAP1 PUSH2 0x2497 JUMP JUMPDEST SWAP1 DUP2 MSTORE PUSH1 0x20 ADD PUSH1 0x40 MLOAD DUP1 SWAP2 SUB SWAP1 KECCAK256 PUSH1 0x0 PUSH2 0x100 EXP DUP2 SLOAD DUP2 PUSH1 0xFF MUL NOT AND SWAP1 DUP4 ISZERO ISZERO MUL OR SWAP1 SSTORE POP POP JUMP JUMPDEST PUSH2 0x1454 PUSH2 0x1BB7 JUMP JUMPDEST PUSH1 0x9 PUSH1 0x0 DUP4 DUP2 MSTORE PUSH1 0x20 ADD SWAP1 DUP2 MSTORE PUSH1 0x20 ADD PUSH1 0x0 KECCAK256 PUSH1 0x40 MLOAD DUP1 PUSH1 0xC0 ADD PUSH1 0x40 MSTORE SWAP1 DUP2 PUSH1 0x0 DUP3 ADD SLOAD DUP2 MSTORE PUSH1 0x20 ADD PUSH1 0x1 DUP3 ADD SLOAD DUP2 MSTORE PUSH1 0x20 ADD PUSH1 0x2 DUP3 ADD PUSH1 0x0 SWAP1 SLOAD SWAP1 PUSH2 0x100 EXP SWAP1 DIV PUSH20 0xFFFFFFFFFFFFFFFFFFFFFFFFFFFFFFFFFFFFFFFF AND PUSH20 0xFFFFFFFFFFFFFFFFFFFFFFFFFFFFFFFFFFFFFFFF AND PUSH20 0xFFFFFFFFFFFFFFFFFFFFFFFFFFFFFFFFFFFFFFFF AND DUP2 MSTORE PUSH1 0x20 ADD PUSH1 0x3 DUP3 ADD SLOAD DUP2 MSTORE PUSH1 0x20 ADD PUSH1 0x4 DUP3 ADD SLOAD DUP2 MSTORE PUSH1 0x20 ADD PUSH1 0x5 DUP3 ADD PUSH1 0x0 SWAP1 SLOAD SWAP1 PUSH2 0x100 EXP SWAP1 DIV PUSH1 0xFF AND PUSH1 0x1 DUP2 GT ISZERO PUSH2 0x1515 JUMPI PUSH2 0x1514 PUSH2 0x201A JUMP JUMPDEST JUMPDEST PUSH1 0x1 DUP2 GT ISZERO PUSH2 0x1527 JUMPI PUSH2 0x1526 PUSH2 0x201A JUMP JUMPDEST JUMPDEST DUP2 MSTORE POP POP SWAP1 POP SWAP2 SWAP1 POP JUMP JUMPDEST PUSH1 0x7 DUP6 PUSH1 0x40 MLOAD PUSH2 0x1542 SWAP2 SWAP1 PUSH2 0x2497 JUMP JUMPDEST SWAP1 DUP2 MSTORE PUSH1 0x20 ADD PUSH1 0x40 MLOAD DUP1 SWAP2 SUB SWAP1 KECCAK256 PUSH1 0x0 SWAP1 SLOAD SWAP1 PUSH2 0x100 EXP SWAP1 DIV PUSH1 0xFF AND ISZERO PUSH2 0x159E JUMPI PUSH1 0x40 MLOAD PUSH32 0x8C379A000000000000000000000000000000000000000000000000000000000 DUP2 MSTORE PUSH1 0x4 ADD PUSH2 0x1595 SWAP1 PUSH2 0x2EE6 JUMP JUMPDEST PUSH1 0x40 MLOAD DUP1 SWAP2 SUB SWAP1 REVERT JUMPDEST PUSH1 0x8 DUP6 PUSH1 0x40 MLOAD PUSH2 0x15AE SWAP2 SWAP1 PUSH2 0x2497 JUMP JUMPDEST SWAP1 DUP2 MSTORE PUSH1 0x20 ADD PUSH1 0x40 MLOAD DUP1 SWAP2 SUB SWAP1 KECCAK256 PUSH1 0x0 SWAP1 SLOAD SWAP1 PUSH2 0x100 EXP SWAP1 DIV PUSH1 0xFF AND PUSH2 0x1609 JUMPI PUSH1 0x40 MLOAD PUSH32 0x8C379A000000000000000000000000000000000000000000000000000000000 DUP2 MSTORE PUSH1 0x4 ADD PUSH2 0x1600 SWAP1 PUSH2 0x2F52 JUMP JUMPDEST PUSH1 0x40 MLOAD DUP1 SWAP2 SUB SWAP1 REVERT JUMPDEST PUSH1 0x0 PUSH2 0x1614 DUP6 PUSH2 0x116B JUMP JUMPDEST SWAP1 POP PUSH1 0x0 DUP2 PUSH1 0xA0 ADD MLOAD SWAP1 POP PUSH2 0x1627 PUSH2 0x1C15 JUMP JUMPDEST PUSH1 0x0 PUSH1 0x1 DUP2 GT ISZERO PUSH2 0x163B JUMPI PUSH2 0x163A PUSH2 0x201A JUMP JUMPDEST JUMPDEST DUP3 PUSH1 0x1 DUP2 GT ISZERO PUSH2 0x164E JUMPI PUSH2 0x164D PUSH2 0x201A JUMP JUMPDEST JUMPDEST SUB PUSH2 0x16D9 JUMPI DUP5 DUP7 PUSH2 0x165F SWAP2 SWAP1 PUSH2 0x23C9 JUMP JUMPDEST DUP2 PUSH1 0xA0 ADD DUP2 DUP2 MSTORE POP POP DUP3 PUSH1 0x60 ADD MLOAD DUP2 PUSH1 0x0 ADD DUP2 DUP2 MSTORE POP POP DUP3 PUSH1 0x80 ADD MLOAD DUP2 PUSH1 0x20 ADD DUP2 DUP2 MSTORE POP POP DUP5 DUP2 PUSH1 0x20 ADD MLOAD PUSH2 0x1694 SWAP2 SWAP1 PUSH2 0x2DC6 JUMP JUMPDEST DUP7 DUP3 PUSH1 0x0 ADD MLOAD PUSH2 0x16A4 SWAP2 SWAP1 PUSH2 0x2DC6 JUMP JUMPDEST PUSH2 0x16AE SWAP2 SWAP1 PUSH2 0x23C9 JUMP JUMPDEST DUP2 PUSH1 0x40 ADD DUP2 DUP2 MSTORE POP POP DUP1 PUSH1 0xA0 ADD MLOAD DUP4 PUSH1 0x20 ADD MLOAD PUSH2 0x16CB SWAP2 SWAP1 PUSH2 0x2DC6 JUMP JUMPDEST DUP2 PUSH1 0x80 ADD DUP2 DUP2 MSTORE POP POP PUSH2 0x1712 JUMP JUMPDEST DUP3 PUSH1 0x60 ADD MLOAD DUP2 PUSH1 0x0 ADD DUP2 DUP2 MSTORE POP POP DUP3 PUSH1 0x20 ADD MLOAD DUP2 PUSH1 0x60 ADD DUP2 DUP2 MSTORE POP POP DUP1 PUSH1 0x0 ADD MLOAD DUP2 PUSH1 0x40 ADD DUP2 DUP2 MSTORE POP POP DUP1 PUSH1 0x60 ADD MLOAD DUP2 PUSH1 0x80 ADD DUP2 DUP2 MSTORE POP POP JUMPDEST PUSH1 0x0 PUSH2 0x171D DUP10 PUSH2 0xA46 JUMP JUMPDEST SWAP1 POP PUSH1 0x0 DUP5 PUSH1 0x40 ADD MLOAD SWAP1 POP PUSH1 0x2 PUSH1 0x0 SWAP1 SLOAD SWAP1 PUSH2 0x100 EXP SWAP1 DIV PUSH20 0xFFFFFFFFFFFFFFFFFFFFFFFFFFFFFFFFFFFFFFFF AND PUSH20 0xFFFFFFFFFFFFFFFFFFFFFFFFFFFFFFFFFFFFFFFF AND PUSH4 0xA9059CBB DUP4 DUP6 PUSH1 0x40 ADD MLOAD PUSH1 0x40 MLOAD DUP4 PUSH4 0xFFFFFFFF AND PUSH1 0xE0 SHL DUP2 MSTORE PUSH1 0x4 ADD PUSH2 0x1789 SWAP3 SWAP2 SWAP1 PUSH2 0x23FD JUMP JUMPDEST PUSH1 0x20 PUSH1 0x40 MLOAD DUP1 DUP4 SUB DUP2 PUSH1 0x0 DUP8 GAS CALL ISZERO DUP1 ISZERO PUSH2 0x17A8 JUMPI RETURNDATASIZE PUSH1 0x0 DUP1 RETURNDATACOPY RETURNDATASIZE PUSH1 0x0 REVERT JUMPDEST POP POP POP POP PUSH1 0x40 MLOAD RETURNDATASIZE PUSH1 0x1F NOT PUSH1 0x1F DUP3 ADD AND DUP3 ADD DUP1 PUSH1 0x40 MSTORE POP DUP2 ADD SWAP1 PUSH2 0x17CC SWAP2 SWAP1 PUSH2 0x236D JUMP JUMPDEST PUSH2 0x17D5 JUMPI PUSH1 0x0 DUP1 REVERT JUMPDEST PUSH1 0x2 PUSH1 0x0 SWAP1 SLOAD SWAP1 PUSH2 0x100 EXP SWAP1 DIV PUSH20 0xFFFFFFFFFFFFFFFFFFFFFFFFFFFFFFFFFFFFFFFF AND PUSH20 0xFFFFFFFFFFFFFFFFFFFFFFFFFFFFFFFFFFFFFFFF AND PUSH4 0xA9059CBB DUP3 DUP6 PUSH1 0x80 ADD MLOAD PUSH1 0x40 MLOAD DUP4 PUSH4 0xFFFFFFFF AND PUSH1 0xE0 SHL DUP2 MSTORE PUSH1 0x4 ADD PUSH2 0x1836 SWAP3 SWAP2 SWAP1 PUSH2 0x23FD JUMP JUMPDEST PUSH1 0x20 PUSH1 0x40 MLOAD DUP1 DUP4 SUB DUP2 PUSH1 0x0 DUP8 GAS CALL ISZERO DUP1 ISZERO PUSH2 0x1855 JUMPI RETURNDATASIZE PUSH1 0x0 DUP1 RETURNDATACOPY RETURNDATASIZE PUSH1 0x0 REVERT JUMPDEST POP POP POP POP PUSH1 0x40 MLOAD RETURNDATASIZE PUSH1 0x1F NOT PUSH1 0x1F DUP3 ADD AND DUP3 ADD DUP1 PUSH1 0x40 MSTORE POP DUP2 ADD SWAP1 PUSH2 0x1879 SWAP2 SWAP1 PUSH2 0x236D JUMP JUMPDEST PUSH2 0x1882 JUMPI PUSH1 0x0 DUP1 REVERT JUMPDEST PUSH32 0xE682774C095C98275661D05FF664616A641DE1592FA52E2412789919E84B01AD DUP12 DUP11 DUP5 DUP12 DUP12 DUP9 PUSH1 0x80 ADD MLOAD DUP10 PUSH1 0x40 ADD MLOAD PUSH2 0x18BC SWAP2 SWAP1 PUSH2 0x23C9 JUMP JUMPDEST DUP13 TIMESTAMP PUSH1 0x40 MLOAD PUSH2 0x18D2 SWAP9 SWAP8 SWAP7 SWAP6 SWAP5 SWAP4 SWAP3 SWAP2 SWAP1 PUSH2 0x2F72 JUMP JUMPDEST PUSH1 0x40 MLOAD DUP1 SWAP2 SUB SWAP1 LOG1 PUSH32 0x634235FCF5AF0ADBCA1A405EC65F6F6C08F55E1F379C2C45CD10F23CB29E0E31 DUP3 DUP11 DUP6 PUSH1 0x40 ADD MLOAD PUSH1 0x40 MLOAD PUSH2 0x1911 SWAP4 SWAP3 SWAP2 SWAP1 PUSH2 0x2FF0 JUMP JUMPDEST PUSH1 0x40 MLOAD DUP1 SWAP2 SUB SWAP1 LOG1 POP POP POP POP POP POP POP POP POP POP POP JUMP JUMPDEST PUSH2 0x192E PUSH2 0x1A24 JUMP JUMPDEST PUSH1 0x0 PUSH20 0xFFFFFFFFFFFFFFFFFFFFFFFFFFFFFFFFFFFFFFFF AND DUP2 PUSH20 0xFFFFFFFFFFFFFFFFFFFFFFFFFFFFFFFFFFFFFFFF AND SUB PUSH2 0x19A0 JUMPI PUSH1 0x0 PUSH1 0x40 MLOAD PUSH32 0x1E4FBDF700000000000000000000000000000000000000000000000000000000 DUP2 MSTORE PUSH1 0x4 ADD PUSH2 0x1997 SWAP2 SWAP1 PUSH2 0x1F58 JUMP JUMPDEST PUSH1 0x40 MLOAD DUP1 SWAP2 SUB SWAP1 REVERT JUMPDEST PUSH2 0x19A9 DUP2 PUSH2 0x1AAB JUMP JUMPDEST POP JUMP JUMPDEST PUSH1 0x8 DUP2 DUP1 MLOAD PUSH1 0x20 DUP2 ADD DUP3 ADD DUP1 MLOAD DUP5 DUP3 MSTORE PUSH1 0x20 DUP4 ADD PUSH1 0x20 DUP6 ADD KECCAK256 DUP2 DUP4 MSTORE DUP1 SWAP6 POP POP POP POP POP POP PUSH1 0x0 SWAP2 POP SLOAD SWAP1 PUSH2 0x100 EXP SWAP1 DIV PUSH1 0xFF AND DUP2 JUMP JUMPDEST PUSH2 0x19EA PUSH2 0x1A24 JUMP JUMPDEST PUSH1 0x1 PUSH1 0x7 DUP3 PUSH1 0x40 MLOAD PUSH2 0x19FC SWAP2 SWAP1 PUSH2 0x2497 JUMP JUMPDEST SWAP1 DUP2 MSTORE PUSH1 0x20 ADD PUSH1 0x40 MLOAD DUP1 SWAP2 SUB SWAP1 KECCAK256 PUSH1 0x0 PUSH2 0x100 EXP DUP2 SLOAD DUP2 PUSH1 0xFF MUL NOT AND SWAP1 DUP4 ISZERO ISZERO MUL OR SWAP1 SSTORE POP POP JUMP JUMPDEST PUSH2 0x1A2C PUSH2 0x1B6F JUMP JUMPDEST PUSH20 0xFFFFFFFFFFFFFFFFFFFFFFFFFFFFFFFFFFFFFFFF AND PUSH2 0x1A4A PUSH2 0xB1F JUMP JUMPDEST PUSH20 0xFFFFFFFFFFFFFFFFFFFFFFFFFFFFFFFFFFFFFFFF AND EQ PUSH2 0x1AA9 JUMPI PUSH2 0x1A6D PUSH2 0x1B6F JUMP JUMPDEST PUSH1 0x40 MLOAD PUSH32 0x118CDAA700000000000000000000000000000000000000000000000000000000 DUP2 MSTORE PUSH1 0x4 ADD PUSH2 0x1AA0 SWAP2 SWAP1 PUSH2 0x1F58 JUMP JUMPDEST PUSH1 0x40 MLOAD DUP1 SWAP2 SUB SWAP1 REVERT JUMPDEST JUMP JUMPDEST PUSH1 0x0 DUP1 PUSH1 0x0 SWAP1 SLOAD SWAP1 PUSH2 0x100 EXP SWAP1 DIV PUSH20 0xFFFFFFFFFFFFFFFFFFFFFFFFFFFFFFFFFFFFFFFF AND SWAP1 POP DUP2 PUSH1 0x0 DUP1 PUSH2 0x100 EXP DUP2 SLOAD DUP2 PUSH20 0xFFFFFFFFFFFFFFFFFFFFFFFFFFFFFFFFFFFFFFFF MUL NOT AND SWAP1 DUP4 PUSH20 0xFFFFFFFFFFFFFFFFFFFFFFFFFFFFFFFFFFFFFFFF AND MUL OR SWAP1 SSTORE POP DUP2 PUSH20 0xFFFFFFFFFFFFFFFFFFFFFFFFFFFFFFFFFFFFFFFF AND DUP2 PUSH20 0xFFFFFFFFFFFFFFFFFFFFFFFFFFFFFFFFFFFFFFFF AND PUSH32 0x8BE0079C531659141344CD1FD0A4F28419497F9722A3DAAFE3B4186F6B6457E0 PUSH1 0x40 MLOAD PUSH1 0x40 MLOAD DUP1 SWAP2 SUB SWAP1 LOG3 POP POP JUMP JUMPDEST PUSH1 0x0 CALLER SWAP1 POP SWAP1 JUMP JUMPDEST POP DUP1 SLOAD PUSH2 0x1B83 SWAP1 PUSH2 0x2589 JUMP JUMPDEST PUSH1 0x0 DUP3 SSTORE DUP1 PUSH1 0x1F LT PUSH2 0x1B95 JUMPI POP PUSH2 0x1BB4 JUMP JUMPDEST PUSH1 0x1F ADD PUSH1 0x20 SWAP1 DIV SWAP1 PUSH1 0x0 MSTORE PUSH1 0x20 PUSH1 0x0 KECCAK256 SWAP1 DUP2 ADD SWAP1 PUSH2 0x1BB3 SWAP2 SWAP1 PUSH2 0x1C4B JUMP JUMPDEST JUMPDEST POP JUMP JUMPDEST PUSH1 0x40 MLOAD DUP1 PUSH1 0xC0 ADD PUSH1 0x40 MSTORE DUP1 PUSH1 0x0 DUP2 MSTORE PUSH1 0x20 ADD PUSH1 0x0 DUP2 MSTORE PUSH1 0x20 ADD PUSH1 0x0 PUSH20 0xFFFFFFFFFFFFFFFFFFFFFFFFFFFFFFFFFFFFFFFF AND DUP2 MSTORE PUSH1 0x20 ADD PUSH1 0x0 DUP2 MSTORE PUSH1 0x20 ADD PUSH1 0x0 DUP2 MSTORE PUSH1 0x20 ADD PUSH1 0x0 PUSH1 0x1 DUP2 GT ISZERO PUSH2 0x1C0F JUMPI PUSH2 0x1C0E PUSH2 0x201A JUMP JUMPDEST JUMPDEST DUP2 MSTORE POP SWAP1 JUMP JUMPDEST PUSH1 0x40 MLOAD DUP1 PUSH1 0xC0 ADD PUSH1 0x40 MSTORE DUP1 PUSH1 0x0 DUP2 MSTORE PUSH1 0x20 ADD PUSH1 0x0 DUP2 MSTORE PUSH1 0x20 ADD PUSH1 0x0 DUP2 MSTORE PUSH1 0x20 ADD PUSH1 0x0 DUP2 MSTORE PUSH1 0x20 ADD PUSH1 0x0 DUP2 MSTORE PUSH1 0x20 ADD PUSH1 0x0 DUP2 MSTORE POP SWAP1 JUMP JUMPDEST JUMPDEST DUP1 DUP3 GT ISZERO PUSH2 0x1C64 JUMPI PUSH1 0x0 DUP2 PUSH1 0x0 SWAP1 SSTORE POP PUSH1 0x1 ADD PUSH2 0x1C4C JUMP JUMPDEST POP SWAP1 JUMP JUMPDEST PUSH1 0x0 PUSH1 0x40 MLOAD SWAP1 POP SWAP1 JUMP JUMPDEST PUSH1 0x0 DUP1 REVERT JUMPDEST PUSH1 0x0 DUP1 REVERT JUMPDEST PUSH1 0x0 DUP2 SWAP1 POP SWAP2 SWAP1 POP JUMP JUMPDEST PUSH2 0x1C8F DUP2 PUSH2 0x1C7C JUMP JUMPDEST DUP2 EQ PUSH2 0x1C9A JUMPI PUSH1 0x0 DUP1 REVERT JUMPDEST POP JUMP JUMPDEST PUSH1 0x0 DUP2 CALLDATALOAD SWAP1 POP PUSH2 0x1CAC DUP2 PUSH2 0x1C86 JUMP JUMPDEST SWAP3 SWAP2 POP POP JUMP JUMPDEST PUSH1 0x0 PUSH1 0x20 DUP3 DUP5 SUB SLT ISZERO PUSH2 0x1CC8 JUMPI PUSH2 0x1CC7 PUSH2 0x1C72 JUMP JUMPDEST JUMPDEST PUSH1 0x0 PUSH2 0x1CD6 DUP5 DUP3 DUP6 ADD PUSH2 0x1C9D JUMP JUMPDEST SWAP2 POP POP SWAP3 SWAP2 POP POP JUMP JUMPDEST PUSH2 0x1CE8 DUP2 PUSH2 0x1C7C JUMP JUMPDEST DUP3 MSTORE POP POP JUMP JUMPDEST PUSH1 0x0 PUSH1 0x20 DUP3 ADD SWAP1 POP PUSH2 0x1D03 PUSH1 0x0 DUP4 ADD DUP5 PUSH2 0x1CDF JUMP JUMPDEST SWAP3 SWAP2 POP POP JUMP JUMPDEST PUSH1 0x0 DUP1 REVERT JUMPDEST PUSH1 0x0 DUP1 REVERT JUMPDEST PUSH1 0x0 PUSH1 0x1F NOT PUSH1 0x1F DUP4 ADD AND SWAP1 POP SWAP2 SWAP1 POP JUMP JUMPDEST PUSH32 0x4E487B7100000000000000000000000000000000000000000000000000000000 PUSH1 0x0 MSTORE PUSH1 0x41 PUSH1 0x4 MSTORE PUSH1 0x24 PUSH1 0x0 REVERT JUMPDEST PUSH2 0x1D5C DUP3 PUSH2 0x1D13 JUMP JUMPDEST DUP2 ADD DUP2 DUP2 LT PUSH8 0xFFFFFFFFFFFFFFFF DUP3 GT OR ISZERO PUSH2 0x1D7B JUMPI PUSH2 0x1D7A PUSH2 0x1D24 JUMP JUMPDEST JUMPDEST DUP1 PUSH1 0x40 MSTORE POP POP POP JUMP JUMPDEST PUSH1 0x0 PUSH2 0x1D8E PUSH2 0x1C68 JUMP JUMPDEST SWAP1 POP PUSH2 0x1D9A DUP3 DUP3 PUSH2 0x1D53 JUMP JUMPDEST SWAP2 SWAP1 POP JUMP JUMPDEST PUSH1 0x0 PUSH8 0xFFFFFFFFFFFFFFFF DUP3 GT ISZERO PUSH2 0x1DBA JUMPI PUSH2 0x1DB9 PUSH2 0x1D24 JUMP JUMPDEST JUMPDEST PUSH2 0x1DC3 DUP3 PUSH2 0x1D13 JUMP JUMPDEST SWAP1 POP PUSH1 0x20 DUP2 ADD SWAP1 POP SWAP2 SWAP1 POP JUMP JUMPDEST DUP3 DUP2 DUP4 CALLDATACOPY PUSH1 0x0 DUP4 DUP4 ADD MSTORE POP POP POP JUMP JUMPDEST PUSH1 0x0 PUSH2 0x1DF2 PUSH2 0x1DED DUP5 PUSH2 0x1D9F JUMP JUMPDEST PUSH2 0x1D84 JUMP JUMPDEST SWAP1 POP DUP3 DUP2 MSTORE PUSH1 0x20 DUP2 ADD DUP5 DUP5 DUP5 ADD GT ISZERO PUSH2 0x1E0E JUMPI PUSH2 0x1E0D PUSH2 0x1D0E JUMP JUMPDEST JUMPDEST PUSH2 0x1E19 DUP5 DUP3 DUP6 PUSH2 0x1DD0 JUMP JUMPDEST POP SWAP4 SWAP3 POP POP POP JUMP JUMPDEST PUSH1 0x0 DUP3 PUSH1 0x1F DUP4 ADD SLT PUSH2 0x1E36 JUMPI PUSH2 0x1E35 PUSH2 0x1D09 JUMP JUMPDEST JUMPDEST DUP2 CALLDATALOAD PUSH2 0x1E46 DUP5 DUP3 PUSH1 0x20 DUP7 ADD PUSH2 0x1DDF JUMP JUMPDEST SWAP2 POP POP SWAP3 SWAP2 POP POP JUMP JUMPDEST PUSH1 0x0 PUSH1 0x20 DUP3 DUP5 SUB SLT ISZERO PUSH2 0x1E65 JUMPI PUSH2 0x1E64 PUSH2 0x1C72 JUMP JUMPDEST JUMPDEST PUSH1 0x0 DUP3 ADD CALLDATALOAD PUSH8 0xFFFFFFFFFFFFFFFF DUP2 GT ISZERO PUSH2 0x1E83 JUMPI PUSH2 0x1E82 PUSH2 0x1C77 JUMP JUMPDEST JUMPDEST PUSH2 0x1E8F DUP5 DUP3 DUP6 ADD PUSH2 0x1E21 JUMP JUMPDEST SWAP2 POP POP SWAP3 SWAP2 POP POP JUMP JUMPDEST PUSH1 0x0 PUSH20 0xFFFFFFFFFFFFFFFFFFFFFFFFFFFFFFFFFFFFFFFF DUP3 AND SWAP1 POP SWAP2 SWAP1 POP JUMP JUMPDEST PUSH1 0x0 PUSH2 0x1EC3 DUP3 PUSH2 0x1E98 JUMP JUMPDEST SWAP1 POP SWAP2 SWAP1 POP JUMP JUMPDEST PUSH2 0x1ED3 DUP2 PUSH2 0x1EB8 JUMP JUMPDEST DUP2 EQ PUSH2 0x1EDE JUMPI PUSH1 0x0 DUP1 REVERT JUMPDEST POP JUMP JUMPDEST PUSH1 0x0 DUP2 CALLDATALOAD SWAP1 POP PUSH2 0x1EF0 DUP2 PUSH2 0x1ECA JUMP JUMPDEST SWAP3 SWAP2 POP POP JUMP JUMPDEST PUSH1 0x0 DUP1 PUSH1 0x0 PUSH1 0x60 DUP5 DUP7 SUB SLT ISZERO PUSH2 0x1F0F JUMPI PUSH2 0x1F0E PUSH2 0x1C72 JUMP JUMPDEST JUMPDEST PUSH1 0x0 PUSH2 0x1F1D DUP7 DUP3 DUP8 ADD PUSH2 0x1C9D JUMP JUMPDEST SWAP4 POP POP PUSH1 0x20 PUSH2 0x1F2E DUP7 DUP3 DUP8 ADD PUSH2 0x1C9D JUMP JUMPDEST SWAP3 POP POP PUSH1 0x40 PUSH2 0x1F3F DUP7 DUP3 DUP8 ADD PUSH2 0x1EE1 JUMP JUMPDEST SWAP2 POP POP SWAP3 POP SWAP3 POP SWAP3 JUMP JUMPDEST PUSH2 0x1F52 DUP2 PUSH2 0x1EB8 JUMP JUMPDEST DUP3 MSTORE POP POP JUMP JUMPDEST PUSH1 0x0 PUSH1 0x20 DUP3 ADD SWAP1 POP PUSH2 0x1F6D PUSH1 0x0 DUP4 ADD DUP5 PUSH2 0x1F49 JUMP JUMPDEST SWAP3 SWAP2 POP POP JUMP JUMPDEST PUSH1 0x0 DUP2 ISZERO ISZERO SWAP1 POP SWAP2 SWAP1 POP JUMP JUMPDEST PUSH2 0x1F88 DUP2 PUSH2 0x1F73 JUMP JUMPDEST DUP3 MSTORE POP POP JUMP JUMPDEST PUSH1 0x0 PUSH1 0x20 DUP3 ADD SWAP1 POP PUSH2 0x1FA3 PUSH1 0x0 DUP4 ADD DUP5 PUSH2 0x1F7F JUMP JUMPDEST SWAP3 SWAP2 POP POP JUMP JUMPDEST PUSH1 0x0 DUP1 PUSH1 0x0 PUSH1 0x60 DUP5 DUP7 SUB SLT ISZERO PUSH2 0x1FC2 JUMPI PUSH2 0x1FC1 PUSH2 0x1C72 JUMP JUMPDEST JUMPDEST PUSH1 0x0 PUSH2 0x1FD0 DUP7 DUP3 DUP8 ADD PUSH2 0x1C9D JUMP JUMPDEST SWAP4 POP POP PUSH1 0x20 PUSH2 0x1FE1 DUP7 DUP3 DUP8 ADD PUSH2 0x1C9D JUMP JUMPDEST SWAP3 POP POP PUSH1 0x40 PUSH2 0x1FF2 DUP7 DUP3 DUP8 ADD PUSH2 0x1C9D JUMP JUMPDEST SWAP2 POP POP SWAP3 POP SWAP3 POP SWAP3 JUMP JUMPDEST PUSH2 0x2005 DUP2 PUSH2 0x1C7C JUMP JUMPDEST DUP3 MSTORE POP POP JUMP JUMPDEST PUSH2 0x2014 DUP2 PUSH2 0x1EB8 JUMP JUMPDEST DUP3 MSTORE POP POP JUMP JUMPDEST PUSH32 0x4E487B7100000000000000000000000000000000000000000000000000000000 PUSH1 0x0 MSTORE PUSH1 0x21 PUSH1 0x4 MSTORE PUSH1 0x24 PUSH1 0x0 REVERT JUMPDEST PUSH1 0x2 DUP2 LT PUSH2 0x205A JUMPI PUSH2 0x2059 PUSH2 0x201A JUMP JUMPDEST JUMPDEST POP JUMP JUMPDEST PUSH1 0x0 DUP2 SWAP1 POP PUSH2 0x206B DUP3 PUSH2 0x2049 JUMP JUMPDEST SWAP2 SWAP1 POP JUMP JUMPDEST PUSH1 0x0 PUSH2 0x207B DUP3 PUSH2 0x205D JUMP JUMPDEST SWAP1 POP SWAP2 SWAP1 POP JUMP JUMPDEST PUSH2 0x208B DUP2 PUSH2 0x2070 JUMP JUMPDEST DUP3 MSTORE POP POP JUMP JUMPDEST PUSH1 0xC0 DUP3 ADD PUSH1 0x0 DUP3 ADD MLOAD PUSH2 0x20A7 PUSH1 0x0 DUP6 ADD DUP3 PUSH2 0x1FFC JUMP JUMPDEST POP PUSH1 0x20 DUP3 ADD MLOAD PUSH2 0x20BA PUSH1 0x20 DUP6 ADD DUP3 PUSH2 0x1FFC JUMP JUMPDEST POP PUSH1 0x40 DUP3 ADD MLOAD PUSH2 0x20CD PUSH1 0x40 DUP6 ADD DUP3 PUSH2 0x200B JUMP JUMPDEST POP PUSH1 0x60 DUP3 ADD MLOAD PUSH2 0x20E0 PUSH1 0x60 DUP6 ADD DUP3 PUSH2 0x1FFC JUMP JUMPDEST POP PUSH1 0x80 DUP3 ADD MLOAD PUSH2 0x20F3 PUSH1 0x80 DUP6 ADD DUP3 PUSH2 0x1FFC JUMP JUMPDEST POP PUSH1 0xA0 DUP3 ADD MLOAD PUSH2 0x2106 PUSH1 0xA0 DUP6 ADD DUP3 PUSH2 0x2082 JUMP JUMPDEST POP POP POP POP JUMP JUMPDEST PUSH1 0x0 PUSH1 0xC0 DUP3 ADD SWAP1 POP PUSH2 0x2121 PUSH1 0x0 DUP4 ADD DUP5 PUSH2 0x2091 JUMP JUMPDEST SWAP3 SWAP2 POP POP JUMP JUMPDEST PUSH1 0x0 DUP1 PUSH1 0x40 DUP4 DUP6 SUB SLT ISZERO PUSH2 0x213E JUMPI PUSH2 0x213D PUSH2 0x1C72 JUMP JUMPDEST JUMPDEST PUSH1 0x0 PUSH2 0x214C DUP6 DUP3 DUP7 ADD PUSH2 0x1C9D JUMP JUMPDEST SWAP3 POP POP PUSH1 0x20 PUSH2 0x215D DUP6 DUP3 DUP7 ADD PUSH2 0x1EE1 JUMP JUMPDEST SWAP2 POP POP SWAP3 POP SWAP3 SWAP1 POP JUMP JUMPDEST PUSH1 0x0 DUP1 PUSH1 0x0 DUP1 PUSH1 0x0 DUP1 PUSH1 0xC0 DUP8 DUP10 SUB SLT ISZERO PUSH2 0x2184 JUMPI PUSH2 0x2183 PUSH2 0x1C72 JUMP JUMPDEST JUMPDEST PUSH1 0x0 PUSH2 0x2192 DUP10 DUP3 DUP11 ADD PUSH2 0x1C9D JUMP JUMPDEST SWAP7 POP POP PUSH1 0x20 DUP8 ADD CALLDATALOAD PUSH8 0xFFFFFFFFFFFFFFFF DUP2 GT ISZERO PUSH2 0x21B3 JUMPI PUSH2 0x21B2 PUSH2 0x1C77 JUMP JUMPDEST JUMPDEST PUSH2 0x21BF DUP10 DUP3 DUP11 ADD PUSH2 0x1E21 JUMP JUMPDEST SWAP6 POP POP PUSH1 0x40 PUSH2 0x21D0 DUP10 DUP3 DUP11 ADD PUSH2 0x1C9D JUMP JUMPDEST SWAP5 POP POP PUSH1 0x60 PUSH2 0x21E1 DUP10 DUP3 DUP11 ADD PUSH2 0x1C9D JUMP JUMPDEST SWAP4 POP POP PUSH1 0x80 PUSH2 0x21F2 DUP10 DUP3 DUP11 ADD PUSH2 0x1C9D JUMP JUMPDEST SWAP3 POP POP PUSH1 0xA0 PUSH2 0x2203 DUP10 DUP3 DUP11 ADD PUSH2 0x1C9D JUMP JUMPDEST SWAP2 POP POP SWAP3 SWAP6 POP SWAP3 SWAP6 POP SWAP3 SWAP6 JUMP JUMPDEST PUSH1 0x0 PUSH1 0x20 DUP3 DUP5 SUB SLT ISZERO PUSH2 0x2226 JUMPI PUSH2 0x2225 PUSH2 0x1C72 JUMP JUMPDEST JUMPDEST PUSH1 0x0 PUSH2 0x2234 DUP5 DUP3 DUP6 ADD PUSH2 0x1EE1 JUMP JUMPDEST SWAP2 POP POP SWAP3 SWAP2 POP POP JUMP JUMPDEST PUSH2 0x2246 DUP2 PUSH2 0x1C7C JUMP JUMPDEST DUP3 MSTORE POP POP JUMP JUMPDEST PUSH1 0x0 DUP2 SWAP1 POP SWAP2 SWAP1 POP JUMP JUMPDEST PUSH1 0x0 DUP2 SWAP1 POP SWAP2 SWAP1 POP JUMP JUMPDEST PUSH1 0x0 PUSH2 0x227B PUSH2 0x2276 PUSH2 0x2271 DUP5 PUSH2 0x224C JUMP JUMPDEST PUSH2 0x2256 JUMP JUMPDEST PUSH2 0x1C7C JUMP JUMPDEST SWAP1 POP SWAP2 SWAP1 POP JUMP JUMPDEST PUSH2 0x228B DUP2 PUSH2 0x2260 JUMP JUMPDEST DUP3 MSTORE POP POP JUMP JUMPDEST PUSH1 0x0 PUSH1 0x60 DUP3 ADD SWAP1 POP PUSH2 0x22A6 PUSH1 0x0 DUP4 ADD DUP7 PUSH2 0x223D JUMP JUMPDEST PUSH2 0x22B3 PUSH1 0x20 DUP4 ADD DUP6 PUSH2 0x2282 JUMP JUMPDEST PUSH2 0x22C0 PUSH1 0x40 DUP4 ADD DUP5 PUSH2 0x223D JUMP JUMPDEST SWAP5 SWAP4 POP POP POP POP JUMP JUMPDEST PUSH1 0x0 DUP2 MLOAD SWAP1 POP PUSH2 0x22D7 DUP2 PUSH2 0x1C86 JUMP JUMPDEST SWAP3 SWAP2 POP POP JUMP JUMPDEST PUSH1 0x0 PUSH1 0x20 DUP3 DUP5 SUB SLT ISZERO PUSH2 0x22F3 JUMPI PUSH2 0x22F2 PUSH2 0x1C72 JUMP JUMPDEST JUMPDEST PUSH1 0x0 PUSH2 0x2301 DUP5 DUP3 DUP6 ADD PUSH2 0x22C8 JUMP JUMPDEST SWAP2 POP POP SWAP3 SWAP2 POP POP JUMP JUMPDEST PUSH1 0x0 PUSH1 0x60 DUP3 ADD SWAP1 POP PUSH2 0x231F PUSH1 0x0 DUP4 ADD DUP7 PUSH2 0x1F49 JUMP JUMPDEST PUSH2 0x232C PUSH1 0x20 DUP4 ADD DUP6 PUSH2 0x1F49 JUMP JUMPDEST PUSH2 0x2339 PUSH1 0x40 DUP4 ADD DUP5 PUSH2 0x1CDF JUMP JUMPDEST SWAP5 SWAP4 POP POP POP POP JUMP JUMPDEST PUSH2 0x234A DUP2 PUSH2 0x1F73 JUMP JUMPDEST DUP2 EQ PUSH2 0x2355 JUMPI PUSH1 0x0 DUP1 REVERT JUMPDEST POP JUMP JUMPDEST PUSH1 0x0 DUP2 MLOAD SWAP1 POP PUSH2 0x2367 DUP2 PUSH2 0x2341 JUMP JUMPDEST SWAP3 SWAP2 POP POP JUMP JUMPDEST PUSH1 0x0 PUSH1 0x20 DUP3 DUP5 SUB SLT ISZERO PUSH2 0x2383 JUMPI PUSH2 0x2382 PUSH2 0x1C72 JUMP JUMPDEST JUMPDEST PUSH1 0x0 PUSH2 0x2391 DUP5 DUP3 DUP6 ADD PUSH2 0x2358 JUMP JUMPDEST SWAP2 POP POP SWAP3 SWAP2 POP POP JUMP JUMPDEST PUSH32 0x4E487B7100000000000000000000000000000000000000000000000000000000 PUSH1 0x0 MSTORE PUSH1 0x11 PUSH1 0x4 MSTORE PUSH1 0x24 PUSH1 0x0 REVERT JUMPDEST PUSH1 0x0 PUSH2 0x23D4 DUP3 PUSH2 0x1C7C JUMP JUMPDEST SWAP2 POP PUSH2 0x23DF DUP4 PUSH2 0x1C7C JUMP JUMPDEST SWAP3 POP DUP3 DUP3 ADD SWAP1 POP DUP1 DUP3 GT ISZERO PUSH2 0x23F7 JUMPI PUSH2 0x23F6 PUSH2 0x239A JUMP JUMPDEST JUMPDEST SWAP3 SWAP2 POP POP JUMP JUMPDEST PUSH1 0x0 PUSH1 0x40 DUP3 ADD SWAP1 POP PUSH2 0x2412 PUSH1 0x0 DUP4 ADD DUP6 PUSH2 0x1F49 JUMP JUMPDEST PUSH2 0x241F PUSH1 0x20 DUP4 ADD DUP5 PUSH2 0x1CDF JUMP JUMPDEST SWAP4 SWAP3 POP POP POP JUMP JUMPDEST PUSH1 0x0 DUP2 MLOAD SWAP1 POP SWAP2 SWAP1 POP JUMP JUMPDEST PUSH1 0x0 DUP2 SWAP1 POP SWAP3 SWAP2 POP POP JUMP JUMPDEST PUSH1 0x0 JUMPDEST DUP4 DUP2 LT ISZERO PUSH2 0x245A JUMPI DUP1 DUP3 ADD MLOAD DUP2 DUP5 ADD MSTORE PUSH1 0x20 DUP2 ADD SWAP1 POP PUSH2 0x243F JUMP JUMPDEST PUSH1 0x0 DUP5 DUP5 ADD MSTORE POP POP POP POP JUMP JUMPDEST PUSH1 0x0 PUSH2 0x2471 DUP3 PUSH2 0x2426 JUMP JUMPDEST PUSH2 0x247B DUP2 DUP6 PUSH2 0x2431 JUMP JUMPDEST SWAP4 POP PUSH2 0x248B DUP2 DUP6 PUSH1 0x20 DUP7 ADD PUSH2 0x243C JUMP JUMPDEST DUP1 DUP5 ADD SWAP2 POP POP SWAP3 SWAP2 POP POP JUMP JUMPDEST PUSH1 0x0 PUSH2 0x24A3 DUP3 DUP5 PUSH2 0x2466 JUMP JUMPDEST SWAP2 POP DUP2 SWAP1 POP SWAP3 SWAP2 POP POP JUMP JUMPDEST PUSH1 0x0 DUP3 DUP3 MSTORE PUSH1 0x20 DUP3 ADD SWAP1 POP SWAP3 SWAP2 POP POP JUMP JUMPDEST PUSH32 0x4E6F7420796F757220776F726B6572206B657900000000000000000000000000 PUSH1 0x0 DUP3 ADD MSTORE POP JUMP JUMPDEST PUSH1 0x0 PUSH2 0x24F5 PUSH1 0x13 DUP4 PUSH2 0x24AE JUMP JUMPDEST SWAP2 POP PUSH2 0x2500 DUP3 PUSH2 0x24BF JUMP JUMPDEST PUSH1 0x20 DUP3 ADD SWAP1 POP SWAP2 SWAP1 POP JUMP JUMPDEST PUSH1 0x0 PUSH1 0x20 DUP3 ADD SWAP1 POP DUP2 DUP2 SUB PUSH1 0x0 DUP4 ADD MSTORE PUSH2 0x2524 DUP2 PUSH2 0x24E8 JUMP JUMPDEST SWAP1 POP SWAP2 SWAP1 POP JUMP JUMPDEST PUSH32 0x4E487B7100000000000000000000000000000000000000000000000000000000 PUSH1 0x0 MSTORE PUSH1 0x32 PUSH1 0x4 MSTORE PUSH1 0x24 PUSH1 0x0 REVERT JUMPDEST PUSH32 0x4E487B7100000000000000000000000000000000000000000000000000000000 PUSH1 0x0 MSTORE PUSH1 0x22 PUSH1 0x4 MSTORE PUSH1 0x24 PUSH1 0x0 REVERT JUMPDEST PUSH1 0x0 PUSH1 0x2 DUP3 DIV SWAP1 POP PUSH1 0x1 DUP3 AND DUP1 PUSH2 0x25A1 JUMPI PUSH1 0x7F DUP3 AND SWAP2 POP JUMPDEST PUSH1 0x20 DUP3 LT DUP2 SUB PUSH2 0x25B4 JUMPI PUSH2 0x25B3 PUSH2 0x255A JUMP JUMPDEST JUMPDEST POP SWAP2 SWAP1 POP JUMP JUMPDEST PUSH1 0x0 DUP2 SWAP1 POP SWAP3 SWAP2 POP POP JUMP JUMPDEST PUSH1 0x0 DUP2 SWAP1 POP DUP2 PUSH1 0x0 MSTORE PUSH1 0x20 PUSH1 0x0 KECCAK256 SWAP1 POP SWAP2 SWAP1 POP JUMP JUMPDEST PUSH1 0x0 DUP2 SLOAD PUSH2 0x25E7 DUP2 PUSH2 0x2589 JUMP JUMPDEST PUSH2 0x25F1 DUP2 DUP7 PUSH2 0x25BA JUMP JUMPDEST SWAP5 POP PUSH1 0x1 DUP3 AND PUSH1 0x0 DUP2 EQ PUSH2 0x260C JUMPI PUSH1 0x1 DUP2 EQ PUSH2 0x2621 JUMPI PUSH2 0x2654 JUMP JUMPDEST PUSH1 0xFF NOT DUP4 AND DUP7 MSTORE DUP2 ISZERO ISZERO DUP3 MUL DUP7 ADD SWAP4 POP PUSH2 0x2654 JUMP JUMPDEST PUSH2 0x262A DUP6 PUSH2 0x25C5 JUMP JUMPDEST PUSH1 0x0 JUMPDEST DUP4 DUP2 LT ISZERO PUSH2 0x264C JUMPI DUP2 SLOAD DUP2 DUP10 ADD MSTORE PUSH1 0x1 DUP3 ADD SWAP2 POP PUSH1 0x20 DUP2 ADD SWAP1 POP PUSH2 0x262D JUMP JUMPDEST DUP4 DUP9 ADD SWAP6 POP POP POP JUMPDEST POP POP POP SWAP3 SWAP2 POP POP JUMP JUMPDEST PUSH1 0x0 PUSH2 0x2669 DUP3 DUP5 PUSH2 0x25DA JUMP JUMPDEST SWAP2 POP DUP2 SWAP1 POP SWAP3 SWAP2 POP POP JUMP JUMPDEST PUSH1 0x0 PUSH2 0x267F DUP3 PUSH2 0x1C7C JUMP JUMPDEST SWAP2 POP PUSH2 0x268A DUP4 PUSH2 0x1C7C JUMP JUMPDEST SWAP3 POP DUP3 DUP3 SUB SWAP1 POP DUP2 DUP2 GT ISZERO PUSH2 0x26A2 JUMPI PUSH2 0x26A1 PUSH2 0x239A JUMP JUMPDEST JUMPDEST SWAP3 SWAP2 POP POP JUMP JUMPDEST PUSH1 0x0 DUP2 SLOAD SWAP1 POP PUSH2 0x26B7 DUP2 PUSH2 0x2589 JUMP JUMPDEST SWAP1 POP SWAP2 SWAP1 POP JUMP JUMPDEST PUSH1 0x0 DUP2 SWAP1 POP DUP2 PUSH1 0x0 MSTORE PUSH1 0x20 PUSH1 0x0 KECCAK256 SWAP1 POP SWAP2 SWAP1 POP JUMP JUMPDEST PUSH1 0x0 DUP2 SWAP1 POP DUP2 PUSH1 0x0 MSTORE PUSH1 0x20 PUSH1 0x0 KECCAK256 SWAP1 POP SWAP2 SWAP1 POP JUMP JUMPDEST PUSH1 0x0 PUSH1 0x20 PUSH1 0x1F DUP4 ADD DIV SWAP1 POP SWAP2 SWAP1 POP JUMP JUMPDEST PUSH1 0x0 DUP3 DUP3 SHL SWAP1 POP SWAP3 SWAP2 POP POP JUMP JUMPDEST PUSH1 0x0 PUSH1 0x8 DUP4 MUL PUSH2 0x2735 PUSH32 0xFFFFFFFFFFFFFFFFFFFFFFFFFFFFFFFFFFFFFFFFFFFFFFFFFFFFFFFFFFFFFFFF DUP3 PUSH2 0x26F8 JUMP JUMPDEST PUSH2 0x273F DUP7 DUP4 PUSH2 0x26F8 JUMP JUMPDEST SWAP6 POP DUP1 NOT DUP5 AND SWAP4 POP DUP1 DUP7 AND DUP5 OR SWAP3 POP POP POP SWAP4 SWAP3 POP POP POP JUMP JUMPDEST PUSH1 0x0 PUSH2 0x2772 PUSH2 0x276D PUSH2 0x2768 DUP5 PUSH2 0x1C7C JUMP JUMPDEST PUSH2 0x2256 JUMP JUMPDEST PUSH2 0x1C7C JUMP JUMPDEST SWAP1 POP SWAP2 SWAP1 POP JUMP JUMPDEST PUSH1 0x0 DUP2 SWAP1 POP SWAP2 SWAP1 POP JUMP JUMPDEST PUSH2 0x278C DUP4 PUSH2 0x2757 JUMP JUMPDEST PUSH2 0x27A0 PUSH2 0x2798 DUP3 PUSH2 0x2779 JUMP JUMPDEST DUP5 DUP5 SLOAD PUSH2 0x2705 JUMP JUMPDEST DUP3 SSTORE POP POP POP POP JUMP JUMPDEST PUSH1 0x0 SWAP1 JUMP JUMPDEST PUSH2 0x27B5 PUSH2 0x27A8 JUMP JUMPDEST PUSH2 0x27C0 DUP2 DUP5 DUP5 PUSH2 0x2783 JUMP JUMPDEST POP POP POP JUMP JUMPDEST JUMPDEST DUP2 DUP2 LT ISZERO PUSH2 0x27E4 JUMPI PUSH2 0x27D9 PUSH1 0x0 DUP3 PUSH2 0x27AD JUMP JUMPDEST PUSH1 0x1 DUP2 ADD SWAP1 POP PUSH2 0x27C6 JUMP JUMPDEST POP POP JUMP JUMPDEST PUSH1 0x1F DUP3 GT ISZERO PUSH2 0x2829 JUMPI PUSH2 0x27FA DUP2 PUSH2 0x26BE JUMP JUMPDEST PUSH2 0x2803 DUP5 PUSH2 0x26E8 JUMP JUMPDEST DUP2 ADD PUSH1 0x20 DUP6 LT ISZERO PUSH2 0x2812 JUMPI DUP2 SWAP1 POP JUMPDEST PUSH2 0x2826 PUSH2 0x281E DUP6 PUSH2 0x26E8 JUMP JUMPDEST DUP4 ADD DUP3 PUSH2 0x27C5 JUMP JUMPDEST POP POP JUMPDEST POP POP POP JUMP JUMPDEST PUSH1 0x0 DUP3 DUP3 SHR SWAP1 POP SWAP3 SWAP2 POP POP JUMP JUMPDEST PUSH1 0x0 PUSH2 0x284C PUSH1 0x0 NOT DUP5 PUSH1 0x8 MUL PUSH2 0x282E JUMP JUMPDEST NOT DUP1 DUP4 AND SWAP2 POP POP SWAP3 SWAP2 POP POP JUMP JUMPDEST PUSH1 0x0 PUSH2 0x2865 DUP4 DUP4 PUSH2 0x283B JUMP JUMPDEST SWAP2 POP DUP3 PUSH1 0x2 MUL DUP3 OR SWAP1 POP SWAP3 SWAP2 POP POP JUMP JUMPDEST DUP2 DUP2 SUB PUSH2 0x2883 JUMPI POP POP PUSH2 0x295B JUMP JUMPDEST PUSH2 0x288C DUP3 PUSH2 0x26A8 JUMP JUMPDEST PUSH8 0xFFFFFFFFFFFFFFFF DUP2 GT ISZERO PUSH2 0x28A5 JUMPI PUSH2 0x28A4 PUSH2 0x1D24 JUMP JUMPDEST JUMPDEST PUSH2 0x28AF DUP3 SLOAD PUSH2 0x2589 JUMP JUMPDEST PUSH2 0x28BA DUP3 DUP3 DUP6 PUSH2 0x27E8 JUMP JUMPDEST PUSH1 0x0 PUSH1 0x1F DUP4 GT PUSH1 0x1 DUP2 EQ PUSH2 0x28E9 JUMPI PUSH1 0x0 DUP5 ISZERO PUSH2 0x28D7 JUMPI DUP3 DUP8 ADD SLOAD SWAP1 POP JUMPDEST PUSH2 0x28E1 DUP6 DUP3 PUSH2 0x2859 JUMP JUMPDEST DUP7 SSTORE POP PUSH2 0x2954 JUMP JUMPDEST PUSH1 0x1F NOT DUP5 AND PUSH2 0x28F7 DUP8 PUSH2 0x26D3 JUMP JUMPDEST SWAP7 POP PUSH2 0x2902 DUP7 PUSH2 0x26BE JUMP JUMPDEST PUSH1 0x0 JUMPDEST DUP3 DUP2 LT ISZERO PUSH2 0x292A JUMPI DUP5 DUP10 ADD SLOAD DUP3 SSTORE PUSH1 0x1 DUP3 ADD SWAP2 POP PUSH1 0x1 DUP6 ADD SWAP5 POP PUSH1 0x20 DUP2 ADD SWAP1 POP PUSH2 0x2905 JUMP JUMPDEST DUP7 DUP4 LT ISZERO PUSH2 0x2947 JUMPI DUP5 DUP10 ADD SLOAD PUSH2 0x2943 PUSH1 0x1F DUP10 AND DUP3 PUSH2 0x283B JUMP JUMPDEST DUP4 SSTORE POP JUMPDEST PUSH1 0x1 PUSH1 0x2 DUP9 MUL ADD DUP9 SSTORE POP POP POP JUMPDEST POP POP POP POP POP POP JUMPDEST JUMP JUMPDEST PUSH32 0x4E487B7100000000000000000000000000000000000000000000000000000000 PUSH1 0x0 MSTORE PUSH1 0x31 PUSH1 0x4 MSTORE PUSH1 0x24 PUSH1 0x0 REVERT JUMPDEST PUSH32 0x54686973206B657920697320696E20626C61636B6C6973740000000000000000 PUSH1 0x0 DUP3 ADD MSTORE POP JUMP JUMPDEST PUSH1 0x0 PUSH2 0x29C2 PUSH1 0x18 DUP4 PUSH2 0x24AE JUMP JUMPDEST SWAP2 POP PUSH2 0x29CD DUP3 PUSH2 0x298C JUMP JUMPDEST PUSH1 0x20 DUP3 ADD SWAP1 POP SWAP2 SWAP1 POP JUMP JUMPDEST PUSH1 0x0 PUSH1 0x20 DUP3 ADD SWAP1 POP DUP2 DUP2 SUB PUSH1 0x0 DUP4 ADD MSTORE PUSH2 0x29F1 DUP2 PUSH2 0x29B5 JUMP JUMPDEST SWAP1 POP SWAP2 SWAP1 POP JUMP JUMPDEST PUSH32 0x4B657920616C7265616479207265676973746572656400000000000000000000 PUSH1 0x0 DUP3 ADD MSTORE POP JUMP JUMPDEST PUSH1 0x0 PUSH2 0x2A2E PUSH1 0x16 DUP4 PUSH2 0x24AE JUMP JUMPDEST SWAP2 POP PUSH2 0x2A39 DUP3 PUSH2 0x29F8 JUMP JUMPDEST PUSH1 0x20 DUP3 ADD SWAP1 POP SWAP2 SWAP1 POP JUMP JUMPDEST PUSH1 0x0 PUSH1 0x20 DUP3 ADD SWAP1 POP DUP2 DUP2 SUB PUSH1 0x0 DUP4 ADD MSTORE PUSH2 0x2A5D DUP2 PUSH2 0x2A21 JUMP JUMPDEST SWAP1 POP SWAP2 SWAP1 POP JUMP JUMPDEST PUSH32 0x4D6178696D756D206E756D626572206F6620776F726B65727320283230292072 PUSH1 0x0 DUP3 ADD MSTORE PUSH32 0x6561636865640000000000000000000000000000000000000000000000000000 PUSH1 0x20 DUP3 ADD MSTORE POP JUMP JUMPDEST PUSH1 0x0 PUSH2 0x2AC0 PUSH1 0x26 DUP4 PUSH2 0x24AE JUMP JUMPDEST SWAP2 POP PUSH2 0x2ACB DUP3 PUSH2 0x2A64 JUMP JUMPDEST PUSH1 0x40 DUP3 ADD SWAP1 POP SWAP2 SWAP1 POP JUMP JUMPDEST PUSH1 0x0 PUSH1 0x20 DUP3 ADD SWAP1 POP DUP2 DUP2 SUB PUSH1 0x0 DUP4 ADD MSTORE PUSH2 0x2AEF DUP2 PUSH2 0x2AB3 JUMP JUMPDEST SWAP1 POP SWAP2 SWAP1 POP JUMP JUMPDEST PUSH2 0x2AFF DUP3 PUSH2 0x2426 JUMP JUMPDEST PUSH8 0xFFFFFFFFFFFFFFFF DUP2 GT ISZERO PUSH2 0x2B18 JUMPI PUSH2 0x2B17 PUSH2 0x1D24 JUMP JUMPDEST JUMPDEST PUSH2 0x2B22 DUP3 SLOAD PUSH2 0x2589 JUMP JUMPDEST PUSH2 0x2B2D DUP3 DUP3 DUP6 PUSH2 0x27E8 JUMP JUMPDEST PUSH1 0x0 PUSH1 0x20 SWAP1 POP PUSH1 0x1F DUP4 GT PUSH1 0x1 DUP2 EQ PUSH2 0x2B60 JUMPI PUSH1 0x0 DUP5 ISZERO PUSH2 0x2B4E JUMPI DUP3 DUP8 ADD MLOAD SWAP1 POP JUMPDEST PUSH2 0x2B58 DUP6 DUP3 PUSH2 0x2859 JUMP JUMPDEST DUP7 SSTORE POP PUSH2 0x2BC0 JUMP JUMPDEST PUSH1 0x1F NOT DUP5 AND PUSH2 0x2B6E DUP7 PUSH2 0x26BE JUMP JUMPDEST PUSH1 0x0 JUMPDEST DUP3 DUP2 LT ISZERO PUSH2 0x2B96 JUMPI DUP5 DUP10 ADD MLOAD DUP3 SSTORE PUSH1 0x1 DUP3 ADD SWAP2 POP PUSH1 0x20 DUP6 ADD SWAP5 POP PUSH1 0x20 DUP2 ADD SWAP1 POP PUSH2 0x2B71 JUMP JUMPDEST DUP7 DUP4 LT ISZERO PUSH2 0x2BB3 JUMPI DUP5 DUP10 ADD MLOAD PUSH2 0x2BAF PUSH1 0x1F DUP10 AND DUP3 PUSH2 0x283B JUMP JUMPDEST DUP4 SSTORE POP JUMPDEST PUSH1 0x1 PUSH1 0x2 DUP9 MUL ADD DUP9 SSTORE POP POP POP JUMPDEST POP POP POP POP POP POP JUMP JUMPDEST PUSH1 0x0 PUSH1 0x40 DUP3 ADD SWAP1 POP PUSH2 0x2BDD PUSH1 0x0 DUP4 ADD DUP6 PUSH2 0x1F49 JUMP JUMPDEST PUSH2 0x2BEA PUSH1 0x20 DUP4 ADD DUP5 PUSH2 0x1F7F JUMP JUMPDEST SWAP4 SWAP3 POP POP POP JUMP JUMPDEST PUSH1 0x0 DUP1 REVERT JUMPDEST PUSH1 0x0 DUP1 REVERT JUMPDEST PUSH1 0x0 PUSH2 0x2C0E PUSH2 0x2C09 DUP5 PUSH2 0x1D9F JUMP JUMPDEST PUSH2 0x1D84 JUMP JUMPDEST SWAP1 POP DUP3 DUP2 MSTORE PUSH1 0x20 DUP2 ADD DUP5 DUP5 DUP5 ADD GT ISZERO PUSH2 0x2C2A JUMPI PUSH2 0x2C29 PUSH2 0x1D0E JUMP JUMPDEST JUMPDEST PUSH2 0x2C35 DUP5 DUP3 DUP6 PUSH2 0x243C JUMP JUMPDEST POP SWAP4 SWAP3 POP POP POP JUMP JUMPDEST PUSH1 0x0 DUP3 PUSH1 0x1F DUP4 ADD SLT PUSH2 0x2C52 JUMPI PUSH2 0x2C51 PUSH2 0x1D09 JUMP JUMPDEST JUMPDEST DUP2 MLOAD PUSH2 0x2C62 DUP5 DUP3 PUSH1 0x20 DUP7 ADD PUSH2 0x2BFB JUMP JUMPDEST SWAP2 POP POP SWAP3 SWAP2 POP POP JUMP JUMPDEST PUSH1 0x0 DUP2 MLOAD SWAP1 POP PUSH2 0x2C7A DUP2 PUSH2 0x1ECA JUMP JUMPDEST SWAP3 SWAP2 POP POP JUMP JUMPDEST PUSH1 0x2 DUP2 LT PUSH2 0x2C8D JUMPI PUSH1 0x0 DUP1 REVERT JUMPDEST POP JUMP JUMPDEST PUSH1 0x0 DUP2 MLOAD SWAP1 POP PUSH2 0x2C9F DUP2 PUSH2 0x2C80 JUMP JUMPDEST SWAP3 SWAP2 POP POP JUMP JUMPDEST PUSH1 0x0 PUSH1 0xC0 DUP3 DUP5 SUB SLT ISZERO PUSH2 0x2CBB JUMPI PUSH2 0x2CBA PUSH2 0x2BF1 JUMP JUMPDEST JUMPDEST PUSH2 0x2CC5 PUSH1 0xC0 PUSH2 0x1D84 JUMP JUMPDEST SWAP1 POP PUSH1 0x0 DUP3 ADD MLOAD PUSH8 0xFFFFFFFFFFFFFFFF DUP2 GT ISZERO PUSH2 0x2CE5 JUMPI PUSH2 0x2CE4 PUSH2 0x2BF6 JUMP JUMPDEST JUMPDEST PUSH2 0x2CF1 DUP5 DUP3 DUP6 ADD PUSH2 0x2C3D JUMP JUMPDEST PUSH1 0x0 DUP4 ADD MSTORE POP PUSH1 0x20 DUP3 ADD MLOAD PUSH8 0xFFFFFFFFFFFFFFFF DUP2 GT ISZERO PUSH2 0x2D15 JUMPI PUSH2 0x2D14 PUSH2 0x2BF6 JUMP JUMPDEST JUMPDEST PUSH2 0x2D21 DUP5 DUP3 DUP6 ADD PUSH2 0x2C3D JUMP JUMPDEST PUSH1 0x20 DUP4 ADD MSTORE POP PUSH1 0x40 PUSH2 0x2D35 DUP5 DUP3 DUP6 ADD PUSH2 0x22C8 JUMP JUMPDEST PUSH1 0x40 DUP4 ADD MSTORE POP PUSH1 0x60 PUSH2 0x2D49 DUP5 DUP3 DUP6 ADD PUSH2 0x2C6B JUMP JUMPDEST PUSH1 0x60 DUP4 ADD MSTORE POP PUSH1 0x80 PUSH2 0x2D5D DUP5 DUP3 DUP6 ADD PUSH2 0x2C90 JUMP JUMPDEST PUSH1 0x80 DUP4 ADD MSTORE POP PUSH1 0xA0 PUSH2 0x2D71 DUP5 DUP3 DUP6 ADD PUSH2 0x22C8 JUMP JUMPDEST PUSH1 0xA0 DUP4 ADD MSTORE POP SWAP3 SWAP2 POP POP JUMP JUMPDEST PUSH1 0x0 PUSH1 0x20 DUP3 DUP5 SUB SLT ISZERO PUSH2 0x2D93 JUMPI PUSH2 0x2D92 PUSH2 0x1C72 JUMP JUMPDEST JUMPDEST PUSH1 0x0 DUP3 ADD MLOAD PUSH8 0xFFFFFFFFFFFFFFFF DUP2 GT ISZERO PUSH2 0x2DB1 JUMPI PUSH2 0x2DB0 PUSH2 0x1C77 JUMP JUMPDEST JUMPDEST PUSH2 0x2DBD DUP5 DUP3 DUP6 ADD PUSH2 0x2CA5 JUMP JUMPDEST SWAP2 POP POP SWAP3 SWAP2 POP POP JUMP JUMPDEST PUSH1 0x0 PUSH2 0x2DD1 DUP3 PUSH2 0x1C7C JUMP JUMPDEST SWAP2 POP PUSH2 0x2DDC DUP4 PUSH2 0x1C7C JUMP JUMPDEST SWAP3 POP DUP3 DUP3 MUL PUSH2 0x2DEA DUP2 PUSH2 0x1C7C JUMP JUMPDEST SWAP2 POP DUP3 DUP3 DIV DUP5 EQ DUP4 ISZERO OR PUSH2 0x2E01 JUMPI PUSH2 0x2E00 PUSH2 0x239A JUMP JUMPDEST JUMPDEST POP SWAP3 SWAP2 POP POP JUMP JUMPDEST PUSH32 0x757365722062616C616E63652062656C6F77206D617820636F6E746578742077 PUSH1 0x0 DUP3 ADD MSTORE PUSH32 0x696E646F77000000000000000000000000000000000000000000000000000000 PUSH1 0x20 DUP3 ADD MSTORE POP JUMP JUMPDEST PUSH1 0x0 PUSH2 0x2E64 PUSH1 0x25 DUP4 PUSH2 0x24AE JUMP JUMPDEST SWAP2 POP PUSH2 0x2E6F DUP3 PUSH2 0x2E08 JUMP JUMPDEST PUSH1 0x40 DUP3 ADD SWAP1 POP SWAP2 SWAP1 POP JUMP JUMPDEST PUSH1 0x0 PUSH1 0x20 DUP3 ADD SWAP1 POP DUP2 DUP2 SUB PUSH1 0x0 DUP4 ADD MSTORE PUSH2 0x2E93 DUP2 PUSH2 0x2E57 JUMP JUMPDEST SWAP1 POP SWAP2 SWAP1 POP JUMP JUMPDEST PUSH32 0x5468697320776F726B657220697320696E20626C61636B6C6973740000000000 PUSH1 0x0 DUP3 ADD MSTORE POP JUMP JUMPDEST PUSH1 0x0 PUSH2 0x2ED0 PUSH1 0x1B DUP4 PUSH2 0x24AE JUMP JUMPDEST SWAP2 POP PUSH2 0x2EDB DUP3 PUSH2 0x2E9A JUMP JUMPDEST PUSH1 0x20 DUP3 ADD SWAP1 POP SWAP2 SWAP1 POP JUMP JUMPDEST PUSH1 0x0 PUSH1 0x20 DUP3 ADD SWAP1 POP DUP2 DUP2 SUB PUSH1 0x0 DUP4 ADD MSTORE PUSH2 0x2EFF DUP2 PUSH2 0x2EC3 JUMP JUMPDEST SWAP1 POP SWAP2 SWAP1 POP JUMP JUMPDEST PUSH32 0x5468697320776F726B6572206973206E6F742079657420617070726F76656400 PUSH1 0x0 DUP3 ADD MSTORE POP JUMP JUMPDEST PUSH1 0x0 PUSH2 0x2F3C PUSH1 0x1F DUP4 PUSH2 0x24AE JUMP JUMPDEST SWAP2 POP PUSH2 0x2F47 DUP3 PUSH2 0x2F06 JUMP JUMPDEST PUSH1 0x20 DUP3 ADD SWAP1 POP SWAP2 SWAP1 POP JUMP JUMPDEST PUSH1 0x0 PUSH1 0x20 DUP3 ADD SWAP1 POP DUP2 DUP2 SUB PUSH1 0x0 DUP4 ADD MSTORE PUSH2 0x2F6B DUP2 PUSH2 0x2F2F JUMP JUMPDEST SWAP1 POP SWAP2 SWAP1 POP JUMP JUMPDEST PUSH1 0x0 PUSH2 0x100 DUP3 ADD SWAP1 POP PUSH2 0x2F88 PUSH1 0x0 DUP4 ADD DUP12 PUSH2 0x1CDF JUMP JUMPDEST PUSH2 0x2F95 PUSH1 0x20 DUP4 ADD DUP11 PUSH2 0x1CDF JUMP JUMPDEST PUSH2 0x2FA2 PUSH1 0x40 DUP4 ADD DUP10 PUSH2 0x1F49 JUMP JUMPDEST PUSH2 0x2FAF PUSH1 0x60 DUP4 ADD DUP9 PUSH2 0x1CDF JUMP JUMPDEST PUSH2 0x2FBC PUSH1 0x80 DUP4 ADD DUP8 PUSH2 0x1CDF JUMP JUMPDEST PUSH2 0x2FC9 PUSH1 0xA0 DUP4 ADD DUP7 PUSH2 0x1CDF JUMP JUMPDEST PUSH2 0x2FD6 PUSH1 0xC0 DUP4 ADD DUP6 PUSH2 0x1CDF JUMP JUMPDEST PUSH2 0x2FE3 PUSH1 0xE0 DUP4 ADD DUP5 PUSH2 0x1CDF JUMP JUMPDEST SWAP10 SWAP9 POP POP POP POP POP POP POP POP POP JUMP JUMPDEST PUSH1 0x0 PUSH1 0x60 DUP3 ADD SWAP1 POP PUSH2 0x3005 PUSH1 0x0 DUP4 ADD DUP7 PUSH2 0x1F49 JUMP JUMPDEST PUSH2 0x3012 PUSH1 0x20 DUP4 ADD DUP6 PUSH2 0x1CDF JUMP JUMPDEST PUSH2 0x301F PUSH1 0x40 DUP4 ADD DUP5 PUSH2 0x1CDF JUMP JUMPDEST SWAP5 SWAP4 POP POP POP POP JUMP INVALID LOG2 PUSH5 0x6970667358 0x22 SLT KECCAK256 DUP6 TIMESTAMP ORIGIN DUP4 DIV 0xD9 JUMP BYTE PUSH7 0xAED525F2FBAD6B SWAP12 0xEE 0xCB 0x27 BLOBBASEFEE 0x1E SWAP8 PUSH3 0x81F27A SWAP16 0xF7 NOT DUP16 CREATE PUSH5 0x736F6C6343 STOP ADDMOD SHR STOP CALLER "},"methodIdentifiers":{"AddModel(uint256,uint256,uint256)":"aa389692","ApproveWorker(string)":"431f90f3","Ban(string)":"f6bd2ac8","CalculateServiceFee(uint256)":"0e5fd6d7","DeleteModel(uint256)":"27801534","DepositCredit(uint256)":"1b988ce4","GetMetaLLM(uint256)":"ad7922d5","GetModel(uint256)":"bbfb8caa","GetTotalPrice(uint256)":"97c37d6b","GetWorkerAddress(string)":"421d2777","Pre_request(uint256,address)":"b9359ea2","ProcessResponse(uint256,string,uint256,uint256,uint256,uint256)":"c7567cd7","RegisterWorker(string)":"9fcd8c9d","Unban(string)":"bad3191a","Unregister(string)":"1e99f349","UpdateModel(uint256,uint256,address)":"3266e290","blacklist(string)":"8c0233e9","isApproved(string)":"f31fbc9f","owner()":"8da5cb5b","renounceOwnership()":"715018a6","transferOwnership(address)":"f2fde38b"}}}}}