{
  "_format": "hh-sol-artifact-1",
  "contractName": "Cred",
  "sourceName": "contracts/credit.sol",
  "abi": [
    {
      "inputs": [
        {
          "internalType": "uint256",
          "name": "initialSupply",
          "type": "uint256"
        }
      ],
      "stateMutability": "nonpayable",
      "type": "constructor"
    },
    {
      "inputs": [],
      "name": "ECDSAInvalidSignature",
      "type": "error"
    },
    {
      "inputs": [
        {
          "internalType": "uint256",
          "name": "length",
          "type": "uint256"
        }
      ],
      "name": "ECDSAInvalidSignatureLength",
      "type": "error"
    },
    {
      "inputs": [
        {
          "internalType": "bytes32",
          "name": "s",
          "type": "bytes32"
        }
      ],
      "name": "ECDSAInvalidSignatureS",
      "type": "error"
    },
    {
      "inputs": [
        {
          "internalType": "address",
          "name": "spender",
          "type": "address"
        },
        {
          "internalType": "uint256",
          "name": "allowance",
          "type": "uint256"
        },
        {
          "internalType": "uint256",
          "name": "needed",
          "type": "uint256"
        }
      ],
      "name": "ERC20InsufficientAllowance",
      "type": "error"
    },
    {
      "inputs": [
        {
          "internalType": "address",
          "name": "sender",
          "type": "address"
        },
        {
          "internalType": "uint256",
          "name": "balance",
          "type": "uint256"
        },
        {
          "internalType": "uint256",
          "name": "needed",
          "type": "uint256"
        }
      ],
      "name": "ERC20InsufficientBalance",
      "type": "error"
    },
    {
      "inputs": [
        {
          "internalType": "address",
          "name": "approver",
          "type": "address"
        }
      ],
      "name": "ERC20InvalidApprover",
      "type": "error"
    },
    {
      "inputs": [
        {
          "internalType": "address",
          "name": "receiver",
          "type": "address"
        }
      ],
      "name": "ERC20InvalidReceiver",
      "type": "error"
    },
    {
      "inputs": [
        {
          "internalType": "address",
          "name": "sender",
          "type": "address"
        }
      ],
      "name": "ERC20InvalidSender",
      "type": "error"
    },
    {
      "inputs": [
        {
          "internalType": "address",
          "name": "spender",
          "type": "address"
        }
      ],
      "name": "ERC20InvalidSpender",
      "type": "error"
    },
    {
      "inputs": [
        {
          "internalType": "uint256",
          "name": "deadline",
          "type": "uint256"
        }
      ],
      "name": "ERC2612ExpiredSignature",
      "type": "error"
    },
    {
      "inputs": [
        {
          "internalType": "address",
          "name": "signer",
          "type": "address"
        },
        {
          "internalType": "address",
          "name": "owner",
          "type": "address"
        }
      ],
      "name": "ERC2612InvalidSigner",
      "type": "error"
    },
    {
      "inputs": [
        {
          "internalType": "address",
          "name": "account",
          "type": "address"
        },
        {
          "internalType": "uint256",
          "name": "currentNonce",
          "type": "uint256"
        }
      ],
      "name": "InvalidAccountNonce",
      "type": "error"
    },
    {
      "inputs": [],
      "name": "InvalidShortString",
      "type": "error"
    },
    {
      "inputs": [
        {
          "internalType": "address",
          "name": "owner",
          "type": "address"
        }
      ],
      "name": "OwnableInvalidOwner",
      "type": "error"
    },
    {
      "inputs": [
        {
          "internalType": "address",
          "name": "account",
          "type": "address"
        }
      ],
      "name": "OwnableUnauthorizedAccount",
      "type": "error"
    },
    {
      "inputs": [
        {
          "internalType": "string",
          "name": "str",
          "type": "string"
        }
      ],
      "name": "StringTooLong",
      "type": "error"
    },
    {
      "anonymous": false,
      "inputs": [
        {
          "indexed": true,
          "internalType": "address",
          "name": "owner",
          "type": "address"
        },
        {
          "indexed": true,
          "internalType": "address",
          "name": "spender",
          "type": "address"
        },
        {
          "indexed": false,
          "internalType": "uint256",
          "name": "value",
          "type": "uint256"
        }
      ],
      "name": "Approval",
      "type": "event"
    },
    {
      "anonymous": false,
      "inputs": [],
      "name": "EIP712DomainChanged",
      "type": "event"
    },
    {
      "anonymous": false,
      "inputs": [
        {
          "indexed": true,
          "internalType": "address",
          "name": "previousOwner",
          "type": "address"
        },
        {
          "indexed": true,
          "internalType": "address",
          "name": "newOwner",
          "type": "address"
        }
      ],
      "name": "OwnershipTransferred",
      "type": "event"
    },
    {
      "anonymous": false,
      "inputs": [
        {
          "indexed": true,
          "internalType": "address",
          "name": "from",
          "type": "address"
        },
        {
          "indexed": true,
          "internalType": "address",
          "name": "to",
          "type": "address"
        },
        {
          "indexed": false,
          "internalType": "uint256",
          "name": "value",
          "type": "uint256"
        }
      ],
      "name": "Transfer",
      "type": "event"
    },
    {
      "inputs": [],
      "name": "DOMAIN_SEPARATOR",
      "outputs": [
        {
          "internalType": "bytes32",
          "name": "",
          "type": "bytes32"
        }
      ],
      "stateMutability": "view",
      "type": "function"
    },
    {
      "inputs": [
        {
          "internalType": "address",
          "name": "owner",
          "type": "address"
        },
        {
          "internalType": "address",
          "name": "spender",
          "type": "address"
        }
      ],
      "name": "allowance",
      "outputs": [
        {
          "internalType": "uint256",
          "name": "",
          "type": "uint256"
        }
      ],
      "stateMutability": "view",
      "type": "function"
    },
    {
      "inputs": [
        {
          "internalType": "address",
          "name": "spender",
          "type": "address"
        },
        {
          "internalType": "uint256",
          "name": "value",
          "type": "uint256"
        }
      ],
      "name": "approve",
      "outputs": [
        {
          "internalType": "bool",
          "name": "",
          "type": "bool"
        }
      ],
      "stateMutability": "nonpayable",
      "type": "function"
    },
    {
      "inputs": [
        {
          "internalType": "address",
          "name": "account",
          "type": "address"
        }
      ],
      "name": "balanceOf",
      "outputs": [
        {
          "internalType": "uint256",
          "name": "",
          "type": "uint256"
        }
      ],
      "stateMutability": "view",
      "type": "function"
    },
    {
      "inputs": [],
      "name": "decimals",
      "outputs": [
        {
          "internalType": "uint8",
          "name": "",
          "type": "uint8"
        }
      ],
      "stateMutability": "pure",
      "type": "function"
    },
    {
      "inputs": [],
      "name": "eip712Domain",
      "outputs": [
        {
          "internalType": "bytes1",
          "name": "fields",
          "type": "bytes1"
        },
        {
          "internalType": "string",
          "name": "name",
          "type": "string"
        },
        {
          "internalType": "string",
          "name": "version",
          "type": "string"
        },
        {
          "internalType": "uint256",
          "name": "chainId",
          "type": "uint256"
        },
        {
          "internalType": "address",
          "name": "verifyingContract",
          "type": "address"
        },
        {
          "internalType": "bytes32",
          "name": "salt",
          "type": "bytes32"
        },
        {
          "internalType": "uint256[]",
          "name": "extensions",
          "type": "uint256[]"
        }
      ],
      "stateMutability": "view",
      "type": "function"
    },
    {
      "inputs": [],
      "name": "name",
      "outputs": [
        {
          "internalType": "string",
          "name": "",
          "type": "string"
        }
      ],
      "stateMutability": "view",
      "type": "function"
    },
    {
      "inputs": [
        {
          "internalType": "address",
          "name": "owner",
          "type": "address"
        }
      ],
      "name": "nonces",
      "outputs": [
        {
          "internalType": "uint256",
          "name": "",
          "type": "uint256"
        }
      ],
      "stateMutability": "view",
      "type": "function"
    },
    {
      "inputs": [],
      "name": "owner",
      "outputs": [
        {
          "internalType": "address",
          "name": "",
          "type": "address"
        }
      ],
      "stateMutability": "view",
      "type": "function"
    },
    {
      "inputs": [
        {
          "internalType": "address",
          "name": "owner",
          "type": "address"
        },
        {
          "internalType": "address",
          "name": "spender",
          "type": "address"
        },
        {
          "internalType": "uint256",
          "name": "value",
          "type": "uint256"
        },
        {
          "internalType": "uint256",
          "name": "deadline",
          "type": "uint256"
        },
        {
          "internalType": "uint8",
          "name": "v",
          "type": "uint8"
        },
        {
          "internalType": "bytes32",
          "name": "r",
          "type": "bytes32"
        },
        {
          "internalType": "bytes32",
          "name": "s",
          "type": "bytes32"
        }
      ],
      "name": "permit",
      "outputs": [],
      "stateMutability": "nonpayable",
      "type": "function"
    },
    {
      "inputs": [],
      "name": "renounceOwnership",
      "outputs": [],
      "stateMutability": "nonpayable",
      "type": "function"
    },
    {
      "inputs": [],
      "name": "symbol",
      "outputs": [
        {
          "internalType": "string",
          "name": "",
          "type": "string"
        }
      ],
      "stateMutability": "view",
      "type": "function"
    },
    {
      "inputs": [],
      "name": "totalSupply",
      "outputs": [
        {
          "internalType": "uint256",
          "name": "",
          "type": "uint256"
        }
      ],
      "stateMutability": "view",
      "type": "function"
    },
    {
      "inputs": [
        {
          "internalType": "address",
          "name": "to",
          "type": "address"
        },
        {
          "internalType": "uint256",
          "name": "value",
          "type": "uint256"
        }
      ],
      "name": "transfer",
      "outputs": [
        {
          "internalType": "bool",
          "name": "",
          "type": "bool"
        }
      ],
      "stateMutability": "nonpayable",
      "type": "function"
    },
    {
      "inputs": [
        {
          "internalType": "address",
          "name": "from",
          "type": "address"
        },
        {
          "internalType": "address",
          "name": "to",
          "type": "address"
        },
        {
          "internalType": "uint256",
          "name": "value",
          "type": "uint256"
        }
      ],
      "name": "transferFrom",
      "outputs": [
        {
          "internalType": "bool",
          "name": "",
          "type": "bool"
        }
      ],
      "stateMutability": "nonpayable",
      "type": "function"
    },
    {
      "inputs": [
        {
          "internalType": "address",
          "name": "newOwner",
          "type": "address"
        }
      ],
      "name": "transferOwnership",
      "outputs": [],
      "stateMutability": "nonpayable",
      "type": "function"
    }
  ],
  "bytecode": "0x61016060405234801561001157600080fd5b50604051612c44380380612c448339818101604052810190610033919061073d565b336040518060400160405280600881526020017f537761726d696e64000000000000000000000000000000000000000000000000815250806040518060400160405280600181526020017f31000000000000000000000000000000000000000000000000000000000000008152506040518060400160405280600881526020017f537761726d696e640000000000000000000000000000000000000000000000008152506040518060400160405280600381526020017f53574d0000000000000000000000000000000000000000000000000000000000815250816003908161011c91906109b0565b50806004908161012c91906109b0565b50505061014360058361027260201b90919060201c565b610120818152505061015f60068261027260201b90919060201c565b6101408181525050818051906020012060e08181525050808051906020012061010081815250504660a0818152505061019c6102c260201b60201c565b608081815250503073ffffffffffffffffffffffffffffffffffffffff1660c08173ffffffffffffffffffffffffffffffffffffffff1681525050505050600073ffffffffffffffffffffffffffffffffffffffff168173ffffffffffffffffffffffffffffffffffffffff160361024c5760006040517f1e4fbdf70000000000000000000000000000000000000000000000000000000081526004016102439190610ac3565b60405180910390fd5b61025b8161031d60201b60201c565b5061026c33826103e360201b60201c565b50610d4c565b60006020835110156102945761028d8361046b60201b60201c565b90506102bc565b826102a4836104d360201b60201c565b60000190816102b391906109b0565b5060ff60001b90505b92915050565b60007f8b73c3c69bb8fe3d512ecc4cf759cc79239f7b179b0ffacaa9a75d522b39400f60e051610100514630604051602001610302959493929190610b06565b60405160208183030381529060405280519060200120905090565b6000600860009054906101000a900473ffffffffffffffffffffffffffffffffffffffff16905081600860006101000a81548173ffffffffffffffffffffffffffffffffffffffff021916908373ffffffffffffffffffffffffffffffffffffffff1602179055508173ffffffffffffffffffffffffffffffffffffffff168173ffffffffffffffffffffffffffffffffffffffff167f8be0079c531659141344cd1fd0a4f28419497f9722a3daafe3b4186f6b6457e060405160405180910390a35050565b600073ffffffffffffffffffffffffffffffffffffffff168273ffffffffffffffffffffffffffffffffffffffff16036104555760006040517fec442f0500000000000000000000000000000000000000000000000000000000815260040161044c9190610ac3565b60405180910390fd5b610467600083836104dd60201b60201c565b5050565b600080829050601f815111156104b857826040517f305a27a90000000000000000000000000000000000000000000000000000000081526004016104af9190610bde565b60405180910390fd5b8051816104c490610c30565b60001c1760001b915050919050565b6000819050919050565b600073ffffffffffffffffffffffffffffffffffffffff168373ffffffffffffffffffffffffffffffffffffffff160361052f5780600260008282546105239190610cc6565b92505081905550610602565b60008060008573ffffffffffffffffffffffffffffffffffffffff1673ffffffffffffffffffffffffffffffffffffffff168152602001908152602001600020549050818110156105bb578381836040517fe450d38c0000000000000000000000000000000000000000000000000000000081526004016105b293929190610cfa565b60405180910390fd5b8181036000808673ffffffffffffffffffffffffffffffffffffffff1673ffffffffffffffffffffffffffffffffffffffff16815260200190815260200160002081905550505b600073ffffffffffffffffffffffffffffffffffffffff168273ffffffffffffffffffffffffffffffffffffffff160361064b5780600260008282540392505081905550610698565b806000808473ffffffffffffffffffffffffffffffffffffffff1673ffffffffffffffffffffffffffffffffffffffff168152602001908152602001600020600082825401925050819055505b8173ffffffffffffffffffffffffffffffffffffffff168373ffffffffffffffffffffffffffffffffffffffff167fddf252ad1be2c89b69c2b068fc378daa952ba7f163c4a11628f55a4df523b3ef836040516106f59190610d31565b60405180910390a3505050565b600080fd5b6000819050919050565b61071a81610707565b811461072557600080fd5b50565b60008151905061073781610711565b92915050565b60006020828403121561075357610752610702565b5b600061076184828501610728565b91505092915050565b600081519050919050565b7f4e487b7100000000000000000000000000000000000000000000000000000000600052604160045260246000fd5b7f4e487b7100000000000000000000000000000000000000000000000000000000600052602260045260246000fd5b600060028204905060018216806107eb57607f821691505b6020821081036107fe576107fd6107a4565b5b50919050565b60008190508160005260206000209050919050565b60006020601f8301049050919050565b600082821b905092915050565b6000600883026108667fffffffffffffffffffffffffffffffffffffffffffffffffffffffffffffffff82610829565b6108708683610829565b95508019841693508086168417925050509392505050565b6000819050919050565b60006108ad6108a86108a384610707565b610888565b610707565b9050919050565b6000819050919050565b6108c783610892565b6108db6108d3826108b4565b848454610836565b825550505050565b600090565b6108f06108e3565b6108fb8184846108be565b505050565b5b8181101561091f576109146000826108e8565b600181019050610901565b5050565b601f8211156109645761093581610804565b61093e84610819565b8101602085101561094d578190505b61096161095985610819565b830182610900565b50505b505050565b600082821c905092915050565b600061098760001984600802610969565b1980831691505092915050565b60006109a08383610976565b9150826002028217905092915050565b6109b98261076a565b67ffffffffffffffff8111156109d2576109d1610775565b5b6109dc82546107d3565b6109e7828285610923565b600060209050601f831160018114610a1a5760008415610a08578287015190505b610a128582610994565b865550610a7a565b601f198416610a2886610804565b60005b82811015610a5057848901518255600182019150602085019450602081019050610a2b565b86831015610a6d5784890151610a69601f891682610976565b8355505b6001600288020188555050505b505050505050565b600073ffffffffffffffffffffffffffffffffffffffff82169050919050565b6000610aad82610a82565b9050919050565b610abd81610aa2565b82525050565b6000602082019050610ad86000830184610ab4565b92915050565b6000819050919050565b610af181610ade565b82525050565b610b0081610707565b82525050565b600060a082019050610b1b6000830188610ae8565b610b286020830187610ae8565b610b356040830186610ae8565b610b426060830185610af7565b610b4f6080830184610ab4565b9695505050505050565b600082825260208201905092915050565b60005b83811015610b88578082015181840152602081019050610b6d565b60008484015250505050565b6000601f19601f8301169050919050565b6000610bb08261076a565b610bba8185610b59565b9350610bca818560208601610b6a565b610bd381610b94565b840191505092915050565b60006020820190508181036000830152610bf88184610ba5565b905092915050565b600081519050919050565b6000819050602082019050919050565b6000610c278251610ade565b80915050919050565b6000610c3b82610c00565b82610c4584610c0b565b9050610c5081610c1b565b92506020821015610c9057610c8b7fffffffffffffffffffffffffffffffffffffffffffffffffffffffffffffffff83602003600802610829565b831692505b5050919050565b7f4e487b7100000000000000000000000000000000000000000000000000000000600052601160045260246000fd5b6000610cd182610707565b9150610cdc83610707565b9250828201905080821115610cf457610cf3610c97565b5b92915050565b6000606082019050610d0f6000830186610ab4565b610d1c6020830185610af7565b610d296040830184610af7565b949350505050565b6000602082019050610d466000830184610af7565b92915050565b60805160a05160c05160e051610100516101205161014051611e9e610da66000396000610cc501526000610c8a015260006111da015260006111b901526000610a3801526000610a8e01526000610ab70152611e9e6000f3fe608060405234801561001057600080fd5b50600436106101005760003560e01c80637ecebe0011610097578063a9059cbb11610066578063a9059cbb146102a7578063d505accf146102d7578063dd62ed3e146102f3578063f2fde38b1461032357610100565b80637ecebe001461021757806384b0196e146102475780638da5cb5b1461026b57806395d89b411461028957610100565b8063313ce567116100d3578063313ce567146101a15780633644e515146101bf57806370a08231146101dd578063715018a61461020d57610100565b806306fdde0314610105578063095ea7b31461012357806318160ddd1461015357806323b872dd14610171575b600080fd5b61010d61033f565b60405161011a91906116c7565b60405180910390f35b61013d60048036038101906101389190611782565b6103d1565b60405161014a91906117dd565b60405180910390f35b61015b6103f4565b6040516101689190611807565b60405180910390f35b61018b60048036038101906101869190611822565b6103fe565b60405161019891906117dd565b60405180910390f35b6101a961042d565b6040516101b69190611891565b60405180910390f35b6101c7610436565b6040516101d491906118c5565b60405180910390f35b6101f760048036038101906101f291906118e0565b610445565b6040516102049190611807565b60405180910390f35b61021561048d565b005b610231600480360381019061022c91906118e0565b6104a1565b60405161023e9190611807565b60405180910390f35b61024f6104b3565b6040516102629796959493929190611a15565b60405180910390f35b61027361055d565b6040516102809190611a99565b60405180910390f35b610291610587565b60405161029e91906116c7565b60405180910390f35b6102c160048036038101906102bc9190611782565b610619565b6040516102ce91906117dd565b60405180910390f35b6102f160048036038101906102ec9190611b0c565b61063c565b005b61030d60048036038101906103089190611bae565b610784565b60405161031a9190611807565b60405180910390f35b61033d600480360381019061033891906118e0565b61080b565b005b60606003805461034e90611c1d565b80601f016020809104026020016040519081016040528092919081815260200182805461037a90611c1d565b80156103c75780601f1061039c576101008083540402835291602001916103c7565b820191906000526020600020905b8154815290600101906020018083116103aa57829003601f168201915b5050505050905090565b6000806103dc610891565b90506103e9818585610899565b600191505092915050565b6000600254905090565b600080610409610891565b90506104168582856108ab565b610421858585610940565b60019150509392505050565b60006009905090565b6000610440610a34565b905090565b60008060008373ffffffffffffffffffffffffffffffffffffffff1673ffffffffffffffffffffffffffffffffffffffff168152602001908152602001600020549050919050565b610495610aeb565b61049f6000610b72565b565b60006104ac82610c38565b9050919050565b6000606080600080600060606104c7610c81565b6104cf610cbc565b46306000801b600067ffffffffffffffff8111156104f0576104ef611c4e565b5b60405190808252806020026020018201604052801561051e5781602001602082028036833780820191505090505b507f0f00000000000000000000000000000000000000000000000000000000000000959493929190965096509650965096509650965090919293949596565b6000600860009054906101000a900473ffffffffffffffffffffffffffffffffffffffff16905090565b60606004805461059690611c1d565b80601f01602080910402602001604051908101604052809291908181526020018280546105c290611c1d565b801561060f5780601f106105e45761010080835404028352916020019161060f565b820191906000526020600020905b8154815290600101906020018083116105f257829003601f168201915b5050505050905090565b600080610624610891565b9050610631818585610940565b600191505092915050565b8342111561068157836040517f627913020000000000000000000000000000000000000000000000000000000081526004016106789190611807565b60405180910390fd5b60007f6e71edae12b1b97f4d1f60370fef10105fa2faae0126114a169c64845d6126c98888886106b08c610cf7565b896040516020016106c696959493929190611c7d565b60405160208183030381529060405280519060200120905060006106e982610d4e565b905060006106f982878787610d68565b90508973ffffffffffffffffffffffffffffffffffffffff168173ffffffffffffffffffffffffffffffffffffffff161461076d57808a6040517f4b800e46000000000000000000000000000000000000000000000000000000008152600401610764929190611cde565b60405180910390fd5b6107788a8a8a610899565b50505050505050505050565b6000600160008473ffffffffffffffffffffffffffffffffffffffff1673ffffffffffffffffffffffffffffffffffffffff16815260200190815260200160002060008373ffffffffffffffffffffffffffffffffffffffff1673ffffffffffffffffffffffffffffffffffffffff16815260200190815260200160002054905092915050565b610813610aeb565b600073ffffffffffffffffffffffffffffffffffffffff168173ffffffffffffffffffffffffffffffffffffffff16036108855760006040517f1e4fbdf700000000000000000000000000000000000000000000000000000000815260040161087c9190611a99565b60405180910390fd5b61088e81610b72565b50565b600033905090565b6108a68383836001610d98565b505050565b60006108b78484610784565b90507fffffffffffffffffffffffffffffffffffffffffffffffffffffffffffffffff81101561093a578181101561092a578281836040517ffb8f41b200000000000000000000000000000000000000000000000000000000815260040161092193929190611d07565b60405180910390fd5b61093984848484036000610d98565b5b50505050565b600073ffffffffffffffffffffffffffffffffffffffff168373ffffffffffffffffffffffffffffffffffffffff16036109b25760006040517f96c6fd1e0000000000000000000000000000000000000000000000000000000081526004016109a99190611a99565b60405180910390fd5b600073ffffffffffffffffffffffffffffffffffffffff168273ffffffffffffffffffffffffffffffffffffffff1603610a245760006040517fec442f05000000000000000000000000000000000000000000000000000000008152600401610a1b9190611a99565b60405180910390fd5b610a2f838383610f6f565b505050565b60007f000000000000000000000000000000000000000000000000000000000000000073ffffffffffffffffffffffffffffffffffffffff163073ffffffffffffffffffffffffffffffffffffffff16148015610ab057507f000000000000000000000000000000000000000000000000000000000000000046145b15610add577f00000000000000000000000000000000000000000000000000000000000000009050610ae8565b610ae5611194565b90505b90565b610af3610891565b73ffffffffffffffffffffffffffffffffffffffff16610b1161055d565b73ffffffffffffffffffffffffffffffffffffffff1614610b7057610b34610891565b6040517f118cdaa7000000000000000000000000000000000000000000000000000000008152600401610b679190611a99565b60405180910390fd5b565b6000600860009054906101000a900473ffffffffffffffffffffffffffffffffffffffff16905081600860006101000a81548173ffffffffffffffffffffffffffffffffffffffff021916908373ffffffffffffffffffffffffffffffffffffffff1602179055508173ffffffffffffffffffffffffffffffffffffffff168173ffffffffffffffffffffffffffffffffffffffff167f8be0079c531659141344cd1fd0a4f28419497f9722a3daafe3b4186f6b6457e060405160405180910390a35050565b6000600760008373ffffffffffffffffffffffffffffffffffffffff1673ffffffffffffffffffffffffffffffffffffffff168152602001908152602001600020549050919050565b6060610cb760057f000000000000000000000000000000000000000000000000000000000000000061122a90919063ffffffff16565b905090565b6060610cf260067f000000000000000000000000000000000000000000000000000000000000000061122a90919063ffffffff16565b905090565b6000600760008373ffffffffffffffffffffffffffffffffffffffff1673ffffffffffffffffffffffffffffffffffffffff1681526020019081526020016000206000815480929190600101919050559050919050565b6000610d61610d5b610a34565b836112da565b9050919050565b600080600080610d7a8888888861131b565b925092509250610d8a828261140f565b829350505050949350505050565b600073ffffffffffffffffffffffffffffffffffffffff168473ffffffffffffffffffffffffffffffffffffffff1603610e0a5760006040517fe602df05000000000000000000000000000000000000000000000000000000008152600401610e019190611a99565b60405180910390fd5b600073ffffffffffffffffffffffffffffffffffffffff168373ffffffffffffffffffffffffffffffffffffffff1603610e7c5760006040517f94280d62000000000000000000000000000000000000000000000000000000008152600401610e739190611a99565b60405180910390fd5b81600160008673ffffffffffffffffffffffffffffffffffffffff1673ffffffffffffffffffffffffffffffffffffffff16815260200190815260200160002060008573ffffffffffffffffffffffffffffffffffffffff1673ffffffffffffffffffffffffffffffffffffffff168152602001908152602001600020819055508015610f69578273ffffffffffffffffffffffffffffffffffffffff168473ffffffffffffffffffffffffffffffffffffffff167f8c5be1e5ebec7d5bd14f71427d1e84f3dd0314c0f7b2291e5b200ac8c7c3b92584604051610f609190611807565b60405180910390a35b50505050565b600073ffffffffffffffffffffffffffffffffffffffff168373ffffffffffffffffffffffffffffffffffffffff1603610fc1578060026000828254610fb59190611d6d565b92505081905550611094565b60008060008573ffffffffffffffffffffffffffffffffffffffff1673ffffffffffffffffffffffffffffffffffffffff1681526020019081526020016000205490508181101561104d578381836040517fe450d38c00000000000000000000000000000000000000000000000000000000815260040161104493929190611d07565b60405180910390fd5b8181036000808673ffffffffffffffffffffffffffffffffffffffff1673ffffffffffffffffffffffffffffffffffffffff16815260200190815260200160002081905550505b600073ffffffffffffffffffffffffffffffffffffffff168273ffffffffffffffffffffffffffffffffffffffff16036110dd578060026000828254039250508190555061112a565b806000808473ffffffffffffffffffffffffffffffffffffffff1673ffffffffffffffffffffffffffffffffffffffff168152602001908152602001600020600082825401925050819055505b8173ffffffffffffffffffffffffffffffffffffffff168373ffffffffffffffffffffffffffffffffffffffff167fddf252ad1be2c89b69c2b068fc378daa952ba7f163c4a11628f55a4df523b3ef836040516111879190611807565b60405180910390a3505050565b60007f8b73c3c69bb8fe3d512ecc4cf759cc79239f7b179b0ffacaa9a75d522b39400f7f00000000000000000000000000000000000000000000000000000000000000007f0000000000000000000000000000000000000000000000000000000000000000463060405160200161120f959493929190611da1565b60405160208183030381529060405280519060200120905090565b606060ff60001b83146112475761124083611573565b90506112d4565b81805461125390611c1d565b80601f016020809104026020016040519081016040528092919081815260200182805461127f90611c1d565b80156112cc5780601f106112a1576101008083540402835291602001916112cc565b820191906000526020600020905b8154815290600101906020018083116112af57829003601f168201915b505050505090505b92915050565b60006040517f190100000000000000000000000000000000000000000000000000000000000081528360028201528260228201526042812091505092915050565b60008060007f7fffffffffffffffffffffffffffffff5d576e7357a4501ddfe92f46681b20a08460001c111561135b576000600385925092509250611405565b6000600188888888604051600081526020016040526040516113809493929190611df4565b6020604051602081039080840390855afa1580156113a2573d6000803e3d6000fd5b505050602060405103519050600073ffffffffffffffffffffffffffffffffffffffff168173ffffffffffffffffffffffffffffffffffffffff16036113f657600060016000801b93509350935050611405565b8060008060001b935093509350505b9450945094915050565b6000600381111561142357611422611e39565b5b82600381111561143657611435611e39565b5b031561156f57600160038111156114505761144f611e39565b5b82600381111561146357611462611e39565b5b0361149a576040517ff645eedf00000000000000000000000000000000000000000000000000000000815260040160405180910390fd5b600260038111156114ae576114ad611e39565b5b8260038111156114c1576114c0611e39565b5b03611506578060001c6040517ffce698f70000000000000000000000000000000000000000000000000000000081526004016114fd9190611807565b60405180910390fd5b60038081111561151957611518611e39565b5b82600381111561152c5761152b611e39565b5b0361156e57806040517fd78bce0c00000000000000000000000000000000000000000000000000000000815260040161156591906118c5565b60405180910390fd5b5b5050565b60606000611580836115e7565b90506000602067ffffffffffffffff81111561159f5761159e611c4e565b5b6040519080825280601f01601f1916602001820160405280156115d15781602001600182028036833780820191505090505b5090508181528360208201528092505050919050565b60008060ff8360001c169050601f81111561162e576040517fb3512b0c00000000000000000000000000000000000000000000000000000000815260040160405180910390fd5b80915050919050565b600081519050919050565b600082825260208201905092915050565b60005b83811015611671578082015181840152602081019050611656565b60008484015250505050565b6000601f19601f8301169050919050565b600061169982611637565b6116a38185611642565b93506116b3818560208601611653565b6116bc8161167d565b840191505092915050565b600060208201905081810360008301526116e1818461168e565b905092915050565b600080fd5b600073ffffffffffffffffffffffffffffffffffffffff82169050919050565b6000611719826116ee565b9050919050565b6117298161170e565b811461173457600080fd5b50565b60008135905061174681611720565b92915050565b6000819050919050565b61175f8161174c565b811461176a57600080fd5b50565b60008135905061177c81611756565b92915050565b60008060408385031215611799576117986116e9565b5b60006117a785828601611737565b92505060206117b88582860161176d565b9150509250929050565b60008115159050919050565b6117d7816117c2565b82525050565b60006020820190506117f260008301846117ce565b92915050565b6118018161174c565b82525050565b600060208201905061181c60008301846117f8565b92915050565b60008060006060848603121561183b5761183a6116e9565b5b600061184986828701611737565b935050602061185a86828701611737565b925050604061186b8682870161176d565b9150509250925092565b600060ff82169050919050565b61188b81611875565b82525050565b60006020820190506118a66000830184611882565b92915050565b6000819050919050565b6118bf816118ac565b82525050565b60006020820190506118da60008301846118b6565b92915050565b6000602082840312156118f6576118f56116e9565b5b600061190484828501611737565b91505092915050565b60007fff0000000000000000000000000000000000000000000000000000000000000082169050919050565b6119428161190d565b82525050565b6119518161170e565b82525050565b600081519050919050565b600082825260208201905092915050565b6000819050602082019050919050565b61198c8161174c565b82525050565b600061199e8383611983565b60208301905092915050565b6000602082019050919050565b60006119c282611957565b6119cc8185611962565b93506119d783611973565b8060005b83811015611a085781516119ef8882611992565b97506119fa836119aa565b9250506001810190506119db565b5085935050505092915050565b600060e082019050611a2a600083018a611939565b8181036020830152611a3c818961168e565b90508181036040830152611a50818861168e565b9050611a5f60608301876117f8565b611a6c6080830186611948565b611a7960a08301856118b6565b81810360c0830152611a8b81846119b7565b905098975050505050505050565b6000602082019050611aae6000830184611948565b92915050565b611abd81611875565b8114611ac857600080fd5b50565b600081359050611ada81611ab4565b92915050565b611ae9816118ac565b8114611af457600080fd5b50565b600081359050611b0681611ae0565b92915050565b600080600080600080600060e0888a031215611b2b57611b2a6116e9565b5b6000611b398a828b01611737565b9750506020611b4a8a828b01611737565b9650506040611b5b8a828b0161176d565b9550506060611b6c8a828b0161176d565b9450506080611b7d8a828b01611acb565b93505060a0611b8e8a828b01611af7565b92505060c0611b9f8a828b01611af7565b91505092959891949750929550565b60008060408385031215611bc557611bc46116e9565b5b6000611bd385828601611737565b9250506020611be485828601611737565b9150509250929050565b7f4e487b7100000000000000000000000000000000000000000000000000000000600052602260045260246000fd5b60006002820490506001821680611c3557607f821691505b602082108103611c4857611c47611bee565b5b50919050565b7f4e487b7100000000000000000000000000000000000000000000000000000000600052604160045260246000fd5b600060c082019050611c9260008301896118b6565b611c9f6020830188611948565b611cac6040830187611948565b611cb960608301866117f8565b611cc660808301856117f8565b611cd360a08301846117f8565b979650505050505050565b6000604082019050611cf36000830185611948565b611d006020830184611948565b9392505050565b6000606082019050611d1c6000830186611948565b611d2960208301856117f8565b611d3660408301846117f8565b949350505050565b7f4e487b7100000000000000000000000000000000000000000000000000000000600052601160045260246000fd5b6000611d788261174c565b9150611d838361174c565b9250828201905080821115611d9b57611d9a611d3e565b5b92915050565b600060a082019050611db660008301886118b6565b611dc360208301876118b6565b611dd060408301866118b6565b611ddd60608301856117f8565b611dea6080830184611948565b9695505050505050565b6000608082019050611e0960008301876118b6565b611e166020830186611882565b611e2360408301856118b6565b611e3060608301846118b6565b95945050505050565b7f4e487b7100000000000000000000000000000000000000000000000000000000600052602160045260246000fdfea2646970667358221220a9d9630b3f4b2bf661bd5bad3ac7f75b77e9ca8b971d6c6853feaa55ee1506d264736f6c634300081c0033",
  "linkReferences": {},
  "deployedLinkReferences": {}
}