{
  "_format": "hh-sol-artifact-1",
  "contractName": "Pool",
  "sourceName": "contracts/pool.sol",
  "abi": [
    {
      "inputs": [
        {
          "internalType": "address",
          "name": "llm_nft",
          "type": "address"
        },
        {
          "internalType": "address",
          "name": "credit_",
          "type": "address"
        }
      ],
      "stateMutability": "nonpayable",
      "type": "constructor"
    },
    {
      "inputs": [
        {
          "internalType": "address",
          "name": "owner",
          "type": "address"
        }
      ],
      "name": "OwnableInvalidOwner",
      "type": "error"
    },
    {
      "inputs": [
        {
          "internalType": "address",
          "name": "account",
          "type": "address"
        }
      ],
      "name": "OwnableUnauthorizedAccount",
      "type": "error"
    },
    {
      "anonymous": false,
      "inputs": [
        {
          "indexed": false,
          "internalType": "address",
          "name": "user",
          "type": "address"
        },
        {
          "indexed": false,
          "internalType": "uint256",
          "name": "amount",
          "type": "uint256"
        }
      ],
      "name": "Deposit",
      "type": "event"
    },
    {
      "anonymous": false,
      "inputs": [
        {
          "indexed": false,
          "internalType": "address",
          "name": "worker",
          "type": "address"
        },
        {
          "indexed": false,
          "internalType": "bool",
          "name": "isApproved",
          "type": "bool"
        }
      ],
      "name": "NewWorker",
      "type": "event"
    },
    {
      "anonymous": false,
      "inputs": [
        {
          "indexed": true,
          "internalType": "address",
          "name": "previousOwner",
          "type": "address"
        },
        {
          "indexed": true,
          "internalType": "address",
          "name": "newOwner",
          "type": "address"
        }
      ],
      "name": "OwnershipTransferred",
      "type": "event"
    },
    {
      "anonymous": false,
      "inputs": [
        {
          "indexed": false,
          "internalType": "address",
          "name": "provider",
          "type": "address"
        },
        {
          "indexed": false,
          "internalType": "uint256",
          "name": "llm_id",
          "type": "uint256"
        },
        {
          "indexed": false,
          "internalType": "uint256",
          "name": "amount",
          "type": "uint256"
        }
      ],
      "name": "Payout",
      "type": "event"
    },
    {
      "anonymous": false,
      "inputs": [
        {
          "indexed": false,
          "internalType": "uint256",
          "name": "id",
          "type": "uint256"
        },
        {
          "indexed": false,
          "internalType": "uint256",
          "name": "llm_id",
          "type": "uint256"
        },
        {
          "indexed": false,
          "internalType": "address",
          "name": "worker",
          "type": "address"
        },
        {
          "indexed": false,
          "internalType": "uint256",
          "name": "llmInputTokens",
          "type": "uint256"
        },
        {
          "indexed": false,
          "internalType": "uint256",
          "name": "llmOutputTokens",
          "type": "uint256"
        },
        {
          "indexed": false,
          "internalType": "uint256",
          "name": "cost",
          "type": "uint256"
        },
        {
          "indexed": false,
          "internalType": "uint256",
          "name": "processingTime",
          "type": "uint256"
        },
        {
          "indexed": false,
          "internalType": "uint256",
          "name": "timestamp",
          "type": "uint256"
        }
      ],
      "name": "Response",
      "type": "event"
    },
    {
      "inputs": [
        {
          "internalType": "uint256",
          "name": "token_id",
          "type": "uint256"
        },
        {
          "internalType": "uint256",
          "name": "hw_price_in",
          "type": "uint256"
        },
        {
          "internalType": "uint256",
          "name": "hw_price_out",
          "type": "uint256"
        }
      ],
      "name": "AddModel",
      "outputs": [],
      "stateMutability": "nonpayable",
      "type": "function"
    },
    {
      "inputs": [
        {
          "internalType": "string",
          "name": "lai_public_key",
          "type": "string"
        }
      ],
      "name": "ApproveWorker",
      "outputs": [],
      "stateMutability": "nonpayable",
      "type": "function"
    },
    {
      "inputs": [
        {
          "internalType": "string",
          "name": "lai_pub_key",
          "type": "string"
        }
      ],
      "name": "Ban",
      "outputs": [],
      "stateMutability": "nonpayable",
      "type": "function"
    },
    {
      "inputs": [
        {
          "internalType": "uint256",
          "name": "hw_cost",
          "type": "uint256"
        }
      ],
      "name": "CalculateServiceFee",
      "outputs": [
        {
          "internalType": "uint256",
          "name": "",
          "type": "uint256"
        }
      ],
      "stateMutability": "view",
      "type": "function"
    },
    {
      "inputs": [
        {
          "internalType": "uint256",
          "name": "llm_id",
          "type": "uint256"
        }
      ],
      "name": "DeleteModel",
      "outputs": [],
      "stateMutability": "nonpayable",
      "type": "function"
    },
    {
      "inputs": [
        {
          "internalType": "uint256",
          "name": "amount",
          "type": "uint256"
        }
      ],
      "name": "DepositCredit",
      "outputs": [],
      "stateMutability": "nonpayable",
      "type": "function"
    },
    {
      "inputs": [
        {
          "internalType": "uint256",
          "name": "llm_id",
          "type": "uint256"
        }
      ],
      "name": "GetMetaLLM",
      "outputs": [
        {
          "components": [
            {
              "internalType": "uint256",
              "name": "token_id",
              "type": "uint256"
            },
            {
              "internalType": "uint256",
              "name": "author_royalty",
              "type": "uint256"
            },
            {
              "internalType": "address",
              "name": "author_wallet",
              "type": "address"
            },
            {
              "internalType": "uint256",
              "name": "hw_price_per_input_token",
              "type": "uint256"
            },
            {
              "internalType": "uint256",
              "name": "hw_price_per_output_token",
              "type": "uint256"
            },
            {
              "internalType": "enum Pool.Pay_type",
              "name": "pay_type_",
              "type": "uint8"
            }
          ],
          "internalType": "struct Pool.LLM_meta",
          "name": "",
          "type": "tuple"
        }
      ],
      "stateMutability": "view",
      "type": "function"
    },
    {
      "inputs": [
        {
          "internalType": "uint256",
          "name": "llm_id",
          "type": "uint256"
        }
      ],
      "name": "GetModel",
      "outputs": [
        {
          "components": [
            {
              "internalType": "uint256",
              "name": "token_id",
              "type": "uint256"
            },
            {
              "internalType": "uint256",
              "name": "author_royalty",
              "type": "uint256"
            },
            {
              "internalType": "address",
              "name": "author_wallet",
              "type": "address"
            },
            {
              "internalType": "uint256",
              "name": "hw_price_per_input_token",
              "type": "uint256"
            },
            {
              "internalType": "uint256",
              "name": "hw_price_per_output_token",
              "type": "uint256"
            },
            {
              "internalType": "enum Pool.Pay_type",
              "name": "pay_type_",
              "type": "uint8"
            }
          ],
          "internalType": "struct Pool.LLM_meta",
          "name": "",
          "type": "tuple"
        }
      ],
      "stateMutability": "view",
      "type": "function"
    },
    {
      "inputs": [
        {
          "internalType": "uint256",
          "name": "llm_id",
          "type": "uint256"
        }
      ],
      "name": "GetTotalPrice",
      "outputs": [
        {
          "internalType": "uint256",
          "name": "",
          "type": "uint256"
        }
      ],
      "stateMutability": "view",
      "type": "function"
    },
    {
      "inputs": [
        {
          "internalType": "string",
          "name": "lai_id",
          "type": "string"
        }
      ],
      "name": "GetWorkerAddress",
      "outputs": [
        {
          "internalType": "address",
          "name": "",
          "type": "address"
        }
      ],
      "stateMutability": "view",
      "type": "function"
    },
    {
      "inputs": [
        {
          "internalType": "uint256",
          "name": "llm_id",
          "type": "uint256"
        },
        {
          "internalType": "address",
          "name": "user",
          "type": "address"
        }
      ],
      "name": "Pre_request",
      "outputs": [],
      "stateMutability": "view",
      "type": "function"
    },
    {
      "inputs": [
        {
          "internalType": "uint256",
          "name": "request_id",
          "type": "uint256"
        },
        {
          "internalType": "string",
          "name": "worker_id",
          "type": "string"
        },
        {
          "internalType": "uint256",
          "name": "llm_id",
          "type": "uint256"
        },
        {
          "internalType": "uint256",
          "name": "llmInputTokens",
          "type": "uint256"
        },
        {
          "internalType": "uint256",
          "name": "llmOutputTokens",
          "type": "uint256"
        },
        {
          "internalType": "uint256",
          "name": "processingTime",
          "type": "uint256"
        }
      ],
      "name": "ProcessResponse",
      "outputs": [],
      "stateMutability": "nonpayable",
      "type": "function"
    },
    {
      "inputs": [
        {
          "internalType": "string",
          "name": "lai_public_key",
          "type": "string"
        }
      ],
      "name": "RegisterWorker",
      "outputs": [],
      "stateMutability": "nonpayable",
      "type": "function"
    },
    {
      "inputs": [
        {
          "internalType": "string",
          "name": "lai_pub_key",
          "type": "string"
        }
      ],
      "name": "Unban",
      "outputs": [],
      "stateMutability": "nonpayable",
      "type": "function"
    },
    {
      "inputs": [
        {
          "internalType": "string",
          "name": "lai_pub_key",
          "type": "string"
        }
      ],
      "name": "Unregister",
      "outputs": [],
      "stateMutability": "nonpayable",
      "type": "function"
    },
    {
      "inputs": [
        {
          "internalType": "uint256",
          "name": "llm_id",
          "type": "uint256"
        },
        {
          "internalType": "uint256",
          "name": "new_royalty",
          "type": "uint256"
        },
        {
          "internalType": "address",
          "name": "new_address",
          "type": "address"
        }
      ],
      "name": "UpdateModel",
      "outputs": [],
      "stateMutability": "nonpayable",
      "type": "function"
    },
    {
      "inputs": [
        {
          "internalType": "string",
          "name": "old_lai_pub_key",
          "type": "string"
        },
        {
          "internalType": "string",
          "name": "new_lai_pub_key",
          "type": "string"
        }
      ],
      "name": "UpdateWorker",
      "outputs": [],
      "stateMutability": "nonpayable",
      "type": "function"
    },
    {
      "inputs": [
        {
          "internalType": "string",
          "name": "",
          "type": "string"
        }
      ],
      "name": "blacklist",
      "outputs": [
        {
          "internalType": "bool",
          "name": "",
          "type": "bool"
        }
      ],
      "stateMutability": "view",
      "type": "function"
    },
    {
      "inputs": [
        {
          "internalType": "string",
          "name": "",
          "type": "string"
        }
      ],
      "name": "isApproved",
      "outputs": [
        {
          "internalType": "bool",
          "name": "",
          "type": "bool"
        }
      ],
      "stateMutability": "view",
      "type": "function"
    },
    {
      "inputs": [],
      "name": "owner",
      "outputs": [
        {
          "internalType": "address",
          "name": "",
          "type": "address"
        }
      ],
      "stateMutability": "view",
      "type": "function"
    },
    {
      "inputs": [],
      "name": "renounceOwnership",
      "outputs": [],
      "stateMutability": "nonpayable",
      "type": "function"
    },
    {
      "inputs": [
        {
          "internalType": "address",
          "name": "newOwner",
          "type": "address"
        }
      ],
      "name": "transferOwnership",
      "outputs": [],
      "stateMutability": "nonpayable",
      "type": "function"
    }
  ],
  "bytecode": "0x6080604052600160035534801561001557600080fd5b506040516138e13803806138e18339818101604052810190610037919061026a565b33600073ffffffffffffffffffffffffffffffffffffffff168173ffffffffffffffffffffffffffffffffffffffff16036100aa5760006040517f1e4fbdf70000000000000000000000000000000000000000000000000000000081526004016100a191906102b9565b60405180910390fd5b6100b98161014360201b60201c565b5081600160006101000a81548173ffffffffffffffffffffffffffffffffffffffff021916908373ffffffffffffffffffffffffffffffffffffffff16021790555080600260006101000a81548173ffffffffffffffffffffffffffffffffffffffff021916908373ffffffffffffffffffffffffffffffffffffffff16021790555050506102d4565b60008060009054906101000a900473ffffffffffffffffffffffffffffffffffffffff169050816000806101000a81548173ffffffffffffffffffffffffffffffffffffffff021916908373ffffffffffffffffffffffffffffffffffffffff1602179055508173ffffffffffffffffffffffffffffffffffffffff168173ffffffffffffffffffffffffffffffffffffffff167f8be0079c531659141344cd1fd0a4f28419497f9722a3daafe3b4186f6b6457e060405160405180910390a35050565b600080fd5b600073ffffffffffffffffffffffffffffffffffffffff82169050919050565b60006102378261020c565b9050919050565b6102478161022c565b811461025257600080fd5b50565b6000815190506102648161023e565b92915050565b6000806040838503121561028157610280610207565b5b600061028f85828601610255565b92505060206102a085828601610255565b9150509250929050565b6102b38161022c565b82525050565b60006020820190506102ce60008301846102aa565b92915050565b6135fe806102e36000396000f3fe608060405234801561001057600080fd5b50600436106101425760003560e01c806397c37d6b116100b8578063bad3191a1161007c578063bad3191a1461035b578063bbfb8caa14610377578063c7567cd7146103a7578063f2fde38b146103c3578063f31fbc9f146103df578063f6bd2ac81461040f57610142565b806397c37d6b146102a75780639fcd8c9d146102d7578063aa389692146102f3578063ad7922d51461030f578063b9359ea21461033f57610142565b8063421d27771161010a578063421d2777146101e7578063431f90f314610217578063715018a6146102335780638c0233e91461023d5780638da5cb5b1461026d5780638f977f361461028b57610142565b80630e5fd6d7146101475780631b988ce4146101775780631e99f3491461019357806327801534146101af5780633266e290146101cb575b600080fd5b610161600480360381019061015c9190612103565b61042b565b60405161016e919061213f565b60405180910390f35b610191600480360381019061018c9190612103565b6104b8565b005b6101ad60048036038101906101a891906122a0565b6105f5565b005b6101c960048036038101906101c49190612103565b610810565b005b6101e560048036038101906101e09190612347565b61088c565b005b61020160048036038101906101fc91906122a0565b610a6d565b60405161020e91906123a9565b60405180910390f35b610231600480360381019061022c91906122a0565b610aba565b005b61023b610afc565b005b610257600480360381019061025291906122a0565b610b10565b60405161026491906123df565b60405180910390f35b610275610b46565b60405161028291906123a9565b60405180910390f35b6102a560048036038101906102a091906123fa565b610b6f565b005b6102c160048036038101906102bc9190612103565b610f99565b6040516102ce919061213f565b60405180910390f35b6102f160048036038101906102ec91906122a0565b610fea565b005b61030d60048036038101906103089190612472565b61136c565b005b61032960048036038101906103249190612103565b6115bc565b60405161033691906125d5565b60405180910390f35b610359600480360381019061035491906125f0565b6116a2565b005b610375600480360381019061037091906122a0565b61185b565b005b610391600480360381019061038c9190612103565b61189d565b60405161039e91906125d5565b60405180910390f35b6103c160048036038101906103bc9190612630565b611983565b005b6103dd60048036038101906103d891906126d9565b611d77565b005b6103f960048036038101906103f491906122a0565b611dfd565b60405161040691906123df565b60405180910390f35b610429600480360381019061042491906122a0565b611e33565b005b60008073__$6ca259786bae6b18641118eb2a4c0483c3$__63a285b8948460646003546040518463ffffffff1660e01b815260040161046c9392919061275a565b602060405180830381865af4158015610489573d6000803e3d6000fd5b505050506040513d601f19601f820116820180604052508101906104ad91906127a6565b905080915050919050565b600260009054906101000a900473ffffffffffffffffffffffffffffffffffffffff1673ffffffffffffffffffffffffffffffffffffffff166323b872dd3330846040518463ffffffff1660e01b8152600401610517939291906127d3565b6020604051808303816000875af1158015610536573d6000803e3d6000fd5b505050506040513d601f19601f8201168201806040525081019061055a9190612836565b61056357600080fd5b80600660003373ffffffffffffffffffffffffffffffffffffffff1673ffffffffffffffffffffffffffffffffffffffff16815260200190815260200160002060008282546105b29190612892565b925050819055507fe1fffcc4923d04b559f4d29a8bfc6cda04eb5b0d3c460751c2402c5c5cc9109c33826040516105ea9291906128c6565b60405180910390a150565b3373ffffffffffffffffffffffffffffffffffffffff1660048260405161061c9190612960565b908152602001604051809103902060009054906101000a900473ffffffffffffffffffffffffffffffffffffffff1673ffffffffffffffffffffffffffffffffffffffff16146106a1576040517f08c379a0000000000000000000000000000000000000000000000000000000008152600401610698906129d4565b60405180910390fd5b6000600560003373ffffffffffffffffffffffffffffffffffffffff1673ffffffffffffffffffffffffffffffffffffffff168152602001908152602001600020905060005b81805490508110156107ca57828051906020012082828154811061070e5761070d6129f4565b5b906000526020600020016040516107259190612b26565b6040518091039020036107bd5781600183805490506107449190612b3d565b81548110610755576107546129f4565b5b90600052602060002001828281548110610772576107716129f4565b5b9060005260206000200190816107889190612d3e565b508180548061079a57610799612e26565b5b6001900381819060005260206000200160006107b69190611fc8565b90556107ca565b80806001019150506106e7565b506004826040516107db9190612960565b908152602001604051809103902060006101000a81549073ffffffffffffffffffffffffffffffffffffffff02191690555050565b610818611e75565b6009600082815260200190815260200160002060008082016000905560018201600090556002820160006101000a81549073ffffffffffffffffffffffffffffffffffffffff0219169055600382016000905560048201600090556005820160006101000a81549060ff0219169055505050565b610894611e75565b6000600960008581526020019081526020016000206040518060c001604052908160008201548152602001600182015481526020016002820160009054906101000a900473ffffffffffffffffffffffffffffffffffffffff1673ffffffffffffffffffffffffffffffffffffffff1673ffffffffffffffffffffffffffffffffffffffff16815260200160038201548152602001600482015481526020016005820160009054906101000a900460ff166001811115610957576109566124e3565b5b6001811115610969576109686124e3565b5b8152505090508281602001818152505081816040019073ffffffffffffffffffffffffffffffffffffffff16908173ffffffffffffffffffffffffffffffffffffffff16815250508060096000868152602001908152602001600020600082015181600001556020820151816001015560408201518160020160006101000a81548173ffffffffffffffffffffffffffffffffffffffff021916908373ffffffffffffffffffffffffffffffffffffffff160217905550606082015181600301556080820151816004015560a08201518160050160006101000a81548160ff02191690836001811115610a5f57610a5e6124e3565b5b021790555090505050505050565b600080600483604051610a809190612960565b908152602001604051809103902060009054906101000a900473ffffffffffffffffffffffffffffffffffffffff16905080915050919050565b610ac2611e75565b6001600882604051610ad49190612960565b908152602001604051809103902060006101000a81548160ff02191690831515021790555050565b610b04611e75565b610b0e6000611efc565b565b6007818051602081018201805184825260208301602085012081835280955050505050506000915054906101000a900460ff1681565b60008060009054906101000a900473ffffffffffffffffffffffffffffffffffffffff16905090565b3373ffffffffffffffffffffffffffffffffffffffff16600483604051610b969190612960565b908152602001604051809103902060009054906101000a900473ffffffffffffffffffffffffffffffffffffffff1673ffffffffffffffffffffffffffffffffffffffff1614610c1b576040517f08c379a0000000000000000000000000000000000000000000000000000000008152600401610c12906129d4565b60405180910390fd5b600073ffffffffffffffffffffffffffffffffffffffff16600482604051610c439190612960565b908152602001604051809103902060009054906101000a900473ffffffffffffffffffffffffffffffffffffffff1673ffffffffffffffffffffffffffffffffffffffff1614610cc8576040517f08c379a0000000000000000000000000000000000000000000000000000000008152600401610cbf90612ea1565b60405180910390fd5b600781604051610cd89190612960565b908152602001604051809103902060009054906101000a900460ff1615610d34576040517f08c379a0000000000000000000000000000000000000000000000000000000008152600401610d2b90612f0d565b60405180910390fd5b6000600560003373ffffffffffffffffffffffffffffffffffffffff1673ffffffffffffffffffffffffffffffffffffffff168152602001908152602001600020905060005b8180549050811015610f93578380519060200120828281548110610da157610da06129f4565b5b90600052602060002001604051610db89190612b26565b604051809103902003610df55782828281548110610dd957610dd86129f4565b5b906000526020600020019081610def9190612f2d565b50610f93565b600484604051610e059190612960565b908152602001604051809103902060006101000a81549073ffffffffffffffffffffffffffffffffffffffff021916905533600484604051610e479190612960565b908152602001604051809103902060006101000a81548173ffffffffffffffffffffffffffffffffffffffff021916908373ffffffffffffffffffffffffffffffffffffffff160217905550600884604051610ea39190612960565b908152602001604051809103902060009054906101000a900460ff16600884604051610ecf9190612960565b908152602001604051809103902060006101000a81548160ff021916908315150217905550600884604051610f049190612960565b908152602001604051809103902060006101000a81549060ff02191690557fee06bd32f8b2583fd50c0dd94d872913c9fe17bb486e0f9d4b4865752d79efa033600885604051610f549190612960565b908152602001604051809103902060009054906101000a900460ff16604051610f7e929190612fff565b60405180910390a18080600101915050610d7a565b50505050565b600080610fa5836115bc565b90506000816020015190506000826060015190506000836080015190506000818385610fd19190612892565b610fdb9190612892565b90508095505050505050919050565b600781604051610ffa9190612960565b908152602001604051809103902060009054906101000a900460ff1615611056576040517f08c379a000000000000000000000000000000000000000000000000000000000815260040161104d90613074565b60405180910390fd5b600073ffffffffffffffffffffffffffffffffffffffff1660048260405161107e9190612960565b908152602001604051809103902060009054906101000a900473ffffffffffffffffffffffffffffffffffffffff1673ffffffffffffffffffffffffffffffffffffffff1614611103576040517f08c379a00000000000000000000000000000000000000000000000000000000081526004016110fa906130e0565b60405180910390fd5b6014600560003373ffffffffffffffffffffffffffffffffffffffff1673ffffffffffffffffffffffffffffffffffffffff1681526020019081526020016000208054905010611188576040517f08c379a000000000000000000000000000000000000000000000000000000000815260040161117f90613172565b60405180910390fd5b600560003373ffffffffffffffffffffffffffffffffffffffff1673ffffffffffffffffffffffffffffffffffffffff168152602001908152602001600020819080600181540180825580915050600190039060005260206000200160009091909190915090816111f99190612f2d565b503360048260405161120b9190612960565b908152602001604051809103902060006101000a81548173ffffffffffffffffffffffffffffffffffffffff021916908373ffffffffffffffffffffffffffffffffffffffff16021790555060018081111561126a576112696124e3565b5b600060149054906101000a900460ff16600181111561128c5761128b6124e3565b5b036112cd5760016008826040516112a39190612960565b908152602001604051809103902060006101000a81548160ff021916908315150217905550611305565b60006008826040516112df9190612960565b908152602001604051809103902060006101000a81548160ff0219169083151502179055505b7fee06bd32f8b2583fd50c0dd94d872913c9fe17bb486e0f9d4b4865752d79efa0336008836040516113379190612960565b908152602001604051809103902060009054906101000a900460ff16604051611361929190612fff565b60405180910390a150565b611374611e75565b6000600160009054906101000a900473ffffffffffffffffffffffffffffffffffffffff1673ffffffffffffffffffffffffffffffffffffffff166340a24c67856040518263ffffffff1660e01b81526004016113d1919061213f565b600060405180830381865afa1580156113ee573d6000803e3d6000fd5b505050506040513d6000823e3d601f19601f82011682018060405250810190611417919061331e565b9050611421612008565b600080836080015190506000600181111561143f5761143e6124e3565b5b816001811115611452576114516124e3565b5b036114605760009150611465565b600191505b818360a00190600181111561147d5761147c6124e3565b5b90816001811115611491576114906124e3565b5b8152505083604001518360200181815250508360600151836040019073ffffffffffffffffffffffffffffffffffffffff16908173ffffffffffffffffffffffffffffffffffffffff16815250508683600001818152505085836060018181525050848360800181815250508260096000898152602001908152602001600020600082015181600001556020820151816001015560408201518160020160006101000a81548173ffffffffffffffffffffffffffffffffffffffff021916908373ffffffffffffffffffffffffffffffffffffffff160217905550606082015181600301556080820151816004015560a08201518160050160006101000a81548160ff021916908360018111156115ab576115aa6124e3565b5b021790555090505050505050505050565b6115c4612008565b600960008381526020019081526020016000206040518060c001604052908160008201548152602001600182015481526020016002820160009054906101000a900473ffffffffffffffffffffffffffffffffffffffff1673ffffffffffffffffffffffffffffffffffffffff1673ffffffffffffffffffffffffffffffffffffffff16815260200160038201548152602001600482015481526020016005820160009054906101000a900460ff166001811115611685576116846124e3565b5b6001811115611697576116966124e3565b5b815250509050919050565b6000600160009054906101000a900473ffffffffffffffffffffffffffffffffffffffff1673ffffffffffffffffffffffffffffffffffffffff166340a24c67846040518263ffffffff1660e01b81526004016116ff919061213f565b600060405180830381865afa15801561171c573d6000803e3d6000fd5b505050506040513d6000823e3d601f19601f82011682018060405250810190611745919061331e565b90506000816080015190506000808360a0015190506000611765876115bc565b90506000816060015190506000806001811115611785576117846124e3565b5b866001811115611798576117976124e3565b5b036117b4576000945081846117ad9190613367565b90506117c8565b600194506001826117c59190613367565b90505b6000600660008a73ffffffffffffffffffffffffffffffffffffffff1673ffffffffffffffffffffffffffffffffffffffff1681526020019081526020016000205490508181101561184f576040517f08c379a00000000000000000000000000000000000000000000000000000000081526004016118469061341b565b60405180910390fd5b50505050505050505050565b611863611e75565b60006007826040516118759190612960565b908152602001604051809103902060006101000a81548160ff02191690831515021790555050565b6118a5612008565b600960008381526020019081526020016000206040518060c001604052908160008201548152602001600182015481526020016002820160009054906101000a900473ffffffffffffffffffffffffffffffffffffffff1673ffffffffffffffffffffffffffffffffffffffff1673ffffffffffffffffffffffffffffffffffffffff16815260200160038201548152602001600482015481526020016005820160009054906101000a900460ff166001811115611966576119656124e3565b5b6001811115611978576119776124e3565b5b815250509050919050565b6007856040516119939190612960565b908152602001604051809103902060009054906101000a900460ff16156119ef576040517f08c379a00000000000000000000000000000000000000000000000000000000081526004016119e690613487565b60405180910390fd5b6008856040516119ff9190612960565b908152602001604051809103902060009054906101000a900460ff16611a5a576040517f08c379a0000000000000000000000000000000000000000000000000000000008152600401611a51906134f3565b60405180910390fd5b6000611a65856115bc565b905060008160a001519050611a78612066565b60006001811115611a8c57611a8b6124e3565b5b826001811115611a9f57611a9e6124e3565b5b03611b2a578486611ab09190612892565b8160a001818152505082606001518160000181815250508260800151816020018181525050848160200151611ae59190613367565b868260000151611af59190613367565b611aff9190612892565b8160400181815250508060a001518360200151611b1c9190613367565b816080018181525050611b63565b82606001518160000181815250508260200151816060018181525050806000015181604001818152505080606001518160800181815250505b6000611b6e89610a6d565b9050600084604001519050600260009054906101000a900473ffffffffffffffffffffffffffffffffffffffff1673ffffffffffffffffffffffffffffffffffffffff1663a9059cbb8385604001516040518363ffffffff1660e01b8152600401611bda9291906128c6565b6020604051808303816000875af1158015611bf9573d6000803e3d6000fd5b505050506040513d601f19601f82011682018060405250810190611c1d9190612836565b611c2657600080fd5b600260009054906101000a900473ffffffffffffffffffffffffffffffffffffffff1673ffffffffffffffffffffffffffffffffffffffff1663a9059cbb8285608001516040518363ffffffff1660e01b8152600401611c879291906128c6565b6020604051808303816000875af1158015611ca6573d6000803e3d6000fd5b505050506040513d601f19601f82011682018060405250810190611cca9190612836565b611cd357600080fd5b7fe682774c095c98275661d05ff664616a641de1592fa52e2412789919e84b01ad8b8a848b8b88608001518960400151611d0d9190612892565b8c42604051611d23989796959493929190613513565b60405180910390a17f634235fcf5af0adbca1a405ec65f6f6c08f55e1f379c2c45cd10f23cb29e0e31828a8560400151604051611d6293929190613591565b60405180910390a15050505050505050505050565b611d7f611e75565b600073ffffffffffffffffffffffffffffffffffffffff168173ffffffffffffffffffffffffffffffffffffffff1603611df15760006040517f1e4fbdf7000000000000000000000000000000000000000000000000000000008152600401611de891906123a9565b60405180910390fd5b611dfa81611efc565b50565b6008818051602081018201805184825260208301602085012081835280955050505050506000915054906101000a900460ff1681565b611e3b611e75565b6001600782604051611e4d9190612960565b908152602001604051809103902060006101000a81548160ff02191690831515021790555050565b611e7d611fc0565b73ffffffffffffffffffffffffffffffffffffffff16611e9b610b46565b73ffffffffffffffffffffffffffffffffffffffff1614611efa57611ebe611fc0565b6040517f118cdaa7000000000000000000000000000000000000000000000000000000008152600401611ef191906123a9565b60405180910390fd5b565b60008060009054906101000a900473ffffffffffffffffffffffffffffffffffffffff169050816000806101000a81548173ffffffffffffffffffffffffffffffffffffffff021916908373ffffffffffffffffffffffffffffffffffffffff1602179055508173ffffffffffffffffffffffffffffffffffffffff168173ffffffffffffffffffffffffffffffffffffffff167f8be0079c531659141344cd1fd0a4f28419497f9722a3daafe3b4186f6b6457e060405160405180910390a35050565b600033905090565b508054611fd490612a52565b6000825580601f10611fe65750612005565b601f016020900490600052602060002090810190612004919061209c565b5b50565b6040518060c001604052806000815260200160008152602001600073ffffffffffffffffffffffffffffffffffffffff1681526020016000815260200160008152602001600060018111156120605761205f6124e3565b5b81525090565b6040518060c001604052806000815260200160008152602001600081526020016000815260200160008152602001600081525090565b5b808211156120b557600081600090555060010161209d565b5090565b6000604051905090565b600080fd5b600080fd5b6000819050919050565b6120e0816120cd565b81146120eb57600080fd5b50565b6000813590506120fd816120d7565b92915050565b600060208284031215612119576121186120c3565b5b6000612127848285016120ee565b91505092915050565b612139816120cd565b82525050565b60006020820190506121546000830184612130565b92915050565b600080fd5b600080fd5b6000601f19601f8301169050919050565b7f4e487b7100000000000000000000000000000000000000000000000000000000600052604160045260246000fd5b6121ad82612164565b810181811067ffffffffffffffff821117156121cc576121cb612175565b5b80604052505050565b60006121df6120b9565b90506121eb82826121a4565b919050565b600067ffffffffffffffff82111561220b5761220a612175565b5b61221482612164565b9050602081019050919050565b82818337600083830152505050565b600061224361223e846121f0565b6121d5565b90508281526020810184848401111561225f5761225e61215f565b5b61226a848285612221565b509392505050565b600082601f8301126122875761228661215a565b5b8135612297848260208601612230565b91505092915050565b6000602082840312156122b6576122b56120c3565b5b600082013567ffffffffffffffff8111156122d4576122d36120c8565b5b6122e084828501612272565b91505092915050565b600073ffffffffffffffffffffffffffffffffffffffff82169050919050565b6000612314826122e9565b9050919050565b61232481612309565b811461232f57600080fd5b50565b6000813590506123418161231b565b92915050565b6000806000606084860312156123605761235f6120c3565b5b600061236e868287016120ee565b935050602061237f868287016120ee565b925050604061239086828701612332565b9150509250925092565b6123a381612309565b82525050565b60006020820190506123be600083018461239a565b92915050565b60008115159050919050565b6123d9816123c4565b82525050565b60006020820190506123f460008301846123d0565b92915050565b60008060408385031215612411576124106120c3565b5b600083013567ffffffffffffffff81111561242f5761242e6120c8565b5b61243b85828601612272565b925050602083013567ffffffffffffffff81111561245c5761245b6120c8565b5b61246885828601612272565b9150509250929050565b60008060006060848603121561248b5761248a6120c3565b5b6000612499868287016120ee565b93505060206124aa868287016120ee565b92505060406124bb868287016120ee565b9150509250925092565b6124ce816120cd565b82525050565b6124dd81612309565b82525050565b7f4e487b7100000000000000000000000000000000000000000000000000000000600052602160045260246000fd5b60028110612523576125226124e3565b5b50565b600081905061253482612512565b919050565b600061254482612526565b9050919050565b61255481612539565b82525050565b60c08201600082015161257060008501826124c5565b50602082015161258360208501826124c5565b50604082015161259660408501826124d4565b5060608201516125a960608501826124c5565b5060808201516125bc60808501826124c5565b5060a08201516125cf60a085018261254b565b50505050565b600060c0820190506125ea600083018461255a565b92915050565b60008060408385031215612607576126066120c3565b5b6000612615858286016120ee565b925050602061262685828601612332565b9150509250929050565b60008060008060008060c0878903121561264d5761264c6120c3565b5b600061265b89828a016120ee565b965050602087013567ffffffffffffffff81111561267c5761267b6120c8565b5b61268889828a01612272565b955050604061269989828a016120ee565b94505060606126aa89828a016120ee565b93505060806126bb89828a016120ee565b92505060a06126cc89828a016120ee565b9150509295509295509295565b6000602082840312156126ef576126ee6120c3565b5b60006126fd84828501612332565b91505092915050565b61270f816120cd565b82525050565b6000819050919050565b6000819050919050565b600061274461273f61273a84612715565b61271f565b6120cd565b9050919050565b61275481612729565b82525050565b600060608201905061276f6000830186612706565b61277c602083018561274b565b6127896040830184612706565b949350505050565b6000815190506127a0816120d7565b92915050565b6000602082840312156127bc576127bb6120c3565b5b60006127ca84828501612791565b91505092915050565b60006060820190506127e8600083018661239a565b6127f5602083018561239a565b6128026040830184612130565b949350505050565b612813816123c4565b811461281e57600080fd5b50565b6000815190506128308161280a565b92915050565b60006020828403121561284c5761284b6120c3565b5b600061285a84828501612821565b91505092915050565b7f4e487b7100000000000000000000000000000000000000000000000000000000600052601160045260246000fd5b600061289d826120cd565b91506128a8836120cd565b92508282019050808211156128c0576128bf612863565b5b92915050565b60006040820190506128db600083018561239a565b6128e86020830184612130565b9392505050565b600081519050919050565b600081905092915050565b60005b83811015612923578082015181840152602081019050612908565b60008484015250505050565b600061293a826128ef565b61294481856128fa565b9350612954818560208601612905565b80840191505092915050565b600061296c828461292f565b915081905092915050565b600082825260208201905092915050565b7f4e6f7420796f757220776f726b6572206b657900000000000000000000000000600082015250565b60006129be601383612977565b91506129c982612988565b602082019050919050565b600060208201905081810360008301526129ed816129b1565b9050919050565b7f4e487b7100000000000000000000000000000000000000000000000000000000600052603260045260246000fd5b7f4e487b7100000000000000000000000000000000000000000000000000000000600052602260045260246000fd5b60006002820490506001821680612a6a57607f821691505b602082108103612a7d57612a7c612a23565b5b50919050565b600081905092915050565b60008190508160005260206000209050919050565b60008154612ab081612a52565b612aba8186612a83565b94506001821660008114612ad55760018114612aea57612b1d565b60ff1983168652811515820286019350612b1d565b612af385612a8e565b60005b83811015612b1557815481890152600182019150602081019050612af6565b838801955050505b50505092915050565b6000612b328284612aa3565b915081905092915050565b6000612b48826120cd565b9150612b53836120cd565b9250828203905081811115612b6b57612b6a612863565b5b92915050565b600081549050612b8081612a52565b9050919050565b60008190508160005260206000209050919050565b60008190508160005260206000209050919050565b60006020601f8301049050919050565b600082821b905092915050565b600060088302612bfe7fffffffffffffffffffffffffffffffffffffffffffffffffffffffffffffffff82612bc1565b612c088683612bc1565b95508019841693508086168417925050509392505050565b6000612c3b612c36612c31846120cd565b61271f565b6120cd565b9050919050565b6000819050919050565b612c5583612c20565b612c69612c6182612c42565b848454612bce565b825550505050565b600090565b612c7e612c71565b612c89818484612c4c565b505050565b5b81811015612cad57612ca2600082612c76565b600181019050612c8f565b5050565b601f821115612cf257612cc381612b87565b612ccc84612bb1565b81016020851015612cdb578190505b612cef612ce785612bb1565b830182612c8e565b50505b505050565b600082821c905092915050565b6000612d1560001984600802612cf7565b1980831691505092915050565b6000612d2e8383612d04565b9150826002028217905092915050565b818103612d4c575050612e24565b612d5582612b71565b67ffffffffffffffff811115612d6e57612d6d612175565b5b612d788254612a52565b612d83828285612cb1565b6000601f831160018114612db25760008415612da0578287015490505b612daa8582612d22565b865550612e1d565b601f198416612dc087612b9c565b9650612dcb86612b87565b60005b82811015612df357848901548255600182019150600185019450602081019050612dce565b86831015612e105784890154612e0c601f891682612d04565b8355505b6001600288020188555050505b5050505050505b565b7f4e487b7100000000000000000000000000000000000000000000000000000000600052603160045260246000fd5b7f4e6577206b657920616c72656164792072656769737465726564000000000000600082015250565b6000612e8b601a83612977565b9150612e9682612e55565b602082019050919050565b60006020820190508181036000830152612eba81612e7e565b9050919050565b7f4e6577206b657920697320626c61636b6c697374656400000000000000000000600082015250565b6000612ef7601683612977565b9150612f0282612ec1565b602082019050919050565b60006020820190508181036000830152612f2681612eea565b9050919050565b612f36826128ef565b67ffffffffffffffff811115612f4f57612f4e612175565b5b612f598254612a52565b612f64828285612cb1565b600060209050601f831160018114612f975760008415612f85578287015190505b612f8f8582612d22565b865550612ff7565b601f198416612fa586612b87565b60005b82811015612fcd57848901518255600182019150602085019450602081019050612fa8565b86831015612fea5784890151612fe6601f891682612d04565b8355505b6001600288020188555050505b505050505050565b6000604082019050613014600083018561239a565b61302160208301846123d0565b9392505050565b7f54686973206b657920697320696e20626c61636b6c6973740000000000000000600082015250565b600061305e601883612977565b915061306982613028565b602082019050919050565b6000602082019050818103600083015261308d81613051565b9050919050565b7f4b657920616c7265616479207265676973746572656400000000000000000000600082015250565b60006130ca601683612977565b91506130d582613094565b602082019050919050565b600060208201905081810360008301526130f9816130bd565b9050919050565b7f4d6178696d756d206e756d626572206f6620776f726b6572732028323029207260008201527f6561636865640000000000000000000000000000000000000000000000000000602082015250565b600061315c602683612977565b915061316782613100565b604082019050919050565b6000602082019050818103600083015261318b8161314f565b9050919050565b600080fd5b600080fd5b60006131af6131aa846121f0565b6121d5565b9050828152602081018484840111156131cb576131ca61215f565b5b6131d6848285612905565b509392505050565b600082601f8301126131f3576131f261215a565b5b815161320384826020860161319c565b91505092915050565b60008151905061321b8161231b565b92915050565b6002811061322e57600080fd5b50565b60008151905061324081613221565b92915050565b600060c0828403121561325c5761325b613192565b5b61326660c06121d5565b9050600082015167ffffffffffffffff81111561328657613285613197565b5b613292848285016131de565b600083015250602082015167ffffffffffffffff8111156132b6576132b5613197565b5b6132c2848285016131de565b60208301525060406132d684828501612791565b60408301525060606132ea8482850161320c565b60608301525060806132fe84828501613231565b60808301525060a061331284828501612791565b60a08301525092915050565b600060208284031215613334576133336120c3565b5b600082015167ffffffffffffffff811115613352576133516120c8565b5b61335e84828501613246565b91505092915050565b6000613372826120cd565b915061337d836120cd565b925082820261338b816120cd565b915082820484148315176133a2576133a1612863565b5b5092915050565b7f757365722062616c616e63652062656c6f77206d617820636f6e74657874207760008201527f696e646f77000000000000000000000000000000000000000000000000000000602082015250565b6000613405602583612977565b9150613410826133a9565b604082019050919050565b60006020820190508181036000830152613434816133f8565b9050919050565b7f5468697320776f726b657220697320696e20626c61636b6c6973740000000000600082015250565b6000613471601b83612977565b915061347c8261343b565b602082019050919050565b600060208201905081810360008301526134a081613464565b9050919050565b7f5468697320776f726b6572206973206e6f742079657420617070726f76656400600082015250565b60006134dd601f83612977565b91506134e8826134a7565b602082019050919050565b6000602082019050818103600083015261350c816134d0565b9050919050565b600061010082019050613529600083018b612130565b613536602083018a612130565b613543604083018961239a565b6135506060830188612130565b61355d6080830187612130565b61356a60a0830186612130565b61357760c0830185612130565b61358460e0830184612130565b9998505050505050505050565b60006060820190506135a6600083018661239a565b6135b36020830185612130565b6135c06040830184612130565b94935050505056fea264697066735822122068bbdd8a7e03f85c2089f1fdfae0a504d6d2bafdc0338ce7ff55d5aedad82ef764736f6c634300081c0033",
  "linkReferences": {
    "contracts/FeesCalculator.sol": {
      "FeesCalculator": [
        {
          "length": 20,
          "start": 1811
        }
      ]
    }
  },
  "deployedLinkReferences": {
    "contracts/FeesCalculator.sol": {
      "FeesCalculator": [
        {
          "length": 20,
          "start": 1072
        }
      ]
    }
  }
}