{
  "_format": "hh-sol-artifact-1",
  "contractName": "Cred",
  "sourceName": "contracts/hfswm.sol",
  "abi": [
    {
      "inputs": [
        {
          "internalType": "uint256",
          "name": "initialSupply",
          "type": "uint256"
        }
      ],
      "stateMutability": "nonpayable",
      "type": "constructor"
    },
    {
      "inputs": [],
      "name": "ECDSAInvalidSignature",
      "type": "error"
    },
    {
      "inputs": [
        {
          "internalType": "uint256",
          "name": "length",
          "type": "uint256"
        }
      ],
      "name": "ECDSAInvalidSignatureLength",
      "type": "error"
    },
    {
      "inputs": [
        {
          "internalType": "bytes32",
          "name": "s",
          "type": "bytes32"
        }
      ],
      "name": "ECDSAInvalidSignatureS",
      "type": "error"
    },
    {
      "inputs": [
        {
          "internalType": "address",
          "name": "spender",
          "type": "address"
        },
        {
          "internalType": "uint256",
          "name": "allowance",
          "type": "uint256"
        },
        {
          "internalType": "uint256",
          "name": "needed",
          "type": "uint256"
        }
      ],
      "name": "ERC20InsufficientAllowance",
      "type": "error"
    },
    {
      "inputs": [
        {
          "internalType": "address",
          "name": "sender",
          "type": "address"
        },
        {
          "internalType": "uint256",
          "name": "balance",
          "type": "uint256"
        },
        {
          "internalType": "uint256",
          "name": "needed",
          "type": "uint256"
        }
      ],
      "name": "ERC20InsufficientBalance",
      "type": "error"
    },
    {
      "inputs": [
        {
          "internalType": "address",
          "name": "approver",
          "type": "address"
        }
      ],
      "name": "ERC20InvalidApprover",
      "type": "error"
    },
    {
      "inputs": [
        {
          "internalType": "address",
          "name": "receiver",
          "type": "address"
        }
      ],
      "name": "ERC20InvalidReceiver",
      "type": "error"
    },
    {
      "inputs": [
        {
          "internalType": "address",
          "name": "sender",
          "type": "address"
        }
      ],
      "name": "ERC20InvalidSender",
      "type": "error"
    },
    {
      "inputs": [
        {
          "internalType": "address",
          "name": "spender",
          "type": "address"
        }
      ],
      "name": "ERC20InvalidSpender",
      "type": "error"
    },
    {
      "inputs": [
        {
          "internalType": "uint256",
          "name": "deadline",
          "type": "uint256"
        }
      ],
      "name": "ERC2612ExpiredSignature",
      "type": "error"
    },
    {
      "inputs": [
        {
          "internalType": "address",
          "name": "signer",
          "type": "address"
        },
        {
          "internalType": "address",
          "name": "owner",
          "type": "address"
        }
      ],
      "name": "ERC2612InvalidSigner",
      "type": "error"
    },
    {
      "inputs": [
        {
          "internalType": "address",
          "name": "account",
          "type": "address"
        },
        {
          "internalType": "uint256",
          "name": "currentNonce",
          "type": "uint256"
        }
      ],
      "name": "InvalidAccountNonce",
      "type": "error"
    },
    {
      "inputs": [],
      "name": "InvalidShortString",
      "type": "error"
    },
    {
      "inputs": [
        {
          "internalType": "address",
          "name": "owner",
          "type": "address"
        }
      ],
      "name": "OwnableInvalidOwner",
      "type": "error"
    },
    {
      "inputs": [
        {
          "internalType": "address",
          "name": "account",
          "type": "address"
        }
      ],
      "name": "OwnableUnauthorizedAccount",
      "type": "error"
    },
    {
      "inputs": [
        {
          "internalType": "string",
          "name": "str",
          "type": "string"
        }
      ],
      "name": "StringTooLong",
      "type": "error"
    },
    {
      "anonymous": false,
      "inputs": [
        {
          "indexed": true,
          "internalType": "address",
          "name": "owner",
          "type": "address"
        },
        {
          "indexed": true,
          "internalType": "address",
          "name": "spender",
          "type": "address"
        },
        {
          "indexed": false,
          "internalType": "uint256",
          "name": "value",
          "type": "uint256"
        }
      ],
      "name": "Approval",
      "type": "event"
    },
    {
      "anonymous": false,
      "inputs": [],
      "name": "EIP712DomainChanged",
      "type": "event"
    },
    {
      "anonymous": false,
      "inputs": [
        {
          "indexed": true,
          "internalType": "address",
          "name": "previousOwner",
          "type": "address"
        },
        {
          "indexed": true,
          "internalType": "address",
          "name": "newOwner",
          "type": "address"
        }
      ],
      "name": "OwnershipTransferred",
      "type": "event"
    },
    {
      "anonymous": false,
      "inputs": [
        {
          "indexed": true,
          "internalType": "address",
          "name": "from",
          "type": "address"
        },
        {
          "indexed": true,
          "internalType": "address",
          "name": "to",
          "type": "address"
        },
        {
          "indexed": false,
          "internalType": "uint256",
          "name": "value",
          "type": "uint256"
        }
      ],
      "name": "Transfer",
      "type": "event"
    },
    {
      "inputs": [],
      "name": "DOMAIN_SEPARATOR",
      "outputs": [
        {
          "internalType": "bytes32",
          "name": "",
          "type": "bytes32"
        }
      ],
      "stateMutability": "view",
      "type": "function"
    },
    {
      "inputs": [
        {
          "internalType": "address",
          "name": "owner",
          "type": "address"
        },
        {
          "internalType": "address",
          "name": "spender",
          "type": "address"
        }
      ],
      "name": "allowance",
      "outputs": [
        {
          "internalType": "uint256",
          "name": "",
          "type": "uint256"
        }
      ],
      "stateMutability": "view",
      "type": "function"
    },
    {
      "inputs": [
        {
          "internalType": "address",
          "name": "spender",
          "type": "address"
        },
        {
          "internalType": "uint256",
          "name": "value",
          "type": "uint256"
        }
      ],
      "name": "approve",
      "outputs": [
        {
          "internalType": "bool",
          "name": "",
          "type": "bool"
        }
      ],
      "stateMutability": "nonpayable",
      "type": "function"
    },
    {
      "inputs": [
        {
          "internalType": "address",
          "name": "account",
          "type": "address"
        }
      ],
      "name": "balanceOf",
      "outputs": [
        {
          "internalType": "uint256",
          "name": "",
          "type": "uint256"
        }
      ],
      "stateMutability": "view",
      "type": "function"
    },
    {
      "inputs": [
        {
          "internalType": "address",
          "name": "account",
          "type": "address"
        },
        {
          "internalType": "uint256",
          "name": "amount",
          "type": "uint256"
        }
      ],
      "name": "burnFrom",
      "outputs": [],
      "stateMutability": "nonpayable",
      "type": "function"
    },
    {
      "inputs": [],
      "name": "decimals",
      "outputs": [
        {
          "internalType": "uint8",
          "name": "",
          "type": "uint8"
        }
      ],
      "stateMutability": "pure",
      "type": "function"
    },
    {
      "inputs": [],
      "name": "eip712Domain",
      "outputs": [
        {
          "internalType": "bytes1",
          "name": "fields",
          "type": "bytes1"
        },
        {
          "internalType": "string",
          "name": "name",
          "type": "string"
        },
        {
          "internalType": "string",
          "name": "version",
          "type": "string"
        },
        {
          "internalType": "uint256",
          "name": "chainId",
          "type": "uint256"
        },
        {
          "internalType": "address",
          "name": "verifyingContract",
          "type": "address"
        },
        {
          "internalType": "bytes32",
          "name": "salt",
          "type": "bytes32"
        },
        {
          "internalType": "uint256[]",
          "name": "extensions",
          "type": "uint256[]"
        }
      ],
      "stateMutability": "view",
      "type": "function"
    },
    {
      "inputs": [
        {
          "internalType": "address",
          "name": "to",
          "type": "address"
        },
        {
          "internalType": "uint256",
          "name": "amount",
          "type": "uint256"
        }
      ],
      "name": "mint",
      "outputs": [],
      "stateMutability": "nonpayable",
      "type": "function"
    },
    {
      "inputs": [],
      "name": "name",
      "outputs": [
        {
          "internalType": "string",
          "name": "",
          "type": "string"
        }
      ],
      "stateMutability": "view",
      "type": "function"
    },
    {
      "inputs": [
        {
          "internalType": "address",
          "name": "owner",
          "type": "address"
        }
      ],
      "name": "nonces",
      "outputs": [
        {
          "internalType": "uint256",
          "name": "",
          "type": "uint256"
        }
      ],
      "stateMutability": "view",
      "type": "function"
    },
    {
      "inputs": [],
      "name": "owner",
      "outputs": [
        {
          "internalType": "address",
          "name": "",
          "type": "address"
        }
      ],
      "stateMutability": "view",
      "type": "function"
    },
    {
      "inputs": [
        {
          "internalType": "address",
          "name": "owner",
          "type": "address"
        },
        {
          "internalType": "address",
          "name": "spender",
          "type": "address"
        },
        {
          "internalType": "uint256",
          "name": "value",
          "type": "uint256"
        },
        {
          "internalType": "uint256",
          "name": "deadline",
          "type": "uint256"
        },
        {
          "internalType": "uint8",
          "name": "v",
          "type": "uint8"
        },
        {
          "internalType": "bytes32",
          "name": "r",
          "type": "bytes32"
        },
        {
          "internalType": "bytes32",
          "name": "s",
          "type": "bytes32"
        }
      ],
      "name": "permit",
      "outputs": [],
      "stateMutability": "nonpayable",
      "type": "function"
    },
    {
      "inputs": [],
      "name": "poolAddress",
      "outputs": [
        {
          "internalType": "address",
          "name": "",
          "type": "address"
        }
      ],
      "stateMutability": "view",
      "type": "function"
    },
    {
      "inputs": [],
      "name": "renounceOwnership",
      "outputs": [],
      "stateMutability": "nonpayable",
      "type": "function"
    },
    {
      "inputs": [
        {
          "internalType": "address",
          "name": "_poolAddress",
          "type": "address"
        }
      ],
      "name": "setPoolAddress",
      "outputs": [],
      "stateMutability": "nonpayable",
      "type": "function"
    },
    {
      "inputs": [],
      "name": "symbol",
      "outputs": [
        {
          "internalType": "string",
          "name": "",
          "type": "string"
        }
      ],
      "stateMutability": "view",
      "type": "function"
    },
    {
      "inputs": [],
      "name": "totalSupply",
      "outputs": [
        {
          "internalType": "uint256",
          "name": "",
          "type": "uint256"
        }
      ],
      "stateMutability": "view",
      "type": "function"
    },
    {
      "inputs": [
        {
          "internalType": "address",
          "name": "to",
          "type": "address"
        },
        {
          "internalType": "uint256",
          "name": "value",
          "type": "uint256"
        }
      ],
      "name": "transfer",
      "outputs": [
        {
          "internalType": "bool",
          "name": "",
          "type": "bool"
        }
      ],
      "stateMutability": "nonpayable",
      "type": "function"
    },
    {
      "inputs": [
        {
          "internalType": "address",
          "name": "from",
          "type": "address"
        },
        {
          "internalType": "address",
          "name": "to",
          "type": "address"
        },
        {
          "internalType": "uint256",
          "name": "value",
          "type": "uint256"
        }
      ],
      "name": "transferFrom",
      "outputs": [
        {
          "internalType": "bool",
          "name": "",
          "type": "bool"
        }
      ],
      "stateMutability": "nonpayable",
      "type": "function"
    },
    {
      "inputs": [
        {
          "internalType": "address",
          "name": "newOwner",
          "type": "address"
        }
      ],
      "name": "transferOwnership",
      "outputs": [],
      "stateMutability": "nonpayable",
      "type": "function"
    }
  ],
  "bytecode": "0x61016060405234801561001157600080fd5b50604051612f78380380612f788339818101604052810190610033919061073d565b336040518060400160405280600a81526020017f4846537761726d696e6400000000000000000000000000000000000000000000815250806040518060400160405280600181526020017f31000000000000000000000000000000000000000000000000000000000000008152506040518060400160405280600a81526020017f4846537761726d696e64000000000000000000000000000000000000000000008152506040518060400160405280600581526020017f484653574d000000000000000000000000000000000000000000000000000000815250816003908161011c91906109b0565b50806004908161012c91906109b0565b50505061014360058361027260201b90919060201c565b610120818152505061015f60068261027260201b90919060201c565b6101408181525050818051906020012060e08181525050808051906020012061010081815250504660a0818152505061019c6102c260201b60201c565b608081815250503073ffffffffffffffffffffffffffffffffffffffff1660c08173ffffffffffffffffffffffffffffffffffffffff1681525050505050600073ffffffffffffffffffffffffffffffffffffffff168173ffffffffffffffffffffffffffffffffffffffff160361024c5760006040517f1e4fbdf70000000000000000000000000000000000000000000000000000000081526004016102439190610ac3565b60405180910390fd5b61025b8161031d60201b60201c565b5061026c33826103e360201b60201c565b50610d4c565b60006020835110156102945761028d8361046b60201b60201c565b90506102bc565b826102a4836104d360201b60201c565b60000190816102b391906109b0565b5060ff60001b90505b92915050565b60007f8b73c3c69bb8fe3d512ecc4cf759cc79239f7b179b0ffacaa9a75d522b39400f60e051610100514630604051602001610302959493929190610b06565b60405160208183030381529060405280519060200120905090565b6000600860009054906101000a900473ffffffffffffffffffffffffffffffffffffffff16905081600860006101000a81548173ffffffffffffffffffffffffffffffffffffffff021916908373ffffffffffffffffffffffffffffffffffffffff1602179055508173ffffffffffffffffffffffffffffffffffffffff168173ffffffffffffffffffffffffffffffffffffffff167f8be0079c531659141344cd1fd0a4f28419497f9722a3daafe3b4186f6b6457e060405160405180910390a35050565b600073ffffffffffffffffffffffffffffffffffffffff168273ffffffffffffffffffffffffffffffffffffffff16036104555760006040517fec442f0500000000000000000000000000000000000000000000000000000000815260040161044c9190610ac3565b60405180910390fd5b610467600083836104dd60201b60201c565b5050565b600080829050601f815111156104b857826040517f305a27a90000000000000000000000000000000000000000000000000000000081526004016104af9190610bde565b60405180910390fd5b8051816104c490610c30565b60001c1760001b915050919050565b6000819050919050565b600073ffffffffffffffffffffffffffffffffffffffff168373ffffffffffffffffffffffffffffffffffffffff160361052f5780600260008282546105239190610cc6565b92505081905550610602565b60008060008573ffffffffffffffffffffffffffffffffffffffff1673ffffffffffffffffffffffffffffffffffffffff168152602001908152602001600020549050818110156105bb578381836040517fe450d38c0000000000000000000000000000000000000000000000000000000081526004016105b293929190610cfa565b60405180910390fd5b8181036000808673ffffffffffffffffffffffffffffffffffffffff1673ffffffffffffffffffffffffffffffffffffffff16815260200190815260200160002081905550505b600073ffffffffffffffffffffffffffffffffffffffff168273ffffffffffffffffffffffffffffffffffffffff160361064b5780600260008282540392505081905550610698565b806000808473ffffffffffffffffffffffffffffffffffffffff1673ffffffffffffffffffffffffffffffffffffffff168152602001908152602001600020600082825401925050819055505b8173ffffffffffffffffffffffffffffffffffffffff168373ffffffffffffffffffffffffffffffffffffffff167fddf252ad1be2c89b69c2b068fc378daa952ba7f163c4a11628f55a4df523b3ef836040516106f59190610d31565b60405180910390a3505050565b600080fd5b6000819050919050565b61071a81610707565b811461072557600080fd5b50565b60008151905061073781610711565b92915050565b60006020828403121561075357610752610702565b5b600061076184828501610728565b91505092915050565b600081519050919050565b7f4e487b7100000000000000000000000000000000000000000000000000000000600052604160045260246000fd5b7f4e487b7100000000000000000000000000000000000000000000000000000000600052602260045260246000fd5b600060028204905060018216806107eb57607f821691505b6020821081036107fe576107fd6107a4565b5b50919050565b60008190508160005260206000209050919050565b60006020601f8301049050919050565b600082821b905092915050565b6000600883026108667fffffffffffffffffffffffffffffffffffffffffffffffffffffffffffffffff82610829565b6108708683610829565b95508019841693508086168417925050509392505050565b6000819050919050565b60006108ad6108a86108a384610707565b610888565b610707565b9050919050565b6000819050919050565b6108c783610892565b6108db6108d3826108b4565b848454610836565b825550505050565b600090565b6108f06108e3565b6108fb8184846108be565b505050565b5b8181101561091f576109146000826108e8565b600181019050610901565b5050565b601f8211156109645761093581610804565b61093e84610819565b8101602085101561094d578190505b61096161095985610819565b830182610900565b50505b505050565b600082821c905092915050565b600061098760001984600802610969565b1980831691505092915050565b60006109a08383610976565b9150826002028217905092915050565b6109b98261076a565b67ffffffffffffffff8111156109d2576109d1610775565b5b6109dc82546107d3565b6109e7828285610923565b600060209050601f831160018114610a1a5760008415610a08578287015190505b610a128582610994565b865550610a7a565b601f198416610a2886610804565b60005b82811015610a5057848901518255600182019150602085019450602081019050610a2b565b86831015610a6d5784890151610a69601f891682610976565b8355505b6001600288020188555050505b505050505050565b600073ffffffffffffffffffffffffffffffffffffffff82169050919050565b6000610aad82610a82565b9050919050565b610abd81610aa2565b82525050565b6000602082019050610ad86000830184610ab4565b92915050565b6000819050919050565b610af181610ade565b82525050565b610b0081610707565b82525050565b600060a082019050610b1b6000830188610ae8565b610b286020830187610ae8565b610b356040830186610ae8565b610b426060830185610af7565b610b4f6080830184610ab4565b9695505050505050565b600082825260208201905092915050565b60005b83811015610b88578082015181840152602081019050610b6d565b60008484015250505050565b6000601f19601f8301169050919050565b6000610bb08261076a565b610bba8185610b59565b9350610bca818560208601610b6a565b610bd381610b94565b840191505092915050565b60006020820190508181036000830152610bf88184610ba5565b905092915050565b600081519050919050565b6000819050602082019050919050565b6000610c278251610ade565b80915050919050565b6000610c3b82610c00565b82610c4584610c0b565b9050610c5081610c1b565b92506020821015610c9057610c8b7fffffffffffffffffffffffffffffffffffffffffffffffffffffffffffffffff83602003600802610829565b831692505b5050919050565b7f4e487b7100000000000000000000000000000000000000000000000000000000600052601160045260246000fd5b6000610cd182610707565b9150610cdc83610707565b9250828201905080821115610cf457610cf3610c97565b5b92915050565b6000606082019050610d0f6000830186610ab4565b610d1c6020830185610af7565b610d296040830184610af7565b949350505050565b6000602082019050610d466000830184610af7565b92915050565b60805160a05160c05160e0516101005161012051610140516121d2610da66000396000610f8d01526000610f52015260006114a20152600061148101526000610bfc01526000610c5201526000610c7b01526121d26000f3fe608060405234801561001057600080fd5b506004361061012c5760003560e01c806379cc6790116100ad578063a9059cbb11610071578063a9059cbb14610329578063d505accf14610359578063dd62ed3e14610375578063e9e15b4f146103a5578063f2fde38b146103c15761012c565b806379cc67901461027d5780637ecebe001461029957806384b0196e146102c95780638da5cb5b146102ed57806395d89b411461030b5761012c565b8063313ce567116100f4578063313ce567146101eb5780633644e5151461020957806340c10f191461022757806370a0823114610243578063715018a6146102735761012c565b806306fdde0314610131578063095ea7b31461014f5780631755ff211461017f57806318160ddd1461019d57806323b872dd146101bb575b600080fd5b6101396103dd565b604051610146919061198f565b60405180910390f35b61016960048036038101906101649190611a4a565b61046f565b6040516101769190611aa5565b60405180910390f35b610187610492565b6040516101949190611acf565b60405180910390f35b6101a56104b8565b6040516101b29190611af9565b60405180910390f35b6101d560048036038101906101d09190611b14565b6104c2565b6040516101e29190611aa5565b60405180910390f35b6101f36104f1565b6040516102009190611b83565b60405180910390f35b6102116104fa565b60405161021e9190611bb7565b60405180910390f35b610241600480360381019061023c9190611a4a565b610509565b005b61025d60048036038101906102589190611bd2565b6105a7565b60405161026a9190611af9565b60405180910390f35b61027b6105ef565b005b61029760048036038101906102929190611a4a565b610603565b005b6102b360048036038101906102ae9190611bd2565b610619565b6040516102c09190611af9565b60405180910390f35b6102d161062b565b6040516102e49796959493929190611cf8565b60405180910390f35b6102f56106d5565b6040516103029190611acf565b60405180910390f35b6103136106ff565b604051610320919061198f565b60405180910390f35b610343600480360381019061033e9190611a4a565b610791565b6040516103509190611aa5565b60405180910390f35b610373600480360381019061036e9190611dd4565b6107b4565b005b61038f600480360381019061038a9190611e76565b6108fc565b60405161039c9190611af9565b60405180910390f35b6103bf60048036038101906103ba9190611bd2565b610983565b005b6103db60048036038101906103d69190611bd2565b6109cf565b005b6060600380546103ec90611ee5565b80601f016020809104026020016040519081016040528092919081815260200182805461041890611ee5565b80156104655780601f1061043a57610100808354040283529160200191610465565b820191906000526020600020905b81548152906001019060200180831161044857829003601f168201915b5050505050905090565b60008061047a610a55565b9050610487818585610a5d565b600191505092915050565b600960009054906101000a900473ffffffffffffffffffffffffffffffffffffffff1681565b6000600254905090565b6000806104cd610a55565b90506104da858285610a6f565b6104e5858585610b04565b60019150509392505050565b60006009905090565b6000610504610bf8565b905090565b600960009054906101000a900473ffffffffffffffffffffffffffffffffffffffff1673ffffffffffffffffffffffffffffffffffffffff163373ffffffffffffffffffffffffffffffffffffffff1614610599576040517f08c379a000000000000000000000000000000000000000000000000000000000815260040161059090611f62565b60405180910390fd5b6105a38282610caf565b5050565b60008060008373ffffffffffffffffffffffffffffffffffffffff1673ffffffffffffffffffffffffffffffffffffffff168152602001908152602001600020549050919050565b6105f7610d31565b6106016000610db8565b565b61060b610d31565b6106158282610e7e565b5050565b600061062482610f00565b9050919050565b60006060806000806000606061063f610f49565b610647610f84565b46306000801b600067ffffffffffffffff81111561066857610667611f82565b5b6040519080825280602002602001820160405280156106965781602001602082028036833780820191505090505b507f0f00000000000000000000000000000000000000000000000000000000000000959493929190965096509650965096509650965090919293949596565b6000600860009054906101000a900473ffffffffffffffffffffffffffffffffffffffff16905090565b60606004805461070e90611ee5565b80601f016020809104026020016040519081016040528092919081815260200182805461073a90611ee5565b80156107875780601f1061075c57610100808354040283529160200191610787565b820191906000526020600020905b81548152906001019060200180831161076a57829003601f168201915b5050505050905090565b60008061079c610a55565b90506107a9818585610b04565b600191505092915050565b834211156107f957836040517f627913020000000000000000000000000000000000000000000000000000000081526004016107f09190611af9565b60405180910390fd5b60007f6e71edae12b1b97f4d1f60370fef10105fa2faae0126114a169c64845d6126c98888886108288c610fbf565b8960405160200161083e96959493929190611fb1565b604051602081830303815290604052805190602001209050600061086182611016565b9050600061087182878787611030565b90508973ffffffffffffffffffffffffffffffffffffffff168173ffffffffffffffffffffffffffffffffffffffff16146108e557808a6040517f4b800e460000000000000000000000000000000000000000000000000000000081526004016108dc929190612012565b60405180910390fd5b6108f08a8a8a610a5d565b50505050505050505050565b6000600160008473ffffffffffffffffffffffffffffffffffffffff1673ffffffffffffffffffffffffffffffffffffffff16815260200190815260200160002060008373ffffffffffffffffffffffffffffffffffffffff1673ffffffffffffffffffffffffffffffffffffffff16815260200190815260200160002054905092915050565b61098b610d31565b80600960006101000a81548173ffffffffffffffffffffffffffffffffffffffff021916908373ffffffffffffffffffffffffffffffffffffffff16021790555050565b6109d7610d31565b600073ffffffffffffffffffffffffffffffffffffffff168173ffffffffffffffffffffffffffffffffffffffff1603610a495760006040517f1e4fbdf7000000000000000000000000000000000000000000000000000000008152600401610a409190611acf565b60405180910390fd5b610a5281610db8565b50565b600033905090565b610a6a8383836001611060565b505050565b6000610a7b84846108fc565b90507fffffffffffffffffffffffffffffffffffffffffffffffffffffffffffffffff811015610afe5781811015610aee578281836040517ffb8f41b2000000000000000000000000000000000000000000000000000000008152600401610ae59392919061203b565b60405180910390fd5b610afd84848484036000611060565b5b50505050565b600073ffffffffffffffffffffffffffffffffffffffff168373ffffffffffffffffffffffffffffffffffffffff1603610b765760006040517f96c6fd1e000000000000000000000000000000000000000000000000000000008152600401610b6d9190611acf565b60405180910390fd5b600073ffffffffffffffffffffffffffffffffffffffff168273ffffffffffffffffffffffffffffffffffffffff1603610be85760006040517fec442f05000000000000000000000000000000000000000000000000000000008152600401610bdf9190611acf565b60405180910390fd5b610bf3838383611237565b505050565b60007f000000000000000000000000000000000000000000000000000000000000000073ffffffffffffffffffffffffffffffffffffffff163073ffffffffffffffffffffffffffffffffffffffff16148015610c7457507f000000000000000000000000000000000000000000000000000000000000000046145b15610ca1577f00000000000000000000000000000000000000000000000000000000000000009050610cac565b610ca961145c565b90505b90565b600073ffffffffffffffffffffffffffffffffffffffff168273ffffffffffffffffffffffffffffffffffffffff1603610d215760006040517fec442f05000000000000000000000000000000000000000000000000000000008152600401610d189190611acf565b60405180910390fd5b610d2d60008383611237565b5050565b610d39610a55565b73ffffffffffffffffffffffffffffffffffffffff16610d576106d5565b73ffffffffffffffffffffffffffffffffffffffff1614610db657610d7a610a55565b6040517f118cdaa7000000000000000000000000000000000000000000000000000000008152600401610dad9190611acf565b60405180910390fd5b565b6000600860009054906101000a900473ffffffffffffffffffffffffffffffffffffffff16905081600860006101000a81548173ffffffffffffffffffffffffffffffffffffffff021916908373ffffffffffffffffffffffffffffffffffffffff1602179055508173ffffffffffffffffffffffffffffffffffffffff168173ffffffffffffffffffffffffffffffffffffffff167f8be0079c531659141344cd1fd0a4f28419497f9722a3daafe3b4186f6b6457e060405160405180910390a35050565b600073ffffffffffffffffffffffffffffffffffffffff168273ffffffffffffffffffffffffffffffffffffffff1603610ef05760006040517f96c6fd1e000000000000000000000000000000000000000000000000000000008152600401610ee79190611acf565b60405180910390fd5b610efc82600083611237565b5050565b6000600760008373ffffffffffffffffffffffffffffffffffffffff1673ffffffffffffffffffffffffffffffffffffffff168152602001908152602001600020549050919050565b6060610f7f60057f00000000000000000000000000000000000000000000000000000000000000006114f290919063ffffffff16565b905090565b6060610fba60067f00000000000000000000000000000000000000000000000000000000000000006114f290919063ffffffff16565b905090565b6000600760008373ffffffffffffffffffffffffffffffffffffffff1673ffffffffffffffffffffffffffffffffffffffff1681526020019081526020016000206000815480929190600101919050559050919050565b6000611029611023610bf8565b836115a2565b9050919050565b600080600080611042888888886115e3565b92509250925061105282826116d7565b829350505050949350505050565b600073ffffffffffffffffffffffffffffffffffffffff168473ffffffffffffffffffffffffffffffffffffffff16036110d25760006040517fe602df050000000000000000000000000000000000000000000000000000000081526004016110c99190611acf565b60405180910390fd5b600073ffffffffffffffffffffffffffffffffffffffff168373ffffffffffffffffffffffffffffffffffffffff16036111445760006040517f94280d6200000000000000000000000000000000000000000000000000000000815260040161113b9190611acf565b60405180910390fd5b81600160008673ffffffffffffffffffffffffffffffffffffffff1673ffffffffffffffffffffffffffffffffffffffff16815260200190815260200160002060008573ffffffffffffffffffffffffffffffffffffffff1673ffffffffffffffffffffffffffffffffffffffff168152602001908152602001600020819055508015611231578273ffffffffffffffffffffffffffffffffffffffff168473ffffffffffffffffffffffffffffffffffffffff167f8c5be1e5ebec7d5bd14f71427d1e84f3dd0314c0f7b2291e5b200ac8c7c3b925846040516112289190611af9565b60405180910390a35b50505050565b600073ffffffffffffffffffffffffffffffffffffffff168373ffffffffffffffffffffffffffffffffffffffff160361128957806002600082825461127d91906120a1565b9250508190555061135c565b60008060008573ffffffffffffffffffffffffffffffffffffffff1673ffffffffffffffffffffffffffffffffffffffff16815260200190815260200160002054905081811015611315578381836040517fe450d38c00000000000000000000000000000000000000000000000000000000815260040161130c9392919061203b565b60405180910390fd5b8181036000808673ffffffffffffffffffffffffffffffffffffffff1673ffffffffffffffffffffffffffffffffffffffff16815260200190815260200160002081905550505b600073ffffffffffffffffffffffffffffffffffffffff168273ffffffffffffffffffffffffffffffffffffffff16036113a557806002600082825403925050819055506113f2565b806000808473ffffffffffffffffffffffffffffffffffffffff1673ffffffffffffffffffffffffffffffffffffffff168152602001908152602001600020600082825401925050819055505b8173ffffffffffffffffffffffffffffffffffffffff168373ffffffffffffffffffffffffffffffffffffffff167fddf252ad1be2c89b69c2b068fc378daa952ba7f163c4a11628f55a4df523b3ef8360405161144f9190611af9565b60405180910390a3505050565b60007f8b73c3c69bb8fe3d512ecc4cf759cc79239f7b179b0ffacaa9a75d522b39400f7f00000000000000000000000000000000000000000000000000000000000000007f000000000000000000000000000000000000000000000000000000000000000046306040516020016114d79594939291906120d5565b60405160208183030381529060405280519060200120905090565b606060ff60001b831461150f576115088361183b565b905061159c565b81805461151b90611ee5565b80601f016020809104026020016040519081016040528092919081815260200182805461154790611ee5565b80156115945780601f1061156957610100808354040283529160200191611594565b820191906000526020600020905b81548152906001019060200180831161157757829003601f168201915b505050505090505b92915050565b60006040517f190100000000000000000000000000000000000000000000000000000000000081528360028201528260228201526042812091505092915050565b60008060007f7fffffffffffffffffffffffffffffff5d576e7357a4501ddfe92f46681b20a08460001c11156116235760006003859250925092506116cd565b6000600188888888604051600081526020016040526040516116489493929190612128565b6020604051602081039080840390855afa15801561166a573d6000803e3d6000fd5b505050602060405103519050600073ffffffffffffffffffffffffffffffffffffffff168173ffffffffffffffffffffffffffffffffffffffff16036116be57600060016000801b935093509350506116cd565b8060008060001b935093509350505b9450945094915050565b600060038111156116eb576116ea61216d565b5b8260038111156116fe576116fd61216d565b5b031561183757600160038111156117185761171761216d565b5b82600381111561172b5761172a61216d565b5b03611762576040517ff645eedf00000000000000000000000000000000000000000000000000000000815260040160405180910390fd5b600260038111156117765761177561216d565b5b8260038111156117895761178861216d565b5b036117ce578060001c6040517ffce698f70000000000000000000000000000000000000000000000000000000081526004016117c59190611af9565b60405180910390fd5b6003808111156117e1576117e061216d565b5b8260038111156117f4576117f361216d565b5b0361183657806040517fd78bce0c00000000000000000000000000000000000000000000000000000000815260040161182d9190611bb7565b60405180910390fd5b5b5050565b60606000611848836118af565b90506000602067ffffffffffffffff81111561186757611866611f82565b5b6040519080825280601f01601f1916602001820160405280156118995781602001600182028036833780820191505090505b5090508181528360208201528092505050919050565b60008060ff8360001c169050601f8111156118f6576040517fb3512b0c00000000000000000000000000000000000000000000000000000000815260040160405180910390fd5b80915050919050565b600081519050919050565b600082825260208201905092915050565b60005b8381101561193957808201518184015260208101905061191e565b60008484015250505050565b6000601f19601f8301169050919050565b6000611961826118ff565b61196b818561190a565b935061197b81856020860161191b565b61198481611945565b840191505092915050565b600060208201905081810360008301526119a98184611956565b905092915050565b600080fd5b600073ffffffffffffffffffffffffffffffffffffffff82169050919050565b60006119e1826119b6565b9050919050565b6119f1816119d6565b81146119fc57600080fd5b50565b600081359050611a0e816119e8565b92915050565b6000819050919050565b611a2781611a14565b8114611a3257600080fd5b50565b600081359050611a4481611a1e565b92915050565b60008060408385031215611a6157611a606119b1565b5b6000611a6f858286016119ff565b9250506020611a8085828601611a35565b9150509250929050565b60008115159050919050565b611a9f81611a8a565b82525050565b6000602082019050611aba6000830184611a96565b92915050565b611ac9816119d6565b82525050565b6000602082019050611ae46000830184611ac0565b92915050565b611af381611a14565b82525050565b6000602082019050611b0e6000830184611aea565b92915050565b600080600060608486031215611b2d57611b2c6119b1565b5b6000611b3b868287016119ff565b9350506020611b4c868287016119ff565b9250506040611b5d86828701611a35565b9150509250925092565b600060ff82169050919050565b611b7d81611b67565b82525050565b6000602082019050611b986000830184611b74565b92915050565b6000819050919050565b611bb181611b9e565b82525050565b6000602082019050611bcc6000830184611ba8565b92915050565b600060208284031215611be857611be76119b1565b5b6000611bf6848285016119ff565b91505092915050565b60007fff0000000000000000000000000000000000000000000000000000000000000082169050919050565b611c3481611bff565b82525050565b600081519050919050565b600082825260208201905092915050565b6000819050602082019050919050565b611c6f81611a14565b82525050565b6000611c818383611c66565b60208301905092915050565b6000602082019050919050565b6000611ca582611c3a565b611caf8185611c45565b9350611cba83611c56565b8060005b83811015611ceb578151611cd28882611c75565b9750611cdd83611c8d565b925050600181019050611cbe565b5085935050505092915050565b600060e082019050611d0d600083018a611c2b565b8181036020830152611d1f8189611956565b90508181036040830152611d338188611956565b9050611d426060830187611aea565b611d4f6080830186611ac0565b611d5c60a0830185611ba8565b81810360c0830152611d6e8184611c9a565b905098975050505050505050565b611d8581611b67565b8114611d9057600080fd5b50565b600081359050611da281611d7c565b92915050565b611db181611b9e565b8114611dbc57600080fd5b50565b600081359050611dce81611da8565b92915050565b600080600080600080600060e0888a031215611df357611df26119b1565b5b6000611e018a828b016119ff565b9750506020611e128a828b016119ff565b9650506040611e238a828b01611a35565b9550506060611e348a828b01611a35565b9450506080611e458a828b01611d93565b93505060a0611e568a828b01611dbf565b92505060c0611e678a828b01611dbf565b91505092959891949750929550565b60008060408385031215611e8d57611e8c6119b1565b5b6000611e9b858286016119ff565b9250506020611eac858286016119ff565b9150509250929050565b7f4e487b7100000000000000000000000000000000000000000000000000000000600052602260045260246000fd5b60006002820490506001821680611efd57607f821691505b602082108103611f1057611f0f611eb6565b5b50919050565b7f43616c6c6572206973206e6f742074686520706f6f6c00000000000000000000600082015250565b6000611f4c60168361190a565b9150611f5782611f16565b602082019050919050565b60006020820190508181036000830152611f7b81611f3f565b9050919050565b7f4e487b7100000000000000000000000000000000000000000000000000000000600052604160045260246000fd5b600060c082019050611fc66000830189611ba8565b611fd36020830188611ac0565b611fe06040830187611ac0565b611fed6060830186611aea565b611ffa6080830185611aea565b61200760a0830184611aea565b979650505050505050565b60006040820190506120276000830185611ac0565b6120346020830184611ac0565b9392505050565b60006060820190506120506000830186611ac0565b61205d6020830185611aea565b61206a6040830184611aea565b949350505050565b7f4e487b7100000000000000000000000000000000000000000000000000000000600052601160045260246000fd5b60006120ac82611a14565b91506120b783611a14565b92508282019050808211156120cf576120ce612072565b5b92915050565b600060a0820190506120ea6000830188611ba8565b6120f76020830187611ba8565b6121046040830186611ba8565b6121116060830185611aea565b61211e6080830184611ac0565b9695505050505050565b600060808201905061213d6000830187611ba8565b61214a6020830186611b74565b6121576040830185611ba8565b6121646060830184611ba8565b95945050505050565b7f4e487b7100000000000000000000000000000000000000000000000000000000600052602160045260246000fdfea26469706673582212205478960d686443af26c61ce3f4c9714184a6f7084e273f398ccb8ac6962e852b64736f6c634300081c0033",
  "linkReferences": {},
  "deployedLinkReferences": {}
}