{
  "_format": "hh-sol-artifact-1",
  "contractName": "WETH",
  "sourceName": "contracts/weth.sol",
  "abi": [
    {
      "inputs": [],
      "stateMutability": "nonpayable",
      "type": "constructor"
    },
    {
      "inputs": [
        {
          "internalType": "address",
          "name": "spender",
          "type": "address"
        },
        {
          "internalType": "uint256",
          "name": "allowance",
          "type": "uint256"
        },
        {
          "internalType": "uint256",
          "name": "needed",
          "type": "uint256"
        }
      ],
      "name": "ERC20InsufficientAllowance",
      "type": "error"
    },
    {
      "inputs": [
        {
          "internalType": "address",
          "name": "sender",
          "type": "address"
        },
        {
          "internalType": "uint256",
          "name": "balance",
          "type": "uint256"
        },
        {
          "internalType": "uint256",
          "name": "needed",
          "type": "uint256"
        }
      ],
      "name": "ERC20InsufficientBalance",
      "type": "error"
    },
    {
      "inputs": [
        {
          "internalType": "address",
          "name": "approver",
          "type": "address"
        }
      ],
      "name": "ERC20InvalidApprover",
      "type": "error"
    },
    {
      "inputs": [
        {
          "internalType": "address",
          "name": "receiver",
          "type": "address"
        }
      ],
      "name": "ERC20InvalidReceiver",
      "type": "error"
    },
    {
      "inputs": [
        {
          "internalType": "address",
          "name": "sender",
          "type": "address"
        }
      ],
      "name": "ERC20InvalidSender",
      "type": "error"
    },
    {
      "inputs": [
        {
          "internalType": "address",
          "name": "spender",
          "type": "address"
        }
      ],
      "name": "ERC20InvalidSpender",
      "type": "error"
    },
    {
      "anonymous": false,
      "inputs": [
        {
          "indexed": true,
          "internalType": "address",
          "name": "owner",
          "type": "address"
        },
        {
          "indexed": true,
          "internalType": "address",
          "name": "spender",
          "type": "address"
        },
        {
          "indexed": false,
          "internalType": "uint256",
          "name": "value",
          "type": "uint256"
        }
      ],
      "name": "Approval",
      "type": "event"
    },
    {
      "anonymous": false,
      "inputs": [
        {
          "indexed": true,
          "internalType": "address",
          "name": "from",
          "type": "address"
        },
        {
          "indexed": true,
          "internalType": "address",
          "name": "to",
          "type": "address"
        },
        {
          "indexed": false,
          "internalType": "uint256",
          "name": "value",
          "type": "uint256"
        }
      ],
      "name": "Transfer",
      "type": "event"
    },
    {
      "inputs": [
        {
          "internalType": "address",
          "name": "owner",
          "type": "address"
        },
        {
          "internalType": "address",
          "name": "spender",
          "type": "address"
        }
      ],
      "name": "allowance",
      "outputs": [
        {
          "internalType": "uint256",
          "name": "",
          "type": "uint256"
        }
      ],
      "stateMutability": "view",
      "type": "function"
    },
    {
      "inputs": [
        {
          "internalType": "address",
          "name": "spender",
          "type": "address"
        },
        {
          "internalType": "uint256",
          "name": "value",
          "type": "uint256"
        }
      ],
      "name": "approve",
      "outputs": [
        {
          "internalType": "bool",
          "name": "",
          "type": "bool"
        }
      ],
      "stateMutability": "nonpayable",
      "type": "function"
    },
    {
      "inputs": [
        {
          "internalType": "address",
          "name": "account",
          "type": "address"
        }
      ],
      "name": "balanceOf",
      "outputs": [
        {
          "internalType": "uint256",
          "name": "",
          "type": "uint256"
        }
      ],
      "stateMutability": "view",
      "type": "function"
    },
    {
      "inputs": [],
      "name": "decimals",
      "outputs": [
        {
          "internalType": "uint8",
          "name": "",
          "type": "uint8"
        }
      ],
      "stateMutability": "view",
      "type": "function"
    },
    {
      "inputs": [],
      "name": "name",
      "outputs": [
        {
          "internalType": "string",
          "name": "",
          "type": "string"
        }
      ],
      "stateMutability": "view",
      "type": "function"
    },
    {
      "inputs": [],
      "name": "symbol",
      "outputs": [
        {
          "internalType": "string",
          "name": "",
          "type": "string"
        }
      ],
      "stateMutability": "view",
      "type": "function"
    },
    {
      "inputs": [],
      "name": "totalSupply",
      "outputs": [
        {
          "internalType": "uint256",
          "name": "",
          "type": "uint256"
        }
      ],
      "stateMutability": "view",
      "type": "function"
    },
    {
      "inputs": [
        {
          "internalType": "address",
          "name": "to",
          "type": "address"
        },
        {
          "internalType": "uint256",
          "name": "value",
          "type": "uint256"
        }
      ],
      "name": "transfer",
      "outputs": [
        {
          "internalType": "bool",
          "name": "",
          "type": "bool"
        }
      ],
      "stateMutability": "nonpayable",
      "type": "function"
    },
    {
      "inputs": [
        {
          "internalType": "address",
          "name": "from",
          "type": "address"
        },
        {
          "internalType": "address",
          "name": "to",
          "type": "address"
        },
        {
          "internalType": "uint256",
          "name": "value",
          "type": "uint256"
        }
      ],
      "name": "transferFrom",
      "outputs": [
        {
          "internalType": "bool",
          "name": "",
          "type": "bool"
        }
      ],
      "stateMutability": "nonpayable",
      "type": "function"
    },
    {
      "inputs": [
        {
          "internalType": "uint256",
          "name": "amount",
          "type": "uint256"
        }
      ],
      "name": "unwrap",
      "outputs": [],
      "stateMutability": "nonpayable",
      "type": "function"
    },
    {
      "inputs": [
        {
          "internalType": "uint256",
          "name": "amount",
          "type": "uint256"
        },
        {
          "internalType": "address",
          "name": "to",
          "type": "address"
        }
      ],
      "name": "unwrapTo",
      "outputs": [],
      "stateMutability": "nonpayable",
      "type": "function"
    },
    {
      "stateMutability": "payable",
      "type": "receive"
    }
  ],
  "bytecode": "0x608060405234801561001057600080fd5b506040518060400160405280600b81526020017f57726170706564204554480000000000000000000000000000000000000000008152506040518060400160405280600481526020017f5745544800000000000000000000000000000000000000000000000000000000815250816003908161008c91906102f4565b50806004908161009c91906102f4565b5050506103c6565b600081519050919050565b7f4e487b7100000000000000000000000000000000000000000000000000000000600052604160045260246000fd5b7f4e487b7100000000000000000000000000000000000000000000000000000000600052602260045260246000fd5b6000600282049050600182168061012557607f821691505b602082108103610138576101376100de565b5b50919050565b60008190508160005260206000209050919050565b60006020601f8301049050919050565b600082821b905092915050565b6000600883026101a07fffffffffffffffffffffffffffffffffffffffffffffffffffffffffffffffff82610163565b6101aa8683610163565b95508019841693508086168417925050509392505050565b6000819050919050565b6000819050919050565b60006101f16101ec6101e7846101c2565b6101cc565b6101c2565b9050919050565b6000819050919050565b61020b836101d6565b61021f610217826101f8565b848454610170565b825550505050565b600090565b610234610227565b61023f818484610202565b505050565b5b818110156102635761025860008261022c565b600181019050610245565b5050565b601f8211156102a8576102798161013e565b61028284610153565b81016020851015610291578190505b6102a561029d85610153565b830182610244565b50505b505050565b600082821c905092915050565b60006102cb600019846008026102ad565b1980831691505092915050565b60006102e483836102ba565b9150826002028217905092915050565b6102fd826100a4565b67ffffffffffffffff811115610316576103156100af565b5b610320825461010d565b61032b828285610267565b600060209050601f83116001811461035e576000841561034c578287015190505b61035685826102d8565b8655506103be565b601f19841661036c8661013e565b60005b828110156103945784890151825560018201915060208501945060208101905061036f565b868310156103b157848901516103ad601f8916826102ba565b8355505b6001600288020188555050505b505050505050565b611332806103d56000396000f3fe6080604052600436106100a05760003560e01c80635dbd6059116100645780635dbd6059146101b157806370a08231146101da57806395d89b4114610217578063a9059cbb14610242578063dd62ed3e1461027f578063de0e9a3e146102bc576100b1565b806306fdde03146100b6578063095ea7b3146100e157806318160ddd1461011e57806323b872dd14610149578063313ce56714610186576100b1565b366100b1576100af33346102e5565b005b600080fd5b3480156100c257600080fd5b506100cb610367565b6040516100d89190610e41565b60405180910390f35b3480156100ed57600080fd5b5061010860048036038101906101039190610efc565b6103f9565b6040516101159190610f57565b60405180910390f35b34801561012a57600080fd5b5061013361041c565b6040516101409190610f81565b60405180910390f35b34801561015557600080fd5b50610170600480360381019061016b9190610f9c565b610426565b60405161017d9190610f57565b60405180910390f35b34801561019257600080fd5b5061019b610455565b6040516101a8919061100b565b60405180910390f35b3480156101bd57600080fd5b506101d860048036038101906101d39190611026565b61045e565b005b3480156101e657600080fd5b5061020160048036038101906101fc9190611066565b61056d565b60405161020e9190610f81565b60405180910390f35b34801561022357600080fd5b5061022c6105b5565b6040516102399190610e41565b60405180910390f35b34801561024e57600080fd5b5061026960048036038101906102649190610efc565b610647565b6040516102769190610f57565b60405180910390f35b34801561028b57600080fd5b506102a660048036038101906102a19190611093565b61066a565b6040516102b39190610f81565b60405180910390f35b3480156102c857600080fd5b506102e360048036038101906102de91906110d3565b6106f1565b005b600073ffffffffffffffffffffffffffffffffffffffff168273ffffffffffffffffffffffffffffffffffffffff16036103575760006040517fec442f0500000000000000000000000000000000000000000000000000000000815260040161034e919061110f565b60405180910390fd5b61036360008383610790565b5050565b60606003805461037690611159565b80601f01602080910402602001604051908101604052809291908181526020018280546103a290611159565b80156103ef5780601f106103c4576101008083540402835291602001916103ef565b820191906000526020600020905b8154815290600101906020018083116103d257829003601f168201915b5050505050905090565b6000806104046109b5565b90506104118185856109bd565b600191505092915050565b6000600254905090565b6000806104316109b5565b905061043e8582856109cf565b610449858585610a64565b60019150509392505050565b60006012905090565b600073ffffffffffffffffffffffffffffffffffffffff168173ffffffffffffffffffffffffffffffffffffffff16036104cd576040517f08c379a00000000000000000000000000000000000000000000000000000000081526004016104c4906111d6565b60405180910390fd5b816104d73361056d565b1015610518576040517f08c379a000000000000000000000000000000000000000000000000000000000815260040161050f90611242565b60405180910390fd5b6105223383610b58565b8073ffffffffffffffffffffffffffffffffffffffff166108fc839081150290604051600060405180830381858888f19350505050158015610568573d6000803e3d6000fd5b505050565b60008060008373ffffffffffffffffffffffffffffffffffffffff1673ffffffffffffffffffffffffffffffffffffffff168152602001908152602001600020549050919050565b6060600480546105c490611159565b80601f01602080910402602001604051908101604052809291908181526020018280546105f090611159565b801561063d5780601f106106125761010080835404028352916020019161063d565b820191906000526020600020905b81548152906001019060200180831161062057829003601f168201915b5050505050905090565b6000806106526109b5565b905061065f818585610a64565b600191505092915050565b6000600160008473ffffffffffffffffffffffffffffffffffffffff1673ffffffffffffffffffffffffffffffffffffffff16815260200190815260200160002060008373ffffffffffffffffffffffffffffffffffffffff1673ffffffffffffffffffffffffffffffffffffffff16815260200190815260200160002054905092915050565b806106fb3361056d565b101561073c576040517f08c379a000000000000000000000000000000000000000000000000000000000815260040161073390611242565b60405180910390fd5b6107463382610b58565b3373ffffffffffffffffffffffffffffffffffffffff166108fc829081150290604051600060405180830381858888f1935050505015801561078c573d6000803e3d6000fd5b5050565b600073ffffffffffffffffffffffffffffffffffffffff168373ffffffffffffffffffffffffffffffffffffffff16036107e25780600260008282546107d69190611291565b925050819055506108b5565b60008060008573ffffffffffffffffffffffffffffffffffffffff1673ffffffffffffffffffffffffffffffffffffffff1681526020019081526020016000205490508181101561086e578381836040517fe450d38c000000000000000000000000000000000000000000000000000000008152600401610865939291906112c5565b60405180910390fd5b8181036000808673ffffffffffffffffffffffffffffffffffffffff1673ffffffffffffffffffffffffffffffffffffffff16815260200190815260200160002081905550505b600073ffffffffffffffffffffffffffffffffffffffff168273ffffffffffffffffffffffffffffffffffffffff16036108fe578060026000828254039250508190555061094b565b806000808473ffffffffffffffffffffffffffffffffffffffff1673ffffffffffffffffffffffffffffffffffffffff168152602001908152602001600020600082825401925050819055505b8173ffffffffffffffffffffffffffffffffffffffff168373ffffffffffffffffffffffffffffffffffffffff167fddf252ad1be2c89b69c2b068fc378daa952ba7f163c4a11628f55a4df523b3ef836040516109a89190610f81565b60405180910390a3505050565b600033905090565b6109ca8383836001610bda565b505050565b60006109db848461066a565b90507fffffffffffffffffffffffffffffffffffffffffffffffffffffffffffffffff811015610a5e5781811015610a4e578281836040517ffb8f41b2000000000000000000000000000000000000000000000000000000008152600401610a45939291906112c5565b60405180910390fd5b610a5d84848484036000610bda565b5b50505050565b600073ffffffffffffffffffffffffffffffffffffffff168373ffffffffffffffffffffffffffffffffffffffff1603610ad65760006040517f96c6fd1e000000000000000000000000000000000000000000000000000000008152600401610acd919061110f565b60405180910390fd5b600073ffffffffffffffffffffffffffffffffffffffff168273ffffffffffffffffffffffffffffffffffffffff1603610b485760006040517fec442f05000000000000000000000000000000000000000000000000000000008152600401610b3f919061110f565b60405180910390fd5b610b53838383610790565b505050565b600073ffffffffffffffffffffffffffffffffffffffff168273ffffffffffffffffffffffffffffffffffffffff1603610bca5760006040517f96c6fd1e000000000000000000000000000000000000000000000000000000008152600401610bc1919061110f565b60405180910390fd5b610bd682600083610790565b5050565b600073ffffffffffffffffffffffffffffffffffffffff168473ffffffffffffffffffffffffffffffffffffffff1603610c4c5760006040517fe602df05000000000000000000000000000000000000000000000000000000008152600401610c43919061110f565b60405180910390fd5b600073ffffffffffffffffffffffffffffffffffffffff168373ffffffffffffffffffffffffffffffffffffffff1603610cbe5760006040517f94280d62000000000000000000000000000000000000000000000000000000008152600401610cb5919061110f565b60405180910390fd5b81600160008673ffffffffffffffffffffffffffffffffffffffff1673ffffffffffffffffffffffffffffffffffffffff16815260200190815260200160002060008573ffffffffffffffffffffffffffffffffffffffff1673ffffffffffffffffffffffffffffffffffffffff168152602001908152602001600020819055508015610dab578273ffffffffffffffffffffffffffffffffffffffff168473ffffffffffffffffffffffffffffffffffffffff167f8c5be1e5ebec7d5bd14f71427d1e84f3dd0314c0f7b2291e5b200ac8c7c3b92584604051610da29190610f81565b60405180910390a35b50505050565b600081519050919050565b600082825260208201905092915050565b60005b83811015610deb578082015181840152602081019050610dd0565b60008484015250505050565b6000601f19601f8301169050919050565b6000610e1382610db1565b610e1d8185610dbc565b9350610e2d818560208601610dcd565b610e3681610df7565b840191505092915050565b60006020820190508181036000830152610e5b8184610e08565b905092915050565b600080fd5b600073ffffffffffffffffffffffffffffffffffffffff82169050919050565b6000610e9382610e68565b9050919050565b610ea381610e88565b8114610eae57600080fd5b50565b600081359050610ec081610e9a565b92915050565b6000819050919050565b610ed981610ec6565b8114610ee457600080fd5b50565b600081359050610ef681610ed0565b92915050565b60008060408385031215610f1357610f12610e63565b5b6000610f2185828601610eb1565b9250506020610f3285828601610ee7565b9150509250929050565b60008115159050919050565b610f5181610f3c565b82525050565b6000602082019050610f6c6000830184610f48565b92915050565b610f7b81610ec6565b82525050565b6000602082019050610f966000830184610f72565b92915050565b600080600060608486031215610fb557610fb4610e63565b5b6000610fc386828701610eb1565b9350506020610fd486828701610eb1565b9250506040610fe586828701610ee7565b9150509250925092565b600060ff82169050919050565b61100581610fef565b82525050565b60006020820190506110206000830184610ffc565b92915050565b6000806040838503121561103d5761103c610e63565b5b600061104b85828601610ee7565b925050602061105c85828601610eb1565b9150509250929050565b60006020828403121561107c5761107b610e63565b5b600061108a84828501610eb1565b91505092915050565b600080604083850312156110aa576110a9610e63565b5b60006110b885828601610eb1565b92505060206110c985828601610eb1565b9150509250929050565b6000602082840312156110e9576110e8610e63565b5b60006110f784828501610ee7565b91505092915050565b61110981610e88565b82525050565b60006020820190506111246000830184611100565b92915050565b7f4e487b7100000000000000000000000000000000000000000000000000000000600052602260045260246000fd5b6000600282049050600182168061117157607f821691505b6020821081036111845761118361112a565b5b50919050565b7f496e76616c696420726563697069656e74000000000000000000000000000000600082015250565b60006111c0601183610dbc565b91506111cb8261118a565b602082019050919050565b600060208201905081810360008301526111ef816111b3565b9050919050565b7f4e6f7420656e6f75676820574554480000000000000000000000000000000000600082015250565b600061122c600f83610dbc565b9150611237826111f6565b602082019050919050565b6000602082019050818103600083015261125b8161121f565b9050919050565b7f4e487b7100000000000000000000000000000000000000000000000000000000600052601160045260246000fd5b600061129c82610ec6565b91506112a783610ec6565b92508282019050808211156112bf576112be611262565b5b92915050565b60006060820190506112da6000830186611100565b6112e76020830185610f72565b6112f46040830184610f72565b94935050505056fea26469706673582212205bb9cab2b6b1365a7f6d6c8d9e2ec02feb92eb7eca82359cda37a962adddabdf64736f6c634300081c0033",
  "linkReferences": {},
  "deployedLinkReferences": {}
}