{
  "_format": "hh-sol-artifact-1",
  "contractName": "LLMNFT",
  "sourceName": "contracts/drafts/LLMNFT.sol",
  "abi": [
    {
      "inputs": [
        {
          "internalType": "string",
          "name": "name_",
          "type": "string"
        },
        {
          "internalType": "string",
          "name": "smbl_",
          "type": "string"
        }
      ],
      "stateMutability": "nonpayable",
      "type": "constructor"
    },
    {
      "inputs": [
        {
          "internalType": "address",
          "name": "sender",
          "type": "address"
        },
        {
          "internalType": "uint256",
          "name": "tokenId",
          "type": "uint256"
        },
        {
          "internalType": "address",
          "name": "owner",
          "type": "address"
        }
      ],
      "name": "ERC721IncorrectOwner",
      "type": "error"
    },
    {
      "inputs": [
        {
          "internalType": "address",
          "name": "operator",
          "type": "address"
        },
        {
          "internalType": "uint256",
          "name": "tokenId",
          "type": "uint256"
        }
      ],
      "name": "ERC721InsufficientApproval",
      "type": "error"
    },
    {
      "inputs": [
        {
          "internalType": "address",
          "name": "approver",
          "type": "address"
        }
      ],
      "name": "ERC721InvalidApprover",
      "type": "error"
    },
    {
      "inputs": [
        {
          "internalType": "address",
          "name": "operator",
          "type": "address"
        }
      ],
      "name": "ERC721InvalidOperator",
      "type": "error"
    },
    {
      "inputs": [
        {
          "internalType": "address",
          "name": "owner",
          "type": "address"
        }
      ],
      "name": "ERC721InvalidOwner",
      "type": "error"
    },
    {
      "inputs": [
        {
          "internalType": "address",
          "name": "receiver",
          "type": "address"
        }
      ],
      "name": "ERC721InvalidReceiver",
      "type": "error"
    },
    {
      "inputs": [
        {
          "internalType": "address",
          "name": "sender",
          "type": "address"
        }
      ],
      "name": "ERC721InvalidSender",
      "type": "error"
    },
    {
      "inputs": [
        {
          "internalType": "uint256",
          "name": "tokenId",
          "type": "uint256"
        }
      ],
      "name": "ERC721NonexistentToken",
      "type": "error"
    },
    {
      "anonymous": false,
      "inputs": [
        {
          "indexed": true,
          "internalType": "address",
          "name": "owner",
          "type": "address"
        },
        {
          "indexed": true,
          "internalType": "address",
          "name": "approved",
          "type": "address"
        },
        {
          "indexed": true,
          "internalType": "uint256",
          "name": "tokenId",
          "type": "uint256"
        }
      ],
      "name": "Approval",
      "type": "event"
    },
    {
      "anonymous": false,
      "inputs": [
        {
          "indexed": true,
          "internalType": "address",
          "name": "owner",
          "type": "address"
        },
        {
          "indexed": true,
          "internalType": "address",
          "name": "operator",
          "type": "address"
        },
        {
          "indexed": false,
          "internalType": "bool",
          "name": "approved",
          "type": "bool"
        }
      ],
      "name": "ApprovalForAll",
      "type": "event"
    },
    {
      "anonymous": false,
      "inputs": [
        {
          "indexed": false,
          "internalType": "uint256",
          "name": "_fromTokenId",
          "type": "uint256"
        },
        {
          "indexed": false,
          "internalType": "uint256",
          "name": "_toTokenId",
          "type": "uint256"
        }
      ],
      "name": "BatchMetadataUpdate",
      "type": "event"
    },
    {
      "anonymous": false,
      "inputs": [
        {
          "indexed": false,
          "internalType": "uint256",
          "name": "_tokenId",
          "type": "uint256"
        }
      ],
      "name": "MetadataUpdate",
      "type": "event"
    },
    {
      "anonymous": false,
      "inputs": [
        {
          "indexed": true,
          "internalType": "address",
          "name": "from",
          "type": "address"
        },
        {
          "indexed": true,
          "internalType": "address",
          "name": "to",
          "type": "address"
        },
        {
          "indexed": true,
          "internalType": "uint256",
          "name": "tokenId",
          "type": "uint256"
        }
      ],
      "name": "Transfer",
      "type": "event"
    },
    {
      "inputs": [
        {
          "internalType": "string",
          "name": "hf_id_",
          "type": "string"
        },
        {
          "internalType": "uint256",
          "name": "price",
          "type": "uint256"
        },
        {
          "internalType": "address",
          "name": "wallet",
          "type": "address"
        },
        {
          "internalType": "enum LLMNFT.Llm_type",
          "name": "model_type_",
          "type": "uint8"
        },
        {
          "internalType": "uint256",
          "name": "max_context",
          "type": "uint256"
        }
      ],
      "name": "CreateLLM_NFT",
      "outputs": [
        {
          "internalType": "uint256",
          "name": "",
          "type": "uint256"
        }
      ],
      "stateMutability": "nonpayable",
      "type": "function"
    },
    {
      "inputs": [
        {
          "internalType": "uint256",
          "name": "token_id",
          "type": "uint256"
        }
      ],
      "name": "GetLLM",
      "outputs": [
        {
          "components": [
            {
              "internalType": "string",
              "name": "author",
              "type": "string"
            },
            {
              "internalType": "string",
              "name": "hfid",
              "type": "string"
            },
            {
              "internalType": "uint256",
              "name": "royalty_price",
              "type": "uint256"
            },
            {
              "internalType": "address",
              "name": "author_wallet",
              "type": "address"
            },
            {
              "internalType": "enum LLMNFT.Llm_type",
              "name": "model_type",
              "type": "uint8"
            },
            {
              "internalType": "uint256",
              "name": "max_context_window",
              "type": "uint256"
            }
          ],
          "internalType": "struct LLMNFT.LLM",
          "name": "",
          "type": "tuple"
        }
      ],
      "stateMutability": "view",
      "type": "function"
    },
    {
      "inputs": [
        {
          "internalType": "string",
          "name": "",
          "type": "string"
        }
      ],
      "name": "Hf_models",
      "outputs": [
        {
          "internalType": "uint256",
          "name": "",
          "type": "uint256"
        }
      ],
      "stateMutability": "view",
      "type": "function"
    },
    {
      "inputs": [
        {
          "internalType": "uint256",
          "name": "",
          "type": "uint256"
        }
      ],
      "name": "Models_metadata",
      "outputs": [
        {
          "internalType": "string",
          "name": "author",
          "type": "string"
        },
        {
          "internalType": "string",
          "name": "hfid",
          "type": "string"
        },
        {
          "internalType": "uint256",
          "name": "royalty_price",
          "type": "uint256"
        },
        {
          "internalType": "address",
          "name": "author_wallet",
          "type": "address"
        },
        {
          "internalType": "enum LLMNFT.Llm_type",
          "name": "model_type",
          "type": "uint8"
        },
        {
          "internalType": "uint256",
          "name": "max_context_window",
          "type": "uint256"
        }
      ],
      "stateMutability": "view",
      "type": "function"
    },
    {
      "inputs": [
        {
          "internalType": "address",
          "name": "to",
          "type": "address"
        },
        {
          "internalType": "uint256",
          "name": "tokenId",
          "type": "uint256"
        }
      ],
      "name": "approve",
      "outputs": [],
      "stateMutability": "nonpayable",
      "type": "function"
    },
    {
      "inputs": [
        {
          "internalType": "address",
          "name": "owner",
          "type": "address"
        }
      ],
      "name": "balanceOf",
      "outputs": [
        {
          "internalType": "uint256",
          "name": "",
          "type": "uint256"
        }
      ],
      "stateMutability": "view",
      "type": "function"
    },
    {
      "inputs": [
        {
          "internalType": "uint256",
          "name": "tokenId",
          "type": "uint256"
        }
      ],
      "name": "getApproved",
      "outputs": [
        {
          "internalType": "address",
          "name": "",
          "type": "address"
        }
      ],
      "stateMutability": "view",
      "type": "function"
    },
    {
      "inputs": [
        {
          "internalType": "address",
          "name": "owner",
          "type": "address"
        },
        {
          "internalType": "address",
          "name": "operator",
          "type": "address"
        }
      ],
      "name": "isApprovedForAll",
      "outputs": [
        {
          "internalType": "bool",
          "name": "",
          "type": "bool"
        }
      ],
      "stateMutability": "view",
      "type": "function"
    },
    {
      "inputs": [],
      "name": "name",
      "outputs": [
        {
          "internalType": "string",
          "name": "",
          "type": "string"
        }
      ],
      "stateMutability": "view",
      "type": "function"
    },
    {
      "inputs": [
        {
          "internalType": "uint256",
          "name": "tokenId",
          "type": "uint256"
        }
      ],
      "name": "ownerOf",
      "outputs": [
        {
          "internalType": "address",
          "name": "",
          "type": "address"
        }
      ],
      "stateMutability": "view",
      "type": "function"
    },
    {
      "inputs": [
        {
          "internalType": "address",
          "name": "from",
          "type": "address"
        },
        {
          "internalType": "address",
          "name": "to",
          "type": "address"
        },
        {
          "internalType": "uint256",
          "name": "tokenId",
          "type": "uint256"
        }
      ],
      "name": "safeTransferFrom",
      "outputs": [],
      "stateMutability": "nonpayable",
      "type": "function"
    },
    {
      "inputs": [
        {
          "internalType": "address",
          "name": "from",
          "type": "address"
        },
        {
          "internalType": "address",
          "name": "to",
          "type": "address"
        },
        {
          "internalType": "uint256",
          "name": "tokenId",
          "type": "uint256"
        },
        {
          "internalType": "bytes",
          "name": "data",
          "type": "bytes"
        }
      ],
      "name": "safeTransferFrom",
      "outputs": [],
      "stateMutability": "nonpayable",
      "type": "function"
    },
    {
      "inputs": [
        {
          "internalType": "address",
          "name": "operator",
          "type": "address"
        },
        {
          "internalType": "bool",
          "name": "approved",
          "type": "bool"
        }
      ],
      "name": "setApprovalForAll",
      "outputs": [],
      "stateMutability": "nonpayable",
      "type": "function"
    },
    {
      "inputs": [
        {
          "internalType": "bytes4",
          "name": "interfaceId",
          "type": "bytes4"
        }
      ],
      "name": "supportsInterface",
      "outputs": [
        {
          "internalType": "bool",
          "name": "",
          "type": "bool"
        }
      ],
      "stateMutability": "view",
      "type": "function"
    },
    {
      "inputs": [],
      "name": "symbol",
      "outputs": [
        {
          "internalType": "string",
          "name": "",
          "type": "string"
        }
      ],
      "stateMutability": "view",
      "type": "function"
    },
    {
      "inputs": [
        {
          "internalType": "uint256",
          "name": "tokenId",
          "type": "uint256"
        }
      ],
      "name": "tokenURI",
      "outputs": [
        {
          "internalType": "string",
          "name": "",
          "type": "string"
        }
      ],
      "stateMutability": "view",
      "type": "function"
    },
    {
      "inputs": [
        {
          "internalType": "address",
          "name": "from",
          "type": "address"
        },
        {
          "internalType": "address",
          "name": "to",
          "type": "address"
        },
        {
          "internalType": "uint256",
          "name": "tokenId",
          "type": "uint256"
        }
      ],
      "name": "transferFrom",
      "outputs": [],
      "stateMutability": "nonpayable",
      "type": "function"
    }
  ],
  "bytecode": "0x608060405234801561001057600080fd5b50604051613271380380613271833981810160405281019061003291906101d2565b81818160009081610043919061046b565b508060019081610053919061046b565b505050505061053d565b6000604051905090565b600080fd5b600080fd5b600080fd5b600080fd5b6000601f19601f8301169050919050565b7f4e487b7100000000000000000000000000000000000000000000000000000000600052604160045260246000fd5b6100c48261007b565b810181811067ffffffffffffffff821117156100e3576100e261008c565b5b80604052505050565b60006100f661005d565b905061010282826100bb565b919050565b600067ffffffffffffffff8211156101225761012161008c565b5b61012b8261007b565b9050602081019050919050565b60005b8381101561015657808201518184015260208101905061013b565b60008484015250505050565b600061017561017084610107565b6100ec565b90508281526020810184848401111561019157610190610076565b5b61019c848285610138565b509392505050565b600082601f8301126101b9576101b8610071565b5b81516101c9848260208601610162565b91505092915050565b600080604083850312156101e9576101e8610067565b5b600083015167ffffffffffffffff8111156102075761020661006c565b5b610213858286016101a4565b925050602083015167ffffffffffffffff8111156102345761023361006c565b5b610240858286016101a4565b9150509250929050565b600081519050919050565b7f4e487b7100000000000000000000000000000000000000000000000000000000600052602260045260246000fd5b6000600282049050600182168061029c57607f821691505b6020821081036102af576102ae610255565b5b50919050565b60008190508160005260206000209050919050565b60006020601f8301049050919050565b600082821b905092915050565b6000600883026103177fffffffffffffffffffffffffffffffffffffffffffffffffffffffffffffffff826102da565b61032186836102da565b95508019841693508086168417925050509392505050565b6000819050919050565b6000819050919050565b600061036861036361035e84610339565b610343565b610339565b9050919050565b6000819050919050565b6103828361034d565b61039661038e8261036f565b8484546102e7565b825550505050565b600090565b6103ab61039e565b6103b6818484610379565b505050565b5b818110156103da576103cf6000826103a3565b6001810190506103bc565b5050565b601f82111561041f576103f0816102b5565b6103f9846102ca565b81016020851015610408578190505b61041c610414856102ca565b8301826103bb565b50505b505050565b600082821c905092915050565b600061044260001984600802610424565b1980831691505092915050565b600061045b8383610431565b9150826002028217905092915050565b6104748261024a565b67ffffffffffffffff81111561048d5761048c61008c565b5b6104978254610284565b6104a28282856103de565b600060209050601f8311600181146104d557600084156104c3578287015190505b6104cd858261044f565b865550610535565b601f1984166104e3866102b5565b60005b8281101561050b578489015182556001820191506020850194506020810190506104e6565b868310156105285784890151610524601f891682610431565b8355505b6001600288020188555050505b505050505050565b612d258061054c6000396000f3fe608060405234801561001057600080fd5b506004361061010b5760003560e01c80636352211e116100a257806395d89b411161007157806395d89b4114610307578063a22cb46514610325578063b88d4fde14610341578063c87b56dd1461035d578063e985e9c51461038d5761010b565b80636352211e1461024257806365783bbb1461027257806370a08231146102a25780638a87e958146102d25761010b565b806323b872dd116100de57806323b872dd146101aa57806331d99e7a146101c657806340a24c67146101f657806342842e0e146102265761010b565b806301ffc9a71461011057806306fdde0314610140578063081812fc1461015e578063095ea7b31461018e575b600080fd5b61012a60048036038101906101259190611ec2565b6103bd565b6040516101379190611f0a565b60405180910390f35b61014861041e565b6040516101559190611fb5565b60405180910390f35b6101786004803603810190610173919061200d565b6104b0565b604051610185919061207b565b60405180910390f35b6101a860048036038101906101a391906120c2565b6104cc565b005b6101c460048036038101906101bf9190612102565b6104e2565b005b6101e060048036038101906101db91906122af565b6105e4565b6040516101ed9190612355565b60405180910390f35b610210600480360381019061020b919061200d565b6107b1565b60405161021d91906124df565b60405180910390f35b610240600480360381019061023b9190612102565b6109a7565b005b61025c6004803603810190610257919061200d565b6109c7565b604051610269919061207b565b60405180910390f35b61028c60048036038101906102879190612501565b6109d9565b6040516102999190612355565b60405180910390f35b6102bc60048036038101906102b7919061254a565b610a07565b6040516102c99190612355565b60405180910390f35b6102ec60048036038101906102e7919061200d565b610ac1565b6040516102fe96959493929190612586565b60405180910390f35b61030f610c3a565b60405161031c9190611fb5565b60405180910390f35b61033f600480360381019061033a9190612621565b610ccc565b005b61035b60048036038101906103569190612702565b610ce2565b005b6103776004803603810190610372919061200d565b610d07565b6040516103849190611fb5565b60405180910390f35b6103a760048036038101906103a29190612785565b610e1a565b6040516103b49190611f0a565b60405180910390f35b6000634906490660e01b7bffffffffffffffffffffffffffffffffffffffffffffffffffffffff1916827bffffffffffffffffffffffffffffffffffffffffffffffffffffffff19161480610417575061041682610eae565b5b9050919050565b60606000805461042d906127f4565b80601f0160208091040260200160405190810160405280929190818152602001828054610459906127f4565b80156104a65780601f1061047b576101008083540402835291602001916104a6565b820191906000526020600020905b81548152906001019060200180831161048957829003601f168201915b5050505050905090565b60006104bb82610f90565b506104c582611018565b9050919050565b6104de82826104d9611055565b61105d565b5050565b600073ffffffffffffffffffffffffffffffffffffffff168273ffffffffffffffffffffffffffffffffffffffff16036105545760006040517f64a0ae9200000000000000000000000000000000000000000000000000000000815260040161054b919061207b565b60405180910390fd5b60006105688383610563611055565b61106f565b90508373ffffffffffffffffffffffffffffffffffffffff168173ffffffffffffffffffffffffffffffffffffffff16146105de578382826040517f64283d7b0000000000000000000000000000000000000000000000000000000081526004016105d593929190612825565b60405180910390fd5b50505050565b60006105ee611df8565b8681602001819052508581604001818152505084816060019073ffffffffffffffffffffffffffffffffffffffff16908173ffffffffffffffffffffffffffffffffffffffff16815250508381608001906001811115610651576106506123d8565b5b90816001811115610665576106646123d8565b5b81525050828160a0018181525050600160076000828254610686919061288b565b925050819055506000600754905061069e3382611289565b816008600083815260200190815260200160002060008201518160000190816106c79190612a6b565b5060208201518160010190816106dd9190612a6b565b506040820151816002015560608201518160030160006101000a81548173ffffffffffffffffffffffffffffffffffffffff021916908373ffffffffffffffffffffffffffffffffffffffff16021790555060808201518160030160146101000a81548160ff0219169083600181111561075a576107596123d8565b5b021790555060a082015181600401559050508060098960405161077d9190612b79565b9081526020016040518091039020819055506000826020015190506107a282826112a7565b81935050505095945050505050565b6107b9611df8565b600860008381526020019081526020016000206040518060c00160405290816000820180546107e7906127f4565b80601f0160208091040260200160405190810160405280929190818152602001828054610813906127f4565b80156108605780601f1061083557610100808354040283529160200191610860565b820191906000526020600020905b81548152906001019060200180831161084357829003601f168201915b50505050508152602001600182018054610879906127f4565b80601f01602080910402602001604051908101604052809291908181526020018280546108a5906127f4565b80156108f25780601f106108c7576101008083540402835291602001916108f2565b820191906000526020600020905b8154815290600101906020018083116108d557829003601f168201915b50505050508152602001600282015481526020016003820160009054906101000a900473ffffffffffffffffffffffffffffffffffffffff1673ffffffffffffffffffffffffffffffffffffffff1673ffffffffffffffffffffffffffffffffffffffff1681526020016003820160149054906101000a900460ff1660018111156109805761097f6123d8565b5b6001811115610992576109916123d8565b5b81526020016004820154815250509050919050565b6109c283838360405180602001604052806000815250610ce2565b505050565b60006109d282610f90565b9050919050565b6009818051602081018201805184825260208301602085012081835280955050505050506000915090505481565b60008073ffffffffffffffffffffffffffffffffffffffff168273ffffffffffffffffffffffffffffffffffffffff1603610a7a5760006040517f89c62b64000000000000000000000000000000000000000000000000000000008152600401610a71919061207b565b60405180910390fd5b600360008373ffffffffffffffffffffffffffffffffffffffff1673ffffffffffffffffffffffffffffffffffffffff168152602001908152602001600020549050919050565b6008602052806000526040600020600091509050806000018054610ae4906127f4565b80601f0160208091040260200160405190810160405280929190818152602001828054610b10906127f4565b8015610b5d5780601f10610b3257610100808354040283529160200191610b5d565b820191906000526020600020905b815481529060010190602001808311610b4057829003601f168201915b505050505090806001018054610b72906127f4565b80601f0160208091040260200160405190810160405280929190818152602001828054610b9e906127f4565b8015610beb5780601f10610bc057610100808354040283529160200191610beb565b820191906000526020600020905b815481529060010190602001808311610bce57829003601f168201915b5050505050908060020154908060030160009054906101000a900473ffffffffffffffffffffffffffffffffffffffff16908060030160149054906101000a900460ff16908060040154905086565b606060018054610c49906127f4565b80601f0160208091040260200160405190810160405280929190818152602001828054610c75906127f4565b8015610cc25780601f10610c9757610100808354040283529160200191610cc2565b820191906000526020600020905b815481529060010190602001808311610ca557829003601f168201915b5050505050905090565b610cde610cd7611055565b8383611303565b5050565b610ced8484846104e2565b610d01610cf8611055565b85858585611472565b50505050565b6060610d1282610f90565b506000600660008481526020019081526020016000208054610d33906127f4565b80601f0160208091040260200160405190810160405280929190818152602001828054610d5f906127f4565b8015610dac5780601f10610d8157610100808354040283529160200191610dac565b820191906000526020600020905b815481529060010190602001808311610d8f57829003601f168201915b505050505090506000610dbd611623565b90506000815103610dd2578192505050610e15565b600082511115610e07578082604051602001610def929190612b90565b60405160208183030381529060405292505050610e15565b610e1084611660565b925050505b919050565b6000600560008473ffffffffffffffffffffffffffffffffffffffff1673ffffffffffffffffffffffffffffffffffffffff16815260200190815260200160002060008373ffffffffffffffffffffffffffffffffffffffff1673ffffffffffffffffffffffffffffffffffffffff16815260200190815260200160002060009054906101000a900460ff16905092915050565b60007f80ac58cd000000000000000000000000000000000000000000000000000000007bffffffffffffffffffffffffffffffffffffffffffffffffffffffff1916827bffffffffffffffffffffffffffffffffffffffffffffffffffffffff19161480610f7957507f5b5e139f000000000000000000000000000000000000000000000000000000007bffffffffffffffffffffffffffffffffffffffffffffffffffffffff1916827bffffffffffffffffffffffffffffffffffffffffffffffffffffffff1916145b80610f895750610f88826116c9565b5b9050919050565b600080610f9c83611733565b9050600073ffffffffffffffffffffffffffffffffffffffff168173ffffffffffffffffffffffffffffffffffffffff160361100f57826040517f7e2732890000000000000000000000000000000000000000000000000000000081526004016110069190612355565b60405180910390fd5b80915050919050565b60006004600083815260200190815260200160002060009054906101000a900473ffffffffffffffffffffffffffffffffffffffff169050919050565b600033905090565b61106a8383836001611770565b505050565b60008061107b84611733565b9050600073ffffffffffffffffffffffffffffffffffffffff168373ffffffffffffffffffffffffffffffffffffffff16146110bd576110bc818486611935565b5b600073ffffffffffffffffffffffffffffffffffffffff168173ffffffffffffffffffffffffffffffffffffffff161461114e576110ff600085600080611770565b6001600360008373ffffffffffffffffffffffffffffffffffffffff1673ffffffffffffffffffffffffffffffffffffffff168152602001908152602001600020600082825403925050819055505b600073ffffffffffffffffffffffffffffffffffffffff168573ffffffffffffffffffffffffffffffffffffffff16146111d1576001600360008773ffffffffffffffffffffffffffffffffffffffff1673ffffffffffffffffffffffffffffffffffffffff168152602001908152602001600020600082825401925050819055505b846002600086815260200190815260200160002060006101000a81548173ffffffffffffffffffffffffffffffffffffffff021916908373ffffffffffffffffffffffffffffffffffffffff160217905550838573ffffffffffffffffffffffffffffffffffffffff168273ffffffffffffffffffffffffffffffffffffffff167fddf252ad1be2c89b69c2b068fc378daa952ba7f163c4a11628f55a4df523b3ef60405160405180910390a4809150509392505050565b6112a38282604051806020016040528060008152506119f9565b5050565b806006600084815260200190815260200160002090816112c79190612a6b565b507ff8e1a15aba9398e019f0b49df1a4fde98ee17ae345cb5f6b5e2c27f5033e8ce7826040516112f79190612355565b60405180910390a15050565b600073ffffffffffffffffffffffffffffffffffffffff168273ffffffffffffffffffffffffffffffffffffffff160361137457816040517f5b08ba1800000000000000000000000000000000000000000000000000000000815260040161136b919061207b565b60405180910390fd5b80600560008573ffffffffffffffffffffffffffffffffffffffff1673ffffffffffffffffffffffffffffffffffffffff16815260200190815260200160002060008473ffffffffffffffffffffffffffffffffffffffff1673ffffffffffffffffffffffffffffffffffffffff16815260200190815260200160002060006101000a81548160ff0219169083151502179055508173ffffffffffffffffffffffffffffffffffffffff168373ffffffffffffffffffffffffffffffffffffffff167f17307eab39ab6107e8899845ad3d59bd9653f200f220920489ca2b5937696c31836040516114659190611f0a565b60405180910390a3505050565b60008373ffffffffffffffffffffffffffffffffffffffff163b111561161c578273ffffffffffffffffffffffffffffffffffffffff1663150b7a02868685856040518563ffffffff1660e01b81526004016114d19493929190612c09565b6020604051808303816000875af192505050801561150d57506040513d601f19601f8201168201806040525081019061150a9190612c6a565b60015b611591573d806000811461153d576040519150601f19603f3d011682016040523d82523d6000602084013e611542565b606091505b50600081510361158957836040517f64a0ae92000000000000000000000000000000000000000000000000000000008152600401611580919061207b565b60405180910390fd5b805181602001fd5b63150b7a0260e01b7bffffffffffffffffffffffffffffffffffffffffffffffffffffffff1916817bffffffffffffffffffffffffffffffffffffffffffffffffffffffff19161461161a57836040517f64a0ae92000000000000000000000000000000000000000000000000000000008152600401611611919061207b565b60405180910390fd5b505b5050505050565b60606040518060400160405280601781526020017f68747470733a2f2f68756767696e67666163652e636f2f000000000000000000815250905090565b606061166b82610f90565b506000611676611623565b9050600081511161169657604051806020016040528060008152506116c1565b806116a084611a1d565b6040516020016116b1929190612b90565b6040516020818303038152906040525b915050919050565b60007f01ffc9a7000000000000000000000000000000000000000000000000000000007bffffffffffffffffffffffffffffffffffffffffffffffffffffffff1916827bffffffffffffffffffffffffffffffffffffffffffffffffffffffff1916149050919050565b60006002600083815260200190815260200160002060009054906101000a900473ffffffffffffffffffffffffffffffffffffffff169050919050565b80806117a95750600073ffffffffffffffffffffffffffffffffffffffff168273ffffffffffffffffffffffffffffffffffffffff1614155b156118dd5760006117b984610f90565b9050600073ffffffffffffffffffffffffffffffffffffffff168373ffffffffffffffffffffffffffffffffffffffff161415801561182457508273ffffffffffffffffffffffffffffffffffffffff168173ffffffffffffffffffffffffffffffffffffffff1614155b801561183757506118358184610e1a565b155b1561187957826040517fa9fbf51f000000000000000000000000000000000000000000000000000000008152600401611870919061207b565b60405180910390fd5b81156118db57838573ffffffffffffffffffffffffffffffffffffffff168273ffffffffffffffffffffffffffffffffffffffff167f8c5be1e5ebec7d5bd14f71427d1e84f3dd0314c0f7b2291e5b200ac8c7c3b92560405160405180910390a45b505b836004600085815260200190815260200160002060006101000a81548173ffffffffffffffffffffffffffffffffffffffff021916908373ffffffffffffffffffffffffffffffffffffffff16021790555050505050565b611940838383611aeb565b6119f457600073ffffffffffffffffffffffffffffffffffffffff168373ffffffffffffffffffffffffffffffffffffffff16036119b557806040517f7e2732890000000000000000000000000000000000000000000000000000000081526004016119ac9190612355565b60405180910390fd5b81816040517f177e802f0000000000000000000000000000000000000000000000000000000081526004016119eb929190612c97565b60405180910390fd5b505050565b611a038383611bac565b611a18611a0e611055565b6000858585611472565b505050565b606060006001611a2c84611ca5565b01905060008167ffffffffffffffff811115611a4b57611a4a61215f565b5b6040519080825280601f01601f191660200182016040528015611a7d5781602001600182028036833780820191505090505b509050600082602001820190505b600115611ae0578080600190039150507f3031323334353637383961626364656600000000000000000000000000000000600a86061a8153600a8581611ad457611ad3612cc0565b5b04945060008503611a8b575b819350505050919050565b60008073ffffffffffffffffffffffffffffffffffffffff168373ffffffffffffffffffffffffffffffffffffffff1614158015611ba357508273ffffffffffffffffffffffffffffffffffffffff168473ffffffffffffffffffffffffffffffffffffffff161480611b645750611b638484610e1a565b5b80611ba257508273ffffffffffffffffffffffffffffffffffffffff16611b8a83611018565b73ffffffffffffffffffffffffffffffffffffffff16145b5b90509392505050565b600073ffffffffffffffffffffffffffffffffffffffff168273ffffffffffffffffffffffffffffffffffffffff1603611c1e5760006040517f64a0ae92000000000000000000000000000000000000000000000000000000008152600401611c15919061207b565b60405180910390fd5b6000611c2c8383600061106f565b9050600073ffffffffffffffffffffffffffffffffffffffff168173ffffffffffffffffffffffffffffffffffffffff1614611ca05760006040517f73c6ac6e000000000000000000000000000000000000000000000000000000008152600401611c97919061207b565b60405180910390fd5b505050565b600080600090507a184f03e93ff9f4daa797ed6e38ed64bf6a1f0100000000000000008310611d03577a184f03e93ff9f4daa797ed6e38ed64bf6a1f0100000000000000008381611cf957611cf8612cc0565b5b0492506040810190505b6d04ee2d6d415b85acef81000000008310611d40576d04ee2d6d415b85acef81000000008381611d3657611d35612cc0565b5b0492506020810190505b662386f26fc100008310611d6f57662386f26fc100008381611d6557611d64612cc0565b5b0492506010810190505b6305f5e1008310611d98576305f5e1008381611d8e57611d8d612cc0565b5b0492506008810190505b6127108310611dbd576127108381611db357611db2612cc0565b5b0492506004810190505b60648310611de05760648381611dd657611dd5612cc0565b5b0492506002810190505b600a8310611def576001810190505b80915050919050565b6040518060c00160405280606081526020016060815260200160008152602001600073ffffffffffffffffffffffffffffffffffffffff16815260200160006001811115611e4957611e486123d8565b5b8152602001600081525090565b6000604051905090565b600080fd5b600080fd5b60007fffffffff0000000000000000000000000000000000000000000000000000000082169050919050565b611e9f81611e6a565b8114611eaa57600080fd5b50565b600081359050611ebc81611e96565b92915050565b600060208284031215611ed857611ed7611e60565b5b6000611ee684828501611ead565b91505092915050565b60008115159050919050565b611f0481611eef565b82525050565b6000602082019050611f1f6000830184611efb565b92915050565b600081519050919050565b600082825260208201905092915050565b60005b83811015611f5f578082015181840152602081019050611f44565b60008484015250505050565b6000601f19601f8301169050919050565b6000611f8782611f25565b611f918185611f30565b9350611fa1818560208601611f41565b611faa81611f6b565b840191505092915050565b60006020820190508181036000830152611fcf8184611f7c565b905092915050565b6000819050919050565b611fea81611fd7565b8114611ff557600080fd5b50565b60008135905061200781611fe1565b92915050565b60006020828403121561202357612022611e60565b5b600061203184828501611ff8565b91505092915050565b600073ffffffffffffffffffffffffffffffffffffffff82169050919050565b60006120658261203a565b9050919050565b6120758161205a565b82525050565b6000602082019050612090600083018461206c565b92915050565b61209f8161205a565b81146120aa57600080fd5b50565b6000813590506120bc81612096565b92915050565b600080604083850312156120d9576120d8611e60565b5b60006120e7858286016120ad565b92505060206120f885828601611ff8565b9150509250929050565b60008060006060848603121561211b5761211a611e60565b5b6000612129868287016120ad565b935050602061213a868287016120ad565b925050604061214b86828701611ff8565b9150509250925092565b600080fd5b600080fd5b7f4e487b7100000000000000000000000000000000000000000000000000000000600052604160045260246000fd5b61219782611f6b565b810181811067ffffffffffffffff821117156121b6576121b561215f565b5b80604052505050565b60006121c9611e56565b90506121d5828261218e565b919050565b600067ffffffffffffffff8211156121f5576121f461215f565b5b6121fe82611f6b565b9050602081019050919050565b82818337600083830152505050565b600061222d612228846121da565b6121bf565b9050828152602081018484840111156122495761224861215a565b5b61225484828561220b565b509392505050565b600082601f83011261227157612270612155565b5b813561228184826020860161221a565b91505092915050565b6002811061229757600080fd5b50565b6000813590506122a98161228a565b92915050565b600080600080600060a086880312156122cb576122ca611e60565b5b600086013567ffffffffffffffff8111156122e9576122e8611e65565b5b6122f58882890161225c565b955050602061230688828901611ff8565b9450506040612317888289016120ad565b93505060606123288882890161229a565b925050608061233988828901611ff8565b9150509295509295909350565b61234f81611fd7565b82525050565b600060208201905061236a6000830184612346565b92915050565b600082825260208201905092915050565b600061238c82611f25565b6123968185612370565b93506123a6818560208601611f41565b6123af81611f6b565b840191505092915050565b6123c381611fd7565b82525050565b6123d28161205a565b82525050565b7f4e487b7100000000000000000000000000000000000000000000000000000000600052602160045260246000fd5b60028110612418576124176123d8565b5b50565b600081905061242982612407565b919050565b60006124398261241b565b9050919050565b6124498161242e565b82525050565b600060c083016000830151848203600086015261246c8282612381565b915050602083015184820360208601526124868282612381565b915050604083015161249b60408601826123ba565b5060608301516124ae60608601826123c9565b5060808301516124c16080860182612440565b5060a08301516124d460a08601826123ba565b508091505092915050565b600060208201905081810360008301526124f9818461244f565b905092915050565b60006020828403121561251757612516611e60565b5b600082013567ffffffffffffffff81111561253557612534611e65565b5b6125418482850161225c565b91505092915050565b6000602082840312156125605761255f611e60565b5b600061256e848285016120ad565b91505092915050565b6125808161242e565b82525050565b600060c08201905081810360008301526125a08189611f7c565b905081810360208301526125b48188611f7c565b90506125c36040830187612346565b6125d0606083018661206c565b6125dd6080830185612577565b6125ea60a0830184612346565b979650505050505050565b6125fe81611eef565b811461260957600080fd5b50565b60008135905061261b816125f5565b92915050565b6000806040838503121561263857612637611e60565b5b6000612646858286016120ad565b92505060206126578582860161260c565b9150509250929050565b600067ffffffffffffffff82111561267c5761267b61215f565b5b61268582611f6b565b9050602081019050919050565b60006126a56126a084612661565b6121bf565b9050828152602081018484840111156126c1576126c061215a565b5b6126cc84828561220b565b509392505050565b600082601f8301126126e9576126e8612155565b5b81356126f9848260208601612692565b91505092915050565b6000806000806080858703121561271c5761271b611e60565b5b600061272a878288016120ad565b945050602061273b878288016120ad565b935050604061274c87828801611ff8565b925050606085013567ffffffffffffffff81111561276d5761276c611e65565b5b612779878288016126d4565b91505092959194509250565b6000806040838503121561279c5761279b611e60565b5b60006127aa858286016120ad565b92505060206127bb858286016120ad565b9150509250929050565b7f4e487b7100000000000000000000000000000000000000000000000000000000600052602260045260246000fd5b6000600282049050600182168061280c57607f821691505b60208210810361281f5761281e6127c5565b5b50919050565b600060608201905061283a600083018661206c565b6128476020830185612346565b612854604083018461206c565b949350505050565b7f4e487b7100000000000000000000000000000000000000000000000000000000600052601160045260246000fd5b600061289682611fd7565b91506128a183611fd7565b92508282019050808211156128b9576128b861285c565b5b92915050565b60008190508160005260206000209050919050565b60006020601f8301049050919050565b600082821b905092915050565b6000600883026129217fffffffffffffffffffffffffffffffffffffffffffffffffffffffffffffffff826128e4565b61292b86836128e4565b95508019841693508086168417925050509392505050565b6000819050919050565b600061296861296361295e84611fd7565b612943565b611fd7565b9050919050565b6000819050919050565b6129828361294d565b61299661298e8261296f565b8484546128f1565b825550505050565b600090565b6129ab61299e565b6129b6818484612979565b505050565b5b818110156129da576129cf6000826129a3565b6001810190506129bc565b5050565b601f821115612a1f576129f0816128bf565b6129f9846128d4565b81016020851015612a08578190505b612a1c612a14856128d4565b8301826129bb565b50505b505050565b600082821c905092915050565b6000612a4260001984600802612a24565b1980831691505092915050565b6000612a5b8383612a31565b9150826002028217905092915050565b612a7482611f25565b67ffffffffffffffff811115612a8d57612a8c61215f565b5b612a9782546127f4565b612aa28282856129de565b600060209050601f831160018114612ad55760008415612ac3578287015190505b612acd8582612a4f565b865550612b35565b601f198416612ae3866128bf565b60005b82811015612b0b57848901518255600182019150602085019450602081019050612ae6565b86831015612b285784890151612b24601f891682612a31565b8355505b6001600288020188555050505b505050505050565b600081905092915050565b6000612b5382611f25565b612b5d8185612b3d565b9350612b6d818560208601611f41565b80840191505092915050565b6000612b858284612b48565b915081905092915050565b6000612b9c8285612b48565b9150612ba88284612b48565b91508190509392505050565b600081519050919050565b600082825260208201905092915050565b6000612bdb82612bb4565b612be58185612bbf565b9350612bf5818560208601611f41565b612bfe81611f6b565b840191505092915050565b6000608082019050612c1e600083018761206c565b612c2b602083018661206c565b612c386040830185612346565b8181036060830152612c4a8184612bd0565b905095945050505050565b600081519050612c6481611e96565b92915050565b600060208284031215612c8057612c7f611e60565b5b6000612c8e84828501612c55565b91505092915050565b6000604082019050612cac600083018561206c565b612cb96020830184612346565b9392505050565b7f4e487b7100000000000000000000000000000000000000000000000000000000600052601260045260246000fdfea264697066735822122016058673f71463d665e872929acd2550d67ad73d28d1a2bafe0eff1ed078fafa64736f6c634300081c0033",
  "linkReferences": {},
  "deployedLinkReferences": {}
}