{
  "_format": "hh-sol-artifact-1",
  "contractName": "Pool",
  "sourceName": "contracts/pool.sol",
  "abi": [
    {
      "inputs": [
        {
          "internalType": "address",
          "name": "llm_nft",
          "type": "address"
        },
        {
          "internalType": "address",
          "name": "credit_",
          "type": "address"
        },
        {
          "internalType": "address",
          "name": "hfswm_",
          "type": "address"
        },
        {
          "internalType": "address",
          "name": "walletHub_",
          "type": "address"
        },
        {
          "internalType": "enum Pool.Pool_type",
          "name": "_pt",
          "type": "uint8"
        }
      ],
      "stateMutability": "nonpayable",
      "type": "constructor"
    },
    {
      "inputs": [
        {
          "internalType": "address",
          "name": "owner",
          "type": "address"
        }
      ],
      "name": "OwnableInvalidOwner",
      "type": "error"
    },
    {
      "inputs": [
        {
          "internalType": "address",
          "name": "account",
          "type": "address"
        }
      ],
      "name": "OwnableUnauthorizedAccount",
      "type": "error"
    },
    {
      "anonymous": false,
      "inputs": [
        {
          "indexed": false,
          "internalType": "uint256",
          "name": "token_id",
          "type": "uint256"
        }
      ],
      "name": "ModelAdded",
      "type": "event"
    },
    {
      "anonymous": false,
      "inputs": [
        {
          "indexed": false,
          "internalType": "uint256",
          "name": "token_id",
          "type": "uint256"
        }
      ],
      "name": "ModelDeleted",
      "type": "event"
    },
    {
      "anonymous": false,
      "inputs": [
        {
          "indexed": false,
          "internalType": "address",
          "name": "worker",
          "type": "address"
        },
        {
          "indexed": false,
          "internalType": "bool",
          "name": "isApproved",
          "type": "bool"
        }
      ],
      "name": "NewWorker",
      "type": "event"
    },
    {
      "anonymous": false,
      "inputs": [
        {
          "indexed": true,
          "internalType": "address",
          "name": "previousOwner",
          "type": "address"
        },
        {
          "indexed": true,
          "internalType": "address",
          "name": "newOwner",
          "type": "address"
        }
      ],
      "name": "OwnershipTransferred",
      "type": "event"
    },
    {
      "anonymous": false,
      "inputs": [
        {
          "indexed": false,
          "internalType": "address",
          "name": "provider",
          "type": "address"
        },
        {
          "indexed": false,
          "internalType": "uint256",
          "name": "llm_id",
          "type": "uint256"
        },
        {
          "indexed": false,
          "internalType": "uint256",
          "name": "amount",
          "type": "uint256"
        }
      ],
      "name": "Payout",
      "type": "event"
    },
    {
      "anonymous": false,
      "inputs": [
        {
          "indexed": false,
          "internalType": "uint256",
          "name": "id",
          "type": "uint256"
        },
        {
          "indexed": false,
          "internalType": "uint256",
          "name": "llm_id",
          "type": "uint256"
        },
        {
          "indexed": false,
          "internalType": "address",
          "name": "worker",
          "type": "address"
        },
        {
          "indexed": false,
          "internalType": "uint256",
          "name": "llmInputTokens",
          "type": "uint256"
        },
        {
          "indexed": false,
          "internalType": "uint256",
          "name": "llmOutputTokens",
          "type": "uint256"
        },
        {
          "indexed": false,
          "internalType": "uint256",
          "name": "cost",
          "type": "uint256"
        },
        {
          "indexed": false,
          "internalType": "uint256",
          "name": "processingTime",
          "type": "uint256"
        },
        {
          "indexed": false,
          "internalType": "uint256",
          "name": "timestamp",
          "type": "uint256"
        }
      ],
      "name": "Response",
      "type": "event"
    },
    {
      "inputs": [
        {
          "internalType": "uint256",
          "name": "token_id",
          "type": "uint256"
        },
        {
          "internalType": "uint256",
          "name": "hw_price_in",
          "type": "uint256"
        },
        {
          "internalType": "uint256",
          "name": "hw_price_out",
          "type": "uint256"
        }
      ],
      "name": "AddModel",
      "outputs": [],
      "stateMutability": "nonpayable",
      "type": "function"
    },
    {
      "inputs": [
        {
          "internalType": "address",
          "name": "addr",
          "type": "address"
        }
      ],
      "name": "AddToHFWhitelist",
      "outputs": [],
      "stateMutability": "nonpayable",
      "type": "function"
    },
    {
      "inputs": [
        {
          "internalType": "string",
          "name": "lai_public_key",
          "type": "string"
        }
      ],
      "name": "ApproveWorker",
      "outputs": [],
      "stateMutability": "nonpayable",
      "type": "function"
    },
    {
      "inputs": [
        {
          "internalType": "string",
          "name": "lai_pub_key",
          "type": "string"
        }
      ],
      "name": "Ban",
      "outputs": [],
      "stateMutability": "nonpayable",
      "type": "function"
    },
    {
      "inputs": [
        {
          "internalType": "uint256",
          "name": "hw_cost",
          "type": "uint256"
        }
      ],
      "name": "CalculateServiceFee",
      "outputs": [
        {
          "internalType": "uint256",
          "name": "",
          "type": "uint256"
        }
      ],
      "stateMutability": "view",
      "type": "function"
    },
    {
      "inputs": [
        {
          "internalType": "uint256",
          "name": "llm_id",
          "type": "uint256"
        }
      ],
      "name": "DeleteModel",
      "outputs": [],
      "stateMutability": "nonpayable",
      "type": "function"
    },
    {
      "inputs": [
        {
          "internalType": "uint256",
          "name": "llm_id",
          "type": "uint256"
        }
      ],
      "name": "GetModel",
      "outputs": [
        {
          "components": [
            {
              "internalType": "uint256",
              "name": "token_id",
              "type": "uint256"
            },
            {
              "internalType": "uint256",
              "name": "author_royalty",
              "type": "uint256"
            },
            {
              "internalType": "address",
              "name": "author_wallet",
              "type": "address"
            },
            {
              "internalType": "uint256",
              "name": "hw_price_per_input_token",
              "type": "uint256"
            },
            {
              "internalType": "uint256",
              "name": "hw_price_per_output_token",
              "type": "uint256"
            },
            {
              "internalType": "enum Pool.Pay_type",
              "name": "pay_type_",
              "type": "uint8"
            }
          ],
          "internalType": "struct Pool.LLM_meta",
          "name": "",
          "type": "tuple"
        }
      ],
      "stateMutability": "view",
      "type": "function"
    },
    {
      "inputs": [
        {
          "internalType": "string",
          "name": "lai_id",
          "type": "string"
        }
      ],
      "name": "GetWorkerAddress",
      "outputs": [
        {
          "internalType": "address",
          "name": "",
          "type": "address"
        }
      ],
      "stateMutability": "view",
      "type": "function"
    },
    {
      "inputs": [
        {
          "internalType": "address",
          "name": "",
          "type": "address"
        }
      ],
      "name": "HFwhitelist",
      "outputs": [
        {
          "internalType": "bool",
          "name": "",
          "type": "bool"
        }
      ],
      "stateMutability": "view",
      "type": "function"
    },
    {
      "inputs": [
        {
          "internalType": "uint256",
          "name": "llm_id",
          "type": "uint256"
        },
        {
          "internalType": "address",
          "name": "user",
          "type": "address"
        }
      ],
      "name": "Pre_request",
      "outputs": [],
      "stateMutability": "view",
      "type": "function"
    },
    {
      "inputs": [
        {
          "internalType": "uint256",
          "name": "request_id",
          "type": "uint256"
        },
        {
          "internalType": "string",
          "name": "worker_id",
          "type": "string"
        },
        {
          "internalType": "uint256",
          "name": "llm_id",
          "type": "uint256"
        },
        {
          "internalType": "uint256",
          "name": "llmInputTokens",
          "type": "uint256"
        },
        {
          "internalType": "uint256",
          "name": "llmOutputTokens",
          "type": "uint256"
        },
        {
          "internalType": "uint256",
          "name": "processingTime",
          "type": "uint256"
        },
        {
          "internalType": "address",
          "name": "user",
          "type": "address"
        },
        {
          "internalType": "uint256",
          "name": "pics",
          "type": "uint256"
        },
        {
          "internalType": "uint256",
          "name": "imageArea",
          "type": "uint256"
        },
        {
          "internalType": "uint256",
          "name": "imageSteps",
          "type": "uint256"
        }
      ],
      "name": "ProcessResponse",
      "outputs": [],
      "stateMutability": "nonpayable",
      "type": "function"
    },
    {
      "inputs": [
        {
          "internalType": "string",
          "name": "lai_public_key",
          "type": "string"
        }
      ],
      "name": "RegisterWorker",
      "outputs": [],
      "stateMutability": "nonpayable",
      "type": "function"
    },
    {
      "inputs": [
        {
          "internalType": "address",
          "name": "addr",
          "type": "address"
        }
      ],
      "name": "RemoveFromHFWhitelist",
      "outputs": [],
      "stateMutability": "nonpayable",
      "type": "function"
    },
    {
      "inputs": [
        {
          "internalType": "string",
          "name": "lai_pub_key",
          "type": "string"
        }
      ],
      "name": "Unban",
      "outputs": [],
      "stateMutability": "nonpayable",
      "type": "function"
    },
    {
      "inputs": [
        {
          "internalType": "string",
          "name": "lai_pub_key",
          "type": "string"
        }
      ],
      "name": "Unregister",
      "outputs": [],
      "stateMutability": "nonpayable",
      "type": "function"
    },
    {
      "inputs": [
        {
          "internalType": "uint256",
          "name": "llm_id",
          "type": "uint256"
        },
        {
          "internalType": "uint256",
          "name": "new_royalty",
          "type": "uint256"
        },
        {
          "internalType": "address",
          "name": "new_address",
          "type": "address"
        },
        {
          "internalType": "uint256",
          "name": "new_hw_price_in",
          "type": "uint256"
        },
        {
          "internalType": "uint256",
          "name": "new_hw_price_out",
          "type": "uint256"
        }
      ],
      "name": "UpdateModel",
      "outputs": [],
      "stateMutability": "nonpayable",
      "type": "function"
    },
    {
      "inputs": [
        {
          "internalType": "string",
          "name": "",
          "type": "string"
        }
      ],
      "name": "blacklist",
      "outputs": [
        {
          "internalType": "bool",
          "name": "",
          "type": "bool"
        }
      ],
      "stateMutability": "view",
      "type": "function"
    },
    {
      "inputs": [],
      "name": "credit",
      "outputs": [
        {
          "internalType": "contract IERC20",
          "name": "",
          "type": "address"
        }
      ],
      "stateMutability": "view",
      "type": "function"
    },
    {
      "inputs": [],
      "name": "hfswm",
      "outputs": [
        {
          "internalType": "contract HFSWM",
          "name": "",
          "type": "address"
        }
      ],
      "stateMutability": "view",
      "type": "function"
    },
    {
      "inputs": [
        {
          "internalType": "string",
          "name": "",
          "type": "string"
        }
      ],
      "name": "isApproved",
      "outputs": [
        {
          "internalType": "bool",
          "name": "",
          "type": "bool"
        }
      ],
      "stateMutability": "view",
      "type": "function"
    },
    {
      "inputs": [],
      "name": "nft",
      "outputs": [
        {
          "internalType": "contract LLMNFT",
          "name": "",
          "type": "address"
        }
      ],
      "stateMutability": "view",
      "type": "function"
    },
    {
      "inputs": [],
      "name": "owner",
      "outputs": [
        {
          "internalType": "address",
          "name": "",
          "type": "address"
        }
      ],
      "stateMutability": "view",
      "type": "function"
    },
    {
      "inputs": [],
      "name": "pt",
      "outputs": [
        {
          "internalType": "enum Pool.Pool_type",
          "name": "",
          "type": "uint8"
        }
      ],
      "stateMutability": "view",
      "type": "function"
    },
    {
      "inputs": [],
      "name": "renounceOwnership",
      "outputs": [],
      "stateMutability": "nonpayable",
      "type": "function"
    },
    {
      "inputs": [
        {
          "internalType": "address",
          "name": "newOwner",
          "type": "address"
        }
      ],
      "name": "transferOwnership",
      "outputs": [],
      "stateMutability": "nonpayable",
      "type": "function"
    },
    {
      "inputs": [],
      "name": "walletHub",
      "outputs": [
        {
          "internalType": "contract WalletHub",
          "name": "",
          "type": "address"
        }
      ],
      "stateMutability": "view",
      "type": "function"
    }
  ],
  "bytecode": "0x6080604052600160055534801561001557600080fd5b50604051613cd1380380613cd18339818101604052810190610037919061037f565b33600073ffffffffffffffffffffffffffffffffffffffff168173ffffffffffffffffffffffffffffffffffffffff16036100aa5760006040517f1e4fbdf70000000000000000000000000000000000000000000000000000000081526004016100a19190610409565b60405180910390fd5b6100b98161023360201b60201c565b5084600160006101000a81548173ffffffffffffffffffffffffffffffffffffffff021916908373ffffffffffffffffffffffffffffffffffffffff16021790555083600260006101000a81548173ffffffffffffffffffffffffffffffffffffffff021916908373ffffffffffffffffffffffffffffffffffffffff16021790555082600360006101000a81548173ffffffffffffffffffffffffffffffffffffffff021916908373ffffffffffffffffffffffffffffffffffffffff16021790555081600460006101000a81548173ffffffffffffffffffffffffffffffffffffffff021916908373ffffffffffffffffffffffffffffffffffffffff16021790555033600660006101000a81548173ffffffffffffffffffffffffffffffffffffffff021916908373ffffffffffffffffffffffffffffffffffffffff16021790555080600460146101000a81548160ff0219169083600181111561022457610223610424565b5b02179055505050505050610453565b60008060009054906101000a900473ffffffffffffffffffffffffffffffffffffffff169050816000806101000a81548173ffffffffffffffffffffffffffffffffffffffff021916908373ffffffffffffffffffffffffffffffffffffffff1602179055508173ffffffffffffffffffffffffffffffffffffffff168173ffffffffffffffffffffffffffffffffffffffff167f8be0079c531659141344cd1fd0a4f28419497f9722a3daafe3b4186f6b6457e060405160405180910390a35050565b600080fd5b600073ffffffffffffffffffffffffffffffffffffffff82169050919050565b6000610327826102fc565b9050919050565b6103378161031c565b811461034257600080fd5b50565b6000815190506103548161032e565b92915050565b6002811061036757600080fd5b50565b6000815190506103798161035a565b92915050565b600080600080600060a0868803121561039b5761039a6102f7565b5b60006103a988828901610345565b95505060206103ba88828901610345565b94505060406103cb88828901610345565b93505060606103dc88828901610345565b92505060806103ed8882890161036a565b9150509295509295909350565b6104038161031c565b82525050565b600060208201905061041e60008301846103fa565b92915050565b7f4e487b7100000000000000000000000000000000000000000000000000000000600052602160045260246000fd5b61386f806104626000396000f3fe608060405234801561001057600080fd5b506004361061018d5760003560e01c8063a06d083c116100de578063bad3191a11610097578063e03ec51111610071578063e03ec51114610456578063f2fde38b14610474578063f31fbc9f14610490578063f6bd2ac8146104c05761018d565b8063bad3191a146103ec578063bbfb8caa14610408578063dc263022146104385761018d565b8063a06d083c1461032e578063aa3896921461034c578063b083de5414610368578063b91255d914610398578063b9359ea2146103b4578063ba68ce9c146103d05761018d565b806347ccca021161014b5780637bc5937d116101255780637bc5937d146102a85780638c0233e9146102c45780638da5cb5b146102f45780639fcd8c9d146103125761018d565b806347ccca02146102625780636add62a014610280578063715018a61461029e5761018d565b8062345d3d146101925780630e5fd6d7146101ae5780631e99f349146101de57806327801534146101fa578063421d277714610216578063431f90f314610246575b600080fd5b6101ac60048036038101906101a791906122fb565b6104dc565b005b6101c860048036038101906101c3919061235e565b61053f565b6040516101d5919061239a565b60405180910390f35b6101f860048036038101906101f391906124fb565b6105c7565b005b610214600480360381019061020f919061235e565b610810565b005b610230600480360381019061022b91906124fb565b6108c3565b60405161023d9190612553565b60405180910390f35b610260600480360381019061025b91906124fb565b61090b565b005b61026a61094d565b60405161027791906125cd565b60405180910390f35b610288610973565b6040516102959190612609565b60405180910390f35b6102a6610999565b005b6102c260048036038101906102bd9190612624565b6109ad565b005b6102de60048036038101906102d991906124fb565b610ba4565b6040516102eb919061273a565b60405180910390f35b6102fc610bda565b6040516103099190612553565b60405180910390f35b61032c600480360381019061032791906124fb565b610c03565b005b610336610f42565b6040516103439190612776565b60405180910390f35b61036660048036038101906103619190612791565b610f68565b005b610382600480360381019061037d91906122fb565b6111a2565b60405161038f919061273a565b60405180910390f35b6103b260048036038101906103ad91906127e4565b6111c2565b005b6103ce60048036038101906103c9919061285f565b6113b9565b005b6103ea60048036038101906103e591906122fb565b6115be565b005b610406600480360381019061040191906124fb565b611621565b005b610422600480360381019061041d919061235e565b611663565b60405161042f91906129af565b60405180910390f35b610440611749565b60405161044d9190612a12565b60405180910390f35b61045e61175c565b60405161046b9190612a4e565b60405180910390f35b61048e600480360381019061048991906122fb565b611782565b005b6104aa60048036038101906104a591906124fb565b611808565b6040516104b7919061273a565b60405180910390f35b6104da60048036038101906104d591906124fb565b61183e565b005b6104e4611880565b6000600b60008373ffffffffffffffffffffffffffffffffffffffff1673ffffffffffffffffffffffffffffffffffffffff16815260200190815260200160002060006101000a81548160ff02191690831515021790555050565b600073__$6ca259786bae6b18641118eb2a4c0483c3$__63a285b8948360646005546040518463ffffffff1660e01b815260040161057f93929190612ab3565b602060405180830381865af415801561059c573d6000803e3d6000fd5b505050506040513d601f19601f820116820180604052508101906105c09190612aff565b9050919050565b3373ffffffffffffffffffffffffffffffffffffffff166007826040516105ee9190612b9d565b908152602001604051809103902060009054906101000a900473ffffffffffffffffffffffffffffffffffffffff1673ffffffffffffffffffffffffffffffffffffffff1614610673576040517f08c379a000000000000000000000000000000000000000000000000000000000815260040161066a90612c11565b60405180910390fd5b6000600860003373ffffffffffffffffffffffffffffffffffffffff1673ffffffffffffffffffffffffffffffffffffffff168152602001908152602001600020905060005b818054905081101561079c5782805190602001208282815481106106e0576106df612c31565b5b906000526020600020016040516106f79190612d63565b60405180910390200361078f5781600183805490506107169190612da9565b8154811061072757610726612c31565b5b9060005260206000200182828154811061074457610743612c31565b5b90600052602060002001908161075a9190612faa565b508180548061076c5761076b613092565b5b6001900381819060005260206000200160006107889190612198565b905561079c565b80806001019150506106b9565b506007826040516107ad9190612b9d565b908152602001604051809103902060006101000a81549073ffffffffffffffffffffffffffffffffffffffff0219169055600a826040516107ee9190612b9d565b908152602001604051809103902060006101000a81549060ff02191690555050565b610818611880565b600c600082815260200190815260200160002060008082016000905560018201600090556002820160006101000a81549073ffffffffffffffffffffffffffffffffffffffff0219169055600382016000905560048201600090556005820160006101000a81549060ff021916905550507f092b4ffb93d921248d7da2d747d314c29d0cc428d4566b4e3b400cbf21f5e3eb816040516108b8919061239a565b60405180910390a150565b60006007826040516108d59190612b9d565b908152602001604051809103902060009054906101000a900473ffffffffffffffffffffffffffffffffffffffff169050919050565b610913611880565b6001600a826040516109259190612b9d565b908152602001604051809103902060006101000a81548160ff02191690831515021790555050565b600160009054906101000a900473ffffffffffffffffffffffffffffffffffffffff1681565b600460009054906101000a900473ffffffffffffffffffffffffffffffffffffffff1681565b6109a1611880565b6109ab6000611907565b565b6009896040516109bd9190612b9d565b908152602001604051809103902060009054906101000a900460ff1615610a19576040517f08c379a0000000000000000000000000000000000000000000000000000000008152600401610a109061310d565b60405180910390fd5b600a89604051610a299190612b9d565b908152602001604051809103902060009054906101000a900460ff16610a84576040517f08c379a0000000000000000000000000000000000000000000000000000000008152600401610a7b90613179565b60405180910390fd5b6000610a948989898787876119cb565b9050600081608001518260400151610aac9190613199565b9050600460009054906101000a900473ffffffffffffffffffffffffffffffffffffffff1673ffffffffffffffffffffffffffffffffffffffff1663636be27a87836040518363ffffffff1660e01b8152600401610b0b9291906131cd565b600060405180830381600087803b158015610b2557600080fd5b505af1158015610b39573d6000803e3d6000fd5b50505050610b498b8b8385611c59565b7fe682774c095c98275661d05ff664616a641de1592fa52e2412789919e84b01ad8c8b610b758e6108c3565b8c8c868d42604051610b8e9897969594939291906131f6565b60405180910390a1505050505050505050505050565b6009818051602081018201805184825260208301602085012081835280955050505050506000915054906101000a900460ff1681565b60008060009054906101000a900473ffffffffffffffffffffffffffffffffffffffff16905090565b600981604051610c139190612b9d565b908152602001604051809103902060009054906101000a900460ff1615610c6f576040517f08c379a0000000000000000000000000000000000000000000000000000000008152600401610c66906132c0565b60405180910390fd5b600073ffffffffffffffffffffffffffffffffffffffff16600782604051610c979190612b9d565b908152602001604051809103902060009054906101000a900473ffffffffffffffffffffffffffffffffffffffff1673ffffffffffffffffffffffffffffffffffffffff1614610d1c576040517f08c379a0000000000000000000000000000000000000000000000000000000008152600401610d139061332c565b60405180910390fd5b6014600860003373ffffffffffffffffffffffffffffffffffffffff1673ffffffffffffffffffffffffffffffffffffffff1681526020019081526020016000208054905010610da1576040517f08c379a0000000000000000000000000000000000000000000000000000000008152600401610d9890613398565b60405180910390fd5b600860003373ffffffffffffffffffffffffffffffffffffffff1673ffffffffffffffffffffffffffffffffffffffff16815260200190815260200160002081908060018154018082558091505060019003906000526020600020016000909190919091509081610e1291906133b8565b5033600782604051610e249190612b9d565b908152602001604051809103902060006101000a81548173ffffffffffffffffffffffffffffffffffffffff021916908373ffffffffffffffffffffffffffffffffffffffff160217905550600180811115610e8357610e826128bd565b5b600460149054906101000a900460ff166001811115610ea557610ea46128bd565b5b14600a82604051610eb69190612b9d565b908152602001604051809103902060006101000a81548160ff0219169083151502179055507fee06bd32f8b2583fd50c0dd94d872913c9fe17bb486e0f9d4b4865752d79efa033600a83604051610f0d9190612b9d565b908152602001604051809103902060009054906101000a900460ff16604051610f3792919061348a565b60405180910390a150565b600260009054906101000a900473ffffffffffffffffffffffffffffffffffffffff1681565b610f70611880565b6000600160009054906101000a900473ffffffffffffffffffffffffffffffffffffffff1673ffffffffffffffffffffffffffffffffffffffff166340a24c67856040518263ffffffff1660e01b8152600401610fcd919061239a565b600060405180830381865afa158015610fea573d6000803e3d6000fd5b505050506040513d6000823e3d601f19601f82011682018060405250810190611013919061363f565b9050600080600181111561102a576110296128bd565b5b82608001516001811115611041576110406128bd565b5b1461104d576001611050565b60005b90506040518060c0016040528086815260200183604001518152602001836060015173ffffffffffffffffffffffffffffffffffffffff1681526020018581526020018481526020018260018111156110ac576110ab6128bd565b5b815250600c6000878152602001908152602001600020600082015181600001556020820151816001015560408201518160020160006101000a81548173ffffffffffffffffffffffffffffffffffffffff021916908373ffffffffffffffffffffffffffffffffffffffff160217905550606082015181600301556080820151816004015560a08201518160050160006101000a81548160ff0219169083600181111561115c5761115b6128bd565b5b02179055509050507fcce97e9147605aa584b8dcf4cea5865244efb1f90a1593c329592797678d993585604051611193919061239a565b60405180910390a15050505050565b600b6020528060005260406000206000915054906101000a900460ff1681565b6111ca611880565b6000600c60008781526020019081526020016000206040518060c001604052908160008201548152602001600182015481526020016002820160009054906101000a900473ffffffffffffffffffffffffffffffffffffffff1673ffffffffffffffffffffffffffffffffffffffff1673ffffffffffffffffffffffffffffffffffffffff16815260200160038201548152602001600482015481526020016005820160009054906101000a900460ff16600181111561128d5761128c6128bd565b5b600181111561129f5761129e6128bd565b5b8152505090508481602001818152505083816040019073ffffffffffffffffffffffffffffffffffffffff16908173ffffffffffffffffffffffffffffffffffffffff1681525050828160600181815250508181608001818152505080600c6000888152602001908152602001600020600082015181600001556020820151816001015560408201518160020160006101000a81548173ffffffffffffffffffffffffffffffffffffffff021916908373ffffffffffffffffffffffffffffffffffffffff160217905550606082015181600301556080820151816004015560a08201518160050160006101000a81548160ff021916908360018111156113a9576113a86128bd565b5b0217905550905050505050505050565b6000600160009054906101000a900473ffffffffffffffffffffffffffffffffffffffff1673ffffffffffffffffffffffffffffffffffffffff166340a24c67846040518263ffffffff1660e01b8152600401611416919061239a565b600060405180830381865afa158015611433573d6000803e3d6000fd5b505050506040513d6000823e3d601f19601f8201168201806040525081019061145c919061363f565b905060008160800151905060008260a001519050600061147b86611663565b9050600081606001519050600080600181111561149b5761149a6128bd565b5b8560018111156114ae576114ad6128bd565b5b036114c65781846114bf9190613688565b90506114d6565b6001826114d39190613688565b90505b80600460009054906101000a900473ffffffffffffffffffffffffffffffffffffffff1673ffffffffffffffffffffffffffffffffffffffff16630103c92b896040518263ffffffff1660e01b81526004016115329190612553565b602060405180830381865afa15801561154f573d6000803e3d6000fd5b505050506040513d601f19601f820116820180604052508101906115739190612aff565b10156115b4576040517f08c379a00000000000000000000000000000000000000000000000000000000081526004016115ab90613716565b60405180910390fd5b5050505050505050565b6115c6611880565b6001600b60008373ffffffffffffffffffffffffffffffffffffffff1673ffffffffffffffffffffffffffffffffffffffff16815260200190815260200160002060006101000a81548160ff02191690831515021790555050565b611629611880565b600060098260405161163b9190612b9d565b908152602001604051809103902060006101000a81548160ff02191690831515021790555050565b61166b6121d8565b600c60008381526020019081526020016000206040518060c001604052908160008201548152602001600182015481526020016002820160009054906101000a900473ffffffffffffffffffffffffffffffffffffffff1673ffffffffffffffffffffffffffffffffffffffff1673ffffffffffffffffffffffffffffffffffffffff16815260200160038201548152602001600482015481526020016005820160009054906101000a900460ff16600181111561172c5761172b6128bd565b5b600181111561173e5761173d6128bd565b5b815250509050919050565b600460149054906101000a900460ff1681565b600360009054906101000a900473ffffffffffffffffffffffffffffffffffffffff1681565b61178a611880565b600073ffffffffffffffffffffffffffffffffffffffff168173ffffffffffffffffffffffffffffffffffffffff16036117fc5760006040517f1e4fbdf70000000000000000000000000000000000000000000000000000000081526004016117f39190612553565b60405180910390fd5b61180581611907565b50565b600a818051602081018201805184825260208301602085012081835280955050505050506000915054906101000a900460ff1681565b611846611880565b60016009826040516118589190612b9d565b908152602001604051809103902060006101000a81548160ff02191690831515021790555050565b611888612190565b73ffffffffffffffffffffffffffffffffffffffff166118a6610bda565b73ffffffffffffffffffffffffffffffffffffffff1614611905576118c9612190565b6040517f118cdaa70000000000000000000000000000000000000000000000000000000081526004016118fc9190612553565b60405180910390fd5b565b60008060009054906101000a900473ffffffffffffffffffffffffffffffffffffffff169050816000806101000a81548173ffffffffffffffffffffffffffffffffffffffff021916908373ffffffffffffffffffffffffffffffffffffffff1602179055508173ffffffffffffffffffffffffffffffffffffffff168173ffffffffffffffffffffffffffffffffffffffff167f8be0079c531659141344cd1fd0a4f28419497f9722a3daafe3b4186f6b6457e060405160405180910390a35050565b6119d3612236565b6000600c60008981526020019081526020016000206040518060c001604052908160008201548152602001600182015481526020016002820160009054906101000a900473ffffffffffffffffffffffffffffffffffffffff1673ffffffffffffffffffffffffffffffffffffffff1673ffffffffffffffffffffffffffffffffffffffff16815260200160038201548152602001600482015481526020016005820160009054906101000a900460ff166001811115611a9657611a956128bd565b5b6001811115611aa857611aa76128bd565b5b815250509050611ab6612236565b60006001811115611aca57611ac96128bd565b5b8260a001516001811115611ae157611ae06128bd565b5b03611b6c578688611af29190613199565b8160a001818152505081606001518160000181815250508160800151816020018181525050868160200151611b279190613688565b888260000151611b379190613688565b611b419190613199565b8160400181815250508060a001518260200151611b5e9190613688565b816080018181525050611c4a565b816060015181600001818152505081602001518160600181815250506000621000009050600060199050600082670de0b6b3a764000089611bad9190613688565b611bb79190613765565b9050600082670de0b6b3a764000089611bd09190613688565b611bda9190613765565b90506000670de0b6b3a76400008284611bf39190613688565b611bfd9190613765565b9050670de0b6b3a7640000818c8860000151611c199190613688565b611c239190613688565b611c2d9190613765565b866040018181525050856060015186608001818152505050505050505b80925050509695505050505050565b6000611c648361053f565b905060008184611c749190612da9565b905060008411611cb9576040517f08c379a0000000000000000000000000000000000000000000000000000000008152600401611cb0906137e2565b60405180910390fd5b600084828560400151611ccc9190613688565b611cd69190613765565b9050600085838660800151611ceb9190613688565b611cf59190613765565b90506000818385611d069190612da9565b611d109190612da9565b90506000611d1d8a6108c3565b90506000600c60008b815260200190815260200160002060020160009054906101000a900473ffffffffffffffffffffffffffffffffffffffff169050600073ffffffffffffffffffffffffffffffffffffffff168273ffffffffffffffffffffffffffffffffffffffff1614611f0557600b60008373ffffffffffffffffffffffffffffffffffffffff1673ffffffffffffffffffffffffffffffffffffffff16815260200190815260200160002060009054906101000a900460ff1615611e7457600360009054906101000a900473ffffffffffffffffffffffffffffffffffffffff1673ffffffffffffffffffffffffffffffffffffffff166340c10f1983876040518363ffffffff1660e01b8152600401611e3d9291906131cd565b600060405180830381600087803b158015611e5757600080fd5b505af1158015611e6b573d6000803e3d6000fd5b50505050611f04565b600460009054906101000a900473ffffffffffffffffffffffffffffffffffffffff1673ffffffffffffffffffffffffffffffffffffffff1663c407687683876040518363ffffffff1660e01b8152600401611ed19291906131cd565b600060405180830381600087803b158015611eeb57600080fd5b505af1158015611eff573d6000803e3d6000fd5b505050505b5b600073ffffffffffffffffffffffffffffffffffffffff168173ffffffffffffffffffffffffffffffffffffffff16146120b057600b60008273ffffffffffffffffffffffffffffffffffffffff1673ffffffffffffffffffffffffffffffffffffffff16815260200190815260200160002060009054906101000a900460ff161561201f57600360009054906101000a900473ffffffffffffffffffffffffffffffffffffffff1673ffffffffffffffffffffffffffffffffffffffff166340c10f1982866040518363ffffffff1660e01b8152600401611fe89291906131cd565b600060405180830381600087803b15801561200257600080fd5b505af1158015612016573d6000803e3d6000fd5b505050506120af565b600460009054906101000a900473ffffffffffffffffffffffffffffffffffffffff1673ffffffffffffffffffffffffffffffffffffffff1663c407687682866040518363ffffffff1660e01b815260040161207c9291906131cd565b600060405180830381600087803b15801561209657600080fd5b505af11580156120aa573d6000803e3d6000fd5b505050505b5b600460009054906101000a900473ffffffffffffffffffffffffffffffffffffffff1673ffffffffffffffffffffffffffffffffffffffff1663effbe39a84896120fa9190613199565b6040518263ffffffff1660e01b8152600401612116919061239a565b600060405180830381600087803b15801561213057600080fd5b505af1158015612144573d6000803e3d6000fd5b505050507f634235fcf5af0adbca1a405ec65f6f6c08f55e1f379c2c45cd10f23cb29e0e31828b8760405161217b93929190613802565b60405180910390a15050505050505050505050565b600033905090565b5080546121a490612c8f565b6000825580601f106121b657506121d5565b601f0160209004906000526020600020908101906121d4919061226c565b5b50565b6040518060c001604052806000815260200160008152602001600073ffffffffffffffffffffffffffffffffffffffff1681526020016000815260200160008152602001600060018111156122305761222f6128bd565b5b81525090565b6040518060c001604052806000815260200160008152602001600081526020016000815260200160008152602001600081525090565b5b8082111561228557600081600090555060010161226d565b5090565b6000604051905090565b600080fd5b600080fd5b600073ffffffffffffffffffffffffffffffffffffffff82169050919050565b60006122c88261229d565b9050919050565b6122d8816122bd565b81146122e357600080fd5b50565b6000813590506122f5816122cf565b92915050565b60006020828403121561231157612310612293565b5b600061231f848285016122e6565b91505092915050565b6000819050919050565b61233b81612328565b811461234657600080fd5b50565b60008135905061235881612332565b92915050565b60006020828403121561237457612373612293565b5b600061238284828501612349565b91505092915050565b61239481612328565b82525050565b60006020820190506123af600083018461238b565b92915050565b600080fd5b600080fd5b6000601f19601f8301169050919050565b7f4e487b7100000000000000000000000000000000000000000000000000000000600052604160045260246000fd5b612408826123bf565b810181811067ffffffffffffffff82111715612427576124266123d0565b5b80604052505050565b600061243a612289565b905061244682826123ff565b919050565b600067ffffffffffffffff821115612466576124656123d0565b5b61246f826123bf565b9050602081019050919050565b82818337600083830152505050565b600061249e6124998461244b565b612430565b9050828152602081018484840111156124ba576124b96123ba565b5b6124c584828561247c565b509392505050565b600082601f8301126124e2576124e16123b5565b5b81356124f284826020860161248b565b91505092915050565b60006020828403121561251157612510612293565b5b600082013567ffffffffffffffff81111561252f5761252e612298565b5b61253b848285016124cd565b91505092915050565b61254d816122bd565b82525050565b60006020820190506125686000830184612544565b92915050565b6000819050919050565b600061259361258e6125898461229d565b61256e565b61229d565b9050919050565b60006125a582612578565b9050919050565b60006125b78261259a565b9050919050565b6125c7816125ac565b82525050565b60006020820190506125e260008301846125be565b92915050565b60006125f38261259a565b9050919050565b612603816125e8565b82525050565b600060208201905061261e60008301846125fa565b92915050565b6000806000806000806000806000806101408b8d03121561264857612647612293565b5b60006126568d828e01612349565b9a505060208b013567ffffffffffffffff81111561267757612676612298565b5b6126838d828e016124cd565b99505060406126948d828e01612349565b98505060606126a58d828e01612349565b97505060806126b68d828e01612349565b96505060a06126c78d828e01612349565b95505060c06126d88d828e016122e6565b94505060e06126e98d828e01612349565b9350506101006126fb8d828e01612349565b92505061012061270d8d828e01612349565b9150509295989b9194979a5092959850565b60008115159050919050565b6127348161271f565b82525050565b600060208201905061274f600083018461272b565b92915050565b60006127608261259a565b9050919050565b61277081612755565b82525050565b600060208201905061278b6000830184612767565b92915050565b6000806000606084860312156127aa576127a9612293565b5b60006127b886828701612349565b93505060206127c986828701612349565b92505060406127da86828701612349565b9150509250925092565b600080600080600060a08688031215612800576127ff612293565b5b600061280e88828901612349565b955050602061281f88828901612349565b9450506040612830888289016122e6565b935050606061284188828901612349565b925050608061285288828901612349565b9150509295509295909350565b6000806040838503121561287657612875612293565b5b600061288485828601612349565b9250506020612895858286016122e6565b9150509250929050565b6128a881612328565b82525050565b6128b7816122bd565b82525050565b7f4e487b7100000000000000000000000000000000000000000000000000000000600052602160045260246000fd5b600281106128fd576128fc6128bd565b5b50565b600081905061290e826128ec565b919050565b600061291e82612900565b9050919050565b61292e81612913565b82525050565b60c08201600082015161294a600085018261289f565b50602082015161295d602085018261289f565b50604082015161297060408501826128ae565b506060820151612983606085018261289f565b506080820151612996608085018261289f565b5060a08201516129a960a0850182612925565b50505050565b600060c0820190506129c46000830184612934565b92915050565b600281106129db576129da6128bd565b5b50565b60008190506129ec826129ca565b919050565b60006129fc826129de565b9050919050565b612a0c816129f1565b82525050565b6000602082019050612a276000830184612a03565b92915050565b6000612a388261259a565b9050919050565b612a4881612a2d565b82525050565b6000602082019050612a636000830184612a3f565b92915050565b612a7281612328565b82525050565b6000819050919050565b6000612a9d612a98612a9384612a78565b61256e565b612328565b9050919050565b612aad81612a82565b82525050565b6000606082019050612ac86000830186612a69565b612ad56020830185612aa4565b612ae26040830184612a69565b949350505050565b600081519050612af981612332565b92915050565b600060208284031215612b1557612b14612293565b5b6000612b2384828501612aea565b91505092915050565b600081519050919050565b600081905092915050565b60005b83811015612b60578082015181840152602081019050612b45565b60008484015250505050565b6000612b7782612b2c565b612b818185612b37565b9350612b91818560208601612b42565b80840191505092915050565b6000612ba98284612b6c565b915081905092915050565b600082825260208201905092915050565b7f4e6f7420796f7572206b65790000000000000000000000000000000000000000600082015250565b6000612bfb600c83612bb4565b9150612c0682612bc5565b602082019050919050565b60006020820190508181036000830152612c2a81612bee565b9050919050565b7f4e487b7100000000000000000000000000000000000000000000000000000000600052603260045260246000fd5b7f4e487b7100000000000000000000000000000000000000000000000000000000600052602260045260246000fd5b60006002820490506001821680612ca757607f821691505b602082108103612cba57612cb9612c60565b5b50919050565b600081905092915050565b60008190508160005260206000209050919050565b60008154612ced81612c8f565b612cf78186612cc0565b94506001821660008114612d125760018114612d2757612d5a565b60ff1983168652811515820286019350612d5a565b612d3085612ccb565b60005b83811015612d5257815481890152600182019150602081019050612d33565b838801955050505b50505092915050565b6000612d6f8284612ce0565b915081905092915050565b7f4e487b7100000000000000000000000000000000000000000000000000000000600052601160045260246000fd5b6000612db482612328565b9150612dbf83612328565b9250828203905081811115612dd757612dd6612d7a565b5b92915050565b600081549050612dec81612c8f565b9050919050565b60008190508160005260206000209050919050565b60008190508160005260206000209050919050565b60006020601f8301049050919050565b600082821b905092915050565b600060088302612e6a7fffffffffffffffffffffffffffffffffffffffffffffffffffffffffffffffff82612e2d565b612e748683612e2d565b95508019841693508086168417925050509392505050565b6000612ea7612ea2612e9d84612328565b61256e565b612328565b9050919050565b6000819050919050565b612ec183612e8c565b612ed5612ecd82612eae565b848454612e3a565b825550505050565b600090565b612eea612edd565b612ef5818484612eb8565b505050565b5b81811015612f1957612f0e600082612ee2565b600181019050612efb565b5050565b601f821115612f5e57612f2f81612df3565b612f3884612e1d565b81016020851015612f47578190505b612f5b612f5385612e1d565b830182612efa565b50505b505050565b600082821c905092915050565b6000612f8160001984600802612f63565b1980831691505092915050565b6000612f9a8383612f70565b9150826002028217905092915050565b818103612fb8575050613090565b612fc182612ddd565b67ffffffffffffffff811115612fda57612fd96123d0565b5b612fe48254612c8f565b612fef828285612f1d565b6000601f83116001811461301e576000841561300c578287015490505b6130168582612f8e565b865550613089565b601f19841661302c87612e08565b965061303786612df3565b60005b8281101561305f5784890154825560018201915060018501945060208101905061303a565b8683101561307c5784890154613078601f891682612f70565b8355505b6001600288020188555050505b5050505050505b565b7f4e487b7100000000000000000000000000000000000000000000000000000000600052603160045260246000fd5b7f426c61636b6c697374656420776f726b65720000000000000000000000000000600082015250565b60006130f7601283612bb4565b9150613102826130c1565b602082019050919050565b60006020820190508181036000830152613126816130ea565b9050919050565b7f576f726b6572206e6f7420617070726f76656400000000000000000000000000600082015250565b6000613163601383612bb4565b915061316e8261312d565b602082019050919050565b6000602082019050818103600083015261319281613156565b9050919050565b60006131a482612328565b91506131af83612328565b92508282019050808211156131c7576131c6612d7a565b5b92915050565b60006040820190506131e26000830185612544565b6131ef602083018461238b565b9392505050565b60006101008201905061320c600083018b61238b565b613219602083018a61238b565b6132266040830189612544565b613233606083018861238b565b613240608083018761238b565b61324d60a083018661238b565b61325a60c083018561238b565b61326760e083018461238b565b9998505050505050505050565b7f54686973206b657920697320626c61636b6c6973746564000000000000000000600082015250565b60006132aa601783612bb4565b91506132b582613274565b602082019050919050565b600060208201905081810360008301526132d98161329d565b9050919050565b7f416c726561647920726567697374657265640000000000000000000000000000600082015250565b6000613316601283612bb4565b9150613321826132e0565b602082019050919050565b6000602082019050818103600083015261334581613309565b9050919050565b7f4d617820776f726b657273207265616368656400000000000000000000000000600082015250565b6000613382601383612bb4565b915061338d8261334c565b602082019050919050565b600060208201905081810360008301526133b181613375565b9050919050565b6133c182612b2c565b67ffffffffffffffff8111156133da576133d96123d0565b5b6133e48254612c8f565b6133ef828285612f1d565b600060209050601f8311600181146134225760008415613410578287015190505b61341a8582612f8e565b865550613482565b601f19841661343086612df3565b60005b8281101561345857848901518255600182019150602085019450602081019050613433565b868310156134755784890151613471601f891682612f70565b8355505b6001600288020188555050505b505050505050565b600060408201905061349f6000830185612544565b6134ac602083018461272b565b9392505050565b600080fd5b600080fd5b60006134d06134cb8461244b565b612430565b9050828152602081018484840111156134ec576134eb6123ba565b5b6134f7848285612b42565b509392505050565b600082601f830112613514576135136123b5565b5b81516135248482602086016134bd565b91505092915050565b60008151905061353c816122cf565b92915050565b6002811061354f57600080fd5b50565b60008151905061356181613542565b92915050565b600060c0828403121561357d5761357c6134b3565b5b61358760c0612430565b9050600082015167ffffffffffffffff8111156135a7576135a66134b8565b5b6135b3848285016134ff565b600083015250602082015167ffffffffffffffff8111156135d7576135d66134b8565b5b6135e3848285016134ff565b60208301525060406135f784828501612aea565b604083015250606061360b8482850161352d565b606083015250608061361f84828501613552565b60808301525060a061363384828501612aea565b60a08301525092915050565b60006020828403121561365557613654612293565b5b600082015167ffffffffffffffff81111561367357613672612298565b5b61367f84828501613567565b91505092915050565b600061369382612328565b915061369e83612328565b92508282026136ac81612328565b915082820484148315176136c3576136c2612d7a565b5b5092915050565b7f496e73756666696369656e74206465706f73697465642062616c616e63650000600082015250565b6000613700601e83612bb4565b915061370b826136ca565b602082019050919050565b6000602082019050818103600083015261372f816136f3565b9050919050565b7f4e487b7100000000000000000000000000000000000000000000000000000000600052601260045260246000fd5b600061377082612328565b915061377b83612328565b92508261378b5761378a613736565b5b828204905092915050565b7f7a65726f20746f74616c00000000000000000000000000000000000000000000600082015250565b60006137cc600a83612bb4565b91506137d782613796565b602082019050919050565b600060208201905081810360008301526137fb816137bf565b9050919050565b60006060820190506138176000830186612544565b613824602083018561238b565b613831604083018461238b565b94935050505056fea264697066735822122095811535e67205614a7acbd723ec03215b470a50dc0ca438e4f753743c38495c64736f6c634300081c0033",
  "linkReferences": {
    "contracts/FeesCalculator.sol": {
      "FeesCalculator": [
        {
          "length": 20,
          "start": 2469
        }
      ]
    }
  },
  "deployedLinkReferences": {
    "contracts/FeesCalculator.sol": {
      "FeesCalculator": [
        {
          "length": 20,
          "start": 1347
        }
      ]
    }
  }
}