{
  "_format": "hh-sol-artifact-1",
  "contractName": "Pool",
  "sourceName": "contracts/pool.sol",
  "abi": [
    {
      "inputs": [
        {
          "internalType": "address",
          "name": "llm_nft",
          "type": "address"
        },
        {
          "internalType": "address",
          "name": "credit_",
          "type": "address"
        }
      ],
      "stateMutability": "nonpayable",
      "type": "constructor"
    },
    {
      "inputs": [
        {
          "internalType": "address",
          "name": "owner",
          "type": "address"
        }
      ],
      "name": "OwnableInvalidOwner",
      "type": "error"
    },
    {
      "inputs": [
        {
          "internalType": "address",
          "name": "account",
          "type": "address"
        }
      ],
      "name": "OwnableUnauthorizedAccount",
      "type": "error"
    },
    {
      "anonymous": false,
      "inputs": [
        {
          "indexed": false,
          "internalType": "address",
          "name": "user",
          "type": "address"
        },
        {
          "indexed": false,
          "internalType": "uint256",
          "name": "amount",
          "type": "uint256"
        }
      ],
      "name": "Deposit",
      "type": "event"
    },
    {
      "anonymous": false,
      "inputs": [
        {
          "indexed": false,
          "internalType": "address",
          "name": "worker",
          "type": "address"
        },
        {
          "indexed": false,
          "internalType": "bool",
          "name": "isApproved",
          "type": "bool"
        }
      ],
      "name": "NewWorker",
      "type": "event"
    },
    {
      "anonymous": false,
      "inputs": [
        {
          "indexed": true,
          "internalType": "address",
          "name": "previousOwner",
          "type": "address"
        },
        {
          "indexed": true,
          "internalType": "address",
          "name": "newOwner",
          "type": "address"
        }
      ],
      "name": "OwnershipTransferred",
      "type": "event"
    },
    {
      "anonymous": false,
      "inputs": [
        {
          "indexed": false,
          "internalType": "address",
          "name": "provider",
          "type": "address"
        },
        {
          "indexed": false,
          "internalType": "uint256",
          "name": "llm_id",
          "type": "uint256"
        },
        {
          "indexed": false,
          "internalType": "uint256",
          "name": "amount",
          "type": "uint256"
        }
      ],
      "name": "Payout",
      "type": "event"
    },
    {
      "anonymous": false,
      "inputs": [
        {
          "indexed": false,
          "internalType": "uint256",
          "name": "id",
          "type": "uint256"
        },
        {
          "indexed": false,
          "internalType": "uint256",
          "name": "llm_id",
          "type": "uint256"
        },
        {
          "indexed": false,
          "internalType": "address",
          "name": "worker",
          "type": "address"
        },
        {
          "indexed": false,
          "internalType": "uint256",
          "name": "llmInputTokens",
          "type": "uint256"
        },
        {
          "indexed": false,
          "internalType": "uint256",
          "name": "llmOutputTokens",
          "type": "uint256"
        },
        {
          "indexed": false,
          "internalType": "uint256",
          "name": "cost",
          "type": "uint256"
        },
        {
          "indexed": false,
          "internalType": "uint256",
          "name": "processingTime",
          "type": "uint256"
        },
        {
          "indexed": false,
          "internalType": "uint256",
          "name": "timestamp",
          "type": "uint256"
        }
      ],
      "name": "Response",
      "type": "event"
    },
    {
      "inputs": [
        {
          "internalType": "uint256",
          "name": "token_id",
          "type": "uint256"
        },
        {
          "internalType": "uint256",
          "name": "hw_price_in",
          "type": "uint256"
        },
        {
          "internalType": "uint256",
          "name": "hw_price_out",
          "type": "uint256"
        }
      ],
      "name": "AddModel",
      "outputs": [],
      "stateMutability": "nonpayable",
      "type": "function"
    },
    {
      "inputs": [
        {
          "internalType": "string",
          "name": "lai_public_key",
          "type": "string"
        }
      ],
      "name": "ApproveWorker",
      "outputs": [],
      "stateMutability": "nonpayable",
      "type": "function"
    },
    {
      "inputs": [
        {
          "internalType": "string",
          "name": "lai_pub_key",
          "type": "string"
        }
      ],
      "name": "Ban",
      "outputs": [],
      "stateMutability": "nonpayable",
      "type": "function"
    },
    {
      "inputs": [
        {
          "internalType": "uint256",
          "name": "hw_cost",
          "type": "uint256"
        }
      ],
      "name": "CalculateServiceFee",
      "outputs": [
        {
          "internalType": "uint256",
          "name": "",
          "type": "uint256"
        }
      ],
      "stateMutability": "view",
      "type": "function"
    },
    {
      "inputs": [
        {
          "internalType": "uint256",
          "name": "llm_id",
          "type": "uint256"
        }
      ],
      "name": "DeleteModel",
      "outputs": [],
      "stateMutability": "nonpayable",
      "type": "function"
    },
    {
      "inputs": [
        {
          "internalType": "uint256",
          "name": "amount",
          "type": "uint256"
        }
      ],
      "name": "DepositCredit",
      "outputs": [],
      "stateMutability": "nonpayable",
      "type": "function"
    },
    {
      "inputs": [
        {
          "internalType": "uint256",
          "name": "llm_id",
          "type": "uint256"
        }
      ],
      "name": "GetMetaLLM",
      "outputs": [
        {
          "components": [
            {
              "internalType": "uint256",
              "name": "token_id",
              "type": "uint256"
            },
            {
              "internalType": "uint256",
              "name": "author_royalty",
              "type": "uint256"
            },
            {
              "internalType": "address",
              "name": "author_wallet",
              "type": "address"
            },
            {
              "internalType": "uint256",
              "name": "hw_price_per_input_token",
              "type": "uint256"
            },
            {
              "internalType": "uint256",
              "name": "hw_price_per_output_token",
              "type": "uint256"
            },
            {
              "internalType": "enum Pool.Pay_type",
              "name": "pay_type_",
              "type": "uint8"
            }
          ],
          "internalType": "struct Pool.LLM_meta",
          "name": "",
          "type": "tuple"
        }
      ],
      "stateMutability": "view",
      "type": "function"
    },
    {
      "inputs": [
        {
          "internalType": "uint256",
          "name": "llm_id",
          "type": "uint256"
        }
      ],
      "name": "GetModel",
      "outputs": [
        {
          "components": [
            {
              "internalType": "uint256",
              "name": "token_id",
              "type": "uint256"
            },
            {
              "internalType": "uint256",
              "name": "author_royalty",
              "type": "uint256"
            },
            {
              "internalType": "address",
              "name": "author_wallet",
              "type": "address"
            },
            {
              "internalType": "uint256",
              "name": "hw_price_per_input_token",
              "type": "uint256"
            },
            {
              "internalType": "uint256",
              "name": "hw_price_per_output_token",
              "type": "uint256"
            },
            {
              "internalType": "enum Pool.Pay_type",
              "name": "pay_type_",
              "type": "uint8"
            }
          ],
          "internalType": "struct Pool.LLM_meta",
          "name": "",
          "type": "tuple"
        }
      ],
      "stateMutability": "view",
      "type": "function"
    },
    {
      "inputs": [
        {
          "internalType": "uint256",
          "name": "llm_id",
          "type": "uint256"
        }
      ],
      "name": "GetTotalPrice",
      "outputs": [
        {
          "internalType": "uint256",
          "name": "",
          "type": "uint256"
        }
      ],
      "stateMutability": "view",
      "type": "function"
    },
    {
      "inputs": [
        {
          "internalType": "string",
          "name": "lai_id",
          "type": "string"
        }
      ],
      "name": "GetWorkerAddress",
      "outputs": [
        {
          "internalType": "address",
          "name": "",
          "type": "address"
        }
      ],
      "stateMutability": "view",
      "type": "function"
    },
    {
      "inputs": [
        {
          "internalType": "uint256",
          "name": "llm_id",
          "type": "uint256"
        },
        {
          "internalType": "address",
          "name": "user",
          "type": "address"
        }
      ],
      "name": "Pre_request",
      "outputs": [],
      "stateMutability": "view",
      "type": "function"
    },
    {
      "inputs": [
        {
          "internalType": "uint256",
          "name": "request_id",
          "type": "uint256"
        },
        {
          "internalType": "string",
          "name": "worker_id",
          "type": "string"
        },
        {
          "internalType": "uint256",
          "name": "llm_id",
          "type": "uint256"
        },
        {
          "internalType": "uint256",
          "name": "llmInputTokens",
          "type": "uint256"
        },
        {
          "internalType": "uint256",
          "name": "llmOutputTokens",
          "type": "uint256"
        },
        {
          "internalType": "uint256",
          "name": "processingTime",
          "type": "uint256"
        }
      ],
      "name": "ProcessResponse",
      "outputs": [],
      "stateMutability": "nonpayable",
      "type": "function"
    },
    {
      "inputs": [
        {
          "internalType": "string",
          "name": "lai_public_key",
          "type": "string"
        }
      ],
      "name": "RegisterWorker",
      "outputs": [],
      "stateMutability": "nonpayable",
      "type": "function"
    },
    {
      "inputs": [
        {
          "internalType": "string",
          "name": "lai_pub_key",
          "type": "string"
        }
      ],
      "name": "Unban",
      "outputs": [],
      "stateMutability": "nonpayable",
      "type": "function"
    },
    {
      "inputs": [
        {
          "internalType": "string",
          "name": "lai_pub_key",
          "type": "string"
        }
      ],
      "name": "Unregister",
      "outputs": [],
      "stateMutability": "nonpayable",
      "type": "function"
    },
    {
      "inputs": [
        {
          "internalType": "uint256",
          "name": "llm_id",
          "type": "uint256"
        },
        {
          "internalType": "uint256",
          "name": "new_royalty",
          "type": "uint256"
        },
        {
          "internalType": "address",
          "name": "new_address",
          "type": "address"
        }
      ],
      "name": "UpdateModel",
      "outputs": [],
      "stateMutability": "nonpayable",
      "type": "function"
    },
    {
      "inputs": [
        {
          "internalType": "string",
          "name": "",
          "type": "string"
        }
      ],
      "name": "blacklist",
      "outputs": [
        {
          "internalType": "bool",
          "name": "",
          "type": "bool"
        }
      ],
      "stateMutability": "view",
      "type": "function"
    },
    {
      "inputs": [
        {
          "internalType": "string",
          "name": "",
          "type": "string"
        }
      ],
      "name": "isApproved",
      "outputs": [
        {
          "internalType": "bool",
          "name": "",
          "type": "bool"
        }
      ],
      "stateMutability": "view",
      "type": "function"
    },
    {
      "inputs": [],
      "name": "owner",
      "outputs": [
        {
          "internalType": "address",
          "name": "",
          "type": "address"
        }
      ],
      "stateMutability": "view",
      "type": "function"
    },
    {
      "inputs": [],
      "name": "renounceOwnership",
      "outputs": [],
      "stateMutability": "nonpayable",
      "type": "function"
    },
    {
      "inputs": [
        {
          "internalType": "address",
          "name": "newOwner",
          "type": "address"
        }
      ],
      "name": "transferOwnership",
      "outputs": [],
      "stateMutability": "nonpayable",
      "type": "function"
    }
  ],
  "bytecode": "0x6080604052600160035534801561001557600080fd5b506040516133403803806133408339818101604052810190610037919061026a565b33600073ffffffffffffffffffffffffffffffffffffffff168173ffffffffffffffffffffffffffffffffffffffff16036100aa5760006040517f1e4fbdf70000000000000000000000000000000000000000000000000000000081526004016100a191906102b9565b60405180910390fd5b6100b98161014360201b60201c565b5081600160006101000a81548173ffffffffffffffffffffffffffffffffffffffff021916908373ffffffffffffffffffffffffffffffffffffffff16021790555080600260006101000a81548173ffffffffffffffffffffffffffffffffffffffff021916908373ffffffffffffffffffffffffffffffffffffffff16021790555050506102d4565b60008060009054906101000a900473ffffffffffffffffffffffffffffffffffffffff169050816000806101000a81548173ffffffffffffffffffffffffffffffffffffffff021916908373ffffffffffffffffffffffffffffffffffffffff1602179055508173ffffffffffffffffffffffffffffffffffffffff168173ffffffffffffffffffffffffffffffffffffffff167f8be0079c531659141344cd1fd0a4f28419497f9722a3daafe3b4186f6b6457e060405160405180910390a35050565b600080fd5b600073ffffffffffffffffffffffffffffffffffffffff82169050919050565b60006102378261020c565b9050919050565b6102478161022c565b811461025257600080fd5b50565b6000815190506102648161023e565b92915050565b6000806040838503121561028157610280610207565b5b600061028f85828601610255565b92505060206102a085828601610255565b9150509250929050565b6102b38161022c565b82525050565b60006020820190506102ce60008301846102aa565b92915050565b61305d806102e36000396000f3fe608060405234801561001057600080fd5b50600436106101375760003560e01c806397c37d6b116100b8578063bad3191a1161007c578063bad3191a14610334578063bbfb8caa14610350578063c7567cd714610380578063f2fde38b1461039c578063f31fbc9f146103b8578063f6bd2ac8146103e857610137565b806397c37d6b146102805780639fcd8c9d146102b0578063aa389692146102cc578063ad7922d5146102e8578063b9359ea21461031857610137565b8063421d2777116100ff578063421d2777146101dc578063431f90f31461020c578063715018a6146102285780638c0233e9146102325780638da5cb5b1461026257610137565b80630e5fd6d71461013c5780631b988ce41461016c5780631e99f3491461018857806327801534146101a45780633266e290146101c0575b600080fd5b61015660048036038101906101519190611cb2565b610404565b6040516101639190611cee565b60405180910390f35b61018660048036038101906101819190611cb2565b610491565b005b6101a2600480360381019061019d9190611e4f565b6105ce565b005b6101be60048036038101906101b99190611cb2565b6107e9565b005b6101da60048036038101906101d59190611ef6565b610865565b005b6101f660048036038101906101f19190611e4f565b610a46565b6040516102039190611f58565b60405180910390f35b61022660048036038101906102219190611e4f565b610a93565b005b610230610ad5565b005b61024c60048036038101906102479190611e4f565b610ae9565b6040516102599190611f8e565b60405180910390f35b61026a610b1f565b6040516102779190611f58565b60405180910390f35b61029a60048036038101906102959190611cb2565b610b48565b6040516102a79190611cee565b60405180910390f35b6102ca60048036038101906102c59190611e4f565b610b99565b005b6102e660048036038101906102e19190611fa9565b610f1b565b005b61030260048036038101906102fd9190611cb2565b61116b565b60405161030f919061210c565b60405180910390f35b610332600480360381019061032d9190612127565b611251565b005b61034e60048036038101906103499190611e4f565b61140a565b005b61036a60048036038101906103659190611cb2565b61144c565b604051610377919061210c565b60405180910390f35b61039a60048036038101906103959190612167565b611532565b005b6103b660048036038101906103b19190612210565b611926565b005b6103d260048036038101906103cd9190611e4f565b6119ac565b6040516103df9190611f8e565b60405180910390f35b61040260048036038101906103fd9190611e4f565b6119e2565b005b60008073__$6ca259786bae6b18641118eb2a4c0483c3$__63a285b8948460646003546040518463ffffffff1660e01b815260040161044593929190612291565b602060405180830381865af4158015610462573d6000803e3d6000fd5b505050506040513d601f19601f8201168201806040525081019061048691906122dd565b905080915050919050565b600260009054906101000a900473ffffffffffffffffffffffffffffffffffffffff1673ffffffffffffffffffffffffffffffffffffffff166323b872dd3330846040518463ffffffff1660e01b81526004016104f09392919061230a565b6020604051808303816000875af115801561050f573d6000803e3d6000fd5b505050506040513d601f19601f82011682018060405250810190610533919061236d565b61053c57600080fd5b80600660003373ffffffffffffffffffffffffffffffffffffffff1673ffffffffffffffffffffffffffffffffffffffff168152602001908152602001600020600082825461058b91906123c9565b925050819055507fe1fffcc4923d04b559f4d29a8bfc6cda04eb5b0d3c460751c2402c5c5cc9109c33826040516105c39291906123fd565b60405180910390a150565b3373ffffffffffffffffffffffffffffffffffffffff166004826040516105f59190612497565b908152602001604051809103902060009054906101000a900473ffffffffffffffffffffffffffffffffffffffff1673ffffffffffffffffffffffffffffffffffffffff161461067a576040517f08c379a00000000000000000000000000000000000000000000000000000000081526004016106719061250b565b60405180910390fd5b6000600560003373ffffffffffffffffffffffffffffffffffffffff1673ffffffffffffffffffffffffffffffffffffffff168152602001908152602001600020905060005b81805490508110156107a35782805190602001208282815481106106e7576106e661252b565b5b906000526020600020016040516106fe919061265d565b60405180910390200361079657816001838054905061071d9190612674565b8154811061072e5761072d61252b565b5b9060005260206000200182828154811061074b5761074a61252b565b5b9060005260206000200190816107619190612875565b50818054806107735761077261295d565b5b60019003818190600052602060002001600061078f9190611b77565b90556107a3565b80806001019150506106c0565b506004826040516107b49190612497565b908152602001604051809103902060006101000a81549073ffffffffffffffffffffffffffffffffffffffff02191690555050565b6107f1611a24565b6009600082815260200190815260200160002060008082016000905560018201600090556002820160006101000a81549073ffffffffffffffffffffffffffffffffffffffff0219169055600382016000905560048201600090556005820160006101000a81549060ff0219169055505050565b61086d611a24565b6000600960008581526020019081526020016000206040518060c001604052908160008201548152602001600182015481526020016002820160009054906101000a900473ffffffffffffffffffffffffffffffffffffffff1673ffffffffffffffffffffffffffffffffffffffff1673ffffffffffffffffffffffffffffffffffffffff16815260200160038201548152602001600482015481526020016005820160009054906101000a900460ff1660018111156109305761092f61201a565b5b60018111156109425761094161201a565b5b8152505090508281602001818152505081816040019073ffffffffffffffffffffffffffffffffffffffff16908173ffffffffffffffffffffffffffffffffffffffff16815250508060096000868152602001908152602001600020600082015181600001556020820151816001015560408201518160020160006101000a81548173ffffffffffffffffffffffffffffffffffffffff021916908373ffffffffffffffffffffffffffffffffffffffff160217905550606082015181600301556080820151816004015560a08201518160050160006101000a81548160ff02191690836001811115610a3857610a3761201a565b5b021790555090505050505050565b600080600483604051610a599190612497565b908152602001604051809103902060009054906101000a900473ffffffffffffffffffffffffffffffffffffffff16905080915050919050565b610a9b611a24565b6001600882604051610aad9190612497565b908152602001604051809103902060006101000a81548160ff02191690831515021790555050565b610add611a24565b610ae76000611aab565b565b6007818051602081018201805184825260208301602085012081835280955050505050506000915054906101000a900460ff1681565b60008060009054906101000a900473ffffffffffffffffffffffffffffffffffffffff16905090565b600080610b548361116b565b90506000816020015190506000826060015190506000836080015190506000818385610b8091906123c9565b610b8a91906123c9565b90508095505050505050919050565b600781604051610ba99190612497565b908152602001604051809103902060009054906101000a900460ff1615610c05576040517f08c379a0000000000000000000000000000000000000000000000000000000008152600401610bfc906129d8565b60405180910390fd5b600073ffffffffffffffffffffffffffffffffffffffff16600482604051610c2d9190612497565b908152602001604051809103902060009054906101000a900473ffffffffffffffffffffffffffffffffffffffff1673ffffffffffffffffffffffffffffffffffffffff1614610cb2576040517f08c379a0000000000000000000000000000000000000000000000000000000008152600401610ca990612a44565b60405180910390fd5b6014600560003373ffffffffffffffffffffffffffffffffffffffff1673ffffffffffffffffffffffffffffffffffffffff1681526020019081526020016000208054905010610d37576040517f08c379a0000000000000000000000000000000000000000000000000000000008152600401610d2e90612ad6565b60405180910390fd5b600560003373ffffffffffffffffffffffffffffffffffffffff1673ffffffffffffffffffffffffffffffffffffffff16815260200190815260200160002081908060018154018082558091505060019003906000526020600020016000909190919091509081610da89190612af6565b5033600482604051610dba9190612497565b908152602001604051809103902060006101000a81548173ffffffffffffffffffffffffffffffffffffffff021916908373ffffffffffffffffffffffffffffffffffffffff160217905550600180811115610e1957610e1861201a565b5b600060149054906101000a900460ff166001811115610e3b57610e3a61201a565b5b03610e7c576001600882604051610e529190612497565b908152602001604051809103902060006101000a81548160ff021916908315150217905550610eb4565b6000600882604051610e8e9190612497565b908152602001604051809103902060006101000a81548160ff0219169083151502179055505b7fee06bd32f8b2583fd50c0dd94d872913c9fe17bb486e0f9d4b4865752d79efa033600883604051610ee69190612497565b908152602001604051809103902060009054906101000a900460ff16604051610f10929190612bc8565b60405180910390a150565b610f23611a24565b6000600160009054906101000a900473ffffffffffffffffffffffffffffffffffffffff1673ffffffffffffffffffffffffffffffffffffffff166340a24c67856040518263ffffffff1660e01b8152600401610f809190611cee565b600060405180830381865afa158015610f9d573d6000803e3d6000fd5b505050506040513d6000823e3d601f19601f82011682018060405250810190610fc69190612d7d565b9050610fd0611bb7565b6000808360800151905060006001811115610fee57610fed61201a565b5b8160018111156110015761100061201a565b5b0361100f5760009150611014565b600191505b818360a00190600181111561102c5761102b61201a565b5b908160018111156110405761103f61201a565b5b8152505083604001518360200181815250508360600151836040019073ffffffffffffffffffffffffffffffffffffffff16908173ffffffffffffffffffffffffffffffffffffffff16815250508683600001818152505085836060018181525050848360800181815250508260096000898152602001908152602001600020600082015181600001556020820151816001015560408201518160020160006101000a81548173ffffffffffffffffffffffffffffffffffffffff021916908373ffffffffffffffffffffffffffffffffffffffff160217905550606082015181600301556080820151816004015560a08201518160050160006101000a81548160ff0219169083600181111561115a5761115961201a565b5b021790555090505050505050505050565b611173611bb7565b600960008381526020019081526020016000206040518060c001604052908160008201548152602001600182015481526020016002820160009054906101000a900473ffffffffffffffffffffffffffffffffffffffff1673ffffffffffffffffffffffffffffffffffffffff1673ffffffffffffffffffffffffffffffffffffffff16815260200160038201548152602001600482015481526020016005820160009054906101000a900460ff1660018111156112345761123361201a565b5b60018111156112465761124561201a565b5b815250509050919050565b6000600160009054906101000a900473ffffffffffffffffffffffffffffffffffffffff1673ffffffffffffffffffffffffffffffffffffffff166340a24c67846040518263ffffffff1660e01b81526004016112ae9190611cee565b600060405180830381865afa1580156112cb573d6000803e3d6000fd5b505050506040513d6000823e3d601f19601f820116820180604052508101906112f49190612d7d565b90506000816080015190506000808360a00151905060006113148761116b565b905060008160600151905060008060018111156113345761133361201a565b5b8660018111156113475761134661201a565b5b036113635760009450818461135c9190612dc6565b9050611377565b600194506001826113749190612dc6565b90505b6000600660008a73ffffffffffffffffffffffffffffffffffffffff1673ffffffffffffffffffffffffffffffffffffffff168152602001908152602001600020549050818110156113fe576040517f08c379a00000000000000000000000000000000000000000000000000000000081526004016113f590612e7a565b60405180910390fd5b50505050505050505050565b611412611a24565b60006007826040516114249190612497565b908152602001604051809103902060006101000a81548160ff02191690831515021790555050565b611454611bb7565b600960008381526020019081526020016000206040518060c001604052908160008201548152602001600182015481526020016002820160009054906101000a900473ffffffffffffffffffffffffffffffffffffffff1673ffffffffffffffffffffffffffffffffffffffff1673ffffffffffffffffffffffffffffffffffffffff16815260200160038201548152602001600482015481526020016005820160009054906101000a900460ff1660018111156115155761151461201a565b5b60018111156115275761152661201a565b5b815250509050919050565b6007856040516115429190612497565b908152602001604051809103902060009054906101000a900460ff161561159e576040517f08c379a000000000000000000000000000000000000000000000000000000000815260040161159590612ee6565b60405180910390fd5b6008856040516115ae9190612497565b908152602001604051809103902060009054906101000a900460ff16611609576040517f08c379a000000000000000000000000000000000000000000000000000000000815260040161160090612f52565b60405180910390fd5b60006116148561116b565b905060008160a001519050611627611c15565b6000600181111561163b5761163a61201a565b5b82600181111561164e5761164d61201a565b5b036116d957848661165f91906123c9565b8160a0018181525050826060015181600001818152505082608001518160200181815250508481602001516116949190612dc6565b8682600001516116a49190612dc6565b6116ae91906123c9565b8160400181815250508060a0015183602001516116cb9190612dc6565b816080018181525050611712565b82606001518160000181815250508260200151816060018181525050806000015181604001818152505080606001518160800181815250505b600061171d89610a46565b9050600084604001519050600260009054906101000a900473ffffffffffffffffffffffffffffffffffffffff1673ffffffffffffffffffffffffffffffffffffffff1663a9059cbb8385604001516040518363ffffffff1660e01b81526004016117899291906123fd565b6020604051808303816000875af11580156117a8573d6000803e3d6000fd5b505050506040513d601f19601f820116820180604052508101906117cc919061236d565b6117d557600080fd5b600260009054906101000a900473ffffffffffffffffffffffffffffffffffffffff1673ffffffffffffffffffffffffffffffffffffffff1663a9059cbb8285608001516040518363ffffffff1660e01b81526004016118369291906123fd565b6020604051808303816000875af1158015611855573d6000803e3d6000fd5b505050506040513d601f19601f82011682018060405250810190611879919061236d565b61188257600080fd5b7fe682774c095c98275661d05ff664616a641de1592fa52e2412789919e84b01ad8b8a848b8b886080015189604001516118bc91906123c9565b8c426040516118d2989796959493929190612f72565b60405180910390a17f634235fcf5af0adbca1a405ec65f6f6c08f55e1f379c2c45cd10f23cb29e0e31828a856040015160405161191193929190612ff0565b60405180910390a15050505050505050505050565b61192e611a24565b600073ffffffffffffffffffffffffffffffffffffffff168173ffffffffffffffffffffffffffffffffffffffff16036119a05760006040517f1e4fbdf70000000000000000000000000000000000000000000000000000000081526004016119979190611f58565b60405180910390fd5b6119a981611aab565b50565b6008818051602081018201805184825260208301602085012081835280955050505050506000915054906101000a900460ff1681565b6119ea611a24565b60016007826040516119fc9190612497565b908152602001604051809103902060006101000a81548160ff02191690831515021790555050565b611a2c611b6f565b73ffffffffffffffffffffffffffffffffffffffff16611a4a610b1f565b73ffffffffffffffffffffffffffffffffffffffff1614611aa957611a6d611b6f565b6040517f118cdaa7000000000000000000000000000000000000000000000000000000008152600401611aa09190611f58565b60405180910390fd5b565b60008060009054906101000a900473ffffffffffffffffffffffffffffffffffffffff169050816000806101000a81548173ffffffffffffffffffffffffffffffffffffffff021916908373ffffffffffffffffffffffffffffffffffffffff1602179055508173ffffffffffffffffffffffffffffffffffffffff168173ffffffffffffffffffffffffffffffffffffffff167f8be0079c531659141344cd1fd0a4f28419497f9722a3daafe3b4186f6b6457e060405160405180910390a35050565b600033905090565b508054611b8390612589565b6000825580601f10611b955750611bb4565b601f016020900490600052602060002090810190611bb39190611c4b565b5b50565b6040518060c001604052806000815260200160008152602001600073ffffffffffffffffffffffffffffffffffffffff168152602001600081526020016000815260200160006001811115611c0f57611c0e61201a565b5b81525090565b6040518060c001604052806000815260200160008152602001600081526020016000815260200160008152602001600081525090565b5b80821115611c64576000816000905550600101611c4c565b5090565b6000604051905090565b600080fd5b600080fd5b6000819050919050565b611c8f81611c7c565b8114611c9a57600080fd5b50565b600081359050611cac81611c86565b92915050565b600060208284031215611cc857611cc7611c72565b5b6000611cd684828501611c9d565b91505092915050565b611ce881611c7c565b82525050565b6000602082019050611d036000830184611cdf565b92915050565b600080fd5b600080fd5b6000601f19601f8301169050919050565b7f4e487b7100000000000000000000000000000000000000000000000000000000600052604160045260246000fd5b611d5c82611d13565b810181811067ffffffffffffffff82111715611d7b57611d7a611d24565b5b80604052505050565b6000611d8e611c68565b9050611d9a8282611d53565b919050565b600067ffffffffffffffff821115611dba57611db9611d24565b5b611dc382611d13565b9050602081019050919050565b82818337600083830152505050565b6000611df2611ded84611d9f565b611d84565b905082815260208101848484011115611e0e57611e0d611d0e565b5b611e19848285611dd0565b509392505050565b600082601f830112611e3657611e35611d09565b5b8135611e46848260208601611ddf565b91505092915050565b600060208284031215611e6557611e64611c72565b5b600082013567ffffffffffffffff811115611e8357611e82611c77565b5b611e8f84828501611e21565b91505092915050565b600073ffffffffffffffffffffffffffffffffffffffff82169050919050565b6000611ec382611e98565b9050919050565b611ed381611eb8565b8114611ede57600080fd5b50565b600081359050611ef081611eca565b92915050565b600080600060608486031215611f0f57611f0e611c72565b5b6000611f1d86828701611c9d565b9350506020611f2e86828701611c9d565b9250506040611f3f86828701611ee1565b9150509250925092565b611f5281611eb8565b82525050565b6000602082019050611f6d6000830184611f49565b92915050565b60008115159050919050565b611f8881611f73565b82525050565b6000602082019050611fa36000830184611f7f565b92915050565b600080600060608486031215611fc257611fc1611c72565b5b6000611fd086828701611c9d565b9350506020611fe186828701611c9d565b9250506040611ff286828701611c9d565b9150509250925092565b61200581611c7c565b82525050565b61201481611eb8565b82525050565b7f4e487b7100000000000000000000000000000000000000000000000000000000600052602160045260246000fd5b6002811061205a5761205961201a565b5b50565b600081905061206b82612049565b919050565b600061207b8261205d565b9050919050565b61208b81612070565b82525050565b60c0820160008201516120a76000850182611ffc565b5060208201516120ba6020850182611ffc565b5060408201516120cd604085018261200b565b5060608201516120e06060850182611ffc565b5060808201516120f36080850182611ffc565b5060a082015161210660a0850182612082565b50505050565b600060c0820190506121216000830184612091565b92915050565b6000806040838503121561213e5761213d611c72565b5b600061214c85828601611c9d565b925050602061215d85828601611ee1565b9150509250929050565b60008060008060008060c0878903121561218457612183611c72565b5b600061219289828a01611c9d565b965050602087013567ffffffffffffffff8111156121b3576121b2611c77565b5b6121bf89828a01611e21565b95505060406121d089828a01611c9d565b94505060606121e189828a01611c9d565b93505060806121f289828a01611c9d565b92505060a061220389828a01611c9d565b9150509295509295509295565b60006020828403121561222657612225611c72565b5b600061223484828501611ee1565b91505092915050565b61224681611c7c565b82525050565b6000819050919050565b6000819050919050565b600061227b6122766122718461224c565b612256565b611c7c565b9050919050565b61228b81612260565b82525050565b60006060820190506122a6600083018661223d565b6122b36020830185612282565b6122c0604083018461223d565b949350505050565b6000815190506122d781611c86565b92915050565b6000602082840312156122f3576122f2611c72565b5b6000612301848285016122c8565b91505092915050565b600060608201905061231f6000830186611f49565b61232c6020830185611f49565b6123396040830184611cdf565b949350505050565b61234a81611f73565b811461235557600080fd5b50565b60008151905061236781612341565b92915050565b60006020828403121561238357612382611c72565b5b600061239184828501612358565b91505092915050565b7f4e487b7100000000000000000000000000000000000000000000000000000000600052601160045260246000fd5b60006123d482611c7c565b91506123df83611c7c565b92508282019050808211156123f7576123f661239a565b5b92915050565b60006040820190506124126000830185611f49565b61241f6020830184611cdf565b9392505050565b600081519050919050565b600081905092915050565b60005b8381101561245a57808201518184015260208101905061243f565b60008484015250505050565b600061247182612426565b61247b8185612431565b935061248b81856020860161243c565b80840191505092915050565b60006124a38284612466565b915081905092915050565b600082825260208201905092915050565b7f4e6f7420796f757220776f726b6572206b657900000000000000000000000000600082015250565b60006124f56013836124ae565b9150612500826124bf565b602082019050919050565b60006020820190508181036000830152612524816124e8565b9050919050565b7f4e487b7100000000000000000000000000000000000000000000000000000000600052603260045260246000fd5b7f4e487b7100000000000000000000000000000000000000000000000000000000600052602260045260246000fd5b600060028204905060018216806125a157607f821691505b6020821081036125b4576125b361255a565b5b50919050565b600081905092915050565b60008190508160005260206000209050919050565b600081546125e781612589565b6125f181866125ba565b9450600182166000811461260c576001811461262157612654565b60ff1983168652811515820286019350612654565b61262a856125c5565b60005b8381101561264c5781548189015260018201915060208101905061262d565b838801955050505b50505092915050565b600061266982846125da565b915081905092915050565b600061267f82611c7c565b915061268a83611c7c565b92508282039050818111156126a2576126a161239a565b5b92915050565b6000815490506126b781612589565b9050919050565b60008190508160005260206000209050919050565b60008190508160005260206000209050919050565b60006020601f8301049050919050565b600082821b905092915050565b6000600883026127357fffffffffffffffffffffffffffffffffffffffffffffffffffffffffffffffff826126f8565b61273f86836126f8565b95508019841693508086168417925050509392505050565b600061277261276d61276884611c7c565b612256565b611c7c565b9050919050565b6000819050919050565b61278c83612757565b6127a061279882612779565b848454612705565b825550505050565b600090565b6127b56127a8565b6127c0818484612783565b505050565b5b818110156127e4576127d96000826127ad565b6001810190506127c6565b5050565b601f821115612829576127fa816126be565b612803846126e8565b81016020851015612812578190505b61282661281e856126e8565b8301826127c5565b50505b505050565b600082821c905092915050565b600061284c6000198460080261282e565b1980831691505092915050565b6000612865838361283b565b9150826002028217905092915050565b81810361288357505061295b565b61288c826126a8565b67ffffffffffffffff8111156128a5576128a4611d24565b5b6128af8254612589565b6128ba8282856127e8565b6000601f8311600181146128e957600084156128d7578287015490505b6128e18582612859565b865550612954565b601f1984166128f7876126d3565b9650612902866126be565b60005b8281101561292a57848901548255600182019150600185019450602081019050612905565b868310156129475784890154612943601f89168261283b565b8355505b6001600288020188555050505b5050505050505b565b7f4e487b7100000000000000000000000000000000000000000000000000000000600052603160045260246000fd5b7f54686973206b657920697320696e20626c61636b6c6973740000000000000000600082015250565b60006129c26018836124ae565b91506129cd8261298c565b602082019050919050565b600060208201905081810360008301526129f1816129b5565b9050919050565b7f4b657920616c7265616479207265676973746572656400000000000000000000600082015250565b6000612a2e6016836124ae565b9150612a39826129f8565b602082019050919050565b60006020820190508181036000830152612a5d81612a21565b9050919050565b7f4d6178696d756d206e756d626572206f6620776f726b6572732028323029207260008201527f6561636865640000000000000000000000000000000000000000000000000000602082015250565b6000612ac06026836124ae565b9150612acb82612a64565b604082019050919050565b60006020820190508181036000830152612aef81612ab3565b9050919050565b612aff82612426565b67ffffffffffffffff811115612b1857612b17611d24565b5b612b228254612589565b612b2d8282856127e8565b600060209050601f831160018114612b605760008415612b4e578287015190505b612b588582612859565b865550612bc0565b601f198416612b6e866126be565b60005b82811015612b9657848901518255600182019150602085019450602081019050612b71565b86831015612bb35784890151612baf601f89168261283b565b8355505b6001600288020188555050505b505050505050565b6000604082019050612bdd6000830185611f49565b612bea6020830184611f7f565b9392505050565b600080fd5b600080fd5b6000612c0e612c0984611d9f565b611d84565b905082815260208101848484011115612c2a57612c29611d0e565b5b612c3584828561243c565b509392505050565b600082601f830112612c5257612c51611d09565b5b8151612c62848260208601612bfb565b91505092915050565b600081519050612c7a81611eca565b92915050565b60028110612c8d57600080fd5b50565b600081519050612c9f81612c80565b92915050565b600060c08284031215612cbb57612cba612bf1565b5b612cc560c0611d84565b9050600082015167ffffffffffffffff811115612ce557612ce4612bf6565b5b612cf184828501612c3d565b600083015250602082015167ffffffffffffffff811115612d1557612d14612bf6565b5b612d2184828501612c3d565b6020830152506040612d35848285016122c8565b6040830152506060612d4984828501612c6b565b6060830152506080612d5d84828501612c90565b60808301525060a0612d71848285016122c8565b60a08301525092915050565b600060208284031215612d9357612d92611c72565b5b600082015167ffffffffffffffff811115612db157612db0611c77565b5b612dbd84828501612ca5565b91505092915050565b6000612dd182611c7c565b9150612ddc83611c7c565b9250828202612dea81611c7c565b91508282048414831517612e0157612e0061239a565b5b5092915050565b7f757365722062616c616e63652062656c6f77206d617820636f6e74657874207760008201527f696e646f77000000000000000000000000000000000000000000000000000000602082015250565b6000612e646025836124ae565b9150612e6f82612e08565b604082019050919050565b60006020820190508181036000830152612e9381612e57565b9050919050565b7f5468697320776f726b657220697320696e20626c61636b6c6973740000000000600082015250565b6000612ed0601b836124ae565b9150612edb82612e9a565b602082019050919050565b60006020820190508181036000830152612eff81612ec3565b9050919050565b7f5468697320776f726b6572206973206e6f742079657420617070726f76656400600082015250565b6000612f3c601f836124ae565b9150612f4782612f06565b602082019050919050565b60006020820190508181036000830152612f6b81612f2f565b9050919050565b600061010082019050612f88600083018b611cdf565b612f95602083018a611cdf565b612fa26040830189611f49565b612faf6060830188611cdf565b612fbc6080830187611cdf565b612fc960a0830186611cdf565b612fd660c0830185611cdf565b612fe360e0830184611cdf565b9998505050505050505050565b60006060820190506130056000830186611f49565b6130126020830185611cdf565b61301f6040830184611cdf565b94935050505056fea26469706673582212208542328304d9561a66aed525f2fbad6b9beecb274a1e976281f27a9ff7198ff064736f6c634300081c0033",
  "linkReferences": {
    "contracts/FeesCalculator.sol": {
      "FeesCalculator": [
        {
          "length": 20,
          "start": 1772
        }
      ]
    }
  },
  "deployedLinkReferences": {
    "contracts/FeesCalculator.sol": {
      "FeesCalculator": [
        {
          "length": 20,
          "start": 1033
        }
      ]
    }
  }
}