{
  "_format": "hh-sol-artifact-1",
  "contractName": "Pool",
  "sourceName": "contracts/pool.sol",
  "abi": [
    {
      "inputs": [
        {
          "internalType": "address",
          "name": "llm_nft",
          "type": "address"
        },
        {
          "internalType": "address",
          "name": "credit_",
          "type": "address"
        },
        {
          "internalType": "address",
          "name": "hfswm_",
          "type": "address"
        }
      ],
      "stateMutability": "nonpayable",
      "type": "constructor"
    },
    {
      "inputs": [
        {
          "internalType": "address",
          "name": "owner",
          "type": "address"
        }
      ],
      "name": "OwnableInvalidOwner",
      "type": "error"
    },
    {
      "inputs": [
        {
          "internalType": "address",
          "name": "account",
          "type": "address"
        }
      ],
      "name": "OwnableUnauthorizedAccount",
      "type": "error"
    },
    {
      "anonymous": false,
      "inputs": [
        {
          "indexed": false,
          "internalType": "address",
          "name": "user",
          "type": "address"
        },
        {
          "indexed": false,
          "internalType": "uint256",
          "name": "amount",
          "type": "uint256"
        }
      ],
      "name": "Deposit",
      "type": "event"
    },
    {
      "anonymous": false,
      "inputs": [
        {
          "indexed": false,
          "internalType": "address",
          "name": "worker",
          "type": "address"
        },
        {
          "indexed": false,
          "internalType": "bool",
          "name": "isApproved",
          "type": "bool"
        }
      ],
      "name": "NewWorker",
      "type": "event"
    },
    {
      "anonymous": false,
      "inputs": [
        {
          "indexed": true,
          "internalType": "address",
          "name": "previousOwner",
          "type": "address"
        },
        {
          "indexed": true,
          "internalType": "address",
          "name": "newOwner",
          "type": "address"
        }
      ],
      "name": "OwnershipTransferred",
      "type": "event"
    },
    {
      "anonymous": false,
      "inputs": [
        {
          "indexed": false,
          "internalType": "address",
          "name": "provider",
          "type": "address"
        },
        {
          "indexed": false,
          "internalType": "uint256",
          "name": "llm_id",
          "type": "uint256"
        },
        {
          "indexed": false,
          "internalType": "uint256",
          "name": "amount",
          "type": "uint256"
        }
      ],
      "name": "Payout",
      "type": "event"
    },
    {
      "anonymous": false,
      "inputs": [
        {
          "indexed": false,
          "internalType": "uint256",
          "name": "id",
          "type": "uint256"
        },
        {
          "indexed": false,
          "internalType": "uint256",
          "name": "llm_id",
          "type": "uint256"
        },
        {
          "indexed": false,
          "internalType": "address",
          "name": "worker",
          "type": "address"
        },
        {
          "indexed": false,
          "internalType": "uint256",
          "name": "llmInputTokens",
          "type": "uint256"
        },
        {
          "indexed": false,
          "internalType": "uint256",
          "name": "llmOutputTokens",
          "type": "uint256"
        },
        {
          "indexed": false,
          "internalType": "uint256",
          "name": "cost",
          "type": "uint256"
        },
        {
          "indexed": false,
          "internalType": "uint256",
          "name": "processingTime",
          "type": "uint256"
        },
        {
          "indexed": false,
          "internalType": "uint256",
          "name": "timestamp",
          "type": "uint256"
        }
      ],
      "name": "Response",
      "type": "event"
    },
    {
      "inputs": [
        {
          "internalType": "uint256",
          "name": "token_id",
          "type": "uint256"
        },
        {
          "internalType": "uint256",
          "name": "hw_price_in",
          "type": "uint256"
        },
        {
          "internalType": "uint256",
          "name": "hw_price_out",
          "type": "uint256"
        }
      ],
      "name": "AddModel",
      "outputs": [],
      "stateMutability": "nonpayable",
      "type": "function"
    },
    {
      "inputs": [
        {
          "internalType": "address",
          "name": "addr",
          "type": "address"
        }
      ],
      "name": "AddToHFWhitelist",
      "outputs": [],
      "stateMutability": "nonpayable",
      "type": "function"
    },
    {
      "inputs": [
        {
          "internalType": "string",
          "name": "lai_public_key",
          "type": "string"
        }
      ],
      "name": "ApproveWorker",
      "outputs": [],
      "stateMutability": "nonpayable",
      "type": "function"
    },
    {
      "inputs": [
        {
          "internalType": "string",
          "name": "lai_pub_key",
          "type": "string"
        }
      ],
      "name": "Ban",
      "outputs": [],
      "stateMutability": "nonpayable",
      "type": "function"
    },
    {
      "inputs": [
        {
          "internalType": "uint256",
          "name": "hw_cost",
          "type": "uint256"
        }
      ],
      "name": "CalculateServiceFee",
      "outputs": [
        {
          "internalType": "uint256",
          "name": "",
          "type": "uint256"
        }
      ],
      "stateMutability": "view",
      "type": "function"
    },
    {
      "inputs": [
        {
          "internalType": "uint256",
          "name": "llm_id",
          "type": "uint256"
        }
      ],
      "name": "DeleteModel",
      "outputs": [],
      "stateMutability": "nonpayable",
      "type": "function"
    },
    {
      "inputs": [
        {
          "internalType": "uint256",
          "name": "amount",
          "type": "uint256"
        }
      ],
      "name": "DepositCredit",
      "outputs": [],
      "stateMutability": "nonpayable",
      "type": "function"
    },
    {
      "inputs": [
        {
          "internalType": "uint256",
          "name": "llm_id",
          "type": "uint256"
        }
      ],
      "name": "GetMetaLLM",
      "outputs": [
        {
          "components": [
            {
              "internalType": "uint256",
              "name": "token_id",
              "type": "uint256"
            },
            {
              "internalType": "uint256",
              "name": "author_royalty",
              "type": "uint256"
            },
            {
              "internalType": "address",
              "name": "author_wallet",
              "type": "address"
            },
            {
              "internalType": "uint256",
              "name": "hw_price_per_input_token",
              "type": "uint256"
            },
            {
              "internalType": "uint256",
              "name": "hw_price_per_output_token",
              "type": "uint256"
            },
            {
              "internalType": "enum Pool.Pay_type",
              "name": "pay_type_",
              "type": "uint8"
            }
          ],
          "internalType": "struct Pool.LLM_meta",
          "name": "",
          "type": "tuple"
        }
      ],
      "stateMutability": "view",
      "type": "function"
    },
    {
      "inputs": [
        {
          "internalType": "uint256",
          "name": "llm_id",
          "type": "uint256"
        }
      ],
      "name": "GetModel",
      "outputs": [
        {
          "components": [
            {
              "internalType": "uint256",
              "name": "token_id",
              "type": "uint256"
            },
            {
              "internalType": "uint256",
              "name": "author_royalty",
              "type": "uint256"
            },
            {
              "internalType": "address",
              "name": "author_wallet",
              "type": "address"
            },
            {
              "internalType": "uint256",
              "name": "hw_price_per_input_token",
              "type": "uint256"
            },
            {
              "internalType": "uint256",
              "name": "hw_price_per_output_token",
              "type": "uint256"
            },
            {
              "internalType": "enum Pool.Pay_type",
              "name": "pay_type_",
              "type": "uint8"
            }
          ],
          "internalType": "struct Pool.LLM_meta",
          "name": "",
          "type": "tuple"
        }
      ],
      "stateMutability": "view",
      "type": "function"
    },
    {
      "inputs": [
        {
          "internalType": "uint256",
          "name": "llm_id",
          "type": "uint256"
        }
      ],
      "name": "GetTotalPrice",
      "outputs": [
        {
          "internalType": "uint256",
          "name": "",
          "type": "uint256"
        }
      ],
      "stateMutability": "view",
      "type": "function"
    },
    {
      "inputs": [
        {
          "internalType": "string",
          "name": "lai_id",
          "type": "string"
        }
      ],
      "name": "GetWorkerAddress",
      "outputs": [
        {
          "internalType": "address",
          "name": "",
          "type": "address"
        }
      ],
      "stateMutability": "view",
      "type": "function"
    },
    {
      "inputs": [
        {
          "internalType": "address",
          "name": "",
          "type": "address"
        }
      ],
      "name": "HFwhitelist",
      "outputs": [
        {
          "internalType": "bool",
          "name": "",
          "type": "bool"
        }
      ],
      "stateMutability": "view",
      "type": "function"
    },
    {
      "inputs": [
        {
          "internalType": "uint256",
          "name": "llm_id",
          "type": "uint256"
        },
        {
          "internalType": "address",
          "name": "user",
          "type": "address"
        }
      ],
      "name": "Pre_request",
      "outputs": [],
      "stateMutability": "view",
      "type": "function"
    },
    {
      "inputs": [
        {
          "internalType": "uint256",
          "name": "request_id",
          "type": "uint256"
        },
        {
          "internalType": "string",
          "name": "worker_id",
          "type": "string"
        },
        {
          "internalType": "uint256",
          "name": "llm_id",
          "type": "uint256"
        },
        {
          "internalType": "uint256",
          "name": "llmInputTokens",
          "type": "uint256"
        },
        {
          "internalType": "uint256",
          "name": "llmOutputTokens",
          "type": "uint256"
        },
        {
          "internalType": "uint256",
          "name": "processingTime",
          "type": "uint256"
        }
      ],
      "name": "ProcessResponse",
      "outputs": [],
      "stateMutability": "nonpayable",
      "type": "function"
    },
    {
      "inputs": [
        {
          "internalType": "string",
          "name": "lai_public_key",
          "type": "string"
        }
      ],
      "name": "RegisterWorker",
      "outputs": [],
      "stateMutability": "nonpayable",
      "type": "function"
    },
    {
      "inputs": [
        {
          "internalType": "address",
          "name": "addr",
          "type": "address"
        }
      ],
      "name": "RemoveFromHFWhitelist",
      "outputs": [],
      "stateMutability": "nonpayable",
      "type": "function"
    },
    {
      "inputs": [
        {
          "internalType": "string",
          "name": "lai_pub_key",
          "type": "string"
        }
      ],
      "name": "Unban",
      "outputs": [],
      "stateMutability": "nonpayable",
      "type": "function"
    },
    {
      "inputs": [
        {
          "internalType": "string",
          "name": "lai_pub_key",
          "type": "string"
        }
      ],
      "name": "Unregister",
      "outputs": [],
      "stateMutability": "nonpayable",
      "type": "function"
    },
    {
      "inputs": [
        {
          "internalType": "uint256",
          "name": "llm_id",
          "type": "uint256"
        },
        {
          "internalType": "uint256",
          "name": "new_royalty",
          "type": "uint256"
        },
        {
          "internalType": "address",
          "name": "new_address",
          "type": "address"
        }
      ],
      "name": "UpdateModel",
      "outputs": [],
      "stateMutability": "nonpayable",
      "type": "function"
    },
    {
      "inputs": [
        {
          "internalType": "string",
          "name": "old_lai_pub_key",
          "type": "string"
        },
        {
          "internalType": "string",
          "name": "new_lai_pub_key",
          "type": "string"
        }
      ],
      "name": "UpdateWorker",
      "outputs": [],
      "stateMutability": "nonpayable",
      "type": "function"
    },
    {
      "inputs": [
        {
          "internalType": "string",
          "name": "",
          "type": "string"
        }
      ],
      "name": "blacklist",
      "outputs": [
        {
          "internalType": "bool",
          "name": "",
          "type": "bool"
        }
      ],
      "stateMutability": "view",
      "type": "function"
    },
    {
      "inputs": [],
      "name": "hfswm",
      "outputs": [
        {
          "internalType": "contract Cred",
          "name": "",
          "type": "address"
        }
      ],
      "stateMutability": "view",
      "type": "function"
    },
    {
      "inputs": [
        {
          "internalType": "string",
          "name": "",
          "type": "string"
        }
      ],
      "name": "isApproved",
      "outputs": [
        {
          "internalType": "bool",
          "name": "",
          "type": "bool"
        }
      ],
      "stateMutability": "view",
      "type": "function"
    },
    {
      "inputs": [],
      "name": "owner",
      "outputs": [
        {
          "internalType": "address",
          "name": "",
          "type": "address"
        }
      ],
      "stateMutability": "view",
      "type": "function"
    },
    {
      "inputs": [],
      "name": "renounceOwnership",
      "outputs": [],
      "stateMutability": "nonpayable",
      "type": "function"
    },
    {
      "inputs": [
        {
          "internalType": "address",
          "name": "newOwner",
          "type": "address"
        }
      ],
      "name": "transferOwnership",
      "outputs": [],
      "stateMutability": "nonpayable",
      "type": "function"
    }
  ],
  "bytecode": "0x6080604052600160045534801561001557600080fd5b50604051613e9d380380613e9d833981810160405281019061003791906102ac565b33600073ffffffffffffffffffffffffffffffffffffffff168173ffffffffffffffffffffffffffffffffffffffff16036100aa5760006040517f1e4fbdf70000000000000000000000000000000000000000000000000000000081526004016100a1919061030e565b60405180910390fd5b6100b98161018560201b60201c565b5082600160006101000a81548173ffffffffffffffffffffffffffffffffffffffff021916908373ffffffffffffffffffffffffffffffffffffffff16021790555081600260006101000a81548173ffffffffffffffffffffffffffffffffffffffff021916908373ffffffffffffffffffffffffffffffffffffffff16021790555080600360006101000a81548173ffffffffffffffffffffffffffffffffffffffff021916908373ffffffffffffffffffffffffffffffffffffffff160217905550505050610329565b60008060009054906101000a900473ffffffffffffffffffffffffffffffffffffffff169050816000806101000a81548173ffffffffffffffffffffffffffffffffffffffff021916908373ffffffffffffffffffffffffffffffffffffffff1602179055508173ffffffffffffffffffffffffffffffffffffffff168173ffffffffffffffffffffffffffffffffffffffff167f8be0079c531659141344cd1fd0a4f28419497f9722a3daafe3b4186f6b6457e060405160405180910390a35050565b600080fd5b600073ffffffffffffffffffffffffffffffffffffffff82169050919050565b60006102798261024e565b9050919050565b6102898161026e565b811461029457600080fd5b50565b6000815190506102a681610280565b92915050565b6000806000606084860312156102c5576102c4610249565b5b60006102d386828701610297565b93505060206102e486828701610297565b92505060406102f586828701610297565b9150509250925092565b6103088161026e565b82525050565b600060208201905061032360008301846102ff565b92915050565b613b65806103386000396000f3fe608060405234801561001057600080fd5b506004361061018d5760003560e01c80639fcd8c9d116100de578063bad3191a11610097578063e03ec51111610071578063e03ec51114610476578063f2fde38b14610494578063f31fbc9f146104b0578063f6bd2ac8146104e05761018d565b8063bad3191a1461040e578063bbfb8caa1461042a578063c7567cd71461045a5761018d565b80639fcd8c9d1461033e578063aa3896921461035a578063ad7922d514610376578063b083de54146103a6578063b9359ea2146103d6578063ba68ce9c146103f25761018d565b8063421d27771161014b5780638c0233e9116101255780638c0233e9146102a45780638da5cb5b146102d45780638f977f36146102f257806397c37d6b1461030e5761018d565b8063421d27771461024e578063431f90f31461027e578063715018a61461029a5761018d565b8062345d3d146101925780630e5fd6d7146101ae5780631b988ce4146101de5780631e99f349146101fa57806327801534146102165780633266e29014610232575b600080fd5b6101ac60048036038101906101a7919061254a565b6104fc565b005b6101c860048036038101906101c391906125ad565b61055f565b6040516101d591906125e9565b60405180910390f35b6101f860048036038101906101f391906125ad565b6105ec565b005b610214600480360381019061020f919061274a565b610729565b005b610230600480360381019061022b91906125ad565b610944565b005b61024c60048036038101906102479190612793565b6109c0565b005b6102686004803603810190610263919061274a565b610ba1565b60405161027591906127f5565b60405180910390f35b6102986004803603810190610293919061274a565b610bee565b005b6102a2610c30565b005b6102be60048036038101906102b9919061274a565b610c44565b6040516102cb919061282b565b60405180910390f35b6102dc610c7a565b6040516102e991906127f5565b60405180910390f35b61030c60048036038101906103079190612846565b610ca3565b005b610328600480360381019061032391906125ad565b6110cd565b60405161033591906125e9565b60405180910390f35b6103586004803603810190610353919061274a565b61111e565b005b610374600480360381019061036f91906128be565b6114a0565b005b610390600480360381019061038b91906125ad565b6116f0565b60405161039d9190612a21565b60405180910390f35b6103c060048036038101906103bb919061254a565b6117d6565b6040516103cd919061282b565b60405180910390f35b6103f060048036038101906103eb9190612a3c565b6117f6565b005b61040c6004803603810190610407919061254a565b6119af565b005b6104286004803603810190610423919061274a565b611a12565b005b610444600480360381019061043f91906125ad565b611a54565b6040516104519190612a21565b60405180910390f35b610474600480360381019061046f9190612a7c565b611b3a565b005b61047e612170565b60405161048b9190612b84565b60405180910390f35b6104ae60048036038101906104a9919061254a565b612196565b005b6104ca60048036038101906104c5919061274a565b61221c565b6040516104d7919061282b565b60405180910390f35b6104fa60048036038101906104f5919061274a565b612252565b005b610504612294565b6000600a60008373ffffffffffffffffffffffffffffffffffffffff1673ffffffffffffffffffffffffffffffffffffffff16815260200190815260200160002060006101000a81548160ff02191690831515021790555050565b60008073__$6ca259786bae6b18641118eb2a4c0483c3$__63a285b8948460646004546040518463ffffffff1660e01b81526004016105a093929190612be9565b602060405180830381865af41580156105bd573d6000803e3d6000fd5b505050506040513d601f19601f820116820180604052508101906105e19190612c35565b905080915050919050565b600260009054906101000a900473ffffffffffffffffffffffffffffffffffffffff1673ffffffffffffffffffffffffffffffffffffffff166323b872dd3330846040518463ffffffff1660e01b815260040161064b93929190612c62565b6020604051808303816000875af115801561066a573d6000803e3d6000fd5b505050506040513d601f19601f8201168201806040525081019061068e9190612cc5565b61069757600080fd5b80600760003373ffffffffffffffffffffffffffffffffffffffff1673ffffffffffffffffffffffffffffffffffffffff16815260200190815260200160002060008282546106e69190612d21565b925050819055507fe1fffcc4923d04b559f4d29a8bfc6cda04eb5b0d3c460751c2402c5c5cc9109c338260405161071e929190612d55565b60405180910390a150565b3373ffffffffffffffffffffffffffffffffffffffff166005826040516107509190612def565b908152602001604051809103902060009054906101000a900473ffffffffffffffffffffffffffffffffffffffff1673ffffffffffffffffffffffffffffffffffffffff16146107d5576040517f08c379a00000000000000000000000000000000000000000000000000000000081526004016107cc90612e63565b60405180910390fd5b6000600660003373ffffffffffffffffffffffffffffffffffffffff1673ffffffffffffffffffffffffffffffffffffffff168152602001908152602001600020905060005b81805490508110156108fe57828051906020012082828154811061084257610841612e83565b5b906000526020600020016040516108599190612fb5565b6040518091039020036108f15781600183805490506108789190612fcc565b8154811061088957610888612e83565b5b906000526020600020018282815481106108a6576108a5612e83565b5b9060005260206000200190816108bc91906131cd565b50818054806108ce576108cd6132b5565b5b6001900381819060005260206000200160006108ea91906123e7565b90556108fe565b808060010191505061081b565b5060058260405161090f9190612def565b908152602001604051809103902060006101000a81549073ffffffffffffffffffffffffffffffffffffffff02191690555050565b61094c612294565b600b600082815260200190815260200160002060008082016000905560018201600090556002820160006101000a81549073ffffffffffffffffffffffffffffffffffffffff0219169055600382016000905560048201600090556005820160006101000a81549060ff0219169055505050565b6109c8612294565b6000600b60008581526020019081526020016000206040518060c001604052908160008201548152602001600182015481526020016002820160009054906101000a900473ffffffffffffffffffffffffffffffffffffffff1673ffffffffffffffffffffffffffffffffffffffff1673ffffffffffffffffffffffffffffffffffffffff16815260200160038201548152602001600482015481526020016005820160009054906101000a900460ff166001811115610a8b57610a8a61292f565b5b6001811115610a9d57610a9c61292f565b5b8152505090508281602001818152505081816040019073ffffffffffffffffffffffffffffffffffffffff16908173ffffffffffffffffffffffffffffffffffffffff168152505080600b6000868152602001908152602001600020600082015181600001556020820151816001015560408201518160020160006101000a81548173ffffffffffffffffffffffffffffffffffffffff021916908373ffffffffffffffffffffffffffffffffffffffff160217905550606082015181600301556080820151816004015560a08201518160050160006101000a81548160ff02191690836001811115610b9357610b9261292f565b5b021790555090505050505050565b600080600583604051610bb49190612def565b908152602001604051809103902060009054906101000a900473ffffffffffffffffffffffffffffffffffffffff16905080915050919050565b610bf6612294565b6001600982604051610c089190612def565b908152602001604051809103902060006101000a81548160ff02191690831515021790555050565b610c38612294565b610c42600061231b565b565b6008818051602081018201805184825260208301602085012081835280955050505050506000915054906101000a900460ff1681565b60008060009054906101000a900473ffffffffffffffffffffffffffffffffffffffff16905090565b3373ffffffffffffffffffffffffffffffffffffffff16600583604051610cca9190612def565b908152602001604051809103902060009054906101000a900473ffffffffffffffffffffffffffffffffffffffff1673ffffffffffffffffffffffffffffffffffffffff1614610d4f576040517f08c379a0000000000000000000000000000000000000000000000000000000008152600401610d4690612e63565b60405180910390fd5b600073ffffffffffffffffffffffffffffffffffffffff16600582604051610d779190612def565b908152602001604051809103902060009054906101000a900473ffffffffffffffffffffffffffffffffffffffff1673ffffffffffffffffffffffffffffffffffffffff1614610dfc576040517f08c379a0000000000000000000000000000000000000000000000000000000008152600401610df390613330565b60405180910390fd5b600881604051610e0c9190612def565b908152602001604051809103902060009054906101000a900460ff1615610e68576040517f08c379a0000000000000000000000000000000000000000000000000000000008152600401610e5f9061339c565b60405180910390fd5b6000600660003373ffffffffffffffffffffffffffffffffffffffff1673ffffffffffffffffffffffffffffffffffffffff168152602001908152602001600020905060005b81805490508110156110c7578380519060200120828281548110610ed557610ed4612e83565b5b90600052602060002001604051610eec9190612fb5565b604051809103902003610f295782828281548110610f0d57610f0c612e83565b5b906000526020600020019081610f2391906133bc565b506110c7565b600584604051610f399190612def565b908152602001604051809103902060006101000a81549073ffffffffffffffffffffffffffffffffffffffff021916905533600584604051610f7b9190612def565b908152602001604051809103902060006101000a81548173ffffffffffffffffffffffffffffffffffffffff021916908373ffffffffffffffffffffffffffffffffffffffff160217905550600984604051610fd79190612def565b908152602001604051809103902060009054906101000a900460ff166009846040516110039190612def565b908152602001604051809103902060006101000a81548160ff0219169083151502179055506009846040516110389190612def565b908152602001604051809103902060006101000a81549060ff02191690557fee06bd32f8b2583fd50c0dd94d872913c9fe17bb486e0f9d4b4865752d79efa0336009856040516110889190612def565b908152602001604051809103902060009054906101000a900460ff166040516110b292919061348e565b60405180910390a18080600101915050610eae565b50505050565b6000806110d9836116f0565b905060008160200151905060008260600151905060008360800151905060008183856111059190612d21565b61110f9190612d21565b90508095505050505050919050565b60088160405161112e9190612def565b908152602001604051809103902060009054906101000a900460ff161561118a576040517f08c379a000000000000000000000000000000000000000000000000000000000815260040161118190613503565b60405180910390fd5b600073ffffffffffffffffffffffffffffffffffffffff166005826040516111b29190612def565b908152602001604051809103902060009054906101000a900473ffffffffffffffffffffffffffffffffffffffff1673ffffffffffffffffffffffffffffffffffffffff1614611237576040517f08c379a000000000000000000000000000000000000000000000000000000000815260040161122e9061356f565b60405180910390fd5b6014600660003373ffffffffffffffffffffffffffffffffffffffff1673ffffffffffffffffffffffffffffffffffffffff16815260200190815260200160002080549050106112bc576040517f08c379a00000000000000000000000000000000000000000000000000000000081526004016112b390613601565b60405180910390fd5b600660003373ffffffffffffffffffffffffffffffffffffffff1673ffffffffffffffffffffffffffffffffffffffff1681526020019081526020016000208190806001815401808255809150506001900390600052602060002001600090919091909150908161132d91906133bc565b503360058260405161133f9190612def565b908152602001604051809103902060006101000a81548173ffffffffffffffffffffffffffffffffffffffff021916908373ffffffffffffffffffffffffffffffffffffffff16021790555060018081111561139e5761139d61292f565b5b600060149054906101000a900460ff1660018111156113c0576113bf61292f565b5b036114015760016009826040516113d79190612def565b908152602001604051809103902060006101000a81548160ff021916908315150217905550611439565b60006009826040516114139190612def565b908152602001604051809103902060006101000a81548160ff0219169083151502179055505b7fee06bd32f8b2583fd50c0dd94d872913c9fe17bb486e0f9d4b4865752d79efa03360098360405161146b9190612def565b908152602001604051809103902060009054906101000a900460ff1660405161149592919061348e565b60405180910390a150565b6114a8612294565b6000600160009054906101000a900473ffffffffffffffffffffffffffffffffffffffff1673ffffffffffffffffffffffffffffffffffffffff166340a24c67856040518263ffffffff1660e01b815260040161150591906125e9565b600060405180830381865afa158015611522573d6000803e3d6000fd5b505050506040513d6000823e3d601f19601f8201168201806040525081019061154b91906137ad565b9050611555612427565b60008083608001519050600060018111156115735761157261292f565b5b8160018111156115865761158561292f565b5b036115945760009150611599565b600191505b818360a0019060018111156115b1576115b061292f565b5b908160018111156115c5576115c461292f565b5b8152505083604001518360200181815250508360600151836040019073ffffffffffffffffffffffffffffffffffffffff16908173ffffffffffffffffffffffffffffffffffffffff168152505086836000018181525050858360600181815250508483608001818152505082600b6000898152602001908152602001600020600082015181600001556020820151816001015560408201518160020160006101000a81548173ffffffffffffffffffffffffffffffffffffffff021916908373ffffffffffffffffffffffffffffffffffffffff160217905550606082015181600301556080820151816004015560a08201518160050160006101000a81548160ff021916908360018111156116df576116de61292f565b5b021790555090505050505050505050565b6116f8612427565b600b60008381526020019081526020016000206040518060c001604052908160008201548152602001600182015481526020016002820160009054906101000a900473ffffffffffffffffffffffffffffffffffffffff1673ffffffffffffffffffffffffffffffffffffffff1673ffffffffffffffffffffffffffffffffffffffff16815260200160038201548152602001600482015481526020016005820160009054906101000a900460ff1660018111156117b9576117b861292f565b5b60018111156117cb576117ca61292f565b5b815250509050919050565b600a6020528060005260406000206000915054906101000a900460ff1681565b6000600160009054906101000a900473ffffffffffffffffffffffffffffffffffffffff1673ffffffffffffffffffffffffffffffffffffffff166340a24c67846040518263ffffffff1660e01b815260040161185391906125e9565b600060405180830381865afa158015611870573d6000803e3d6000fd5b505050506040513d6000823e3d601f19601f8201168201806040525081019061189991906137ad565b90506000816080015190506000808360a00151905060006118b9876116f0565b905060008160600151905060008060018111156118d9576118d861292f565b5b8660018111156118ec576118eb61292f565b5b036119085760009450818461190191906137f6565b905061191c565b6001945060018261191991906137f6565b90505b6000600760008a73ffffffffffffffffffffffffffffffffffffffff1673ffffffffffffffffffffffffffffffffffffffff168152602001908152602001600020549050818110156119a3576040517f08c379a000000000000000000000000000000000000000000000000000000000815260040161199a906138aa565b60405180910390fd5b50505050505050505050565b6119b7612294565b6001600a60008373ffffffffffffffffffffffffffffffffffffffff1673ffffffffffffffffffffffffffffffffffffffff16815260200190815260200160002060006101000a81548160ff02191690831515021790555050565b611a1a612294565b6000600882604051611a2c9190612def565b908152602001604051809103902060006101000a81548160ff02191690831515021790555050565b611a5c612427565b600b60008381526020019081526020016000206040518060c001604052908160008201548152602001600182015481526020016002820160009054906101000a900473ffffffffffffffffffffffffffffffffffffffff1673ffffffffffffffffffffffffffffffffffffffff1673ffffffffffffffffffffffffffffffffffffffff16815260200160038201548152602001600482015481526020016005820160009054906101000a900460ff166001811115611b1d57611b1c61292f565b5b6001811115611b2f57611b2e61292f565b5b815250509050919050565b600885604051611b4a9190612def565b908152602001604051809103902060009054906101000a900460ff1615611ba6576040517f08c379a0000000000000000000000000000000000000000000000000000000008152600401611b9d90613916565b60405180910390fd5b600985604051611bb69190612def565b908152602001604051809103902060009054906101000a900460ff16611c11576040517f08c379a0000000000000000000000000000000000000000000000000000000008152600401611c0890613982565b60405180910390fd5b6000611c1c856116f0565b905060008160a001519050611c2f612485565b60006001811115611c4357611c4261292f565b5b826001811115611c5657611c5561292f565b5b03611ce1578486611c679190612d21565b8160a001818152505082606001518160000181815250508260800151816020018181525050848160200151611c9c91906137f6565b868260000151611cac91906137f6565b611cb69190612d21565b8160400181815250508060a001518360200151611cd391906137f6565b816080018181525050611d1a565b82606001518160000181815250508260200151816060018181525050806000015181604001818152505080606001518160800181815250505b6000611d2589610ba1565b9050600084604001519050600a60008373ffffffffffffffffffffffffffffffffffffffff1673ffffffffffffffffffffffffffffffffffffffff16815260200190815260200160002060009054906101000a900460ff1615611e1a57600360009054906101000a900473ffffffffffffffffffffffffffffffffffffffff1673ffffffffffffffffffffffffffffffffffffffff166340c10f198385604001516040518363ffffffff1660e01b8152600401611de3929190612d55565b600060405180830381600087803b158015611dfd57600080fd5b505af1158015611e11573d6000803e3d6000fd5b50505050611efe565b600260009054906101000a900473ffffffffffffffffffffffffffffffffffffffff1673ffffffffffffffffffffffffffffffffffffffff1663a9059cbb8385604001516040518363ffffffff1660e01b8152600401611e7b929190612d55565b6020604051808303816000875af1158015611e9a573d6000803e3d6000fd5b505050506040513d601f19601f82011682018060405250810190611ebe9190612cc5565b611efd576040517f08c379a0000000000000000000000000000000000000000000000000000000008152600401611ef4906139ee565b60405180910390fd5b5b600a60008273ffffffffffffffffffffffffffffffffffffffff1673ffffffffffffffffffffffffffffffffffffffff16815260200190815260200160002060009054906101000a900460ff1615611fe857600360009054906101000a900473ffffffffffffffffffffffffffffffffffffffff1673ffffffffffffffffffffffffffffffffffffffff166340c10f198285608001516040518363ffffffff1660e01b8152600401611fb1929190612d55565b600060405180830381600087803b158015611fcb57600080fd5b505af1158015611fdf573d6000803e3d6000fd5b505050506120cc565b600260009054906101000a900473ffffffffffffffffffffffffffffffffffffffff1673ffffffffffffffffffffffffffffffffffffffff1663a9059cbb8285608001516040518363ffffffff1660e01b8152600401612049929190612d55565b6020604051808303816000875af1158015612068573d6000803e3d6000fd5b505050506040513d601f19601f8201168201806040525081019061208c9190612cc5565b6120cb576040517f08c379a00000000000000000000000000000000000000000000000000000000081526004016120c290613a5a565b60405180910390fd5b5b7fe682774c095c98275661d05ff664616a641de1592fa52e2412789919e84b01ad8b8a848b8b886080015189604001516121069190612d21565b8c4260405161211c989796959493929190613a7a565b60405180910390a17f634235fcf5af0adbca1a405ec65f6f6c08f55e1f379c2c45cd10f23cb29e0e31828a856040015160405161215b93929190613af8565b60405180910390a15050505050505050505050565b600360009054906101000a900473ffffffffffffffffffffffffffffffffffffffff1681565b61219e612294565b600073ffffffffffffffffffffffffffffffffffffffff168173ffffffffffffffffffffffffffffffffffffffff16036122105760006040517f1e4fbdf700000000000000000000000000000000000000000000000000000000815260040161220791906127f5565b60405180910390fd5b6122198161231b565b50565b6009818051602081018201805184825260208301602085012081835280955050505050506000915054906101000a900460ff1681565b61225a612294565b600160088260405161226c9190612def565b908152602001604051809103902060006101000a81548160ff02191690831515021790555050565b61229c6123df565b73ffffffffffffffffffffffffffffffffffffffff166122ba610c7a565b73ffffffffffffffffffffffffffffffffffffffff1614612319576122dd6123df565b6040517f118cdaa700000000000000000000000000000000000000000000000000000000815260040161231091906127f5565b60405180910390fd5b565b60008060009054906101000a900473ffffffffffffffffffffffffffffffffffffffff169050816000806101000a81548173ffffffffffffffffffffffffffffffffffffffff021916908373ffffffffffffffffffffffffffffffffffffffff1602179055508173ffffffffffffffffffffffffffffffffffffffff168173ffffffffffffffffffffffffffffffffffffffff167f8be0079c531659141344cd1fd0a4f28419497f9722a3daafe3b4186f6b6457e060405160405180910390a35050565b600033905090565b5080546123f390612ee1565b6000825580601f106124055750612424565b601f01602090049060005260206000209081019061242391906124bb565b5b50565b6040518060c001604052806000815260200160008152602001600073ffffffffffffffffffffffffffffffffffffffff16815260200160008152602001600081526020016000600181111561247f5761247e61292f565b5b81525090565b6040518060c001604052806000815260200160008152602001600081526020016000815260200160008152602001600081525090565b5b808211156124d45760008160009055506001016124bc565b5090565b6000604051905090565b600080fd5b600080fd5b600073ffffffffffffffffffffffffffffffffffffffff82169050919050565b6000612517826124ec565b9050919050565b6125278161250c565b811461253257600080fd5b50565b6000813590506125448161251e565b92915050565b6000602082840312156125605761255f6124e2565b5b600061256e84828501612535565b91505092915050565b6000819050919050565b61258a81612577565b811461259557600080fd5b50565b6000813590506125a781612581565b92915050565b6000602082840312156125c3576125c26124e2565b5b60006125d184828501612598565b91505092915050565b6125e381612577565b82525050565b60006020820190506125fe60008301846125da565b92915050565b600080fd5b600080fd5b6000601f19601f8301169050919050565b7f4e487b7100000000000000000000000000000000000000000000000000000000600052604160045260246000fd5b6126578261260e565b810181811067ffffffffffffffff821117156126765761267561261f565b5b80604052505050565b60006126896124d8565b9050612695828261264e565b919050565b600067ffffffffffffffff8211156126b5576126b461261f565b5b6126be8261260e565b9050602081019050919050565b82818337600083830152505050565b60006126ed6126e88461269a565b61267f565b90508281526020810184848401111561270957612708612609565b5b6127148482856126cb565b509392505050565b600082601f83011261273157612730612604565b5b81356127418482602086016126da565b91505092915050565b6000602082840312156127605761275f6124e2565b5b600082013567ffffffffffffffff81111561277e5761277d6124e7565b5b61278a8482850161271c565b91505092915050565b6000806000606084860312156127ac576127ab6124e2565b5b60006127ba86828701612598565b93505060206127cb86828701612598565b92505060406127dc86828701612535565b9150509250925092565b6127ef8161250c565b82525050565b600060208201905061280a60008301846127e6565b92915050565b60008115159050919050565b61282581612810565b82525050565b6000602082019050612840600083018461281c565b92915050565b6000806040838503121561285d5761285c6124e2565b5b600083013567ffffffffffffffff81111561287b5761287a6124e7565b5b6128878582860161271c565b925050602083013567ffffffffffffffff8111156128a8576128a76124e7565b5b6128b48582860161271c565b9150509250929050565b6000806000606084860312156128d7576128d66124e2565b5b60006128e586828701612598565b93505060206128f686828701612598565b925050604061290786828701612598565b9150509250925092565b61291a81612577565b82525050565b6129298161250c565b82525050565b7f4e487b7100000000000000000000000000000000000000000000000000000000600052602160045260246000fd5b6002811061296f5761296e61292f565b5b50565b60008190506129808261295e565b919050565b600061299082612972565b9050919050565b6129a081612985565b82525050565b60c0820160008201516129bc6000850182612911565b5060208201516129cf6020850182612911565b5060408201516129e26040850182612920565b5060608201516129f56060850182612911565b506080820151612a086080850182612911565b5060a0820151612a1b60a0850182612997565b50505050565b600060c082019050612a3660008301846129a6565b92915050565b60008060408385031215612a5357612a526124e2565b5b6000612a6185828601612598565b9250506020612a7285828601612535565b9150509250929050565b60008060008060008060c08789031215612a9957612a986124e2565b5b6000612aa789828a01612598565b965050602087013567ffffffffffffffff811115612ac857612ac76124e7565b5b612ad489828a0161271c565b9550506040612ae589828a01612598565b9450506060612af689828a01612598565b9350506080612b0789828a01612598565b92505060a0612b1889828a01612598565b9150509295509295509295565b6000819050919050565b6000612b4a612b45612b40846124ec565b612b25565b6124ec565b9050919050565b6000612b5c82612b2f565b9050919050565b6000612b6e82612b51565b9050919050565b612b7e81612b63565b82525050565b6000602082019050612b996000830184612b75565b92915050565b612ba881612577565b82525050565b6000819050919050565b6000612bd3612bce612bc984612bae565b612b25565b612577565b9050919050565b612be381612bb8565b82525050565b6000606082019050612bfe6000830186612b9f565b612c0b6020830185612bda565b612c186040830184612b9f565b949350505050565b600081519050612c2f81612581565b92915050565b600060208284031215612c4b57612c4a6124e2565b5b6000612c5984828501612c20565b91505092915050565b6000606082019050612c7760008301866127e6565b612c8460208301856127e6565b612c9160408301846125da565b949350505050565b612ca281612810565b8114612cad57600080fd5b50565b600081519050612cbf81612c99565b92915050565b600060208284031215612cdb57612cda6124e2565b5b6000612ce984828501612cb0565b91505092915050565b7f4e487b7100000000000000000000000000000000000000000000000000000000600052601160045260246000fd5b6000612d2c82612577565b9150612d3783612577565b9250828201905080821115612d4f57612d4e612cf2565b5b92915050565b6000604082019050612d6a60008301856127e6565b612d7760208301846125da565b9392505050565b600081519050919050565b600081905092915050565b60005b83811015612db2578082015181840152602081019050612d97565b60008484015250505050565b6000612dc982612d7e565b612dd38185612d89565b9350612de3818560208601612d94565b80840191505092915050565b6000612dfb8284612dbe565b915081905092915050565b600082825260208201905092915050565b7f4e6f7420796f757220776f726b6572206b657900000000000000000000000000600082015250565b6000612e4d601383612e06565b9150612e5882612e17565b602082019050919050565b60006020820190508181036000830152612e7c81612e40565b9050919050565b7f4e487b7100000000000000000000000000000000000000000000000000000000600052603260045260246000fd5b7f4e487b7100000000000000000000000000000000000000000000000000000000600052602260045260246000fd5b60006002820490506001821680612ef957607f821691505b602082108103612f0c57612f0b612eb2565b5b50919050565b600081905092915050565b60008190508160005260206000209050919050565b60008154612f3f81612ee1565b612f498186612f12565b94506001821660008114612f645760018114612f7957612fac565b60ff1983168652811515820286019350612fac565b612f8285612f1d565b60005b83811015612fa457815481890152600182019150602081019050612f85565b838801955050505b50505092915050565b6000612fc18284612f32565b915081905092915050565b6000612fd782612577565b9150612fe283612577565b9250828203905081811115612ffa57612ff9612cf2565b5b92915050565b60008154905061300f81612ee1565b9050919050565b60008190508160005260206000209050919050565b60008190508160005260206000209050919050565b60006020601f8301049050919050565b600082821b905092915050565b60006008830261308d7fffffffffffffffffffffffffffffffffffffffffffffffffffffffffffffffff82613050565b6130978683613050565b95508019841693508086168417925050509392505050565b60006130ca6130c56130c084612577565b612b25565b612577565b9050919050565b6000819050919050565b6130e4836130af565b6130f86130f0826130d1565b84845461305d565b825550505050565b600090565b61310d613100565b6131188184846130db565b505050565b5b8181101561313c57613131600082613105565b60018101905061311e565b5050565b601f8211156131815761315281613016565b61315b84613040565b8101602085101561316a578190505b61317e61317685613040565b83018261311d565b50505b505050565b600082821c905092915050565b60006131a460001984600802613186565b1980831691505092915050565b60006131bd8383613193565b9150826002028217905092915050565b8181036131db5750506132b3565b6131e482613000565b67ffffffffffffffff8111156131fd576131fc61261f565b5b6132078254612ee1565b613212828285613140565b6000601f831160018114613241576000841561322f578287015490505b61323985826131b1565b8655506132ac565b601f19841661324f8761302b565b965061325a86613016565b60005b828110156132825784890154825560018201915060018501945060208101905061325d565b8683101561329f578489015461329b601f891682613193565b8355505b6001600288020188555050505b5050505050505b565b7f4e487b7100000000000000000000000000000000000000000000000000000000600052603160045260246000fd5b7f4e6577206b657920616c72656164792072656769737465726564000000000000600082015250565b600061331a601a83612e06565b9150613325826132e4565b602082019050919050565b600060208201905081810360008301526133498161330d565b9050919050565b7f4e6577206b657920697320626c61636b6c697374656400000000000000000000600082015250565b6000613386601683612e06565b915061339182613350565b602082019050919050565b600060208201905081810360008301526133b581613379565b9050919050565b6133c582612d7e565b67ffffffffffffffff8111156133de576133dd61261f565b5b6133e88254612ee1565b6133f3828285613140565b600060209050601f8311600181146134265760008415613414578287015190505b61341e85826131b1565b865550613486565b601f19841661343486613016565b60005b8281101561345c57848901518255600182019150602085019450602081019050613437565b868310156134795784890151613475601f891682613193565b8355505b6001600288020188555050505b505050505050565b60006040820190506134a360008301856127e6565b6134b0602083018461281c565b9392505050565b7f54686973206b657920697320696e20626c61636b6c6973740000000000000000600082015250565b60006134ed601883612e06565b91506134f8826134b7565b602082019050919050565b6000602082019050818103600083015261351c816134e0565b9050919050565b7f4b657920616c7265616479207265676973746572656400000000000000000000600082015250565b6000613559601683612e06565b915061356482613523565b602082019050919050565b600060208201905081810360008301526135888161354c565b9050919050565b7f4d6178696d756d206e756d626572206f6620776f726b6572732028323029207260008201527f6561636865640000000000000000000000000000000000000000000000000000602082015250565b60006135eb602683612e06565b91506135f68261358f565b604082019050919050565b6000602082019050818103600083015261361a816135de565b9050919050565b600080fd5b600080fd5b600061363e6136398461269a565b61267f565b90508281526020810184848401111561365a57613659612609565b5b613665848285612d94565b509392505050565b600082601f83011261368257613681612604565b5b815161369284826020860161362b565b91505092915050565b6000815190506136aa8161251e565b92915050565b600281106136bd57600080fd5b50565b6000815190506136cf816136b0565b92915050565b600060c082840312156136eb576136ea613621565b5b6136f560c061267f565b9050600082015167ffffffffffffffff81111561371557613714613626565b5b6137218482850161366d565b600083015250602082015167ffffffffffffffff81111561374557613744613626565b5b6137518482850161366d565b602083015250604061376584828501612c20565b60408301525060606137798482850161369b565b606083015250608061378d848285016136c0565b60808301525060a06137a184828501612c20565b60a08301525092915050565b6000602082840312156137c3576137c26124e2565b5b600082015167ffffffffffffffff8111156137e1576137e06124e7565b5b6137ed848285016136d5565b91505092915050565b600061380182612577565b915061380c83612577565b925082820261381a81612577565b9150828204841483151761383157613830612cf2565b5b5092915050565b7f757365722062616c616e63652062656c6f77206d617820636f6e74657874207760008201527f696e646f77000000000000000000000000000000000000000000000000000000602082015250565b6000613894602583612e06565b915061389f82613838565b604082019050919050565b600060208201905081810360008301526138c381613887565b9050919050565b7f5468697320776f726b657220697320696e20626c61636b6c6973740000000000600082015250565b6000613900601b83612e06565b915061390b826138ca565b602082019050919050565b6000602082019050818103600083015261392f816138f3565b9050919050565b7f5468697320776f726b6572206973206e6f742079657420617070726f76656400600082015250565b600061396c601f83612e06565b915061397782613936565b602082019050919050565b6000602082019050818103600083015261399b8161395f565b9050919050565b7f43726564697420746f20776f726b6572206661696c6564000000000000000000600082015250565b60006139d8601783612e06565b91506139e3826139a2565b602082019050919050565b60006020820190508181036000830152613a07816139cb565b9050919050565b7f43726564697420746f20617574686f72206661696c6564000000000000000000600082015250565b6000613a44601783612e06565b9150613a4f82613a0e565b602082019050919050565b60006020820190508181036000830152613a7381613a37565b9050919050565b600061010082019050613a90600083018b6125da565b613a9d602083018a6125da565b613aaa60408301896127e6565b613ab760608301886125da565b613ac460808301876125da565b613ad160a08301866125da565b613ade60c08301856125da565b613aeb60e08301846125da565b9998505050505050505050565b6000606082019050613b0d60008301866127e6565b613b1a60208301856125da565b613b2760408301846125da565b94935050505056fea264697066735822122008587b25117e7739d51b1f4372597d2f8460aa5e5c642035aae262594a800b7f64736f6c634300081c0033",
  "linkReferences": {
    "contracts/FeesCalculator.sol": {
      "FeesCalculator": [
        {
          "length": 20,
          "start": 2204
        }
      ]
    }
  },
  "deployedLinkReferences": {
    "contracts/FeesCalculator.sol": {
      "FeesCalculator": [
        {
          "length": 20,
          "start": 1380
        }
      ]
    }
  }
}