{
  "_format": "hh-sol-artifact-1",
  "contractName": "Pool",
  "sourceName": "contracts/pool.sol",
  "abi": [
    {
      "inputs": [
        {
          "internalType": "address",
          "name": "llm_nft",
          "type": "address"
        },
        {
          "internalType": "address",
          "name": "credit_",
          "type": "address"
        },
        {
          "internalType": "address",
          "name": "hfswm_",
          "type": "address"
        }
      ],
      "stateMutability": "nonpayable",
      "type": "constructor"
    },
    {
      "inputs": [
        {
          "internalType": "address",
          "name": "owner",
          "type": "address"
        }
      ],
      "name": "OwnableInvalidOwner",
      "type": "error"
    },
    {
      "inputs": [
        {
          "internalType": "address",
          "name": "account",
          "type": "address"
        }
      ],
      "name": "OwnableUnauthorizedAccount",
      "type": "error"
    },
    {
      "anonymous": false,
      "inputs": [
        {
          "indexed": false,
          "internalType": "address",
          "name": "user",
          "type": "address"
        },
        {
          "indexed": false,
          "internalType": "uint256",
          "name": "amount",
          "type": "uint256"
        }
      ],
      "name": "Deposit",
      "type": "event"
    },
    {
      "anonymous": false,
      "inputs": [
        {
          "indexed": false,
          "internalType": "uint256",
          "name": "token_id",
          "type": "uint256"
        },
        {
          "indexed": false,
          "internalType": "uint256",
          "name": "author_royalty",
          "type": "uint256"
        },
        {
          "indexed": false,
          "internalType": "address",
          "name": "author_wallet",
          "type": "address"
        },
        {
          "indexed": false,
          "internalType": "uint256",
          "name": "hw_price_per_input_token",
          "type": "uint256"
        },
        {
          "indexed": false,
          "internalType": "uint256",
          "name": "hw_price_per_output_token",
          "type": "uint256"
        },
        {
          "indexed": false,
          "internalType": "enum Pool.Pay_type",
          "name": "pay_type_",
          "type": "uint8"
        }
      ],
      "name": "ModelAdded",
      "type": "event"
    },
    {
      "anonymous": false,
      "inputs": [
        {
          "indexed": false,
          "internalType": "uint256",
          "name": "token_id",
          "type": "uint256"
        },
        {
          "indexed": false,
          "internalType": "uint256",
          "name": "author_royalty",
          "type": "uint256"
        },
        {
          "indexed": false,
          "internalType": "address",
          "name": "author_wallet",
          "type": "address"
        },
        {
          "indexed": false,
          "internalType": "uint256",
          "name": "hw_price_per_input_token",
          "type": "uint256"
        },
        {
          "indexed": false,
          "internalType": "uint256",
          "name": "hw_price_per_output_token",
          "type": "uint256"
        },
        {
          "indexed": false,
          "internalType": "enum Pool.Pay_type",
          "name": "pay_type_",
          "type": "uint8"
        }
      ],
      "name": "ModelDeleted",
      "type": "event"
    },
    {
      "anonymous": false,
      "inputs": [
        {
          "indexed": false,
          "internalType": "address",
          "name": "worker",
          "type": "address"
        },
        {
          "indexed": false,
          "internalType": "bool",
          "name": "isApproved",
          "type": "bool"
        }
      ],
      "name": "NewWorker",
      "type": "event"
    },
    {
      "anonymous": false,
      "inputs": [
        {
          "indexed": true,
          "internalType": "address",
          "name": "previousOwner",
          "type": "address"
        },
        {
          "indexed": true,
          "internalType": "address",
          "name": "newOwner",
          "type": "address"
        }
      ],
      "name": "OwnershipTransferred",
      "type": "event"
    },
    {
      "anonymous": false,
      "inputs": [
        {
          "indexed": false,
          "internalType": "address",
          "name": "provider",
          "type": "address"
        },
        {
          "indexed": false,
          "internalType": "uint256",
          "name": "llm_id",
          "type": "uint256"
        },
        {
          "indexed": false,
          "internalType": "uint256",
          "name": "amount",
          "type": "uint256"
        }
      ],
      "name": "Payout",
      "type": "event"
    },
    {
      "anonymous": false,
      "inputs": [
        {
          "indexed": false,
          "internalType": "uint256",
          "name": "id",
          "type": "uint256"
        },
        {
          "indexed": false,
          "internalType": "uint256",
          "name": "llm_id",
          "type": "uint256"
        },
        {
          "indexed": false,
          "internalType": "address",
          "name": "worker",
          "type": "address"
        },
        {
          "indexed": false,
          "internalType": "uint256",
          "name": "llmInputTokens",
          "type": "uint256"
        },
        {
          "indexed": false,
          "internalType": "uint256",
          "name": "llmOutputTokens",
          "type": "uint256"
        },
        {
          "indexed": false,
          "internalType": "uint256",
          "name": "cost",
          "type": "uint256"
        },
        {
          "indexed": false,
          "internalType": "uint256",
          "name": "processingTime",
          "type": "uint256"
        },
        {
          "indexed": false,
          "internalType": "uint256",
          "name": "timestamp",
          "type": "uint256"
        }
      ],
      "name": "Response",
      "type": "event"
    },
    {
      "inputs": [
        {
          "internalType": "uint256",
          "name": "token_id",
          "type": "uint256"
        },
        {
          "internalType": "uint256",
          "name": "hw_price_in",
          "type": "uint256"
        },
        {
          "internalType": "uint256",
          "name": "hw_price_out",
          "type": "uint256"
        }
      ],
      "name": "AddModel",
      "outputs": [],
      "stateMutability": "nonpayable",
      "type": "function"
    },
    {
      "inputs": [
        {
          "internalType": "address",
          "name": "addr",
          "type": "address"
        }
      ],
      "name": "AddToHFWhitelist",
      "outputs": [],
      "stateMutability": "nonpayable",
      "type": "function"
    },
    {
      "inputs": [
        {
          "internalType": "string",
          "name": "lai_public_key",
          "type": "string"
        }
      ],
      "name": "ApproveWorker",
      "outputs": [],
      "stateMutability": "nonpayable",
      "type": "function"
    },
    {
      "inputs": [
        {
          "internalType": "string",
          "name": "lai_pub_key",
          "type": "string"
        }
      ],
      "name": "Ban",
      "outputs": [],
      "stateMutability": "nonpayable",
      "type": "function"
    },
    {
      "inputs": [
        {
          "internalType": "uint256",
          "name": "hw_cost",
          "type": "uint256"
        }
      ],
      "name": "CalculateServiceFee",
      "outputs": [
        {
          "internalType": "uint256",
          "name": "",
          "type": "uint256"
        }
      ],
      "stateMutability": "view",
      "type": "function"
    },
    {
      "inputs": [
        {
          "internalType": "uint256",
          "name": "llm_id",
          "type": "uint256"
        }
      ],
      "name": "DeleteModel",
      "outputs": [],
      "stateMutability": "nonpayable",
      "type": "function"
    },
    {
      "inputs": [
        {
          "internalType": "uint256",
          "name": "amount",
          "type": "uint256"
        }
      ],
      "name": "DepositCredit",
      "outputs": [],
      "stateMutability": "nonpayable",
      "type": "function"
    },
    {
      "inputs": [
        {
          "internalType": "uint256",
          "name": "llm_id",
          "type": "uint256"
        }
      ],
      "name": "GetMetaLLM",
      "outputs": [
        {
          "components": [
            {
              "internalType": "uint256",
              "name": "token_id",
              "type": "uint256"
            },
            {
              "internalType": "uint256",
              "name": "author_royalty",
              "type": "uint256"
            },
            {
              "internalType": "address",
              "name": "author_wallet",
              "type": "address"
            },
            {
              "internalType": "uint256",
              "name": "hw_price_per_input_token",
              "type": "uint256"
            },
            {
              "internalType": "uint256",
              "name": "hw_price_per_output_token",
              "type": "uint256"
            },
            {
              "internalType": "enum Pool.Pay_type",
              "name": "pay_type_",
              "type": "uint8"
            }
          ],
          "internalType": "struct Pool.LLM_meta",
          "name": "",
          "type": "tuple"
        }
      ],
      "stateMutability": "view",
      "type": "function"
    },
    {
      "inputs": [
        {
          "internalType": "uint256",
          "name": "llm_id",
          "type": "uint256"
        }
      ],
      "name": "GetModel",
      "outputs": [
        {
          "components": [
            {
              "internalType": "uint256",
              "name": "token_id",
              "type": "uint256"
            },
            {
              "internalType": "uint256",
              "name": "author_royalty",
              "type": "uint256"
            },
            {
              "internalType": "address",
              "name": "author_wallet",
              "type": "address"
            },
            {
              "internalType": "uint256",
              "name": "hw_price_per_input_token",
              "type": "uint256"
            },
            {
              "internalType": "uint256",
              "name": "hw_price_per_output_token",
              "type": "uint256"
            },
            {
              "internalType": "enum Pool.Pay_type",
              "name": "pay_type_",
              "type": "uint8"
            }
          ],
          "internalType": "struct Pool.LLM_meta",
          "name": "",
          "type": "tuple"
        }
      ],
      "stateMutability": "view",
      "type": "function"
    },
    {
      "inputs": [
        {
          "internalType": "uint256",
          "name": "llm_id",
          "type": "uint256"
        }
      ],
      "name": "GetTotalPrice",
      "outputs": [
        {
          "internalType": "uint256",
          "name": "",
          "type": "uint256"
        }
      ],
      "stateMutability": "view",
      "type": "function"
    },
    {
      "inputs": [
        {
          "internalType": "address",
          "name": "user",
          "type": "address"
        }
      ],
      "name": "GetUserBalance",
      "outputs": [
        {
          "internalType": "uint256",
          "name": "",
          "type": "uint256"
        }
      ],
      "stateMutability": "view",
      "type": "function"
    },
    {
      "inputs": [
        {
          "internalType": "string",
          "name": "lai_id",
          "type": "string"
        }
      ],
      "name": "GetWorkerAddress",
      "outputs": [
        {
          "internalType": "address",
          "name": "",
          "type": "address"
        }
      ],
      "stateMutability": "view",
      "type": "function"
    },
    {
      "inputs": [
        {
          "internalType": "address",
          "name": "",
          "type": "address"
        }
      ],
      "name": "HFwhitelist",
      "outputs": [
        {
          "internalType": "bool",
          "name": "",
          "type": "bool"
        }
      ],
      "stateMutability": "view",
      "type": "function"
    },
    {
      "inputs": [
        {
          "internalType": "uint256",
          "name": "llm_id",
          "type": "uint256"
        },
        {
          "internalType": "address",
          "name": "user",
          "type": "address"
        }
      ],
      "name": "Pre_request",
      "outputs": [],
      "stateMutability": "view",
      "type": "function"
    },
    {
      "inputs": [
        {
          "internalType": "uint256",
          "name": "request_id",
          "type": "uint256"
        },
        {
          "internalType": "string",
          "name": "worker_id",
          "type": "string"
        },
        {
          "internalType": "uint256",
          "name": "llm_id",
          "type": "uint256"
        },
        {
          "internalType": "uint256",
          "name": "llmInputTokens",
          "type": "uint256"
        },
        {
          "internalType": "uint256",
          "name": "llmOutputTokens",
          "type": "uint256"
        },
        {
          "internalType": "uint256",
          "name": "processingTime",
          "type": "uint256"
        },
        {
          "internalType": "address",
          "name": "user",
          "type": "address"
        },
        {
          "internalType": "uint256",
          "name": "pics",
          "type": "uint256"
        }
      ],
      "name": "ProcessResponse",
      "outputs": [],
      "stateMutability": "nonpayable",
      "type": "function"
    },
    {
      "inputs": [
        {
          "internalType": "string",
          "name": "lai_public_key",
          "type": "string"
        }
      ],
      "name": "RegisterWorker",
      "outputs": [],
      "stateMutability": "nonpayable",
      "type": "function"
    },
    {
      "inputs": [
        {
          "internalType": "address",
          "name": "addr",
          "type": "address"
        }
      ],
      "name": "RemoveFromHFWhitelist",
      "outputs": [],
      "stateMutability": "nonpayable",
      "type": "function"
    },
    {
      "inputs": [
        {
          "internalType": "string",
          "name": "lai_pub_key",
          "type": "string"
        }
      ],
      "name": "Unban",
      "outputs": [],
      "stateMutability": "nonpayable",
      "type": "function"
    },
    {
      "inputs": [
        {
          "internalType": "string",
          "name": "lai_pub_key",
          "type": "string"
        }
      ],
      "name": "Unregister",
      "outputs": [],
      "stateMutability": "nonpayable",
      "type": "function"
    },
    {
      "inputs": [
        {
          "internalType": "uint256",
          "name": "llm_id",
          "type": "uint256"
        },
        {
          "internalType": "uint256",
          "name": "new_royalty",
          "type": "uint256"
        },
        {
          "internalType": "address",
          "name": "new_address",
          "type": "address"
        }
      ],
      "name": "UpdateModel",
      "outputs": [],
      "stateMutability": "nonpayable",
      "type": "function"
    },
    {
      "inputs": [
        {
          "internalType": "string",
          "name": "old_lai_pub_key",
          "type": "string"
        },
        {
          "internalType": "string",
          "name": "new_lai_pub_key",
          "type": "string"
        }
      ],
      "name": "UpdateWorker",
      "outputs": [],
      "stateMutability": "nonpayable",
      "type": "function"
    },
    {
      "inputs": [
        {
          "internalType": "string",
          "name": "",
          "type": "string"
        }
      ],
      "name": "blacklist",
      "outputs": [
        {
          "internalType": "bool",
          "name": "",
          "type": "bool"
        }
      ],
      "stateMutability": "view",
      "type": "function"
    },
    {
      "inputs": [],
      "name": "hfswm",
      "outputs": [
        {
          "internalType": "contract HFSWM",
          "name": "",
          "type": "address"
        }
      ],
      "stateMutability": "view",
      "type": "function"
    },
    {
      "inputs": [
        {
          "internalType": "string",
          "name": "",
          "type": "string"
        }
      ],
      "name": "isApproved",
      "outputs": [
        {
          "internalType": "bool",
          "name": "",
          "type": "bool"
        }
      ],
      "stateMutability": "view",
      "type": "function"
    },
    {
      "inputs": [],
      "name": "owner",
      "outputs": [
        {
          "internalType": "address",
          "name": "",
          "type": "address"
        }
      ],
      "stateMutability": "view",
      "type": "function"
    },
    {
      "inputs": [],
      "name": "renounceOwnership",
      "outputs": [],
      "stateMutability": "nonpayable",
      "type": "function"
    },
    {
      "inputs": [
        {
          "internalType": "address",
          "name": "newOwner",
          "type": "address"
        }
      ],
      "name": "transferOwnership",
      "outputs": [],
      "stateMutability": "nonpayable",
      "type": "function"
    },
    {
      "inputs": [
        {
          "internalType": "address",
          "name": "",
          "type": "address"
        }
      ],
      "name": "userBalances",
      "outputs": [
        {
          "internalType": "uint256",
          "name": "",
          "type": "uint256"
        }
      ],
      "stateMutability": "view",
      "type": "function"
    }
  ],
  "bytecode": "0x6080604052600160045534801561001557600080fd5b50604051614430380380614430833981810160405281019061003791906102ac565b33600073ffffffffffffffffffffffffffffffffffffffff168173ffffffffffffffffffffffffffffffffffffffff16036100aa5760006040517f1e4fbdf70000000000000000000000000000000000000000000000000000000081526004016100a1919061030e565b60405180910390fd5b6100b98161018560201b60201c565b5082600160006101000a81548173ffffffffffffffffffffffffffffffffffffffff021916908373ffffffffffffffffffffffffffffffffffffffff16021790555081600260006101000a81548173ffffffffffffffffffffffffffffffffffffffff021916908373ffffffffffffffffffffffffffffffffffffffff16021790555080600360006101000a81548173ffffffffffffffffffffffffffffffffffffffff021916908373ffffffffffffffffffffffffffffffffffffffff160217905550505050610329565b60008060009054906101000a900473ffffffffffffffffffffffffffffffffffffffff169050816000806101000a81548173ffffffffffffffffffffffffffffffffffffffff021916908373ffffffffffffffffffffffffffffffffffffffff1602179055508173ffffffffffffffffffffffffffffffffffffffff168173ffffffffffffffffffffffffffffffffffffffff167f8be0079c531659141344cd1fd0a4f28419497f9722a3daafe3b4186f6b6457e060405160405180910390a35050565b600080fd5b600073ffffffffffffffffffffffffffffffffffffffff82169050919050565b60006102798261024e565b9050919050565b6102898161026e565b811461029457600080fd5b50565b6000815190506102a681610280565b92915050565b6000806000606084860312156102c5576102c4610249565b5b60006102d386828701610297565b93505060206102e486828701610297565b92505060406102f586828701610297565b9150509250925092565b6103088161026e565b82525050565b600060208201905061032360008301846102ff565b92915050565b6140f8806103386000396000f3fe608060405234801561001057600080fd5b50600436106101c35760003560e01c80639fcd8c9d116100f9578063bad3191a11610097578063e03ec51111610071578063e03ec5111461050c578063f2fde38b1461052a578063f31fbc9f14610546578063f6bd2ac814610576576101c3565b8063bad3191a146104a4578063bbfb8caa146104c0578063be8412dd146104f0576101c3565b8063ad7922d5116100d3578063ad7922d51461040c578063b083de541461043c578063b9359ea21461046c578063ba68ce9c14610488576101c3565b80639fcd8c9d146103a4578063a5449632146103c0578063aa389692146103f0576101c3565b8063421d2777116101665780638c0233e9116101405780638c0233e91461030a5780638da5cb5b1461033a5780638f977f361461035857806397c37d6b14610374576101c3565b8063421d2777146102b4578063431f90f3146102e4578063715018a614610300576101c3565b80631e99f349116101a25780631e99f3491461023057806326224c641461024c578063278015341461027c5780633266e29014610298576101c3565b8062345d3d146101c85780630e5fd6d7146101e45780631b988ce414610214575b600080fd5b6101e260048036038101906101dd9190612926565b610592565b005b6101fe60048036038101906101f99190612989565b6105f5565b60405161020b91906129c5565b60405180910390f35b61022e60048036038101906102299190612989565b610682565b005b61024a60048036038101906102459190612b26565b6107f5565b005b61026660048036038101906102619190612926565b610a10565b60405161027391906129c5565b60405180910390f35b61029660048036038101906102919190612989565b610a28565b005b6102b260048036038101906102ad9190612b6f565b610bd9565b005b6102ce60048036038101906102c99190612b26565b610dba565b6040516102db9190612bd1565b60405180910390f35b6102fe60048036038101906102f99190612b26565b610e07565b005b610308610e49565b005b610324600480360381019061031f9190612b26565b610e5d565b6040516103319190612c07565b60405180910390f35b610342610e93565b60405161034f9190612bd1565b60405180910390f35b610372600480360381019061036d9190612c22565b610ebc565b005b61038e60048036038101906103899190612989565b61132c565b60405161039b91906129c5565b60405180910390f35b6103be60048036038101906103b99190612b26565b61137d565b005b6103da60048036038101906103d59190612926565b6116ff565b6040516103e791906129c5565b60405180910390f35b61040a60048036038101906104059190612c9a565b611748565b005b61042660048036038101906104219190612989565b6119f1565b6040516104339190612dfd565b60405180910390f35b61045660048036038101906104519190612926565b611ad7565b6040516104639190612c07565b60405180910390f35b61048660048036038101906104819190612e18565b611af7565b005b6104a2600480360381019061049d9190612926565b611ca0565b005b6104be60048036038101906104b99190612b26565b611d03565b005b6104da60048036038101906104d59190612989565b611d45565b6040516104e79190612dfd565b60405180910390f35b61050a60048036038101906105059190612e58565b611e2b565b005b61051461254c565b6040516105219190612f89565b60405180910390f35b610544600480360381019061053f9190612926565b612572565b005b610560600480360381019061055b9190612b26565b6125f8565b60405161056d9190612c07565b60405180910390f35b610590600480360381019061058b9190612b26565b61262e565b005b61059a612670565b6000600960008373ffffffffffffffffffffffffffffffffffffffff1673ffffffffffffffffffffffffffffffffffffffff16815260200190815260200160002060006101000a81548160ff02191690831515021790555050565b60008073__$6ca259786bae6b18641118eb2a4c0483c3$__63a285b8948460646004546040518463ffffffff1660e01b815260040161063693929190612fee565b602060405180830381865af4158015610653573d6000803e3d6000fd5b505050506040513d601f19601f82011682018060405250810190610677919061303a565b905080915050919050565b600260009054906101000a900473ffffffffffffffffffffffffffffffffffffffff1673ffffffffffffffffffffffffffffffffffffffff166323b872dd3330846040518463ffffffff1660e01b81526004016106e193929190613067565b6020604051808303816000875af1158015610700573d6000803e3d6000fd5b505050506040513d601f19601f8201168201806040525081019061072491906130ca565b610763576040517f08c379a000000000000000000000000000000000000000000000000000000000815260040161075a90613154565b60405180910390fd5b80600a60003373ffffffffffffffffffffffffffffffffffffffff1673ffffffffffffffffffffffffffffffffffffffff16815260200190815260200160002060008282546107b291906131a3565b925050819055507fe1fffcc4923d04b559f4d29a8bfc6cda04eb5b0d3c460751c2402c5c5cc9109c33826040516107ea9291906131d7565b60405180910390a150565b3373ffffffffffffffffffffffffffffffffffffffff1660058260405161081c9190613271565b908152602001604051809103902060009054906101000a900473ffffffffffffffffffffffffffffffffffffffff1673ffffffffffffffffffffffffffffffffffffffff16146108a1576040517f08c379a0000000000000000000000000000000000000000000000000000000008152600401610898906132d4565b60405180910390fd5b6000600660003373ffffffffffffffffffffffffffffffffffffffff1673ffffffffffffffffffffffffffffffffffffffff168152602001908152602001600020905060005b81805490508110156109ca57828051906020012082828154811061090e5761090d6132f4565b5b906000526020600020016040516109259190613426565b6040518091039020036109bd578160018380549050610944919061343d565b81548110610955576109546132f4565b5b90600052602060002001828281548110610972576109716132f4565b5b906000526020600020019081610988919061363e565b508180548061099a57610999613726565b5b6001900381819060005260206000200160006109b691906127c3565b90556109ca565b80806001019150506108e7565b506005826040516109db9190613271565b908152602001604051809103902060006101000a81549073ffffffffffffffffffffffffffffffffffffffff02191690555050565b600a6020528060005260406000206000915090505481565b610a30612670565b6000600b60008381526020019081526020016000206040518060c001604052908160008201548152602001600182015481526020016002820160009054906101000a900473ffffffffffffffffffffffffffffffffffffffff1673ffffffffffffffffffffffffffffffffffffffff1673ffffffffffffffffffffffffffffffffffffffff16815260200160038201548152602001600482015481526020016005820160009054906101000a900460ff166001811115610af357610af2612d0b565b5b6001811115610b0557610b04612d0b565b5b8152505090507f924a056de7a704512283f1bd09f837beb9678cf115c251a5c732016a5cdfa599816000015182602001518360400151846060015185608001518660a00151604051610b5c96959493929190613764565b60405180910390a1600b600083815260200190815260200160002060008082016000905560018201600090556002820160006101000a81549073ffffffffffffffffffffffffffffffffffffffff0219169055600382016000905560048201600090556005820160006101000a81549060ff021916905550505050565b610be1612670565b6000600b60008581526020019081526020016000206040518060c001604052908160008201548152602001600182015481526020016002820160009054906101000a900473ffffffffffffffffffffffffffffffffffffffff1673ffffffffffffffffffffffffffffffffffffffff1673ffffffffffffffffffffffffffffffffffffffff16815260200160038201548152602001600482015481526020016005820160009054906101000a900460ff166001811115610ca457610ca3612d0b565b5b6001811115610cb657610cb5612d0b565b5b8152505090508281602001818152505081816040019073ffffffffffffffffffffffffffffffffffffffff16908173ffffffffffffffffffffffffffffffffffffffff168152505080600b6000868152602001908152602001600020600082015181600001556020820151816001015560408201518160020160006101000a81548173ffffffffffffffffffffffffffffffffffffffff021916908373ffffffffffffffffffffffffffffffffffffffff160217905550606082015181600301556080820151816004015560a08201518160050160006101000a81548160ff02191690836001811115610dac57610dab612d0b565b5b021790555090505050505050565b600080600583604051610dcd9190613271565b908152602001604051809103902060009054906101000a900473ffffffffffffffffffffffffffffffffffffffff16905080915050919050565b610e0f612670565b6001600882604051610e219190613271565b908152602001604051809103902060006101000a81548160ff02191690831515021790555050565b610e51612670565b610e5b60006126f7565b565b6007818051602081018201805184825260208301602085012081835280955050505050506000915054906101000a900460ff1681565b60008060009054906101000a900473ffffffffffffffffffffffffffffffffffffffff16905090565b3373ffffffffffffffffffffffffffffffffffffffff16600583604051610ee39190613271565b908152602001604051809103902060009054906101000a900473ffffffffffffffffffffffffffffffffffffffff1673ffffffffffffffffffffffffffffffffffffffff1614610f68576040517f08c379a0000000000000000000000000000000000000000000000000000000008152600401610f5f906132d4565b60405180910390fd5b600073ffffffffffffffffffffffffffffffffffffffff16600582604051610f909190613271565b908152602001604051809103902060009054906101000a900473ffffffffffffffffffffffffffffffffffffffff1673ffffffffffffffffffffffffffffffffffffffff1614611015576040517f08c379a000000000000000000000000000000000000000000000000000000000815260040161100c90613811565b60405180910390fd5b6007816040516110259190613271565b908152602001604051809103902060009054906101000a900460ff1615611081576040517f08c379a00000000000000000000000000000000000000000000000000000000081526004016110789061387d565b60405180910390fd5b6000600660003373ffffffffffffffffffffffffffffffffffffffff1673ffffffffffffffffffffffffffffffffffffffff16815260200190815260200160002090506000805b82805490508110156111545784805190602001208382815481106110ef576110ee6132f4565b5b906000526020600020016040516111069190613426565b6040518091039020036111475783838281548110611127576111266132f4565b5b90600052602060002001908161113d919061389d565b5060019150611154565b80806001019150506110c8565b5080611195576040517f08c379a000000000000000000000000000000000000000000000000000000000815260040161118c906139bb565b60405180910390fd5b6005846040516111a59190613271565b908152602001604051809103902060006101000a81549073ffffffffffffffffffffffffffffffffffffffff0219169055336005846040516111e79190613271565b908152602001604051809103902060006101000a81548173ffffffffffffffffffffffffffffffffffffffff021916908373ffffffffffffffffffffffffffffffffffffffff1602179055506008846040516112439190613271565b908152602001604051809103902060009054906101000a900460ff1660088460405161126f9190613271565b908152602001604051809103902060006101000a81548160ff0219169083151502179055506008846040516112a49190613271565b908152602001604051809103902060006101000a81549060ff02191690557fee06bd32f8b2583fd50c0dd94d872913c9fe17bb486e0f9d4b4865752d79efa0336008856040516112f49190613271565b908152602001604051809103902060009054906101000a900460ff1660405161131e9291906139db565b60405180910390a150505050565b600080611338836119f1565b9050600081602001519050600082606001519050600083608001519050600081838561136491906131a3565b61136e91906131a3565b90508095505050505050919050565b60078160405161138d9190613271565b908152602001604051809103902060009054906101000a900460ff16156113e9576040517f08c379a00000000000000000000000000000000000000000000000000000000081526004016113e090613a50565b60405180910390fd5b600073ffffffffffffffffffffffffffffffffffffffff166005826040516114119190613271565b908152602001604051809103902060009054906101000a900473ffffffffffffffffffffffffffffffffffffffff1673ffffffffffffffffffffffffffffffffffffffff1614611496576040517f08c379a000000000000000000000000000000000000000000000000000000000815260040161148d90613abc565b60405180910390fd5b6014600660003373ffffffffffffffffffffffffffffffffffffffff1673ffffffffffffffffffffffffffffffffffffffff168152602001908152602001600020805490501061151b576040517f08c379a000000000000000000000000000000000000000000000000000000000815260040161151290613b4e565b60405180910390fd5b600660003373ffffffffffffffffffffffffffffffffffffffff1673ffffffffffffffffffffffffffffffffffffffff1681526020019081526020016000208190806001815401808255809150506001900390600052602060002001600090919091909150908161158c919061389d565b503360058260405161159e9190613271565b908152602001604051809103902060006101000a81548173ffffffffffffffffffffffffffffffffffffffff021916908373ffffffffffffffffffffffffffffffffffffffff1602179055506001808111156115fd576115fc612d0b565b5b600060149054906101000a900460ff16600181111561161f5761161e612d0b565b5b036116605760016008826040516116369190613271565b908152602001604051809103902060006101000a81548160ff021916908315150217905550611698565b60006008826040516116729190613271565b908152602001604051809103902060006101000a81548160ff0219169083151502179055505b7fee06bd32f8b2583fd50c0dd94d872913c9fe17bb486e0f9d4b4865752d79efa0336008836040516116ca9190613271565b908152602001604051809103902060009054906101000a900460ff166040516116f49291906139db565b60405180910390a150565b6000600a60008373ffffffffffffffffffffffffffffffffffffffff1673ffffffffffffffffffffffffffffffffffffffff168152602001908152602001600020549050919050565b611750612670565b6000600160009054906101000a900473ffffffffffffffffffffffffffffffffffffffff1673ffffffffffffffffffffffffffffffffffffffff166340a24c67856040518263ffffffff1660e01b81526004016117ad91906129c5565b600060405180830381865afa1580156117ca573d6000803e3d6000fd5b505050506040513d6000823e3d601f19601f820116820180604052508101906117f39190613cfa565b90506117fd612803565b600080836080015190506000600181111561181b5761181a612d0b565b5b81600181111561182e5761182d612d0b565b5b0361183c5760009150611841565b600191505b818360a00190600181111561185957611858612d0b565b5b9081600181111561186d5761186c612d0b565b5b8152505083604001518360200181815250508360600151836040019073ffffffffffffffffffffffffffffffffffffffff16908173ffffffffffffffffffffffffffffffffffffffff168152505086836000018181525050858360600181815250508483608001818152505082600b6000898152602001908152602001600020600082015181600001556020820151816001015560408201518160020160006101000a81548173ffffffffffffffffffffffffffffffffffffffff021916908373ffffffffffffffffffffffffffffffffffffffff160217905550606082015181600301556080820151816004015560a08201518160050160006101000a81548160ff0219169083600181111561198757611986612d0b565b5b02179055509050507f680ef5512c0efece5e242d0aa029587efcc5cf586176be0f4bf9ad68aa341243836000015184602001518560400151866060015187608001518860a001516040516119e096959493929190613764565b60405180910390a150505050505050565b6119f9612803565b600b60008381526020019081526020016000206040518060c001604052908160008201548152602001600182015481526020016002820160009054906101000a900473ffffffffffffffffffffffffffffffffffffffff1673ffffffffffffffffffffffffffffffffffffffff1673ffffffffffffffffffffffffffffffffffffffff16815260200160038201548152602001600482015481526020016005820160009054906101000a900460ff166001811115611aba57611ab9612d0b565b5b6001811115611acc57611acb612d0b565b5b815250509050919050565b60096020528060005260406000206000915054906101000a900460ff1681565b6000600160009054906101000a900473ffffffffffffffffffffffffffffffffffffffff1673ffffffffffffffffffffffffffffffffffffffff166340a24c67846040518263ffffffff1660e01b8152600401611b5491906129c5565b600060405180830381865afa158015611b71573d6000803e3d6000fd5b505050506040513d6000823e3d601f19601f82011682018060405250810190611b9a9190613cfa565b905060008160800151905060008260a0015190506000611bb9866119f1565b90506000816060015190506000806001811115611bd957611bd8612d0b565b5b856001811115611bec57611beb612d0b565b5b03611c04578184611bfd9190613d43565b9050611c14565b600182611c119190613d43565b90505b80600a60008973ffffffffffffffffffffffffffffffffffffffff1673ffffffffffffffffffffffffffffffffffffffff168152602001908152602001600020541015611c96576040517f08c379a0000000000000000000000000000000000000000000000000000000008152600401611c8d90613dd1565b60405180910390fd5b5050505050505050565b611ca8612670565b6001600960008373ffffffffffffffffffffffffffffffffffffffff1673ffffffffffffffffffffffffffffffffffffffff16815260200190815260200160002060006101000a81548160ff02191690831515021790555050565b611d0b612670565b6000600782604051611d1d9190613271565b908152602001604051809103902060006101000a81548160ff02191690831515021790555050565b611d4d612803565b600b60008381526020019081526020016000206040518060c001604052908160008201548152602001600182015481526020016002820160009054906101000a900473ffffffffffffffffffffffffffffffffffffffff1673ffffffffffffffffffffffffffffffffffffffff1673ffffffffffffffffffffffffffffffffffffffff16815260200160038201548152602001600482015481526020016005820160009054906101000a900460ff166001811115611e0e57611e0d612d0b565b5b6001811115611e2057611e1f612d0b565b5b815250509050919050565b600787604051611e3b9190613271565b908152602001604051809103902060009054906101000a900460ff1615611e97576040517f08c379a0000000000000000000000000000000000000000000000000000000008152600401611e8e90613e3d565b60405180910390fd5b600887604051611ea79190613271565b908152602001604051809103902060009054906101000a900460ff16611f02576040517f08c379a0000000000000000000000000000000000000000000000000000000008152600401611ef990613ea9565b60405180910390fd5b6000611f0d876119f1565b905060008160a001519050611f20612861565b60006001811115611f3457611f33612d0b565b5b826001811115611f4757611f46612d0b565b5b03611fd2578688611f5891906131a3565b8160a001818152505082606001518160000181815250508260800151816020018181525050868160200151611f8d9190613d43565b888260000151611f9d9190613d43565b611fa791906131a3565b8160400181815250508060a001518360200151611fc49190613d43565b816080018181525050612016565b82606001518160000181815250508260200151816060018181525050838160000151611ffe9190613d43565b81604001818152505080606001518160800181815250505b60008160800151826040015161202c91906131a3565b905080600a60008873ffffffffffffffffffffffffffffffffffffffff1673ffffffffffffffffffffffffffffffffffffffff1681526020019081526020016000205410156120b0576040517f08c379a00000000000000000000000000000000000000000000000000000000081526004016120a790613f15565b60405180910390fd5b80600a60008873ffffffffffffffffffffffffffffffffffffffff1673ffffffffffffffffffffffffffffffffffffffff16815260200190815260200160002060008282546120ff919061343d565b9250508190555060006121118c610dba565b9050600085604001519050600960008373ffffffffffffffffffffffffffffffffffffffff1673ffffffffffffffffffffffffffffffffffffffff16815260200190815260200160002060009054906101000a900460ff161561220657600360009054906101000a900473ffffffffffffffffffffffffffffffffffffffff1673ffffffffffffffffffffffffffffffffffffffff166340c10f198386604001516040518363ffffffff1660e01b81526004016121cf9291906131d7565b600060405180830381600087803b1580156121e957600080fd5b505af11580156121fd573d6000803e3d6000fd5b505050506122ea565b600260009054906101000a900473ffffffffffffffffffffffffffffffffffffffff1673ffffffffffffffffffffffffffffffffffffffff1663a9059cbb8386604001516040518363ffffffff1660e01b81526004016122679291906131d7565b6020604051808303816000875af1158015612286573d6000803e3d6000fd5b505050506040513d601f19601f820116820180604052508101906122aa91906130ca565b6122e9576040517f08c379a00000000000000000000000000000000000000000000000000000000081526004016122e090613f81565b60405180910390fd5b5b600960008273ffffffffffffffffffffffffffffffffffffffff1673ffffffffffffffffffffffffffffffffffffffff16815260200190815260200160002060009054906101000a900460ff16156123d457600360009054906101000a900473ffffffffffffffffffffffffffffffffffffffff1673ffffffffffffffffffffffffffffffffffffffff166340c10f198286608001516040518363ffffffff1660e01b815260040161239d9291906131d7565b600060405180830381600087803b1580156123b757600080fd5b505af11580156123cb573d6000803e3d6000fd5b505050506124b8565b600260009054906101000a900473ffffffffffffffffffffffffffffffffffffffff1673ffffffffffffffffffffffffffffffffffffffff1663a9059cbb8286608001516040518363ffffffff1660e01b81526004016124359291906131d7565b6020604051808303816000875af1158015612454573d6000803e3d6000fd5b505050506040513d601f19601f8201168201806040525081019061247891906130ca565b6124b7576040517f08c379a00000000000000000000000000000000000000000000000000000000081526004016124ae90613fed565b60405180910390fd5b5b7fe682774c095c98275661d05ff664616a641de1592fa52e2412789919e84b01ad8e8d848e8e888f426040516124f598979695949392919061400d565b60405180910390a17f634235fcf5af0adbca1a405ec65f6f6c08f55e1f379c2c45cd10f23cb29e0e31828d86604001516040516125349392919061408b565b60405180910390a15050505050505050505050505050565b600360009054906101000a900473ffffffffffffffffffffffffffffffffffffffff1681565b61257a612670565b600073ffffffffffffffffffffffffffffffffffffffff168173ffffffffffffffffffffffffffffffffffffffff16036125ec5760006040517f1e4fbdf70000000000000000000000000000000000000000000000000000000081526004016125e39190612bd1565b60405180910390fd5b6125f5816126f7565b50565b6008818051602081018201805184825260208301602085012081835280955050505050506000915054906101000a900460ff1681565b612636612670565b60016007826040516126489190613271565b908152602001604051809103902060006101000a81548160ff02191690831515021790555050565b6126786127bb565b73ffffffffffffffffffffffffffffffffffffffff16612696610e93565b73ffffffffffffffffffffffffffffffffffffffff16146126f5576126b96127bb565b6040517f118cdaa70000000000000000000000000000000000000000000000000000000081526004016126ec9190612bd1565b60405180910390fd5b565b60008060009054906101000a900473ffffffffffffffffffffffffffffffffffffffff169050816000806101000a81548173ffffffffffffffffffffffffffffffffffffffff021916908373ffffffffffffffffffffffffffffffffffffffff1602179055508173ffffffffffffffffffffffffffffffffffffffff168173ffffffffffffffffffffffffffffffffffffffff167f8be0079c531659141344cd1fd0a4f28419497f9722a3daafe3b4186f6b6457e060405160405180910390a35050565b600033905090565b5080546127cf90613352565b6000825580601f106127e15750612800565b601f0160209004906000526020600020908101906127ff9190612897565b5b50565b6040518060c001604052806000815260200160008152602001600073ffffffffffffffffffffffffffffffffffffffff16815260200160008152602001600081526020016000600181111561285b5761285a612d0b565b5b81525090565b6040518060c001604052806000815260200160008152602001600081526020016000815260200160008152602001600081525090565b5b808211156128b0576000816000905550600101612898565b5090565b6000604051905090565b600080fd5b600080fd5b600073ffffffffffffffffffffffffffffffffffffffff82169050919050565b60006128f3826128c8565b9050919050565b612903816128e8565b811461290e57600080fd5b50565b600081359050612920816128fa565b92915050565b60006020828403121561293c5761293b6128be565b5b600061294a84828501612911565b91505092915050565b6000819050919050565b61296681612953565b811461297157600080fd5b50565b6000813590506129838161295d565b92915050565b60006020828403121561299f5761299e6128be565b5b60006129ad84828501612974565b91505092915050565b6129bf81612953565b82525050565b60006020820190506129da60008301846129b6565b92915050565b600080fd5b600080fd5b6000601f19601f8301169050919050565b7f4e487b7100000000000000000000000000000000000000000000000000000000600052604160045260246000fd5b612a33826129ea565b810181811067ffffffffffffffff82111715612a5257612a516129fb565b5b80604052505050565b6000612a656128b4565b9050612a718282612a2a565b919050565b600067ffffffffffffffff821115612a9157612a906129fb565b5b612a9a826129ea565b9050602081019050919050565b82818337600083830152505050565b6000612ac9612ac484612a76565b612a5b565b905082815260208101848484011115612ae557612ae46129e5565b5b612af0848285612aa7565b509392505050565b600082601f830112612b0d57612b0c6129e0565b5b8135612b1d848260208601612ab6565b91505092915050565b600060208284031215612b3c57612b3b6128be565b5b600082013567ffffffffffffffff811115612b5a57612b596128c3565b5b612b6684828501612af8565b91505092915050565b600080600060608486031215612b8857612b876128be565b5b6000612b9686828701612974565b9350506020612ba786828701612974565b9250506040612bb886828701612911565b9150509250925092565b612bcb816128e8565b82525050565b6000602082019050612be66000830184612bc2565b92915050565b60008115159050919050565b612c0181612bec565b82525050565b6000602082019050612c1c6000830184612bf8565b92915050565b60008060408385031215612c3957612c386128be565b5b600083013567ffffffffffffffff811115612c5757612c566128c3565b5b612c6385828601612af8565b925050602083013567ffffffffffffffff811115612c8457612c836128c3565b5b612c9085828601612af8565b9150509250929050565b600080600060608486031215612cb357612cb26128be565b5b6000612cc186828701612974565b9350506020612cd286828701612974565b9250506040612ce386828701612974565b9150509250925092565b612cf681612953565b82525050565b612d05816128e8565b82525050565b7f4e487b7100000000000000000000000000000000000000000000000000000000600052602160045260246000fd5b60028110612d4b57612d4a612d0b565b5b50565b6000819050612d5c82612d3a565b919050565b6000612d6c82612d4e565b9050919050565b612d7c81612d61565b82525050565b60c082016000820151612d986000850182612ced565b506020820151612dab6020850182612ced565b506040820151612dbe6040850182612cfc565b506060820151612dd16060850182612ced565b506080820151612de46080850182612ced565b5060a0820151612df760a0850182612d73565b50505050565b600060c082019050612e126000830184612d82565b92915050565b60008060408385031215612e2f57612e2e6128be565b5b6000612e3d85828601612974565b9250506020612e4e85828601612911565b9150509250929050565b600080600080600080600080610100898b031215612e7957612e786128be565b5b6000612e878b828c01612974565b985050602089013567ffffffffffffffff811115612ea857612ea76128c3565b5b612eb48b828c01612af8565b9750506040612ec58b828c01612974565b9650506060612ed68b828c01612974565b9550506080612ee78b828c01612974565b94505060a0612ef88b828c01612974565b93505060c0612f098b828c01612911565b92505060e0612f1a8b828c01612974565b9150509295985092959890939650565b6000819050919050565b6000612f4f612f4a612f45846128c8565b612f2a565b6128c8565b9050919050565b6000612f6182612f34565b9050919050565b6000612f7382612f56565b9050919050565b612f8381612f68565b82525050565b6000602082019050612f9e6000830184612f7a565b92915050565b612fad81612953565b82525050565b6000819050919050565b6000612fd8612fd3612fce84612fb3565b612f2a565b612953565b9050919050565b612fe881612fbd565b82525050565b60006060820190506130036000830186612fa4565b6130106020830185612fdf565b61301d6040830184612fa4565b949350505050565b6000815190506130348161295d565b92915050565b6000602082840312156130505761304f6128be565b5b600061305e84828501613025565b91505092915050565b600060608201905061307c6000830186612bc2565b6130896020830185612bc2565b61309660408301846129b6565b949350505050565b6130a781612bec565b81146130b257600080fd5b50565b6000815190506130c48161309e565b92915050565b6000602082840312156130e0576130df6128be565b5b60006130ee848285016130b5565b91505092915050565b600082825260208201905092915050565b7f5472616e73666572206661696c65640000000000000000000000000000000000600082015250565b600061313e600f836130f7565b915061314982613108565b602082019050919050565b6000602082019050818103600083015261316d81613131565b9050919050565b7f4e487b7100000000000000000000000000000000000000000000000000000000600052601160045260246000fd5b60006131ae82612953565b91506131b983612953565b92508282019050808211156131d1576131d0613174565b5b92915050565b60006040820190506131ec6000830185612bc2565b6131f960208301846129b6565b9392505050565b600081519050919050565b600081905092915050565b60005b83811015613234578082015181840152602081019050613219565b60008484015250505050565b600061324b82613200565b613255818561320b565b9350613265818560208601613216565b80840191505092915050565b600061327d8284613240565b915081905092915050565b7f4e6f7420796f757220776f726b6572206b657900000000000000000000000000600082015250565b60006132be6013836130f7565b91506132c982613288565b602082019050919050565b600060208201905081810360008301526132ed816132b1565b9050919050565b7f4e487b7100000000000000000000000000000000000000000000000000000000600052603260045260246000fd5b7f4e487b7100000000000000000000000000000000000000000000000000000000600052602260045260246000fd5b6000600282049050600182168061336a57607f821691505b60208210810361337d5761337c613323565b5b50919050565b600081905092915050565b60008190508160005260206000209050919050565b600081546133b081613352565b6133ba8186613383565b945060018216600081146133d557600181146133ea5761341d565b60ff198316865281151582028601935061341d565b6133f38561338e565b60005b83811015613415578154818901526001820191506020810190506133f6565b838801955050505b50505092915050565b600061343282846133a3565b915081905092915050565b600061344882612953565b915061345383612953565b925082820390508181111561346b5761346a613174565b5b92915050565b60008154905061348081613352565b9050919050565b60008190508160005260206000209050919050565b60008190508160005260206000209050919050565b60006020601f8301049050919050565b600082821b905092915050565b6000600883026134fe7fffffffffffffffffffffffffffffffffffffffffffffffffffffffffffffffff826134c1565b61350886836134c1565b95508019841693508086168417925050509392505050565b600061353b61353661353184612953565b612f2a565b612953565b9050919050565b6000819050919050565b61355583613520565b61356961356182613542565b8484546134ce565b825550505050565b600090565b61357e613571565b61358981848461354c565b505050565b5b818110156135ad576135a2600082613576565b60018101905061358f565b5050565b601f8211156135f2576135c381613487565b6135cc846134b1565b810160208510156135db578190505b6135ef6135e7856134b1565b83018261358e565b50505b505050565b600082821c905092915050565b6000613615600019846008026135f7565b1980831691505092915050565b600061362e8383613604565b9150826002028217905092915050565b81810361364c575050613724565b61365582613471565b67ffffffffffffffff81111561366e5761366d6129fb565b5b6136788254613352565b6136838282856135b1565b6000601f8311600181146136b257600084156136a0578287015490505b6136aa8582613622565b86555061371d565b601f1984166136c08761349c565b96506136cb86613487565b60005b828110156136f3578489015482556001820191506001850194506020810190506136ce565b86831015613710578489015461370c601f891682613604565b8355505b6001600288020188555050505b5050505050505b565b7f4e487b7100000000000000000000000000000000000000000000000000000000600052603160045260246000fd5b61375e81612d61565b82525050565b600060c08201905061377960008301896129b6565b61378660208301886129b6565b6137936040830187612bc2565b6137a060608301866129b6565b6137ad60808301856129b6565b6137ba60a0830184613755565b979650505050505050565b7f4e6577206b657920616c72656164792072656769737465726564000000000000600082015250565b60006137fb601a836130f7565b9150613806826137c5565b602082019050919050565b6000602082019050818103600083015261382a816137ee565b9050919050565b7f4e6577206b657920697320626c61636b6c697374656400000000000000000000600082015250565b60006138676016836130f7565b915061387282613831565b602082019050919050565b600060208201905081810360008301526138968161385a565b9050919050565b6138a682613200565b67ffffffffffffffff8111156138bf576138be6129fb565b5b6138c98254613352565b6138d48282856135b1565b600060209050601f83116001811461390757600084156138f5578287015190505b6138ff8582613622565b865550613967565b601f19841661391586613487565b60005b8281101561393d57848901518255600182019150602085019450602081019050613918565b8683101561395a5784890151613956601f891682613604565b8355505b6001600288020188555050505b505050505050565b7f4f6c64206b6579206e6f7420666f756e64000000000000000000000000000000600082015250565b60006139a56011836130f7565b91506139b08261396f565b602082019050919050565b600060208201905081810360008301526139d481613998565b9050919050565b60006040820190506139f06000830185612bc2565b6139fd6020830184612bf8565b9392505050565b7f54686973206b657920697320696e20626c61636b6c6973740000000000000000600082015250565b6000613a3a6018836130f7565b9150613a4582613a04565b602082019050919050565b60006020820190508181036000830152613a6981613a2d565b9050919050565b7f4b657920616c7265616479207265676973746572656400000000000000000000600082015250565b6000613aa66016836130f7565b9150613ab182613a70565b602082019050919050565b60006020820190508181036000830152613ad581613a99565b9050919050565b7f4d6178696d756d206e756d626572206f6620776f726b6572732028323029207260008201527f6561636865640000000000000000000000000000000000000000000000000000602082015250565b6000613b386026836130f7565b9150613b4382613adc565b604082019050919050565b60006020820190508181036000830152613b6781613b2b565b9050919050565b600080fd5b600080fd5b6000613b8b613b8684612a76565b612a5b565b905082815260208101848484011115613ba757613ba66129e5565b5b613bb2848285613216565b509392505050565b600082601f830112613bcf57613bce6129e0565b5b8151613bdf848260208601613b78565b91505092915050565b600081519050613bf7816128fa565b92915050565b60028110613c0a57600080fd5b50565b600081519050613c1c81613bfd565b92915050565b600060c08284031215613c3857613c37613b6e565b5b613c4260c0612a5b565b9050600082015167ffffffffffffffff811115613c6257613c61613b73565b5b613c6e84828501613bba565b600083015250602082015167ffffffffffffffff811115613c9257613c91613b73565b5b613c9e84828501613bba565b6020830152506040613cb284828501613025565b6040830152506060613cc684828501613be8565b6060830152506080613cda84828501613c0d565b60808301525060a0613cee84828501613025565b60a08301525092915050565b600060208284031215613d1057613d0f6128be565b5b600082015167ffffffffffffffff811115613d2e57613d2d6128c3565b5b613d3a84828501613c22565b91505092915050565b6000613d4e82612953565b9150613d5983612953565b9250828202613d6781612953565b91508282048414831517613d7e57613d7d613174565b5b5092915050565b7f496e73756666696369656e74206465706f73697465642062616c616e63650000600082015250565b6000613dbb601e836130f7565b9150613dc682613d85565b602082019050919050565b60006020820190508181036000830152613dea81613dae565b9050919050565b7f5468697320776f726b657220697320696e20626c61636b6c6973740000000000600082015250565b6000613e27601b836130f7565b9150613e3282613df1565b602082019050919050565b60006020820190508181036000830152613e5681613e1a565b9050919050565b7f5468697320776f726b6572206973206e6f742079657420617070726f76656400600082015250565b6000613e93601f836130f7565b9150613e9e82613e5d565b602082019050919050565b60006020820190508181036000830152613ec281613e86565b9050919050565b7f4e6f7420656e6f756768206465706f73697465642062616c616e636500000000600082015250565b6000613eff601c836130f7565b9150613f0a82613ec9565b602082019050919050565b60006020820190508181036000830152613f2e81613ef2565b9050919050565b7f43726564697420746f20776f726b6572206661696c6564000000000000000000600082015250565b6000613f6b6017836130f7565b9150613f7682613f35565b602082019050919050565b60006020820190508181036000830152613f9a81613f5e565b9050919050565b7f43726564697420746f20617574686f72206661696c6564000000000000000000600082015250565b6000613fd76017836130f7565b9150613fe282613fa1565b602082019050919050565b6000602082019050818103600083015261400681613fca565b9050919050565b600061010082019050614023600083018b6129b6565b614030602083018a6129b6565b61403d6040830189612bc2565b61404a60608301886129b6565b61405760808301876129b6565b61406460a08301866129b6565b61407160c08301856129b6565b61407e60e08301846129b6565b9998505050505050505050565b60006060820190506140a06000830186612bc2565b6140ad60208301856129b6565b6140ba60408301846129b6565b94935050505056fea264697066735822122007b17aca18cb831c5bc7ce8f5ea09144dee5cada339ab4391feec18ec6f65f3864736f6c634300081c0033",
  "linkReferences": {
    "contracts/FeesCalculator.sol": {
      "FeesCalculator": [
        {
          "length": 20,
          "start": 2354
        }
      ]
    }
  },
  "deployedLinkReferences": {
    "contracts/FeesCalculator.sol": {
      "FeesCalculator": [
        {
          "length": 20,
          "start": 1530
        }
      ]
    }
  }
}