{
  "_format": "hh-sol-artifact-1",
  "contractName": "Pool",
  "sourceName": "contracts/pool.sol",
  "abi": [
    {
      "inputs": [
        {
          "internalType": "address",
          "name": "llm_nft",
          "type": "address"
        },
        {
          "internalType": "address",
          "name": "credit_",
          "type": "address"
        },
        {
          "internalType": "address",
          "name": "hfswm_",
          "type": "address"
        }
      ],
      "stateMutability": "nonpayable",
      "type": "constructor"
    },
    {
      "inputs": [
        {
          "internalType": "address",
          "name": "owner",
          "type": "address"
        }
      ],
      "name": "OwnableInvalidOwner",
      "type": "error"
    },
    {
      "inputs": [
        {
          "internalType": "address",
          "name": "account",
          "type": "address"
        }
      ],
      "name": "OwnableUnauthorizedAccount",
      "type": "error"
    },
    {
      "anonymous": false,
      "inputs": [
        {
          "indexed": false,
          "internalType": "address",
          "name": "user",
          "type": "address"
        },
        {
          "indexed": false,
          "internalType": "uint256",
          "name": "amount",
          "type": "uint256"
        }
      ],
      "name": "Deposit",
      "type": "event"
    },
    {
      "anonymous": false,
      "inputs": [
        {
          "indexed": false,
          "internalType": "address",
          "name": "worker",
          "type": "address"
        },
        {
          "indexed": false,
          "internalType": "bool",
          "name": "isApproved",
          "type": "bool"
        }
      ],
      "name": "NewWorker",
      "type": "event"
    },
    {
      "anonymous": false,
      "inputs": [
        {
          "indexed": true,
          "internalType": "address",
          "name": "previousOwner",
          "type": "address"
        },
        {
          "indexed": true,
          "internalType": "address",
          "name": "newOwner",
          "type": "address"
        }
      ],
      "name": "OwnershipTransferred",
      "type": "event"
    },
    {
      "anonymous": false,
      "inputs": [
        {
          "indexed": false,
          "internalType": "address",
          "name": "provider",
          "type": "address"
        },
        {
          "indexed": false,
          "internalType": "uint256",
          "name": "llm_id",
          "type": "uint256"
        },
        {
          "indexed": false,
          "internalType": "uint256",
          "name": "amount",
          "type": "uint256"
        }
      ],
      "name": "Payout",
      "type": "event"
    },
    {
      "anonymous": false,
      "inputs": [
        {
          "indexed": false,
          "internalType": "uint256",
          "name": "id",
          "type": "uint256"
        },
        {
          "indexed": false,
          "internalType": "uint256",
          "name": "llm_id",
          "type": "uint256"
        },
        {
          "indexed": false,
          "internalType": "address",
          "name": "worker",
          "type": "address"
        },
        {
          "indexed": false,
          "internalType": "uint256",
          "name": "llmInputTokens",
          "type": "uint256"
        },
        {
          "indexed": false,
          "internalType": "uint256",
          "name": "llmOutputTokens",
          "type": "uint256"
        },
        {
          "indexed": false,
          "internalType": "uint256",
          "name": "cost",
          "type": "uint256"
        },
        {
          "indexed": false,
          "internalType": "uint256",
          "name": "processingTime",
          "type": "uint256"
        },
        {
          "indexed": false,
          "internalType": "uint256",
          "name": "timestamp",
          "type": "uint256"
        }
      ],
      "name": "Response",
      "type": "event"
    },
    {
      "inputs": [
        {
          "internalType": "uint256",
          "name": "token_id",
          "type": "uint256"
        },
        {
          "internalType": "uint256",
          "name": "hw_price_in",
          "type": "uint256"
        },
        {
          "internalType": "uint256",
          "name": "hw_price_out",
          "type": "uint256"
        }
      ],
      "name": "AddModel",
      "outputs": [],
      "stateMutability": "nonpayable",
      "type": "function"
    },
    {
      "inputs": [
        {
          "internalType": "address",
          "name": "addr",
          "type": "address"
        }
      ],
      "name": "AddToHFWhitelist",
      "outputs": [],
      "stateMutability": "nonpayable",
      "type": "function"
    },
    {
      "inputs": [
        {
          "internalType": "string",
          "name": "lai_public_key",
          "type": "string"
        }
      ],
      "name": "ApproveWorker",
      "outputs": [],
      "stateMutability": "nonpayable",
      "type": "function"
    },
    {
      "inputs": [
        {
          "internalType": "string",
          "name": "lai_pub_key",
          "type": "string"
        }
      ],
      "name": "Ban",
      "outputs": [],
      "stateMutability": "nonpayable",
      "type": "function"
    },
    {
      "inputs": [
        {
          "internalType": "uint256",
          "name": "hw_cost",
          "type": "uint256"
        }
      ],
      "name": "CalculateServiceFee",
      "outputs": [
        {
          "internalType": "uint256",
          "name": "",
          "type": "uint256"
        }
      ],
      "stateMutability": "view",
      "type": "function"
    },
    {
      "inputs": [
        {
          "internalType": "uint256",
          "name": "llm_id",
          "type": "uint256"
        }
      ],
      "name": "DeleteModel",
      "outputs": [],
      "stateMutability": "nonpayable",
      "type": "function"
    },
    {
      "inputs": [
        {
          "internalType": "uint256",
          "name": "amount",
          "type": "uint256"
        }
      ],
      "name": "DepositCredit",
      "outputs": [],
      "stateMutability": "nonpayable",
      "type": "function"
    },
    {
      "inputs": [
        {
          "internalType": "uint256",
          "name": "llm_id",
          "type": "uint256"
        }
      ],
      "name": "GetMetaLLM",
      "outputs": [
        {
          "components": [
            {
              "internalType": "uint256",
              "name": "token_id",
              "type": "uint256"
            },
            {
              "internalType": "uint256",
              "name": "author_royalty",
              "type": "uint256"
            },
            {
              "internalType": "address",
              "name": "author_wallet",
              "type": "address"
            },
            {
              "internalType": "uint256",
              "name": "hw_price_per_input_token",
              "type": "uint256"
            },
            {
              "internalType": "uint256",
              "name": "hw_price_per_output_token",
              "type": "uint256"
            },
            {
              "internalType": "enum Pool.Pay_type",
              "name": "pay_type_",
              "type": "uint8"
            }
          ],
          "internalType": "struct Pool.LLM_meta",
          "name": "",
          "type": "tuple"
        }
      ],
      "stateMutability": "view",
      "type": "function"
    },
    {
      "inputs": [
        {
          "internalType": "uint256",
          "name": "llm_id",
          "type": "uint256"
        }
      ],
      "name": "GetModel",
      "outputs": [
        {
          "components": [
            {
              "internalType": "uint256",
              "name": "token_id",
              "type": "uint256"
            },
            {
              "internalType": "uint256",
              "name": "author_royalty",
              "type": "uint256"
            },
            {
              "internalType": "address",
              "name": "author_wallet",
              "type": "address"
            },
            {
              "internalType": "uint256",
              "name": "hw_price_per_input_token",
              "type": "uint256"
            },
            {
              "internalType": "uint256",
              "name": "hw_price_per_output_token",
              "type": "uint256"
            },
            {
              "internalType": "enum Pool.Pay_type",
              "name": "pay_type_",
              "type": "uint8"
            }
          ],
          "internalType": "struct Pool.LLM_meta",
          "name": "",
          "type": "tuple"
        }
      ],
      "stateMutability": "view",
      "type": "function"
    },
    {
      "inputs": [
        {
          "internalType": "uint256",
          "name": "llm_id",
          "type": "uint256"
        }
      ],
      "name": "GetTotalPrice",
      "outputs": [
        {
          "internalType": "uint256",
          "name": "",
          "type": "uint256"
        }
      ],
      "stateMutability": "view",
      "type": "function"
    },
    {
      "inputs": [
        {
          "internalType": "address",
          "name": "user",
          "type": "address"
        }
      ],
      "name": "GetUserBalance",
      "outputs": [
        {
          "internalType": "uint256",
          "name": "",
          "type": "uint256"
        }
      ],
      "stateMutability": "view",
      "type": "function"
    },
    {
      "inputs": [
        {
          "internalType": "string",
          "name": "lai_id",
          "type": "string"
        }
      ],
      "name": "GetWorkerAddress",
      "outputs": [
        {
          "internalType": "address",
          "name": "",
          "type": "address"
        }
      ],
      "stateMutability": "view",
      "type": "function"
    },
    {
      "inputs": [
        {
          "internalType": "address",
          "name": "",
          "type": "address"
        }
      ],
      "name": "HFwhitelist",
      "outputs": [
        {
          "internalType": "bool",
          "name": "",
          "type": "bool"
        }
      ],
      "stateMutability": "view",
      "type": "function"
    },
    {
      "inputs": [
        {
          "internalType": "uint256",
          "name": "llm_id",
          "type": "uint256"
        },
        {
          "internalType": "address",
          "name": "user",
          "type": "address"
        }
      ],
      "name": "Pre_request",
      "outputs": [],
      "stateMutability": "view",
      "type": "function"
    },
    {
      "inputs": [
        {
          "internalType": "uint256",
          "name": "request_id",
          "type": "uint256"
        },
        {
          "internalType": "string",
          "name": "worker_id",
          "type": "string"
        },
        {
          "internalType": "uint256",
          "name": "llm_id",
          "type": "uint256"
        },
        {
          "internalType": "uint256",
          "name": "llmInputTokens",
          "type": "uint256"
        },
        {
          "internalType": "uint256",
          "name": "llmOutputTokens",
          "type": "uint256"
        },
        {
          "internalType": "uint256",
          "name": "processingTime",
          "type": "uint256"
        },
        {
          "internalType": "address",
          "name": "user",
          "type": "address"
        }
      ],
      "name": "ProcessResponse",
      "outputs": [],
      "stateMutability": "nonpayable",
      "type": "function"
    },
    {
      "inputs": [
        {
          "internalType": "string",
          "name": "lai_public_key",
          "type": "string"
        }
      ],
      "name": "RegisterWorker",
      "outputs": [],
      "stateMutability": "nonpayable",
      "type": "function"
    },
    {
      "inputs": [
        {
          "internalType": "address",
          "name": "addr",
          "type": "address"
        }
      ],
      "name": "RemoveFromHFWhitelist",
      "outputs": [],
      "stateMutability": "nonpayable",
      "type": "function"
    },
    {
      "inputs": [
        {
          "internalType": "string",
          "name": "lai_pub_key",
          "type": "string"
        }
      ],
      "name": "Unban",
      "outputs": [],
      "stateMutability": "nonpayable",
      "type": "function"
    },
    {
      "inputs": [
        {
          "internalType": "string",
          "name": "lai_pub_key",
          "type": "string"
        }
      ],
      "name": "Unregister",
      "outputs": [],
      "stateMutability": "nonpayable",
      "type": "function"
    },
    {
      "inputs": [
        {
          "internalType": "uint256",
          "name": "llm_id",
          "type": "uint256"
        },
        {
          "internalType": "uint256",
          "name": "new_royalty",
          "type": "uint256"
        },
        {
          "internalType": "address",
          "name": "new_address",
          "type": "address"
        }
      ],
      "name": "UpdateModel",
      "outputs": [],
      "stateMutability": "nonpayable",
      "type": "function"
    },
    {
      "inputs": [
        {
          "internalType": "string",
          "name": "old_lai_pub_key",
          "type": "string"
        },
        {
          "internalType": "string",
          "name": "new_lai_pub_key",
          "type": "string"
        }
      ],
      "name": "UpdateWorker",
      "outputs": [],
      "stateMutability": "nonpayable",
      "type": "function"
    },
    {
      "inputs": [
        {
          "internalType": "string",
          "name": "",
          "type": "string"
        }
      ],
      "name": "blacklist",
      "outputs": [
        {
          "internalType": "bool",
          "name": "",
          "type": "bool"
        }
      ],
      "stateMutability": "view",
      "type": "function"
    },
    {
      "inputs": [],
      "name": "hfswm",
      "outputs": [
        {
          "internalType": "contract HFSWM",
          "name": "",
          "type": "address"
        }
      ],
      "stateMutability": "view",
      "type": "function"
    },
    {
      "inputs": [
        {
          "internalType": "string",
          "name": "",
          "type": "string"
        }
      ],
      "name": "isApproved",
      "outputs": [
        {
          "internalType": "bool",
          "name": "",
          "type": "bool"
        }
      ],
      "stateMutability": "view",
      "type": "function"
    },
    {
      "inputs": [],
      "name": "owner",
      "outputs": [
        {
          "internalType": "address",
          "name": "",
          "type": "address"
        }
      ],
      "stateMutability": "view",
      "type": "function"
    },
    {
      "inputs": [],
      "name": "renounceOwnership",
      "outputs": [],
      "stateMutability": "nonpayable",
      "type": "function"
    },
    {
      "inputs": [
        {
          "internalType": "address",
          "name": "newOwner",
          "type": "address"
        }
      ],
      "name": "transferOwnership",
      "outputs": [],
      "stateMutability": "nonpayable",
      "type": "function"
    },
    {
      "inputs": [
        {
          "internalType": "address",
          "name": "",
          "type": "address"
        }
      ],
      "name": "userBalances",
      "outputs": [
        {
          "internalType": "uint256",
          "name": "",
          "type": "uint256"
        }
      ],
      "stateMutability": "view",
      "type": "function"
    }
  ],
  "bytecode": "0x6080604052600160045534801561001557600080fd5b50604051614212380380614212833981810160405281019061003791906102ac565b33600073ffffffffffffffffffffffffffffffffffffffff168173ffffffffffffffffffffffffffffffffffffffff16036100aa5760006040517f1e4fbdf70000000000000000000000000000000000000000000000000000000081526004016100a1919061030e565b60405180910390fd5b6100b98161018560201b60201c565b5082600160006101000a81548173ffffffffffffffffffffffffffffffffffffffff021916908373ffffffffffffffffffffffffffffffffffffffff16021790555081600260006101000a81548173ffffffffffffffffffffffffffffffffffffffff021916908373ffffffffffffffffffffffffffffffffffffffff16021790555080600360006101000a81548173ffffffffffffffffffffffffffffffffffffffff021916908373ffffffffffffffffffffffffffffffffffffffff160217905550505050610329565b60008060009054906101000a900473ffffffffffffffffffffffffffffffffffffffff169050816000806101000a81548173ffffffffffffffffffffffffffffffffffffffff021916908373ffffffffffffffffffffffffffffffffffffffff1602179055508173ffffffffffffffffffffffffffffffffffffffff168173ffffffffffffffffffffffffffffffffffffffff167f8be0079c531659141344cd1fd0a4f28419497f9722a3daafe3b4186f6b6457e060405160405180910390a35050565b600080fd5b600073ffffffffffffffffffffffffffffffffffffffff82169050919050565b60006102798261024e565b9050919050565b6102898161026e565b811461029457600080fd5b50565b6000815190506102a681610280565b92915050565b6000806000606084860312156102c5576102c4610249565b5b60006102d386828701610297565b93505060206102e486828701610297565b92505060406102f586828701610297565b9150509250925092565b6103088161026e565b82525050565b600060208201905061032360008301846102ff565b92915050565b613eda806103386000396000f3fe608060405234801561001057600080fd5b50600436106101c35760003560e01c806397c37d6b116100f9578063ba68ce9c11610097578063e03ec51111610071578063e03ec5111461050c578063f2fde38b1461052a578063f31fbc9f14610546578063f6bd2ac814610576576101c3565b8063ba68ce9c146104a4578063bad3191a146104c0578063bbfb8caa146104dc576101c3565b8063aa389692116100d3578063aa3896921461040c578063ad7922d514610428578063b083de5414610458578063b9359ea214610488576101c3565b806397c37d6b146103905780639fcd8c9d146103c0578063a5449632146103dc576101c3565b80633be93d0b11610166578063715018a611610140578063715018a61461031c5780638c0233e9146103265780638da5cb5b146103565780638f977f3614610374576101c3565b80633be93d0b146102b4578063421d2777146102d0578063431f90f314610300576101c3565b80631e99f349116101a25780631e99f3491461023057806326224c641461024c578063278015341461027c5780633266e29014610298576101c3565b8062345d3d146101c85780630e5fd6d7146101e45780631b988ce414610214575b600080fd5b6101e260048036038101906101dd919061278c565b610592565b005b6101fe60048036038101906101f991906127ef565b6105f5565b60405161020b919061282b565b60405180910390f35b61022e600480360381019061022991906127ef565b610682565b005b61024a6004803603810190610245919061298c565b6107f5565b005b6102666004803603810190610261919061278c565b610a10565b604051610273919061282b565b60405180910390f35b610296600480360381019061029191906127ef565b610a28565b005b6102b260048036038101906102ad91906129d5565b610aa4565b005b6102ce60048036038101906102c99190612a28565b610c85565b005b6102ea60048036038101906102e5919061298c565b61139a565b6040516102f79190612af5565b60405180910390f35b61031a6004803603810190610315919061298c565b6113e7565b005b610324611429565b005b610340600480360381019061033b919061298c565b61143d565b60405161034d9190612b2b565b60405180910390f35b61035e611473565b60405161036b9190612af5565b60405180910390f35b61038e60048036038101906103899190612b46565b61149c565b005b6103aa60048036038101906103a591906127ef565b61190c565b6040516103b7919061282b565b60405180910390f35b6103da60048036038101906103d5919061298c565b61195d565b005b6103f660048036038101906103f1919061278c565b611cdf565b604051610403919061282b565b60405180910390f35b61042660048036038101906104219190612bbe565b611d28565b005b610442600480360381019061043d91906127ef565b611f78565b60405161044f9190612d21565b60405180910390f35b610472600480360381019061046d919061278c565b61205e565b60405161047f9190612b2b565b60405180910390f35b6104a2600480360381019061049d9190612d3c565b61207e565b005b6104be60048036038101906104b9919061278c565b612227565b005b6104da60048036038101906104d5919061298c565b61228a565b005b6104f660048036038101906104f191906127ef565b6122cc565b6040516105039190612d21565b60405180910390f35b6105146123b2565b6040516105219190612ddb565b60405180910390f35b610544600480360381019061053f919061278c565b6123d8565b005b610560600480360381019061055b919061298c565b61245e565b60405161056d9190612b2b565b60405180910390f35b610590600480360381019061058b919061298c565b612494565b005b61059a6124d6565b6000600960008373ffffffffffffffffffffffffffffffffffffffff1673ffffffffffffffffffffffffffffffffffffffff16815260200190815260200160002060006101000a81548160ff02191690831515021790555050565b60008073__$6ca259786bae6b18641118eb2a4c0483c3$__63a285b8948460646004546040518463ffffffff1660e01b815260040161063693929190612e40565b602060405180830381865af4158015610653573d6000803e3d6000fd5b505050506040513d601f19601f820116820180604052508101906106779190612e8c565b905080915050919050565b600260009054906101000a900473ffffffffffffffffffffffffffffffffffffffff1673ffffffffffffffffffffffffffffffffffffffff166323b872dd3330846040518463ffffffff1660e01b81526004016106e193929190612eb9565b6020604051808303816000875af1158015610700573d6000803e3d6000fd5b505050506040513d601f19601f820116820180604052508101906107249190612f1c565b610763576040517f08c379a000000000000000000000000000000000000000000000000000000000815260040161075a90612fa6565b60405180910390fd5b80600a60003373ffffffffffffffffffffffffffffffffffffffff1673ffffffffffffffffffffffffffffffffffffffff16815260200190815260200160002060008282546107b29190612ff5565b925050819055507fe1fffcc4923d04b559f4d29a8bfc6cda04eb5b0d3c460751c2402c5c5cc9109c33826040516107ea929190613029565b60405180910390a150565b3373ffffffffffffffffffffffffffffffffffffffff1660058260405161081c91906130c3565b908152602001604051809103902060009054906101000a900473ffffffffffffffffffffffffffffffffffffffff1673ffffffffffffffffffffffffffffffffffffffff16146108a1576040517f08c379a000000000000000000000000000000000000000000000000000000000815260040161089890613126565b60405180910390fd5b6000600660003373ffffffffffffffffffffffffffffffffffffffff1673ffffffffffffffffffffffffffffffffffffffff168152602001908152602001600020905060005b81805490508110156109ca57828051906020012082828154811061090e5761090d613146565b5b906000526020600020016040516109259190613278565b6040518091039020036109bd578160018380549050610944919061328f565b8154811061095557610954613146565b5b9060005260206000200182828154811061097257610971613146565b5b9060005260206000200190816109889190613490565b508180548061099a57610999613578565b5b6001900381819060005260206000200160006109b69190612629565b90556109ca565b80806001019150506108e7565b506005826040516109db91906130c3565b908152602001604051809103902060006101000a81549073ffffffffffffffffffffffffffffffffffffffff02191690555050565b600a6020528060005260406000206000915090505481565b610a306124d6565b600b600082815260200190815260200160002060008082016000905560018201600090556002820160006101000a81549073ffffffffffffffffffffffffffffffffffffffff0219169055600382016000905560048201600090556005820160006101000a81549060ff0219169055505050565b610aac6124d6565b6000600b60008581526020019081526020016000206040518060c001604052908160008201548152602001600182015481526020016002820160009054906101000a900473ffffffffffffffffffffffffffffffffffffffff1673ffffffffffffffffffffffffffffffffffffffff1673ffffffffffffffffffffffffffffffffffffffff16815260200160038201548152602001600482015481526020016005820160009054906101000a900460ff166001811115610b6f57610b6e612c2f565b5b6001811115610b8157610b80612c2f565b5b8152505090508281602001818152505081816040019073ffffffffffffffffffffffffffffffffffffffff16908173ffffffffffffffffffffffffffffffffffffffff168152505080600b6000868152602001908152602001600020600082015181600001556020820151816001015560408201518160020160006101000a81548173ffffffffffffffffffffffffffffffffffffffff021916908373ffffffffffffffffffffffffffffffffffffffff160217905550606082015181600301556080820151816004015560a08201518160050160006101000a81548160ff02191690836001811115610c7757610c76612c2f565b5b021790555090505050505050565b600786604051610c9591906130c3565b908152602001604051809103902060009054906101000a900460ff1615610cf1576040517f08c379a0000000000000000000000000000000000000000000000000000000008152600401610ce8906135f3565b60405180910390fd5b600886604051610d0191906130c3565b908152602001604051809103902060009054906101000a900460ff16610d5c576040517f08c379a0000000000000000000000000000000000000000000000000000000008152600401610d539061365f565b60405180910390fd5b6000610d6786611f78565b905060008160a001519050610d7a612669565b60006001811115610d8e57610d8d612c2f565b5b826001811115610da157610da0612c2f565b5b03610e2c578587610db29190612ff5565b8160a001818152505082606001518160000181815250508260800151816020018181525050858160200151610de7919061367f565b878260000151610df7919061367f565b610e019190612ff5565b8160400181815250508060a001518360200151610e1e919061367f565b816080018181525050610e65565b82606001518160000181815250508260200151816060018181525050806000015181604001818152505080606001518160800181815250505b600081608001518260400151610e7b9190612ff5565b905080600a60008773ffffffffffffffffffffffffffffffffffffffff1673ffffffffffffffffffffffffffffffffffffffff168152602001908152602001600020541015610eff576040517f08c379a0000000000000000000000000000000000000000000000000000000008152600401610ef69061370d565b60405180910390fd5b80600a60008773ffffffffffffffffffffffffffffffffffffffff1673ffffffffffffffffffffffffffffffffffffffff1681526020019081526020016000206000828254610f4e919061328f565b925050819055506000610f608b61139a565b9050600085604001519050600960008373ffffffffffffffffffffffffffffffffffffffff1673ffffffffffffffffffffffffffffffffffffffff16815260200190815260200160002060009054906101000a900460ff161561105557600360009054906101000a900473ffffffffffffffffffffffffffffffffffffffff1673ffffffffffffffffffffffffffffffffffffffff166340c10f198386604001516040518363ffffffff1660e01b815260040161101e929190613029565b600060405180830381600087803b15801561103857600080fd5b505af115801561104c573d6000803e3d6000fd5b50505050611139565b600260009054906101000a900473ffffffffffffffffffffffffffffffffffffffff1673ffffffffffffffffffffffffffffffffffffffff1663a9059cbb8386604001516040518363ffffffff1660e01b81526004016110b6929190613029565b6020604051808303816000875af11580156110d5573d6000803e3d6000fd5b505050506040513d601f19601f820116820180604052508101906110f99190612f1c565b611138576040517f08c379a000000000000000000000000000000000000000000000000000000000815260040161112f90613779565b60405180910390fd5b5b600960008273ffffffffffffffffffffffffffffffffffffffff1673ffffffffffffffffffffffffffffffffffffffff16815260200190815260200160002060009054906101000a900460ff161561122357600360009054906101000a900473ffffffffffffffffffffffffffffffffffffffff1673ffffffffffffffffffffffffffffffffffffffff166340c10f198286608001516040518363ffffffff1660e01b81526004016111ec929190613029565b600060405180830381600087803b15801561120657600080fd5b505af115801561121a573d6000803e3d6000fd5b50505050611307565b600260009054906101000a900473ffffffffffffffffffffffffffffffffffffffff1673ffffffffffffffffffffffffffffffffffffffff1663a9059cbb8286608001516040518363ffffffff1660e01b8152600401611284929190613029565b6020604051808303816000875af11580156112a3573d6000803e3d6000fd5b505050506040513d601f19601f820116820180604052508101906112c79190612f1c565b611306576040517f08c379a00000000000000000000000000000000000000000000000000000000081526004016112fd906137e5565b60405180910390fd5b5b7fe682774c095c98275661d05ff664616a641de1592fa52e2412789919e84b01ad8d8c848d8d888e42604051611344989796959493929190613805565b60405180910390a17f634235fcf5af0adbca1a405ec65f6f6c08f55e1f379c2c45cd10f23cb29e0e31828c866040015160405161138393929190613883565b60405180910390a150505050505050505050505050565b6000806005836040516113ad91906130c3565b908152602001604051809103902060009054906101000a900473ffffffffffffffffffffffffffffffffffffffff16905080915050919050565b6113ef6124d6565b600160088260405161140191906130c3565b908152602001604051809103902060006101000a81548160ff02191690831515021790555050565b6114316124d6565b61143b600061255d565b565b6007818051602081018201805184825260208301602085012081835280955050505050506000915054906101000a900460ff1681565b60008060009054906101000a900473ffffffffffffffffffffffffffffffffffffffff16905090565b3373ffffffffffffffffffffffffffffffffffffffff166005836040516114c391906130c3565b908152602001604051809103902060009054906101000a900473ffffffffffffffffffffffffffffffffffffffff1673ffffffffffffffffffffffffffffffffffffffff1614611548576040517f08c379a000000000000000000000000000000000000000000000000000000000815260040161153f90613126565b60405180910390fd5b600073ffffffffffffffffffffffffffffffffffffffff1660058260405161157091906130c3565b908152602001604051809103902060009054906101000a900473ffffffffffffffffffffffffffffffffffffffff1673ffffffffffffffffffffffffffffffffffffffff16146115f5576040517f08c379a00000000000000000000000000000000000000000000000000000000081526004016115ec90613906565b60405180910390fd5b60078160405161160591906130c3565b908152602001604051809103902060009054906101000a900460ff1615611661576040517f08c379a000000000000000000000000000000000000000000000000000000000815260040161165890613972565b60405180910390fd5b6000600660003373ffffffffffffffffffffffffffffffffffffffff1673ffffffffffffffffffffffffffffffffffffffff16815260200190815260200160002090506000805b82805490508110156117345784805190602001208382815481106116cf576116ce613146565b5b906000526020600020016040516116e69190613278565b604051809103902003611727578383828154811061170757611706613146565b5b90600052602060002001908161171d9190613992565b5060019150611734565b80806001019150506116a8565b5080611775576040517f08c379a000000000000000000000000000000000000000000000000000000000815260040161176c90613ab0565b60405180910390fd5b60058460405161178591906130c3565b908152602001604051809103902060006101000a81549073ffffffffffffffffffffffffffffffffffffffff0219169055336005846040516117c791906130c3565b908152602001604051809103902060006101000a81548173ffffffffffffffffffffffffffffffffffffffff021916908373ffffffffffffffffffffffffffffffffffffffff16021790555060088460405161182391906130c3565b908152602001604051809103902060009054906101000a900460ff1660088460405161184f91906130c3565b908152602001604051809103902060006101000a81548160ff02191690831515021790555060088460405161188491906130c3565b908152602001604051809103902060006101000a81549060ff02191690557fee06bd32f8b2583fd50c0dd94d872913c9fe17bb486e0f9d4b4865752d79efa0336008856040516118d491906130c3565b908152602001604051809103902060009054906101000a900460ff166040516118fe929190613ad0565b60405180910390a150505050565b60008061191883611f78565b905060008160200151905060008260600151905060008360800151905060008183856119449190612ff5565b61194e9190612ff5565b90508095505050505050919050565b60078160405161196d91906130c3565b908152602001604051809103902060009054906101000a900460ff16156119c9576040517f08c379a00000000000000000000000000000000000000000000000000000000081526004016119c090613b45565b60405180910390fd5b600073ffffffffffffffffffffffffffffffffffffffff166005826040516119f191906130c3565b908152602001604051809103902060009054906101000a900473ffffffffffffffffffffffffffffffffffffffff1673ffffffffffffffffffffffffffffffffffffffff1614611a76576040517f08c379a0000000000000000000000000000000000000000000000000000000008152600401611a6d90613bb1565b60405180910390fd5b6014600660003373ffffffffffffffffffffffffffffffffffffffff1673ffffffffffffffffffffffffffffffffffffffff1681526020019081526020016000208054905010611afb576040517f08c379a0000000000000000000000000000000000000000000000000000000008152600401611af290613c43565b60405180910390fd5b600660003373ffffffffffffffffffffffffffffffffffffffff1673ffffffffffffffffffffffffffffffffffffffff16815260200190815260200160002081908060018154018082558091505060019003906000526020600020016000909190919091509081611b6c9190613992565b5033600582604051611b7e91906130c3565b908152602001604051809103902060006101000a81548173ffffffffffffffffffffffffffffffffffffffff021916908373ffffffffffffffffffffffffffffffffffffffff160217905550600180811115611bdd57611bdc612c2f565b5b600060149054906101000a900460ff166001811115611bff57611bfe612c2f565b5b03611c40576001600882604051611c1691906130c3565b908152602001604051809103902060006101000a81548160ff021916908315150217905550611c78565b6000600882604051611c5291906130c3565b908152602001604051809103902060006101000a81548160ff0219169083151502179055505b7fee06bd32f8b2583fd50c0dd94d872913c9fe17bb486e0f9d4b4865752d79efa033600883604051611caa91906130c3565b908152602001604051809103902060009054906101000a900460ff16604051611cd4929190613ad0565b60405180910390a150565b6000600a60008373ffffffffffffffffffffffffffffffffffffffff1673ffffffffffffffffffffffffffffffffffffffff168152602001908152602001600020549050919050565b611d306124d6565b6000600160009054906101000a900473ffffffffffffffffffffffffffffffffffffffff1673ffffffffffffffffffffffffffffffffffffffff166340a24c67856040518263ffffffff1660e01b8152600401611d8d919061282b565b600060405180830381865afa158015611daa573d6000803e3d6000fd5b505050506040513d6000823e3d601f19601f82011682018060405250810190611dd39190613def565b9050611ddd61269f565b6000808360800151905060006001811115611dfb57611dfa612c2f565b5b816001811115611e0e57611e0d612c2f565b5b03611e1c5760009150611e21565b600191505b818360a001906001811115611e3957611e38612c2f565b5b90816001811115611e4d57611e4c612c2f565b5b8152505083604001518360200181815250508360600151836040019073ffffffffffffffffffffffffffffffffffffffff16908173ffffffffffffffffffffffffffffffffffffffff168152505086836000018181525050858360600181815250508483608001818152505082600b6000898152602001908152602001600020600082015181600001556020820151816001015560408201518160020160006101000a81548173ffffffffffffffffffffffffffffffffffffffff021916908373ffffffffffffffffffffffffffffffffffffffff160217905550606082015181600301556080820151816004015560a08201518160050160006101000a81548160ff02191690836001811115611f6757611f66612c2f565b5b021790555090505050505050505050565b611f8061269f565b600b60008381526020019081526020016000206040518060c001604052908160008201548152602001600182015481526020016002820160009054906101000a900473ffffffffffffffffffffffffffffffffffffffff1673ffffffffffffffffffffffffffffffffffffffff1673ffffffffffffffffffffffffffffffffffffffff16815260200160038201548152602001600482015481526020016005820160009054906101000a900460ff16600181111561204157612040612c2f565b5b600181111561205357612052612c2f565b5b815250509050919050565b60096020528060005260406000206000915054906101000a900460ff1681565b6000600160009054906101000a900473ffffffffffffffffffffffffffffffffffffffff1673ffffffffffffffffffffffffffffffffffffffff166340a24c67846040518263ffffffff1660e01b81526004016120db919061282b565b600060405180830381865afa1580156120f8573d6000803e3d6000fd5b505050506040513d6000823e3d601f19601f820116820180604052508101906121219190613def565b905060008160800151905060008260a001519050600061214086611f78565b905060008160600151905060008060018111156121605761215f612c2f565b5b85600181111561217357612172612c2f565b5b0361218b578184612184919061367f565b905061219b565b600182612198919061367f565b90505b80600a60008973ffffffffffffffffffffffffffffffffffffffff1673ffffffffffffffffffffffffffffffffffffffff16815260200190815260200160002054101561221d576040517f08c379a000000000000000000000000000000000000000000000000000000000815260040161221490613e84565b60405180910390fd5b5050505050505050565b61222f6124d6565b6001600960008373ffffffffffffffffffffffffffffffffffffffff1673ffffffffffffffffffffffffffffffffffffffff16815260200190815260200160002060006101000a81548160ff02191690831515021790555050565b6122926124d6565b60006007826040516122a491906130c3565b908152602001604051809103902060006101000a81548160ff02191690831515021790555050565b6122d461269f565b600b60008381526020019081526020016000206040518060c001604052908160008201548152602001600182015481526020016002820160009054906101000a900473ffffffffffffffffffffffffffffffffffffffff1673ffffffffffffffffffffffffffffffffffffffff1673ffffffffffffffffffffffffffffffffffffffff16815260200160038201548152602001600482015481526020016005820160009054906101000a900460ff16600181111561239557612394612c2f565b5b60018111156123a7576123a6612c2f565b5b815250509050919050565b600360009054906101000a900473ffffffffffffffffffffffffffffffffffffffff1681565b6123e06124d6565b600073ffffffffffffffffffffffffffffffffffffffff168173ffffffffffffffffffffffffffffffffffffffff16036124525760006040517f1e4fbdf70000000000000000000000000000000000000000000000000000000081526004016124499190612af5565b60405180910390fd5b61245b8161255d565b50565b6008818051602081018201805184825260208301602085012081835280955050505050506000915054906101000a900460ff1681565b61249c6124d6565b60016007826040516124ae91906130c3565b908152602001604051809103902060006101000a81548160ff02191690831515021790555050565b6124de612621565b73ffffffffffffffffffffffffffffffffffffffff166124fc611473565b73ffffffffffffffffffffffffffffffffffffffff161461255b5761251f612621565b6040517f118cdaa70000000000000000000000000000000000000000000000000000000081526004016125529190612af5565b60405180910390fd5b565b60008060009054906101000a900473ffffffffffffffffffffffffffffffffffffffff169050816000806101000a81548173ffffffffffffffffffffffffffffffffffffffff021916908373ffffffffffffffffffffffffffffffffffffffff1602179055508173ffffffffffffffffffffffffffffffffffffffff168173ffffffffffffffffffffffffffffffffffffffff167f8be0079c531659141344cd1fd0a4f28419497f9722a3daafe3b4186f6b6457e060405160405180910390a35050565b600033905090565b508054612635906131a4565b6000825580601f106126475750612666565b601f01602090049060005260206000209081019061266591906126fd565b5b50565b6040518060c001604052806000815260200160008152602001600081526020016000815260200160008152602001600081525090565b6040518060c001604052806000815260200160008152602001600073ffffffffffffffffffffffffffffffffffffffff1681526020016000815260200160008152602001600060018111156126f7576126f6612c2f565b5b81525090565b5b808211156127165760008160009055506001016126fe565b5090565b6000604051905090565b600080fd5b600080fd5b600073ffffffffffffffffffffffffffffffffffffffff82169050919050565b60006127598261272e565b9050919050565b6127698161274e565b811461277457600080fd5b50565b60008135905061278681612760565b92915050565b6000602082840312156127a2576127a1612724565b5b60006127b084828501612777565b91505092915050565b6000819050919050565b6127cc816127b9565b81146127d757600080fd5b50565b6000813590506127e9816127c3565b92915050565b60006020828403121561280557612804612724565b5b6000612813848285016127da565b91505092915050565b612825816127b9565b82525050565b6000602082019050612840600083018461281c565b92915050565b600080fd5b600080fd5b6000601f19601f8301169050919050565b7f4e487b7100000000000000000000000000000000000000000000000000000000600052604160045260246000fd5b61289982612850565b810181811067ffffffffffffffff821117156128b8576128b7612861565b5b80604052505050565b60006128cb61271a565b90506128d78282612890565b919050565b600067ffffffffffffffff8211156128f7576128f6612861565b5b61290082612850565b9050602081019050919050565b82818337600083830152505050565b600061292f61292a846128dc565b6128c1565b90508281526020810184848401111561294b5761294a61284b565b5b61295684828561290d565b509392505050565b600082601f83011261297357612972612846565b5b813561298384826020860161291c565b91505092915050565b6000602082840312156129a2576129a1612724565b5b600082013567ffffffffffffffff8111156129c0576129bf612729565b5b6129cc8482850161295e565b91505092915050565b6000806000606084860312156129ee576129ed612724565b5b60006129fc868287016127da565b9350506020612a0d868287016127da565b9250506040612a1e86828701612777565b9150509250925092565b600080600080600080600060e0888a031215612a4757612a46612724565b5b6000612a558a828b016127da565b975050602088013567ffffffffffffffff811115612a7657612a75612729565b5b612a828a828b0161295e565b9650506040612a938a828b016127da565b9550506060612aa48a828b016127da565b9450506080612ab58a828b016127da565b93505060a0612ac68a828b016127da565b92505060c0612ad78a828b01612777565b91505092959891949750929550565b612aef8161274e565b82525050565b6000602082019050612b0a6000830184612ae6565b92915050565b60008115159050919050565b612b2581612b10565b82525050565b6000602082019050612b406000830184612b1c565b92915050565b60008060408385031215612b5d57612b5c612724565b5b600083013567ffffffffffffffff811115612b7b57612b7a612729565b5b612b878582860161295e565b925050602083013567ffffffffffffffff811115612ba857612ba7612729565b5b612bb48582860161295e565b9150509250929050565b600080600060608486031215612bd757612bd6612724565b5b6000612be5868287016127da565b9350506020612bf6868287016127da565b9250506040612c07868287016127da565b9150509250925092565b612c1a816127b9565b82525050565b612c298161274e565b82525050565b7f4e487b7100000000000000000000000000000000000000000000000000000000600052602160045260246000fd5b60028110612c6f57612c6e612c2f565b5b50565b6000819050612c8082612c5e565b919050565b6000612c9082612c72565b9050919050565b612ca081612c85565b82525050565b60c082016000820151612cbc6000850182612c11565b506020820151612ccf6020850182612c11565b506040820151612ce26040850182612c20565b506060820151612cf56060850182612c11565b506080820151612d086080850182612c11565b5060a0820151612d1b60a0850182612c97565b50505050565b600060c082019050612d366000830184612ca6565b92915050565b60008060408385031215612d5357612d52612724565b5b6000612d61858286016127da565b9250506020612d7285828601612777565b9150509250929050565b6000819050919050565b6000612da1612d9c612d978461272e565b612d7c565b61272e565b9050919050565b6000612db382612d86565b9050919050565b6000612dc582612da8565b9050919050565b612dd581612dba565b82525050565b6000602082019050612df06000830184612dcc565b92915050565b612dff816127b9565b82525050565b6000819050919050565b6000612e2a612e25612e2084612e05565b612d7c565b6127b9565b9050919050565b612e3a81612e0f565b82525050565b6000606082019050612e556000830186612df6565b612e626020830185612e31565b612e6f6040830184612df6565b949350505050565b600081519050612e86816127c3565b92915050565b600060208284031215612ea257612ea1612724565b5b6000612eb084828501612e77565b91505092915050565b6000606082019050612ece6000830186612ae6565b612edb6020830185612ae6565b612ee8604083018461281c565b949350505050565b612ef981612b10565b8114612f0457600080fd5b50565b600081519050612f1681612ef0565b92915050565b600060208284031215612f3257612f31612724565b5b6000612f4084828501612f07565b91505092915050565b600082825260208201905092915050565b7f5472616e73666572206661696c65640000000000000000000000000000000000600082015250565b6000612f90600f83612f49565b9150612f9b82612f5a565b602082019050919050565b60006020820190508181036000830152612fbf81612f83565b9050919050565b7f4e487b7100000000000000000000000000000000000000000000000000000000600052601160045260246000fd5b6000613000826127b9565b915061300b836127b9565b925082820190508082111561302357613022612fc6565b5b92915050565b600060408201905061303e6000830185612ae6565b61304b602083018461281c565b9392505050565b600081519050919050565b600081905092915050565b60005b8381101561308657808201518184015260208101905061306b565b60008484015250505050565b600061309d82613052565b6130a7818561305d565b93506130b7818560208601613068565b80840191505092915050565b60006130cf8284613092565b915081905092915050565b7f4e6f7420796f757220776f726b6572206b657900000000000000000000000000600082015250565b6000613110601383612f49565b915061311b826130da565b602082019050919050565b6000602082019050818103600083015261313f81613103565b9050919050565b7f4e487b7100000000000000000000000000000000000000000000000000000000600052603260045260246000fd5b7f4e487b7100000000000000000000000000000000000000000000000000000000600052602260045260246000fd5b600060028204905060018216806131bc57607f821691505b6020821081036131cf576131ce613175565b5b50919050565b600081905092915050565b60008190508160005260206000209050919050565b60008154613202816131a4565b61320c81866131d5565b94506001821660008114613227576001811461323c5761326f565b60ff198316865281151582028601935061326f565b613245856131e0565b60005b8381101561326757815481890152600182019150602081019050613248565b838801955050505b50505092915050565b600061328482846131f5565b915081905092915050565b600061329a826127b9565b91506132a5836127b9565b92508282039050818111156132bd576132bc612fc6565b5b92915050565b6000815490506132d2816131a4565b9050919050565b60008190508160005260206000209050919050565b60008190508160005260206000209050919050565b60006020601f8301049050919050565b600082821b905092915050565b6000600883026133507fffffffffffffffffffffffffffffffffffffffffffffffffffffffffffffffff82613313565b61335a8683613313565b95508019841693508086168417925050509392505050565b600061338d613388613383846127b9565b612d7c565b6127b9565b9050919050565b6000819050919050565b6133a783613372565b6133bb6133b382613394565b848454613320565b825550505050565b600090565b6133d06133c3565b6133db81848461339e565b505050565b5b818110156133ff576133f46000826133c8565b6001810190506133e1565b5050565b601f82111561344457613415816132d9565b61341e84613303565b8101602085101561342d578190505b61344161343985613303565b8301826133e0565b50505b505050565b600082821c905092915050565b600061346760001984600802613449565b1980831691505092915050565b60006134808383613456565b9150826002028217905092915050565b81810361349e575050613576565b6134a7826132c3565b67ffffffffffffffff8111156134c0576134bf612861565b5b6134ca82546131a4565b6134d5828285613403565b6000601f83116001811461350457600084156134f2578287015490505b6134fc8582613474565b86555061356f565b601f198416613512876132ee565b965061351d866132d9565b60005b8281101561354557848901548255600182019150600185019450602081019050613520565b86831015613562578489015461355e601f891682613456565b8355505b6001600288020188555050505b5050505050505b565b7f4e487b7100000000000000000000000000000000000000000000000000000000600052603160045260246000fd5b7f5468697320776f726b657220697320696e20626c61636b6c6973740000000000600082015250565b60006135dd601b83612f49565b91506135e8826135a7565b602082019050919050565b6000602082019050818103600083015261360c816135d0565b9050919050565b7f5468697320776f726b6572206973206e6f742079657420617070726f76656400600082015250565b6000613649601f83612f49565b915061365482613613565b602082019050919050565b600060208201905081810360008301526136788161363c565b9050919050565b600061368a826127b9565b9150613695836127b9565b92508282026136a3816127b9565b915082820484148315176136ba576136b9612fc6565b5b5092915050565b7f4e6f7420656e6f756768206465706f73697465642062616c616e636500000000600082015250565b60006136f7601c83612f49565b9150613702826136c1565b602082019050919050565b60006020820190508181036000830152613726816136ea565b9050919050565b7f43726564697420746f20776f726b6572206661696c6564000000000000000000600082015250565b6000613763601783612f49565b915061376e8261372d565b602082019050919050565b6000602082019050818103600083015261379281613756565b9050919050565b7f43726564697420746f20617574686f72206661696c6564000000000000000000600082015250565b60006137cf601783612f49565b91506137da82613799565b602082019050919050565b600060208201905081810360008301526137fe816137c2565b9050919050565b60006101008201905061381b600083018b61281c565b613828602083018a61281c565b6138356040830189612ae6565b613842606083018861281c565b61384f608083018761281c565b61385c60a083018661281c565b61386960c083018561281c565b61387660e083018461281c565b9998505050505050505050565b60006060820190506138986000830186612ae6565b6138a5602083018561281c565b6138b2604083018461281c565b949350505050565b7f4e6577206b657920616c72656164792072656769737465726564000000000000600082015250565b60006138f0601a83612f49565b91506138fb826138ba565b602082019050919050565b6000602082019050818103600083015261391f816138e3565b9050919050565b7f4e6577206b657920697320626c61636b6c697374656400000000000000000000600082015250565b600061395c601683612f49565b915061396782613926565b602082019050919050565b6000602082019050818103600083015261398b8161394f565b9050919050565b61399b82613052565b67ffffffffffffffff8111156139b4576139b3612861565b5b6139be82546131a4565b6139c9828285613403565b600060209050601f8311600181146139fc57600084156139ea578287015190505b6139f48582613474565b865550613a5c565b601f198416613a0a866132d9565b60005b82811015613a3257848901518255600182019150602085019450602081019050613a0d565b86831015613a4f5784890151613a4b601f891682613456565b8355505b6001600288020188555050505b505050505050565b7f4f6c64206b6579206e6f7420666f756e64000000000000000000000000000000600082015250565b6000613a9a601183612f49565b9150613aa582613a64565b602082019050919050565b60006020820190508181036000830152613ac981613a8d565b9050919050565b6000604082019050613ae56000830185612ae6565b613af26020830184612b1c565b9392505050565b7f54686973206b657920697320696e20626c61636b6c6973740000000000000000600082015250565b6000613b2f601883612f49565b9150613b3a82613af9565b602082019050919050565b60006020820190508181036000830152613b5e81613b22565b9050919050565b7f4b657920616c7265616479207265676973746572656400000000000000000000600082015250565b6000613b9b601683612f49565b9150613ba682613b65565b602082019050919050565b60006020820190508181036000830152613bca81613b8e565b9050919050565b7f4d6178696d756d206e756d626572206f6620776f726b6572732028323029207260008201527f6561636865640000000000000000000000000000000000000000000000000000602082015250565b6000613c2d602683612f49565b9150613c3882613bd1565b604082019050919050565b60006020820190508181036000830152613c5c81613c20565b9050919050565b600080fd5b600080fd5b6000613c80613c7b846128dc565b6128c1565b905082815260208101848484011115613c9c57613c9b61284b565b5b613ca7848285613068565b509392505050565b600082601f830112613cc457613cc3612846565b5b8151613cd4848260208601613c6d565b91505092915050565b600081519050613cec81612760565b92915050565b60028110613cff57600080fd5b50565b600081519050613d1181613cf2565b92915050565b600060c08284031215613d2d57613d2c613c63565b5b613d3760c06128c1565b9050600082015167ffffffffffffffff811115613d5757613d56613c68565b5b613d6384828501613caf565b600083015250602082015167ffffffffffffffff811115613d8757613d86613c68565b5b613d9384828501613caf565b6020830152506040613da784828501612e77565b6040830152506060613dbb84828501613cdd565b6060830152506080613dcf84828501613d02565b60808301525060a0613de384828501612e77565b60a08301525092915050565b600060208284031215613e0557613e04612724565b5b600082015167ffffffffffffffff811115613e2357613e22612729565b5b613e2f84828501613d17565b91505092915050565b7f496e73756666696369656e74206465706f73697465642062616c616e63650000600082015250565b6000613e6e601e83612f49565b9150613e7982613e38565b602082019050919050565b60006020820190508181036000830152613e9d81613e61565b905091905056fea26469706673582212208ac495fad82e7a6b8e88c0523485f34d9c5a93f15638d0e3de384e5bc59aa2fd64736f6c634300081c0033",
  "linkReferences": {
    "contracts/FeesCalculator.sol": {
      "FeesCalculator": [
        {
          "length": 20,
          "start": 2354
        }
      ]
    }
  },
  "deployedLinkReferences": {
    "contracts/FeesCalculator.sol": {
      "FeesCalculator": [
        {
          "length": 20,
          "start": 1530
        }
      ]
    }
  }
}