{
  "_format": "hh-sol-artifact-1",
  "contractName": "Pool",
  "sourceName": "contracts/pool.sol",
  "abi": [
    {
      "inputs": [
        {
          "internalType": "address",
          "name": "llm_nft",
          "type": "address"
        },
        {
          "internalType": "address",
          "name": "credit_",
          "type": "address"
        },
        {
          "internalType": "address",
          "name": "hfswm_",
          "type": "address"
        }
      ],
      "stateMutability": "nonpayable",
      "type": "constructor"
    },
    {
      "inputs": [
        {
          "internalType": "address",
          "name": "owner",
          "type": "address"
        }
      ],
      "name": "OwnableInvalidOwner",
      "type": "error"
    },
    {
      "inputs": [
        {
          "internalType": "address",
          "name": "account",
          "type": "address"
        }
      ],
      "name": "OwnableUnauthorizedAccount",
      "type": "error"
    },
    {
      "anonymous": false,
      "inputs": [
        {
          "indexed": false,
          "internalType": "address",
          "name": "user",
          "type": "address"
        },
        {
          "indexed": false,
          "internalType": "uint256",
          "name": "amount",
          "type": "uint256"
        }
      ],
      "name": "Deposit",
      "type": "event"
    },
    {
      "anonymous": false,
      "inputs": [
        {
          "indexed": false,
          "internalType": "address",
          "name": "worker",
          "type": "address"
        },
        {
          "indexed": false,
          "internalType": "bool",
          "name": "isApproved",
          "type": "bool"
        }
      ],
      "name": "NewWorker",
      "type": "event"
    },
    {
      "anonymous": false,
      "inputs": [
        {
          "indexed": true,
          "internalType": "address",
          "name": "previousOwner",
          "type": "address"
        },
        {
          "indexed": true,
          "internalType": "address",
          "name": "newOwner",
          "type": "address"
        }
      ],
      "name": "OwnershipTransferred",
      "type": "event"
    },
    {
      "anonymous": false,
      "inputs": [
        {
          "indexed": false,
          "internalType": "address",
          "name": "provider",
          "type": "address"
        },
        {
          "indexed": false,
          "internalType": "uint256",
          "name": "llm_id",
          "type": "uint256"
        },
        {
          "indexed": false,
          "internalType": "uint256",
          "name": "amount",
          "type": "uint256"
        }
      ],
      "name": "Payout",
      "type": "event"
    },
    {
      "anonymous": false,
      "inputs": [
        {
          "indexed": false,
          "internalType": "uint256",
          "name": "id",
          "type": "uint256"
        },
        {
          "indexed": false,
          "internalType": "uint256",
          "name": "llm_id",
          "type": "uint256"
        },
        {
          "indexed": false,
          "internalType": "address",
          "name": "worker",
          "type": "address"
        },
        {
          "indexed": false,
          "internalType": "uint256",
          "name": "llmInputTokens",
          "type": "uint256"
        },
        {
          "indexed": false,
          "internalType": "uint256",
          "name": "llmOutputTokens",
          "type": "uint256"
        },
        {
          "indexed": false,
          "internalType": "uint256",
          "name": "cost",
          "type": "uint256"
        },
        {
          "indexed": false,
          "internalType": "uint256",
          "name": "processingTime",
          "type": "uint256"
        },
        {
          "indexed": false,
          "internalType": "uint256",
          "name": "timestamp",
          "type": "uint256"
        }
      ],
      "name": "Response",
      "type": "event"
    },
    {
      "inputs": [
        {
          "internalType": "uint256",
          "name": "token_id",
          "type": "uint256"
        },
        {
          "internalType": "uint256",
          "name": "hw_price_in",
          "type": "uint256"
        },
        {
          "internalType": "uint256",
          "name": "hw_price_out",
          "type": "uint256"
        }
      ],
      "name": "AddModel",
      "outputs": [],
      "stateMutability": "nonpayable",
      "type": "function"
    },
    {
      "inputs": [
        {
          "internalType": "address",
          "name": "addr",
          "type": "address"
        }
      ],
      "name": "AddToHFWhitelist",
      "outputs": [],
      "stateMutability": "nonpayable",
      "type": "function"
    },
    {
      "inputs": [
        {
          "internalType": "string",
          "name": "lai_public_key",
          "type": "string"
        }
      ],
      "name": "ApproveWorker",
      "outputs": [],
      "stateMutability": "nonpayable",
      "type": "function"
    },
    {
      "inputs": [
        {
          "internalType": "string",
          "name": "lai_pub_key",
          "type": "string"
        }
      ],
      "name": "Ban",
      "outputs": [],
      "stateMutability": "nonpayable",
      "type": "function"
    },
    {
      "inputs": [
        {
          "internalType": "uint256",
          "name": "hw_cost",
          "type": "uint256"
        }
      ],
      "name": "CalculateServiceFee",
      "outputs": [
        {
          "internalType": "uint256",
          "name": "",
          "type": "uint256"
        }
      ],
      "stateMutability": "view",
      "type": "function"
    },
    {
      "inputs": [
        {
          "internalType": "uint256",
          "name": "llm_id",
          "type": "uint256"
        }
      ],
      "name": "DeleteModel",
      "outputs": [],
      "stateMutability": "nonpayable",
      "type": "function"
    },
    {
      "inputs": [
        {
          "internalType": "uint256",
          "name": "amount",
          "type": "uint256"
        }
      ],
      "name": "DepositCredit",
      "outputs": [],
      "stateMutability": "nonpayable",
      "type": "function"
    },
    {
      "inputs": [
        {
          "internalType": "uint256",
          "name": "llm_id",
          "type": "uint256"
        }
      ],
      "name": "GetMetaLLM",
      "outputs": [
        {
          "components": [
            {
              "internalType": "uint256",
              "name": "token_id",
              "type": "uint256"
            },
            {
              "internalType": "uint256",
              "name": "author_royalty",
              "type": "uint256"
            },
            {
              "internalType": "address",
              "name": "author_wallet",
              "type": "address"
            },
            {
              "internalType": "uint256",
              "name": "hw_price_per_input_token",
              "type": "uint256"
            },
            {
              "internalType": "uint256",
              "name": "hw_price_per_output_token",
              "type": "uint256"
            },
            {
              "internalType": "enum Pool.Pay_type",
              "name": "pay_type_",
              "type": "uint8"
            }
          ],
          "internalType": "struct Pool.LLM_meta",
          "name": "",
          "type": "tuple"
        }
      ],
      "stateMutability": "view",
      "type": "function"
    },
    {
      "inputs": [
        {
          "internalType": "uint256",
          "name": "llm_id",
          "type": "uint256"
        }
      ],
      "name": "GetModel",
      "outputs": [
        {
          "components": [
            {
              "internalType": "uint256",
              "name": "token_id",
              "type": "uint256"
            },
            {
              "internalType": "uint256",
              "name": "author_royalty",
              "type": "uint256"
            },
            {
              "internalType": "address",
              "name": "author_wallet",
              "type": "address"
            },
            {
              "internalType": "uint256",
              "name": "hw_price_per_input_token",
              "type": "uint256"
            },
            {
              "internalType": "uint256",
              "name": "hw_price_per_output_token",
              "type": "uint256"
            },
            {
              "internalType": "enum Pool.Pay_type",
              "name": "pay_type_",
              "type": "uint8"
            }
          ],
          "internalType": "struct Pool.LLM_meta",
          "name": "",
          "type": "tuple"
        }
      ],
      "stateMutability": "view",
      "type": "function"
    },
    {
      "inputs": [
        {
          "internalType": "uint256",
          "name": "llm_id",
          "type": "uint256"
        }
      ],
      "name": "GetTotalPrice",
      "outputs": [
        {
          "internalType": "uint256",
          "name": "",
          "type": "uint256"
        }
      ],
      "stateMutability": "view",
      "type": "function"
    },
    {
      "inputs": [
        {
          "internalType": "string",
          "name": "lai_id",
          "type": "string"
        }
      ],
      "name": "GetWorkerAddress",
      "outputs": [
        {
          "internalType": "address",
          "name": "",
          "type": "address"
        }
      ],
      "stateMutability": "view",
      "type": "function"
    },
    {
      "inputs": [
        {
          "internalType": "address",
          "name": "",
          "type": "address"
        }
      ],
      "name": "HFwhitelist",
      "outputs": [
        {
          "internalType": "bool",
          "name": "",
          "type": "bool"
        }
      ],
      "stateMutability": "view",
      "type": "function"
    },
    {
      "inputs": [
        {
          "internalType": "uint256",
          "name": "llm_id",
          "type": "uint256"
        },
        {
          "internalType": "address",
          "name": "user",
          "type": "address"
        }
      ],
      "name": "Pre_request",
      "outputs": [],
      "stateMutability": "view",
      "type": "function"
    },
    {
      "inputs": [
        {
          "internalType": "uint256",
          "name": "request_id",
          "type": "uint256"
        },
        {
          "internalType": "string",
          "name": "worker_id",
          "type": "string"
        },
        {
          "internalType": "uint256",
          "name": "llm_id",
          "type": "uint256"
        },
        {
          "internalType": "uint256",
          "name": "llmInputTokens",
          "type": "uint256"
        },
        {
          "internalType": "uint256",
          "name": "llmOutputTokens",
          "type": "uint256"
        },
        {
          "internalType": "uint256",
          "name": "processingTime",
          "type": "uint256"
        }
      ],
      "name": "ProcessResponse",
      "outputs": [],
      "stateMutability": "nonpayable",
      "type": "function"
    },
    {
      "inputs": [
        {
          "internalType": "string",
          "name": "lai_public_key",
          "type": "string"
        }
      ],
      "name": "RegisterWorker",
      "outputs": [],
      "stateMutability": "nonpayable",
      "type": "function"
    },
    {
      "inputs": [
        {
          "internalType": "address",
          "name": "addr",
          "type": "address"
        }
      ],
      "name": "RemoveFromHFWhitelist",
      "outputs": [],
      "stateMutability": "nonpayable",
      "type": "function"
    },
    {
      "inputs": [
        {
          "internalType": "string",
          "name": "lai_pub_key",
          "type": "string"
        }
      ],
      "name": "Unban",
      "outputs": [],
      "stateMutability": "nonpayable",
      "type": "function"
    },
    {
      "inputs": [
        {
          "internalType": "string",
          "name": "lai_pub_key",
          "type": "string"
        }
      ],
      "name": "Unregister",
      "outputs": [],
      "stateMutability": "nonpayable",
      "type": "function"
    },
    {
      "inputs": [
        {
          "internalType": "uint256",
          "name": "llm_id",
          "type": "uint256"
        },
        {
          "internalType": "uint256",
          "name": "new_royalty",
          "type": "uint256"
        },
        {
          "internalType": "address",
          "name": "new_address",
          "type": "address"
        }
      ],
      "name": "UpdateModel",
      "outputs": [],
      "stateMutability": "nonpayable",
      "type": "function"
    },
    {
      "inputs": [
        {
          "internalType": "string",
          "name": "old_lai_pub_key",
          "type": "string"
        },
        {
          "internalType": "string",
          "name": "new_lai_pub_key",
          "type": "string"
        }
      ],
      "name": "UpdateWorker",
      "outputs": [],
      "stateMutability": "nonpayable",
      "type": "function"
    },
    {
      "inputs": [
        {
          "internalType": "string",
          "name": "",
          "type": "string"
        }
      ],
      "name": "blacklist",
      "outputs": [
        {
          "internalType": "bool",
          "name": "",
          "type": "bool"
        }
      ],
      "stateMutability": "view",
      "type": "function"
    },
    {
      "inputs": [],
      "name": "hfswm",
      "outputs": [
        {
          "internalType": "contract HFSWM",
          "name": "",
          "type": "address"
        }
      ],
      "stateMutability": "view",
      "type": "function"
    },
    {
      "inputs": [
        {
          "internalType": "string",
          "name": "",
          "type": "string"
        }
      ],
      "name": "isApproved",
      "outputs": [
        {
          "internalType": "bool",
          "name": "",
          "type": "bool"
        }
      ],
      "stateMutability": "view",
      "type": "function"
    },
    {
      "inputs": [],
      "name": "owner",
      "outputs": [
        {
          "internalType": "address",
          "name": "",
          "type": "address"
        }
      ],
      "stateMutability": "view",
      "type": "function"
    },
    {
      "inputs": [],
      "name": "renounceOwnership",
      "outputs": [],
      "stateMutability": "nonpayable",
      "type": "function"
    },
    {
      "inputs": [
        {
          "internalType": "address",
          "name": "newOwner",
          "type": "address"
        }
      ],
      "name": "transferOwnership",
      "outputs": [],
      "stateMutability": "nonpayable",
      "type": "function"
    }
  ],
  "bytecode": "0x6080604052600160045534801561001557600080fd5b50604051613e7d380380613e7d833981810160405281019061003791906102ac565b33600073ffffffffffffffffffffffffffffffffffffffff168173ffffffffffffffffffffffffffffffffffffffff16036100aa5760006040517f1e4fbdf70000000000000000000000000000000000000000000000000000000081526004016100a1919061030e565b60405180910390fd5b6100b98161018560201b60201c565b5082600160006101000a81548173ffffffffffffffffffffffffffffffffffffffff021916908373ffffffffffffffffffffffffffffffffffffffff16021790555081600260006101000a81548173ffffffffffffffffffffffffffffffffffffffff021916908373ffffffffffffffffffffffffffffffffffffffff16021790555080600360006101000a81548173ffffffffffffffffffffffffffffffffffffffff021916908373ffffffffffffffffffffffffffffffffffffffff160217905550505050610329565b60008060009054906101000a900473ffffffffffffffffffffffffffffffffffffffff169050816000806101000a81548173ffffffffffffffffffffffffffffffffffffffff021916908373ffffffffffffffffffffffffffffffffffffffff1602179055508173ffffffffffffffffffffffffffffffffffffffff168173ffffffffffffffffffffffffffffffffffffffff167f8be0079c531659141344cd1fd0a4f28419497f9722a3daafe3b4186f6b6457e060405160405180910390a35050565b600080fd5b600073ffffffffffffffffffffffffffffffffffffffff82169050919050565b60006102798261024e565b9050919050565b6102898161026e565b811461029457600080fd5b50565b6000815190506102a681610280565b92915050565b6000806000606084860312156102c5576102c4610249565b5b60006102d386828701610297565b93505060206102e486828701610297565b92505060406102f586828701610297565b9150509250925092565b6103088161026e565b82525050565b600060208201905061032360008301846102ff565b92915050565b613b45806103386000396000f3fe608060405234801561001057600080fd5b506004361061018d5760003560e01c80639fcd8c9d116100de578063bad3191a11610097578063e03ec51111610071578063e03ec51114610476578063f2fde38b14610494578063f31fbc9f146104b0578063f6bd2ac8146104e05761018d565b8063bad3191a1461040e578063bbfb8caa1461042a578063c7567cd71461045a5761018d565b80639fcd8c9d1461033e578063aa3896921461035a578063ad7922d514610376578063b083de54146103a6578063b9359ea2146103d6578063ba68ce9c146103f25761018d565b8063421d27771161014b5780638c0233e9116101255780638c0233e9146102a45780638da5cb5b146102d45780638f977f36146102f257806397c37d6b1461030e5761018d565b8063421d27771461024e578063431f90f31461027e578063715018a61461029a5761018d565b8062345d3d146101925780630e5fd6d7146101ae5780631b988ce4146101de5780631e99f349146101fa57806327801534146102165780633266e29014610232575b600080fd5b6101ac60048036038101906101a79190612550565b6104fc565b005b6101c860048036038101906101c391906125b3565b61055f565b6040516101d591906125ef565b60405180910390f35b6101f860048036038101906101f391906125b3565b6105ec565b005b610214600480360381019061020f9190612750565b6106d3565b005b610230600480360381019061022b91906125b3565b6108ee565b005b61024c60048036038101906102479190612799565b61096a565b005b61026860048036038101906102639190612750565b610b4b565b60405161027591906127fb565b60405180910390f35b61029860048036038101906102939190612750565b610b98565b005b6102a2610bda565b005b6102be60048036038101906102b99190612750565b610bee565b6040516102cb9190612831565b60405180910390f35b6102dc610c24565b6040516102e991906127fb565b60405180910390f35b61030c6004803603810190610307919061284c565b610c4d565b005b610328600480360381019061032391906125b3565b611077565b60405161033591906125ef565b60405180910390f35b61035860048036038101906103539190612750565b6110c8565b005b610374600480360381019061036f91906128c4565b61144a565b005b610390600480360381019061038b91906125b3565b61169a565b60405161039d9190612a27565b60405180910390f35b6103c060048036038101906103bb9190612550565b611780565b6040516103cd9190612831565b60405180910390f35b6103f060048036038101906103eb9190612a42565b6117a0565b005b61040c60048036038101906104079190612550565b6119b5565b005b61042860048036038101906104239190612750565b611a18565b005b610444600480360381019061043f91906125b3565b611a5a565b6040516104519190612a27565b60405180910390f35b610474600480360381019061046f9190612a82565b611b40565b005b61047e612176565b60405161048b9190612b8a565b60405180910390f35b6104ae60048036038101906104a99190612550565b61219c565b005b6104ca60048036038101906104c59190612750565b612222565b6040516104d79190612831565b60405180910390f35b6104fa60048036038101906104f59190612750565b612258565b005b61050461229a565b6000600960008373ffffffffffffffffffffffffffffffffffffffff1673ffffffffffffffffffffffffffffffffffffffff16815260200190815260200160002060006101000a81548160ff02191690831515021790555050565b60008073__$6ca259786bae6b18641118eb2a4c0483c3$__63a285b8948460646004546040518463ffffffff1660e01b81526004016105a093929190612bef565b602060405180830381865af41580156105bd573d6000803e3d6000fd5b505050506040513d601f19601f820116820180604052508101906105e19190612c3b565b905080915050919050565b600260009054906101000a900473ffffffffffffffffffffffffffffffffffffffff1673ffffffffffffffffffffffffffffffffffffffff166323b872dd3330846040518463ffffffff1660e01b815260040161064b93929190612c68565b6020604051808303816000875af115801561066a573d6000803e3d6000fd5b505050506040513d601f19601f8201168201806040525081019061068e9190612ccb565b61069757600080fd5b7fe1fffcc4923d04b559f4d29a8bfc6cda04eb5b0d3c460751c2402c5c5cc9109c33826040516106c8929190612cf8565b60405180910390a150565b3373ffffffffffffffffffffffffffffffffffffffff166005826040516106fa9190612d92565b908152602001604051809103902060009054906101000a900473ffffffffffffffffffffffffffffffffffffffff1673ffffffffffffffffffffffffffffffffffffffff161461077f576040517f08c379a000000000000000000000000000000000000000000000000000000000815260040161077690612e06565b60405180910390fd5b6000600660003373ffffffffffffffffffffffffffffffffffffffff1673ffffffffffffffffffffffffffffffffffffffff168152602001908152602001600020905060005b81805490508110156108a85782805190602001208282815481106107ec576107eb612e26565b5b906000526020600020016040516108039190612f58565b60405180910390200361089b5781600183805490506108229190612f9e565b8154811061083357610832612e26565b5b906000526020600020018282815481106108505761084f612e26565b5b906000526020600020019081610866919061319f565b508180548061087857610877613287565b5b60019003818190600052602060002001600061089491906123ed565b90556108a8565b80806001019150506107c5565b506005826040516108b99190612d92565b908152602001604051809103902060006101000a81549073ffffffffffffffffffffffffffffffffffffffff02191690555050565b6108f661229a565b600a600082815260200190815260200160002060008082016000905560018201600090556002820160006101000a81549073ffffffffffffffffffffffffffffffffffffffff0219169055600382016000905560048201600090556005820160006101000a81549060ff0219169055505050565b61097261229a565b6000600a60008581526020019081526020016000206040518060c001604052908160008201548152602001600182015481526020016002820160009054906101000a900473ffffffffffffffffffffffffffffffffffffffff1673ffffffffffffffffffffffffffffffffffffffff1673ffffffffffffffffffffffffffffffffffffffff16815260200160038201548152602001600482015481526020016005820160009054906101000a900460ff166001811115610a3557610a34612935565b5b6001811115610a4757610a46612935565b5b8152505090508281602001818152505081816040019073ffffffffffffffffffffffffffffffffffffffff16908173ffffffffffffffffffffffffffffffffffffffff168152505080600a6000868152602001908152602001600020600082015181600001556020820151816001015560408201518160020160006101000a81548173ffffffffffffffffffffffffffffffffffffffff021916908373ffffffffffffffffffffffffffffffffffffffff160217905550606082015181600301556080820151816004015560a08201518160050160006101000a81548160ff02191690836001811115610b3d57610b3c612935565b5b021790555090505050505050565b600080600583604051610b5e9190612d92565b908152602001604051809103902060009054906101000a900473ffffffffffffffffffffffffffffffffffffffff16905080915050919050565b610ba061229a565b6001600882604051610bb29190612d92565b908152602001604051809103902060006101000a81548160ff02191690831515021790555050565b610be261229a565b610bec6000612321565b565b6007818051602081018201805184825260208301602085012081835280955050505050506000915054906101000a900460ff1681565b60008060009054906101000a900473ffffffffffffffffffffffffffffffffffffffff16905090565b3373ffffffffffffffffffffffffffffffffffffffff16600583604051610c749190612d92565b908152602001604051809103902060009054906101000a900473ffffffffffffffffffffffffffffffffffffffff1673ffffffffffffffffffffffffffffffffffffffff1614610cf9576040517f08c379a0000000000000000000000000000000000000000000000000000000008152600401610cf090612e06565b60405180910390fd5b600073ffffffffffffffffffffffffffffffffffffffff16600582604051610d219190612d92565b908152602001604051809103902060009054906101000a900473ffffffffffffffffffffffffffffffffffffffff1673ffffffffffffffffffffffffffffffffffffffff1614610da6576040517f08c379a0000000000000000000000000000000000000000000000000000000008152600401610d9d90613302565b60405180910390fd5b600781604051610db69190612d92565b908152602001604051809103902060009054906101000a900460ff1615610e12576040517f08c379a0000000000000000000000000000000000000000000000000000000008152600401610e099061336e565b60405180910390fd5b6000600660003373ffffffffffffffffffffffffffffffffffffffff1673ffffffffffffffffffffffffffffffffffffffff168152602001908152602001600020905060005b8180549050811015611071578380519060200120828281548110610e7f57610e7e612e26565b5b90600052602060002001604051610e969190612f58565b604051809103902003610ed35782828281548110610eb757610eb6612e26565b5b906000526020600020019081610ecd919061338e565b50611071565b600584604051610ee39190612d92565b908152602001604051809103902060006101000a81549073ffffffffffffffffffffffffffffffffffffffff021916905533600584604051610f259190612d92565b908152602001604051809103902060006101000a81548173ffffffffffffffffffffffffffffffffffffffff021916908373ffffffffffffffffffffffffffffffffffffffff160217905550600884604051610f819190612d92565b908152602001604051809103902060009054906101000a900460ff16600884604051610fad9190612d92565b908152602001604051809103902060006101000a81548160ff021916908315150217905550600884604051610fe29190612d92565b908152602001604051809103902060006101000a81549060ff02191690557fee06bd32f8b2583fd50c0dd94d872913c9fe17bb486e0f9d4b4865752d79efa0336008856040516110329190612d92565b908152602001604051809103902060009054906101000a900460ff1660405161105c929190613460565b60405180910390a18080600101915050610e58565b50505050565b6000806110838361169a565b905060008160200151905060008260600151905060008360800151905060008183856110af9190613489565b6110b99190613489565b90508095505050505050919050565b6007816040516110d89190612d92565b908152602001604051809103902060009054906101000a900460ff1615611134576040517f08c379a000000000000000000000000000000000000000000000000000000000815260040161112b90613509565b60405180910390fd5b600073ffffffffffffffffffffffffffffffffffffffff1660058260405161115c9190612d92565b908152602001604051809103902060009054906101000a900473ffffffffffffffffffffffffffffffffffffffff1673ffffffffffffffffffffffffffffffffffffffff16146111e1576040517f08c379a00000000000000000000000000000000000000000000000000000000081526004016111d890613575565b60405180910390fd5b6014600660003373ffffffffffffffffffffffffffffffffffffffff1673ffffffffffffffffffffffffffffffffffffffff1681526020019081526020016000208054905010611266576040517f08c379a000000000000000000000000000000000000000000000000000000000815260040161125d90613607565b60405180910390fd5b600660003373ffffffffffffffffffffffffffffffffffffffff1673ffffffffffffffffffffffffffffffffffffffff168152602001908152602001600020819080600181540180825580915050600190039060005260206000200160009091909190915090816112d7919061338e565b50336005826040516112e99190612d92565b908152602001604051809103902060006101000a81548173ffffffffffffffffffffffffffffffffffffffff021916908373ffffffffffffffffffffffffffffffffffffffff16021790555060018081111561134857611347612935565b5b600060149054906101000a900460ff16600181111561136a57611369612935565b5b036113ab5760016008826040516113819190612d92565b908152602001604051809103902060006101000a81548160ff0219169083151502179055506113e3565b60006008826040516113bd9190612d92565b908152602001604051809103902060006101000a81548160ff0219169083151502179055505b7fee06bd32f8b2583fd50c0dd94d872913c9fe17bb486e0f9d4b4865752d79efa0336008836040516114159190612d92565b908152602001604051809103902060009054906101000a900460ff1660405161143f929190613460565b60405180910390a150565b61145261229a565b6000600160009054906101000a900473ffffffffffffffffffffffffffffffffffffffff1673ffffffffffffffffffffffffffffffffffffffff166340a24c67856040518263ffffffff1660e01b81526004016114af91906125ef565b600060405180830381865afa1580156114cc573d6000803e3d6000fd5b505050506040513d6000823e3d601f19601f820116820180604052508101906114f591906137b3565b90506114ff61242d565b600080836080015190506000600181111561151d5761151c612935565b5b8160018111156115305761152f612935565b5b0361153e5760009150611543565b600191505b818360a00190600181111561155b5761155a612935565b5b9081600181111561156f5761156e612935565b5b8152505083604001518360200181815250508360600151836040019073ffffffffffffffffffffffffffffffffffffffff16908173ffffffffffffffffffffffffffffffffffffffff168152505086836000018181525050858360600181815250508483608001818152505082600a6000898152602001908152602001600020600082015181600001556020820151816001015560408201518160020160006101000a81548173ffffffffffffffffffffffffffffffffffffffff021916908373ffffffffffffffffffffffffffffffffffffffff160217905550606082015181600301556080820151816004015560a08201518160050160006101000a81548160ff0219169083600181111561168957611688612935565b5b021790555090505050505050505050565b6116a261242d565b600a60008381526020019081526020016000206040518060c001604052908160008201548152602001600182015481526020016002820160009054906101000a900473ffffffffffffffffffffffffffffffffffffffff1673ffffffffffffffffffffffffffffffffffffffff1673ffffffffffffffffffffffffffffffffffffffff16815260200160038201548152602001600482015481526020016005820160009054906101000a900460ff16600181111561176357611762612935565b5b600181111561177557611774612935565b5b815250509050919050565b60096020528060005260406000206000915054906101000a900460ff1681565b6000600160009054906101000a900473ffffffffffffffffffffffffffffffffffffffff1673ffffffffffffffffffffffffffffffffffffffff166340a24c67846040518263ffffffff1660e01b81526004016117fd91906125ef565b600060405180830381865afa15801561181a573d6000803e3d6000fd5b505050506040513d6000823e3d601f19601f8201168201806040525081019061184391906137b3565b90506000816080015190506000808360a00151905060006118638761169a565b9050600081606001519050600080600181111561188357611882612935565b5b86600181111561189657611895612935565b5b036118b2576000945081846118ab91906137fc565b90506118c6565b600194506001826118c391906137fc565b90505b6000600260009054906101000a900473ffffffffffffffffffffffffffffffffffffffff1673ffffffffffffffffffffffffffffffffffffffff166370a082318a6040518263ffffffff1660e01b815260040161192391906127fb565b602060405180830381865afa158015611940573d6000803e3d6000fd5b505050506040513d601f19601f820116820180604052508101906119649190612c3b565b9050818110156119a9576040517f08c379a00000000000000000000000000000000000000000000000000000000081526004016119a09061388a565b60405180910390fd5b50505050505050505050565b6119bd61229a565b6001600960008373ffffffffffffffffffffffffffffffffffffffff1673ffffffffffffffffffffffffffffffffffffffff16815260200190815260200160002060006101000a81548160ff02191690831515021790555050565b611a2061229a565b6000600782604051611a329190612d92565b908152602001604051809103902060006101000a81548160ff02191690831515021790555050565b611a6261242d565b600a60008381526020019081526020016000206040518060c001604052908160008201548152602001600182015481526020016002820160009054906101000a900473ffffffffffffffffffffffffffffffffffffffff1673ffffffffffffffffffffffffffffffffffffffff1673ffffffffffffffffffffffffffffffffffffffff16815260200160038201548152602001600482015481526020016005820160009054906101000a900460ff166001811115611b2357611b22612935565b5b6001811115611b3557611b34612935565b5b815250509050919050565b600785604051611b509190612d92565b908152602001604051809103902060009054906101000a900460ff1615611bac576040517f08c379a0000000000000000000000000000000000000000000000000000000008152600401611ba3906138f6565b60405180910390fd5b600885604051611bbc9190612d92565b908152602001604051809103902060009054906101000a900460ff16611c17576040517f08c379a0000000000000000000000000000000000000000000000000000000008152600401611c0e90613962565b60405180910390fd5b6000611c228561169a565b905060008160a001519050611c3561248b565b60006001811115611c4957611c48612935565b5b826001811115611c5c57611c5b612935565b5b03611ce7578486611c6d9190613489565b8160a001818152505082606001518160000181815250508260800151816020018181525050848160200151611ca291906137fc565b868260000151611cb291906137fc565b611cbc9190613489565b8160400181815250508060a001518360200151611cd991906137fc565b816080018181525050611d20565b82606001518160000181815250508260200151816060018181525050806000015181604001818152505080606001518160800181815250505b6000611d2b89610b4b565b9050600084604001519050600960008373ffffffffffffffffffffffffffffffffffffffff1673ffffffffffffffffffffffffffffffffffffffff16815260200190815260200160002060009054906101000a900460ff1615611e2057600360009054906101000a900473ffffffffffffffffffffffffffffffffffffffff1673ffffffffffffffffffffffffffffffffffffffff166340c10f198385604001516040518363ffffffff1660e01b8152600401611de9929190612cf8565b600060405180830381600087803b158015611e0357600080fd5b505af1158015611e17573d6000803e3d6000fd5b50505050611f04565b600260009054906101000a900473ffffffffffffffffffffffffffffffffffffffff1673ffffffffffffffffffffffffffffffffffffffff1663a9059cbb8385604001516040518363ffffffff1660e01b8152600401611e81929190612cf8565b6020604051808303816000875af1158015611ea0573d6000803e3d6000fd5b505050506040513d601f19601f82011682018060405250810190611ec49190612ccb565b611f03576040517f08c379a0000000000000000000000000000000000000000000000000000000008152600401611efa906139ce565b60405180910390fd5b5b600960008273ffffffffffffffffffffffffffffffffffffffff1673ffffffffffffffffffffffffffffffffffffffff16815260200190815260200160002060009054906101000a900460ff1615611fee57600360009054906101000a900473ffffffffffffffffffffffffffffffffffffffff1673ffffffffffffffffffffffffffffffffffffffff166340c10f198285608001516040518363ffffffff1660e01b8152600401611fb7929190612cf8565b600060405180830381600087803b158015611fd157600080fd5b505af1158015611fe5573d6000803e3d6000fd5b505050506120d2565b600260009054906101000a900473ffffffffffffffffffffffffffffffffffffffff1673ffffffffffffffffffffffffffffffffffffffff1663a9059cbb8285608001516040518363ffffffff1660e01b815260040161204f929190612cf8565b6020604051808303816000875af115801561206e573d6000803e3d6000fd5b505050506040513d601f19601f820116820180604052508101906120929190612ccb565b6120d1576040517f08c379a00000000000000000000000000000000000000000000000000000000081526004016120c890613a3a565b60405180910390fd5b5b7fe682774c095c98275661d05ff664616a641de1592fa52e2412789919e84b01ad8b8a848b8b8860800151896040015161210c9190613489565b8c42604051612122989796959493929190613a5a565b60405180910390a17f634235fcf5af0adbca1a405ec65f6f6c08f55e1f379c2c45cd10f23cb29e0e31828a856040015160405161216193929190613ad8565b60405180910390a15050505050505050505050565b600360009054906101000a900473ffffffffffffffffffffffffffffffffffffffff1681565b6121a461229a565b600073ffffffffffffffffffffffffffffffffffffffff168173ffffffffffffffffffffffffffffffffffffffff16036122165760006040517f1e4fbdf700000000000000000000000000000000000000000000000000000000815260040161220d91906127fb565b60405180910390fd5b61221f81612321565b50565b6008818051602081018201805184825260208301602085012081835280955050505050506000915054906101000a900460ff1681565b61226061229a565b60016007826040516122729190612d92565b908152602001604051809103902060006101000a81548160ff02191690831515021790555050565b6122a26123e5565b73ffffffffffffffffffffffffffffffffffffffff166122c0610c24565b73ffffffffffffffffffffffffffffffffffffffff161461231f576122e36123e5565b6040517f118cdaa700000000000000000000000000000000000000000000000000000000815260040161231691906127fb565b60405180910390fd5b565b60008060009054906101000a900473ffffffffffffffffffffffffffffffffffffffff169050816000806101000a81548173ffffffffffffffffffffffffffffffffffffffff021916908373ffffffffffffffffffffffffffffffffffffffff1602179055508173ffffffffffffffffffffffffffffffffffffffff168173ffffffffffffffffffffffffffffffffffffffff167f8be0079c531659141344cd1fd0a4f28419497f9722a3daafe3b4186f6b6457e060405160405180910390a35050565b600033905090565b5080546123f990612e84565b6000825580601f1061240b575061242a565b601f01602090049060005260206000209081019061242991906124c1565b5b50565b6040518060c001604052806000815260200160008152602001600073ffffffffffffffffffffffffffffffffffffffff16815260200160008152602001600081526020016000600181111561248557612484612935565b5b81525090565b6040518060c001604052806000815260200160008152602001600081526020016000815260200160008152602001600081525090565b5b808211156124da5760008160009055506001016124c2565b5090565b6000604051905090565b600080fd5b600080fd5b600073ffffffffffffffffffffffffffffffffffffffff82169050919050565b600061251d826124f2565b9050919050565b61252d81612512565b811461253857600080fd5b50565b60008135905061254a81612524565b92915050565b600060208284031215612566576125656124e8565b5b60006125748482850161253b565b91505092915050565b6000819050919050565b6125908161257d565b811461259b57600080fd5b50565b6000813590506125ad81612587565b92915050565b6000602082840312156125c9576125c86124e8565b5b60006125d78482850161259e565b91505092915050565b6125e98161257d565b82525050565b600060208201905061260460008301846125e0565b92915050565b600080fd5b600080fd5b6000601f19601f8301169050919050565b7f4e487b7100000000000000000000000000000000000000000000000000000000600052604160045260246000fd5b61265d82612614565b810181811067ffffffffffffffff8211171561267c5761267b612625565b5b80604052505050565b600061268f6124de565b905061269b8282612654565b919050565b600067ffffffffffffffff8211156126bb576126ba612625565b5b6126c482612614565b9050602081019050919050565b82818337600083830152505050565b60006126f36126ee846126a0565b612685565b90508281526020810184848401111561270f5761270e61260f565b5b61271a8482856126d1565b509392505050565b600082601f8301126127375761273661260a565b5b81356127478482602086016126e0565b91505092915050565b600060208284031215612766576127656124e8565b5b600082013567ffffffffffffffff811115612784576127836124ed565b5b61279084828501612722565b91505092915050565b6000806000606084860312156127b2576127b16124e8565b5b60006127c08682870161259e565b93505060206127d18682870161259e565b92505060406127e28682870161253b565b9150509250925092565b6127f581612512565b82525050565b600060208201905061281060008301846127ec565b92915050565b60008115159050919050565b61282b81612816565b82525050565b60006020820190506128466000830184612822565b92915050565b60008060408385031215612863576128626124e8565b5b600083013567ffffffffffffffff811115612881576128806124ed565b5b61288d85828601612722565b925050602083013567ffffffffffffffff8111156128ae576128ad6124ed565b5b6128ba85828601612722565b9150509250929050565b6000806000606084860312156128dd576128dc6124e8565b5b60006128eb8682870161259e565b93505060206128fc8682870161259e565b925050604061290d8682870161259e565b9150509250925092565b6129208161257d565b82525050565b61292f81612512565b82525050565b7f4e487b7100000000000000000000000000000000000000000000000000000000600052602160045260246000fd5b6002811061297557612974612935565b5b50565b600081905061298682612964565b919050565b600061299682612978565b9050919050565b6129a68161298b565b82525050565b60c0820160008201516129c26000850182612917565b5060208201516129d56020850182612917565b5060408201516129e86040850182612926565b5060608201516129fb6060850182612917565b506080820151612a0e6080850182612917565b5060a0820151612a2160a085018261299d565b50505050565b600060c082019050612a3c60008301846129ac565b92915050565b60008060408385031215612a5957612a586124e8565b5b6000612a678582860161259e565b9250506020612a788582860161253b565b9150509250929050565b60008060008060008060c08789031215612a9f57612a9e6124e8565b5b6000612aad89828a0161259e565b965050602087013567ffffffffffffffff811115612ace57612acd6124ed565b5b612ada89828a01612722565b9550506040612aeb89828a0161259e565b9450506060612afc89828a0161259e565b9350506080612b0d89828a0161259e565b92505060a0612b1e89828a0161259e565b9150509295509295509295565b6000819050919050565b6000612b50612b4b612b46846124f2565b612b2b565b6124f2565b9050919050565b6000612b6282612b35565b9050919050565b6000612b7482612b57565b9050919050565b612b8481612b69565b82525050565b6000602082019050612b9f6000830184612b7b565b92915050565b612bae8161257d565b82525050565b6000819050919050565b6000612bd9612bd4612bcf84612bb4565b612b2b565b61257d565b9050919050565b612be981612bbe565b82525050565b6000606082019050612c046000830186612ba5565b612c116020830185612be0565b612c1e6040830184612ba5565b949350505050565b600081519050612c3581612587565b92915050565b600060208284031215612c5157612c506124e8565b5b6000612c5f84828501612c26565b91505092915050565b6000606082019050612c7d60008301866127ec565b612c8a60208301856127ec565b612c9760408301846125e0565b949350505050565b612ca881612816565b8114612cb357600080fd5b50565b600081519050612cc581612c9f565b92915050565b600060208284031215612ce157612ce06124e8565b5b6000612cef84828501612cb6565b91505092915050565b6000604082019050612d0d60008301856127ec565b612d1a60208301846125e0565b9392505050565b600081519050919050565b600081905092915050565b60005b83811015612d55578082015181840152602081019050612d3a565b60008484015250505050565b6000612d6c82612d21565b612d768185612d2c565b9350612d86818560208601612d37565b80840191505092915050565b6000612d9e8284612d61565b915081905092915050565b600082825260208201905092915050565b7f4e6f7420796f757220776f726b6572206b657900000000000000000000000000600082015250565b6000612df0601383612da9565b9150612dfb82612dba565b602082019050919050565b60006020820190508181036000830152612e1f81612de3565b9050919050565b7f4e487b7100000000000000000000000000000000000000000000000000000000600052603260045260246000fd5b7f4e487b7100000000000000000000000000000000000000000000000000000000600052602260045260246000fd5b60006002820490506001821680612e9c57607f821691505b602082108103612eaf57612eae612e55565b5b50919050565b600081905092915050565b60008190508160005260206000209050919050565b60008154612ee281612e84565b612eec8186612eb5565b94506001821660008114612f075760018114612f1c57612f4f565b60ff1983168652811515820286019350612f4f565b612f2585612ec0565b60005b83811015612f4757815481890152600182019150602081019050612f28565b838801955050505b50505092915050565b6000612f648284612ed5565b915081905092915050565b7f4e487b7100000000000000000000000000000000000000000000000000000000600052601160045260246000fd5b6000612fa98261257d565b9150612fb48361257d565b9250828203905081811115612fcc57612fcb612f6f565b5b92915050565b600081549050612fe181612e84565b9050919050565b60008190508160005260206000209050919050565b60008190508160005260206000209050919050565b60006020601f8301049050919050565b600082821b905092915050565b60006008830261305f7fffffffffffffffffffffffffffffffffffffffffffffffffffffffffffffffff82613022565b6130698683613022565b95508019841693508086168417925050509392505050565b600061309c6130976130928461257d565b612b2b565b61257d565b9050919050565b6000819050919050565b6130b683613081565b6130ca6130c2826130a3565b84845461302f565b825550505050565b600090565b6130df6130d2565b6130ea8184846130ad565b505050565b5b8181101561310e576131036000826130d7565b6001810190506130f0565b5050565b601f8211156131535761312481612fe8565b61312d84613012565b8101602085101561313c578190505b61315061314885613012565b8301826130ef565b50505b505050565b600082821c905092915050565b600061317660001984600802613158565b1980831691505092915050565b600061318f8383613165565b9150826002028217905092915050565b8181036131ad575050613285565b6131b682612fd2565b67ffffffffffffffff8111156131cf576131ce612625565b5b6131d98254612e84565b6131e4828285613112565b6000601f8311600181146132135760008415613201578287015490505b61320b8582613183565b86555061327e565b601f19841661322187612ffd565b965061322c86612fe8565b60005b828110156132545784890154825560018201915060018501945060208101905061322f565b86831015613271578489015461326d601f891682613165565b8355505b6001600288020188555050505b5050505050505b565b7f4e487b7100000000000000000000000000000000000000000000000000000000600052603160045260246000fd5b7f4e6577206b657920616c72656164792072656769737465726564000000000000600082015250565b60006132ec601a83612da9565b91506132f7826132b6565b602082019050919050565b6000602082019050818103600083015261331b816132df565b9050919050565b7f4e6577206b657920697320626c61636b6c697374656400000000000000000000600082015250565b6000613358601683612da9565b915061336382613322565b602082019050919050565b600060208201905081810360008301526133878161334b565b9050919050565b61339782612d21565b67ffffffffffffffff8111156133b0576133af612625565b5b6133ba8254612e84565b6133c5828285613112565b600060209050601f8311600181146133f857600084156133e6578287015190505b6133f08582613183565b865550613458565b601f19841661340686612fe8565b60005b8281101561342e57848901518255600182019150602085019450602081019050613409565b8683101561344b5784890151613447601f891682613165565b8355505b6001600288020188555050505b505050505050565b600060408201905061347560008301856127ec565b6134826020830184612822565b9392505050565b60006134948261257d565b915061349f8361257d565b92508282019050808211156134b7576134b6612f6f565b5b92915050565b7f54686973206b657920697320696e20626c61636b6c6973740000000000000000600082015250565b60006134f3601883612da9565b91506134fe826134bd565b602082019050919050565b60006020820190508181036000830152613522816134e6565b9050919050565b7f4b657920616c7265616479207265676973746572656400000000000000000000600082015250565b600061355f601683612da9565b915061356a82613529565b602082019050919050565b6000602082019050818103600083015261358e81613552565b9050919050565b7f4d6178696d756d206e756d626572206f6620776f726b6572732028323029207260008201527f6561636865640000000000000000000000000000000000000000000000000000602082015250565b60006135f1602683612da9565b91506135fc82613595565b604082019050919050565b60006020820190508181036000830152613620816135e4565b9050919050565b600080fd5b600080fd5b600061364461363f846126a0565b612685565b9050828152602081018484840111156136605761365f61260f565b5b61366b848285612d37565b509392505050565b600082601f8301126136885761368761260a565b5b8151613698848260208601613631565b91505092915050565b6000815190506136b081612524565b92915050565b600281106136c357600080fd5b50565b6000815190506136d5816136b6565b92915050565b600060c082840312156136f1576136f0613627565b5b6136fb60c0612685565b9050600082015167ffffffffffffffff81111561371b5761371a61362c565b5b61372784828501613673565b600083015250602082015167ffffffffffffffff81111561374b5761374a61362c565b5b61375784828501613673565b602083015250604061376b84828501612c26565b604083015250606061377f848285016136a1565b6060830152506080613793848285016136c6565b60808301525060a06137a784828501612c26565b60a08301525092915050565b6000602082840312156137c9576137c86124e8565b5b600082015167ffffffffffffffff8111156137e7576137e66124ed565b5b6137f3848285016136db565b91505092915050565b60006138078261257d565b91506138128361257d565b92508282026138208161257d565b9150828204841483151761383757613836612f6f565b5b5092915050565b7f45524332303a20696e73756666696369656e742062616c616e63650000000000600082015250565b6000613874601b83612da9565b915061387f8261383e565b602082019050919050565b600060208201905081810360008301526138a381613867565b9050919050565b7f5468697320776f726b657220697320696e20626c61636b6c6973740000000000600082015250565b60006138e0601b83612da9565b91506138eb826138aa565b602082019050919050565b6000602082019050818103600083015261390f816138d3565b9050919050565b7f5468697320776f726b6572206973206e6f742079657420617070726f76656400600082015250565b600061394c601f83612da9565b915061395782613916565b602082019050919050565b6000602082019050818103600083015261397b8161393f565b9050919050565b7f43726564697420746f20776f726b6572206661696c6564000000000000000000600082015250565b60006139b8601783612da9565b91506139c382613982565b602082019050919050565b600060208201905081810360008301526139e7816139ab565b9050919050565b7f43726564697420746f20617574686f72206661696c6564000000000000000000600082015250565b6000613a24601783612da9565b9150613a2f826139ee565b602082019050919050565b60006020820190508181036000830152613a5381613a17565b9050919050565b600061010082019050613a70600083018b6125e0565b613a7d602083018a6125e0565b613a8a60408301896127ec565b613a9760608301886125e0565b613aa460808301876125e0565b613ab160a08301866125e0565b613abe60c08301856125e0565b613acb60e08301846125e0565b9998505050505050505050565b6000606082019050613aed60008301866127ec565b613afa60208301856125e0565b613b0760408301846125e0565b94935050505056fea26469706673582212206ad3a95647c7ac00722a99f0e8efec649b613507c3fc4aa9b905ff39033d39b064736f6c634300081c0033",
  "linkReferences": {
    "contracts/FeesCalculator.sol": {
      "FeesCalculator": [
        {
          "length": 20,
          "start": 2204
        }
      ]
    }
  },
  "deployedLinkReferences": {
    "contracts/FeesCalculator.sol": {
      "FeesCalculator": [
        {
          "length": 20,
          "start": 1380
        }
      ]
    }
  }
}