{
  "_format": "hh-sol-artifact-1",
  "contractName": "Pool",
  "sourceName": "contracts/pool.sol",
  "abi": [
    {
      "inputs": [
        {
          "internalType": "address",
          "name": "llm_nft",
          "type": "address"
        },
        {
          "internalType": "address",
          "name": "credit_",
          "type": "address"
        },
        {
          "internalType": "address",
          "name": "hfswm_",
          "type": "address"
        }
      ],
      "stateMutability": "nonpayable",
      "type": "constructor"
    },
    {
      "inputs": [
        {
          "internalType": "address",
          "name": "owner",
          "type": "address"
        }
      ],
      "name": "OwnableInvalidOwner",
      "type": "error"
    },
    {
      "inputs": [
        {
          "internalType": "address",
          "name": "account",
          "type": "address"
        }
      ],
      "name": "OwnableUnauthorizedAccount",
      "type": "error"
    },
    {
      "anonymous": false,
      "inputs": [
        {
          "indexed": false,
          "internalType": "address",
          "name": "user",
          "type": "address"
        },
        {
          "indexed": false,
          "internalType": "uint256",
          "name": "amount",
          "type": "uint256"
        }
      ],
      "name": "Deposit",
      "type": "event"
    },
    {
      "anonymous": false,
      "inputs": [
        {
          "indexed": false,
          "internalType": "uint256",
          "name": "token_id",
          "type": "uint256"
        },
        {
          "indexed": false,
          "internalType": "uint256",
          "name": "author_royalty",
          "type": "uint256"
        },
        {
          "indexed": false,
          "internalType": "address",
          "name": "author_wallet",
          "type": "address"
        },
        {
          "indexed": false,
          "internalType": "uint256",
          "name": "hw_price_per_input_token",
          "type": "uint256"
        },
        {
          "indexed": false,
          "internalType": "uint256",
          "name": "hw_price_per_output_token",
          "type": "uint256"
        },
        {
          "indexed": false,
          "internalType": "enum Pool.Pay_type",
          "name": "pay_type_",
          "type": "uint8"
        }
      ],
      "name": "ModelAdded",
      "type": "event"
    },
    {
      "anonymous": false,
      "inputs": [
        {
          "indexed": false,
          "internalType": "uint256",
          "name": "token_id",
          "type": "uint256"
        },
        {
          "indexed": false,
          "internalType": "uint256",
          "name": "author_royalty",
          "type": "uint256"
        },
        {
          "indexed": false,
          "internalType": "address",
          "name": "author_wallet",
          "type": "address"
        },
        {
          "indexed": false,
          "internalType": "uint256",
          "name": "hw_price_per_input_token",
          "type": "uint256"
        },
        {
          "indexed": false,
          "internalType": "uint256",
          "name": "hw_price_per_output_token",
          "type": "uint256"
        },
        {
          "indexed": false,
          "internalType": "enum Pool.Pay_type",
          "name": "pay_type_",
          "type": "uint8"
        }
      ],
      "name": "ModelDeleted",
      "type": "event"
    },
    {
      "anonymous": false,
      "inputs": [
        {
          "indexed": false,
          "internalType": "address",
          "name": "worker",
          "type": "address"
        },
        {
          "indexed": false,
          "internalType": "bool",
          "name": "isApproved",
          "type": "bool"
        }
      ],
      "name": "NewWorker",
      "type": "event"
    },
    {
      "anonymous": false,
      "inputs": [
        {
          "indexed": true,
          "internalType": "address",
          "name": "previousOwner",
          "type": "address"
        },
        {
          "indexed": true,
          "internalType": "address",
          "name": "newOwner",
          "type": "address"
        }
      ],
      "name": "OwnershipTransferred",
      "type": "event"
    },
    {
      "anonymous": false,
      "inputs": [
        {
          "indexed": false,
          "internalType": "address",
          "name": "provider",
          "type": "address"
        },
        {
          "indexed": false,
          "internalType": "uint256",
          "name": "llm_id",
          "type": "uint256"
        },
        {
          "indexed": false,
          "internalType": "uint256",
          "name": "amount",
          "type": "uint256"
        }
      ],
      "name": "Payout",
      "type": "event"
    },
    {
      "anonymous": false,
      "inputs": [
        {
          "indexed": false,
          "internalType": "uint256",
          "name": "id",
          "type": "uint256"
        },
        {
          "indexed": false,
          "internalType": "uint256",
          "name": "llm_id",
          "type": "uint256"
        },
        {
          "indexed": false,
          "internalType": "address",
          "name": "worker",
          "type": "address"
        },
        {
          "indexed": false,
          "internalType": "uint256",
          "name": "llmInputTokens",
          "type": "uint256"
        },
        {
          "indexed": false,
          "internalType": "uint256",
          "name": "llmOutputTokens",
          "type": "uint256"
        },
        {
          "indexed": false,
          "internalType": "uint256",
          "name": "cost",
          "type": "uint256"
        },
        {
          "indexed": false,
          "internalType": "uint256",
          "name": "processingTime",
          "type": "uint256"
        },
        {
          "indexed": false,
          "internalType": "uint256",
          "name": "timestamp",
          "type": "uint256"
        }
      ],
      "name": "Response",
      "type": "event"
    },
    {
      "inputs": [
        {
          "internalType": "uint256",
          "name": "token_id",
          "type": "uint256"
        },
        {
          "internalType": "uint256",
          "name": "hw_price_in",
          "type": "uint256"
        },
        {
          "internalType": "uint256",
          "name": "hw_price_out",
          "type": "uint256"
        }
      ],
      "name": "AddModel",
      "outputs": [],
      "stateMutability": "nonpayable",
      "type": "function"
    },
    {
      "inputs": [
        {
          "internalType": "address",
          "name": "addr",
          "type": "address"
        }
      ],
      "name": "AddToHFWhitelist",
      "outputs": [],
      "stateMutability": "nonpayable",
      "type": "function"
    },
    {
      "inputs": [
        {
          "internalType": "string",
          "name": "lai_public_key",
          "type": "string"
        }
      ],
      "name": "ApproveWorker",
      "outputs": [],
      "stateMutability": "nonpayable",
      "type": "function"
    },
    {
      "inputs": [
        {
          "internalType": "string",
          "name": "lai_pub_key",
          "type": "string"
        }
      ],
      "name": "Ban",
      "outputs": [],
      "stateMutability": "nonpayable",
      "type": "function"
    },
    {
      "inputs": [
        {
          "internalType": "uint256",
          "name": "hw_cost",
          "type": "uint256"
        }
      ],
      "name": "CalculateServiceFee",
      "outputs": [
        {
          "internalType": "uint256",
          "name": "",
          "type": "uint256"
        }
      ],
      "stateMutability": "view",
      "type": "function"
    },
    {
      "inputs": [
        {
          "internalType": "uint256",
          "name": "llm_id",
          "type": "uint256"
        }
      ],
      "name": "DeleteModel",
      "outputs": [],
      "stateMutability": "nonpayable",
      "type": "function"
    },
    {
      "inputs": [
        {
          "internalType": "uint256",
          "name": "amount",
          "type": "uint256"
        }
      ],
      "name": "DepositCredit",
      "outputs": [],
      "stateMutability": "nonpayable",
      "type": "function"
    },
    {
      "inputs": [
        {
          "internalType": "uint256",
          "name": "llm_id",
          "type": "uint256"
        }
      ],
      "name": "GetMetaLLM",
      "outputs": [
        {
          "components": [
            {
              "internalType": "uint256",
              "name": "token_id",
              "type": "uint256"
            },
            {
              "internalType": "uint256",
              "name": "author_royalty",
              "type": "uint256"
            },
            {
              "internalType": "address",
              "name": "author_wallet",
              "type": "address"
            },
            {
              "internalType": "uint256",
              "name": "hw_price_per_input_token",
              "type": "uint256"
            },
            {
              "internalType": "uint256",
              "name": "hw_price_per_output_token",
              "type": "uint256"
            },
            {
              "internalType": "enum Pool.Pay_type",
              "name": "pay_type_",
              "type": "uint8"
            }
          ],
          "internalType": "struct Pool.LLM_meta",
          "name": "",
          "type": "tuple"
        }
      ],
      "stateMutability": "view",
      "type": "function"
    },
    {
      "inputs": [
        {
          "internalType": "uint256",
          "name": "llm_id",
          "type": "uint256"
        }
      ],
      "name": "GetModel",
      "outputs": [
        {
          "components": [
            {
              "internalType": "uint256",
              "name": "token_id",
              "type": "uint256"
            },
            {
              "internalType": "uint256",
              "name": "author_royalty",
              "type": "uint256"
            },
            {
              "internalType": "address",
              "name": "author_wallet",
              "type": "address"
            },
            {
              "internalType": "uint256",
              "name": "hw_price_per_input_token",
              "type": "uint256"
            },
            {
              "internalType": "uint256",
              "name": "hw_price_per_output_token",
              "type": "uint256"
            },
            {
              "internalType": "enum Pool.Pay_type",
              "name": "pay_type_",
              "type": "uint8"
            }
          ],
          "internalType": "struct Pool.LLM_meta",
          "name": "",
          "type": "tuple"
        }
      ],
      "stateMutability": "view",
      "type": "function"
    },
    {
      "inputs": [
        {
          "internalType": "uint256",
          "name": "llm_id",
          "type": "uint256"
        }
      ],
      "name": "GetTotalPrice",
      "outputs": [
        {
          "internalType": "uint256",
          "name": "",
          "type": "uint256"
        }
      ],
      "stateMutability": "view",
      "type": "function"
    },
    {
      "inputs": [
        {
          "internalType": "address",
          "name": "user",
          "type": "address"
        }
      ],
      "name": "GetUserBalance",
      "outputs": [
        {
          "internalType": "uint256",
          "name": "",
          "type": "uint256"
        }
      ],
      "stateMutability": "view",
      "type": "function"
    },
    {
      "inputs": [
        {
          "internalType": "string",
          "name": "lai_id",
          "type": "string"
        }
      ],
      "name": "GetWorkerAddress",
      "outputs": [
        {
          "internalType": "address",
          "name": "",
          "type": "address"
        }
      ],
      "stateMutability": "view",
      "type": "function"
    },
    {
      "inputs": [
        {
          "internalType": "address",
          "name": "",
          "type": "address"
        }
      ],
      "name": "HFwhitelist",
      "outputs": [
        {
          "internalType": "bool",
          "name": "",
          "type": "bool"
        }
      ],
      "stateMutability": "view",
      "type": "function"
    },
    {
      "inputs": [
        {
          "internalType": "uint256",
          "name": "llm_id",
          "type": "uint256"
        },
        {
          "internalType": "address",
          "name": "user",
          "type": "address"
        }
      ],
      "name": "Pre_request",
      "outputs": [],
      "stateMutability": "view",
      "type": "function"
    },
    {
      "inputs": [
        {
          "internalType": "uint256",
          "name": "request_id",
          "type": "uint256"
        },
        {
          "internalType": "string",
          "name": "worker_id",
          "type": "string"
        },
        {
          "internalType": "uint256",
          "name": "llm_id",
          "type": "uint256"
        },
        {
          "internalType": "uint256",
          "name": "llmInputTokens",
          "type": "uint256"
        },
        {
          "internalType": "uint256",
          "name": "llmOutputTokens",
          "type": "uint256"
        },
        {
          "internalType": "uint256",
          "name": "processingTime",
          "type": "uint256"
        },
        {
          "internalType": "address",
          "name": "user",
          "type": "address"
        }
      ],
      "name": "ProcessResponse",
      "outputs": [],
      "stateMutability": "nonpayable",
      "type": "function"
    },
    {
      "inputs": [
        {
          "internalType": "string",
          "name": "lai_public_key",
          "type": "string"
        }
      ],
      "name": "RegisterWorker",
      "outputs": [],
      "stateMutability": "nonpayable",
      "type": "function"
    },
    {
      "inputs": [
        {
          "internalType": "address",
          "name": "addr",
          "type": "address"
        }
      ],
      "name": "RemoveFromHFWhitelist",
      "outputs": [],
      "stateMutability": "nonpayable",
      "type": "function"
    },
    {
      "inputs": [
        {
          "internalType": "string",
          "name": "lai_pub_key",
          "type": "string"
        }
      ],
      "name": "Unban",
      "outputs": [],
      "stateMutability": "nonpayable",
      "type": "function"
    },
    {
      "inputs": [
        {
          "internalType": "string",
          "name": "lai_pub_key",
          "type": "string"
        }
      ],
      "name": "Unregister",
      "outputs": [],
      "stateMutability": "nonpayable",
      "type": "function"
    },
    {
      "inputs": [
        {
          "internalType": "uint256",
          "name": "llm_id",
          "type": "uint256"
        },
        {
          "internalType": "uint256",
          "name": "new_royalty",
          "type": "uint256"
        },
        {
          "internalType": "address",
          "name": "new_address",
          "type": "address"
        }
      ],
      "name": "UpdateModel",
      "outputs": [],
      "stateMutability": "nonpayable",
      "type": "function"
    },
    {
      "inputs": [
        {
          "internalType": "string",
          "name": "old_lai_pub_key",
          "type": "string"
        },
        {
          "internalType": "string",
          "name": "new_lai_pub_key",
          "type": "string"
        }
      ],
      "name": "UpdateWorker",
      "outputs": [],
      "stateMutability": "nonpayable",
      "type": "function"
    },
    {
      "inputs": [
        {
          "internalType": "string",
          "name": "",
          "type": "string"
        }
      ],
      "name": "blacklist",
      "outputs": [
        {
          "internalType": "bool",
          "name": "",
          "type": "bool"
        }
      ],
      "stateMutability": "view",
      "type": "function"
    },
    {
      "inputs": [],
      "name": "hfswm",
      "outputs": [
        {
          "internalType": "contract HFSWM",
          "name": "",
          "type": "address"
        }
      ],
      "stateMutability": "view",
      "type": "function"
    },
    {
      "inputs": [
        {
          "internalType": "string",
          "name": "",
          "type": "string"
        }
      ],
      "name": "isApproved",
      "outputs": [
        {
          "internalType": "bool",
          "name": "",
          "type": "bool"
        }
      ],
      "stateMutability": "view",
      "type": "function"
    },
    {
      "inputs": [],
      "name": "owner",
      "outputs": [
        {
          "internalType": "address",
          "name": "",
          "type": "address"
        }
      ],
      "stateMutability": "view",
      "type": "function"
    },
    {
      "inputs": [],
      "name": "renounceOwnership",
      "outputs": [],
      "stateMutability": "nonpayable",
      "type": "function"
    },
    {
      "inputs": [
        {
          "internalType": "address",
          "name": "newOwner",
          "type": "address"
        }
      ],
      "name": "transferOwnership",
      "outputs": [],
      "stateMutability": "nonpayable",
      "type": "function"
    },
    {
      "inputs": [
        {
          "internalType": "address",
          "name": "",
          "type": "address"
        }
      ],
      "name": "userBalances",
      "outputs": [
        {
          "internalType": "uint256",
          "name": "",
          "type": "uint256"
        }
      ],
      "stateMutability": "view",
      "type": "function"
    }
  ],
  "bytecode": "0x6080604052600160045534801561001557600080fd5b50604051614410380380614410833981810160405281019061003791906102ac565b33600073ffffffffffffffffffffffffffffffffffffffff168173ffffffffffffffffffffffffffffffffffffffff16036100aa5760006040517f1e4fbdf70000000000000000000000000000000000000000000000000000000081526004016100a1919061030e565b60405180910390fd5b6100b98161018560201b60201c565b5082600160006101000a81548173ffffffffffffffffffffffffffffffffffffffff021916908373ffffffffffffffffffffffffffffffffffffffff16021790555081600260006101000a81548173ffffffffffffffffffffffffffffffffffffffff021916908373ffffffffffffffffffffffffffffffffffffffff16021790555080600360006101000a81548173ffffffffffffffffffffffffffffffffffffffff021916908373ffffffffffffffffffffffffffffffffffffffff160217905550505050610329565b60008060009054906101000a900473ffffffffffffffffffffffffffffffffffffffff169050816000806101000a81548173ffffffffffffffffffffffffffffffffffffffff021916908373ffffffffffffffffffffffffffffffffffffffff1602179055508173ffffffffffffffffffffffffffffffffffffffff168173ffffffffffffffffffffffffffffffffffffffff167f8be0079c531659141344cd1fd0a4f28419497f9722a3daafe3b4186f6b6457e060405160405180910390a35050565b600080fd5b600073ffffffffffffffffffffffffffffffffffffffff82169050919050565b60006102798261024e565b9050919050565b6102898161026e565b811461029457600080fd5b50565b6000815190506102a681610280565b92915050565b6000806000606084860312156102c5576102c4610249565b5b60006102d386828701610297565b93505060206102e486828701610297565b92505060406102f586828701610297565b9150509250925092565b6103088161026e565b82525050565b600060208201905061032360008301846102ff565b92915050565b6140d8806103386000396000f3fe608060405234801561001057600080fd5b50600436106101c35760003560e01c806397c37d6b116100f9578063ba68ce9c11610097578063e03ec51111610071578063e03ec5111461050c578063f2fde38b1461052a578063f31fbc9f14610546578063f6bd2ac814610576576101c3565b8063ba68ce9c146104a4578063bad3191a146104c0578063bbfb8caa146104dc576101c3565b8063aa389692116100d3578063aa3896921461040c578063ad7922d514610428578063b083de5414610458578063b9359ea214610488576101c3565b806397c37d6b146103905780639fcd8c9d146103c0578063a5449632146103dc576101c3565b80633be93d0b11610166578063715018a611610140578063715018a61461031c5780638c0233e9146103265780638da5cb5b146103565780638f977f3614610374576101c3565b80633be93d0b146102b4578063421d2777146102d0578063431f90f314610300576101c3565b80631e99f349116101a25780631e99f3491461023057806326224c641461024c578063278015341461027c5780633266e29014610298576101c3565b8062345d3d146101c85780630e5fd6d7146101e45780631b988ce414610214575b600080fd5b6101e260048036038101906101dd919061291a565b610592565b005b6101fe60048036038101906101f9919061297d565b6105f5565b60405161020b91906129b9565b60405180910390f35b61022e6004803603810190610229919061297d565b610682565b005b61024a60048036038101906102459190612b1a565b6107f5565b005b6102666004803603810190610261919061291a565b610a10565b60405161027391906129b9565b60405180910390f35b6102966004803603810190610291919061297d565b610a28565b005b6102b260048036038101906102ad9190612b63565b610bd9565b005b6102ce60048036038101906102c99190612bb6565b610dba565b005b6102ea60048036038101906102e59190612b1a565b6114cf565b6040516102f79190612c83565b60405180910390f35b61031a60048036038101906103159190612b1a565b61151c565b005b61032461155e565b005b610340600480360381019061033b9190612b1a565b611572565b60405161034d9190612cb9565b60405180910390f35b61035e6115a8565b60405161036b9190612c83565b60405180910390f35b61038e60048036038101906103899190612cd4565b6115d1565b005b6103aa60048036038101906103a5919061297d565b611a41565b6040516103b791906129b9565b60405180910390f35b6103da60048036038101906103d59190612b1a565b611a92565b005b6103f660048036038101906103f1919061291a565b611e14565b60405161040391906129b9565b60405180910390f35b61042660048036038101906104219190612d4c565b611e5d565b005b610442600480360381019061043d919061297d565b612106565b60405161044f9190612eaf565b60405180910390f35b610472600480360381019061046d919061291a565b6121ec565b60405161047f9190612cb9565b60405180910390f35b6104a2600480360381019061049d9190612eca565b61220c565b005b6104be60048036038101906104b9919061291a565b6123b5565b005b6104da60048036038101906104d59190612b1a565b612418565b005b6104f660048036038101906104f1919061297d565b61245a565b6040516105039190612eaf565b60405180910390f35b610514612540565b6040516105219190612f69565b60405180910390f35b610544600480360381019061053f919061291a565b612566565b005b610560600480360381019061055b9190612b1a565b6125ec565b60405161056d9190612cb9565b60405180910390f35b610590600480360381019061058b9190612b1a565b612622565b005b61059a612664565b6000600960008373ffffffffffffffffffffffffffffffffffffffff1673ffffffffffffffffffffffffffffffffffffffff16815260200190815260200160002060006101000a81548160ff02191690831515021790555050565b60008073__$6ca259786bae6b18641118eb2a4c0483c3$__63a285b8948460646004546040518463ffffffff1660e01b815260040161063693929190612fce565b602060405180830381865af4158015610653573d6000803e3d6000fd5b505050506040513d601f19601f82011682018060405250810190610677919061301a565b905080915050919050565b600260009054906101000a900473ffffffffffffffffffffffffffffffffffffffff1673ffffffffffffffffffffffffffffffffffffffff166323b872dd3330846040518463ffffffff1660e01b81526004016106e193929190613047565b6020604051808303816000875af1158015610700573d6000803e3d6000fd5b505050506040513d601f19601f8201168201806040525081019061072491906130aa565b610763576040517f08c379a000000000000000000000000000000000000000000000000000000000815260040161075a90613134565b60405180910390fd5b80600a60003373ffffffffffffffffffffffffffffffffffffffff1673ffffffffffffffffffffffffffffffffffffffff16815260200190815260200160002060008282546107b29190613183565b925050819055507fe1fffcc4923d04b559f4d29a8bfc6cda04eb5b0d3c460751c2402c5c5cc9109c33826040516107ea9291906131b7565b60405180910390a150565b3373ffffffffffffffffffffffffffffffffffffffff1660058260405161081c9190613251565b908152602001604051809103902060009054906101000a900473ffffffffffffffffffffffffffffffffffffffff1673ffffffffffffffffffffffffffffffffffffffff16146108a1576040517f08c379a0000000000000000000000000000000000000000000000000000000008152600401610898906132b4565b60405180910390fd5b6000600660003373ffffffffffffffffffffffffffffffffffffffff1673ffffffffffffffffffffffffffffffffffffffff168152602001908152602001600020905060005b81805490508110156109ca57828051906020012082828154811061090e5761090d6132d4565b5b906000526020600020016040516109259190613406565b6040518091039020036109bd578160018380549050610944919061341d565b81548110610955576109546132d4565b5b90600052602060002001828281548110610972576109716132d4565b5b906000526020600020019081610988919061361e565b508180548061099a57610999613706565b5b6001900381819060005260206000200160006109b691906127b7565b90556109ca565b80806001019150506108e7565b506005826040516109db9190613251565b908152602001604051809103902060006101000a81549073ffffffffffffffffffffffffffffffffffffffff02191690555050565b600a6020528060005260406000206000915090505481565b610a30612664565b6000600b60008381526020019081526020016000206040518060c001604052908160008201548152602001600182015481526020016002820160009054906101000a900473ffffffffffffffffffffffffffffffffffffffff1673ffffffffffffffffffffffffffffffffffffffff1673ffffffffffffffffffffffffffffffffffffffff16815260200160038201548152602001600482015481526020016005820160009054906101000a900460ff166001811115610af357610af2612dbd565b5b6001811115610b0557610b04612dbd565b5b8152505090507f924a056de7a704512283f1bd09f837beb9678cf115c251a5c732016a5cdfa599816000015182602001518360400151846060015185608001518660a00151604051610b5c96959493929190613744565b60405180910390a1600b600083815260200190815260200160002060008082016000905560018201600090556002820160006101000a81549073ffffffffffffffffffffffffffffffffffffffff0219169055600382016000905560048201600090556005820160006101000a81549060ff021916905550505050565b610be1612664565b6000600b60008581526020019081526020016000206040518060c001604052908160008201548152602001600182015481526020016002820160009054906101000a900473ffffffffffffffffffffffffffffffffffffffff1673ffffffffffffffffffffffffffffffffffffffff1673ffffffffffffffffffffffffffffffffffffffff16815260200160038201548152602001600482015481526020016005820160009054906101000a900460ff166001811115610ca457610ca3612dbd565b5b6001811115610cb657610cb5612dbd565b5b8152505090508281602001818152505081816040019073ffffffffffffffffffffffffffffffffffffffff16908173ffffffffffffffffffffffffffffffffffffffff168152505080600b6000868152602001908152602001600020600082015181600001556020820151816001015560408201518160020160006101000a81548173ffffffffffffffffffffffffffffffffffffffff021916908373ffffffffffffffffffffffffffffffffffffffff160217905550606082015181600301556080820151816004015560a08201518160050160006101000a81548160ff02191690836001811115610dac57610dab612dbd565b5b021790555090505050505050565b600786604051610dca9190613251565b908152602001604051809103902060009054906101000a900460ff1615610e26576040517f08c379a0000000000000000000000000000000000000000000000000000000008152600401610e1d906137f1565b60405180910390fd5b600886604051610e369190613251565b908152602001604051809103902060009054906101000a900460ff16610e91576040517f08c379a0000000000000000000000000000000000000000000000000000000008152600401610e889061385d565b60405180910390fd5b6000610e9c86612106565b905060008160a001519050610eaf6127f7565b60006001811115610ec357610ec2612dbd565b5b826001811115610ed657610ed5612dbd565b5b03610f61578587610ee79190613183565b8160a001818152505082606001518160000181815250508260800151816020018181525050858160200151610f1c919061387d565b878260000151610f2c919061387d565b610f369190613183565b8160400181815250508060a001518360200151610f53919061387d565b816080018181525050610f9a565b82606001518160000181815250508260200151816060018181525050806000015181604001818152505080606001518160800181815250505b600081608001518260400151610fb09190613183565b905080600a60008773ffffffffffffffffffffffffffffffffffffffff1673ffffffffffffffffffffffffffffffffffffffff168152602001908152602001600020541015611034576040517f08c379a000000000000000000000000000000000000000000000000000000000815260040161102b9061390b565b60405180910390fd5b80600a60008773ffffffffffffffffffffffffffffffffffffffff1673ffffffffffffffffffffffffffffffffffffffff1681526020019081526020016000206000828254611083919061341d565b9250508190555060006110958b6114cf565b9050600085604001519050600960008373ffffffffffffffffffffffffffffffffffffffff1673ffffffffffffffffffffffffffffffffffffffff16815260200190815260200160002060009054906101000a900460ff161561118a57600360009054906101000a900473ffffffffffffffffffffffffffffffffffffffff1673ffffffffffffffffffffffffffffffffffffffff166340c10f198386604001516040518363ffffffff1660e01b81526004016111539291906131b7565b600060405180830381600087803b15801561116d57600080fd5b505af1158015611181573d6000803e3d6000fd5b5050505061126e565b600260009054906101000a900473ffffffffffffffffffffffffffffffffffffffff1673ffffffffffffffffffffffffffffffffffffffff1663a9059cbb8386604001516040518363ffffffff1660e01b81526004016111eb9291906131b7565b6020604051808303816000875af115801561120a573d6000803e3d6000fd5b505050506040513d601f19601f8201168201806040525081019061122e91906130aa565b61126d576040517f08c379a000000000000000000000000000000000000000000000000000000000815260040161126490613977565b60405180910390fd5b5b600960008273ffffffffffffffffffffffffffffffffffffffff1673ffffffffffffffffffffffffffffffffffffffff16815260200190815260200160002060009054906101000a900460ff161561135857600360009054906101000a900473ffffffffffffffffffffffffffffffffffffffff1673ffffffffffffffffffffffffffffffffffffffff166340c10f198286608001516040518363ffffffff1660e01b81526004016113219291906131b7565b600060405180830381600087803b15801561133b57600080fd5b505af115801561134f573d6000803e3d6000fd5b5050505061143c565b600260009054906101000a900473ffffffffffffffffffffffffffffffffffffffff1673ffffffffffffffffffffffffffffffffffffffff1663a9059cbb8286608001516040518363ffffffff1660e01b81526004016113b99291906131b7565b6020604051808303816000875af11580156113d8573d6000803e3d6000fd5b505050506040513d601f19601f820116820180604052508101906113fc91906130aa565b61143b576040517f08c379a0000000000000000000000000000000000000000000000000000000008152600401611432906139e3565b60405180910390fd5b5b7fe682774c095c98275661d05ff664616a641de1592fa52e2412789919e84b01ad8d8c848d8d888e42604051611479989796959493929190613a03565b60405180910390a17f634235fcf5af0adbca1a405ec65f6f6c08f55e1f379c2c45cd10f23cb29e0e31828c86604001516040516114b893929190613a81565b60405180910390a150505050505050505050505050565b6000806005836040516114e29190613251565b908152602001604051809103902060009054906101000a900473ffffffffffffffffffffffffffffffffffffffff16905080915050919050565b611524612664565b60016008826040516115369190613251565b908152602001604051809103902060006101000a81548160ff02191690831515021790555050565b611566612664565b61157060006126eb565b565b6007818051602081018201805184825260208301602085012081835280955050505050506000915054906101000a900460ff1681565b60008060009054906101000a900473ffffffffffffffffffffffffffffffffffffffff16905090565b3373ffffffffffffffffffffffffffffffffffffffff166005836040516115f89190613251565b908152602001604051809103902060009054906101000a900473ffffffffffffffffffffffffffffffffffffffff1673ffffffffffffffffffffffffffffffffffffffff161461167d576040517f08c379a0000000000000000000000000000000000000000000000000000000008152600401611674906132b4565b60405180910390fd5b600073ffffffffffffffffffffffffffffffffffffffff166005826040516116a59190613251565b908152602001604051809103902060009054906101000a900473ffffffffffffffffffffffffffffffffffffffff1673ffffffffffffffffffffffffffffffffffffffff161461172a576040517f08c379a000000000000000000000000000000000000000000000000000000000815260040161172190613b04565b60405180910390fd5b60078160405161173a9190613251565b908152602001604051809103902060009054906101000a900460ff1615611796576040517f08c379a000000000000000000000000000000000000000000000000000000000815260040161178d90613b70565b60405180910390fd5b6000600660003373ffffffffffffffffffffffffffffffffffffffff1673ffffffffffffffffffffffffffffffffffffffff16815260200190815260200160002090506000805b8280549050811015611869578480519060200120838281548110611804576118036132d4565b5b9060005260206000200160405161181b9190613406565b60405180910390200361185c578383828154811061183c5761183b6132d4565b5b9060005260206000200190816118529190613b90565b5060019150611869565b80806001019150506117dd565b50806118aa576040517f08c379a00000000000000000000000000000000000000000000000000000000081526004016118a190613cae565b60405180910390fd5b6005846040516118ba9190613251565b908152602001604051809103902060006101000a81549073ffffffffffffffffffffffffffffffffffffffff0219169055336005846040516118fc9190613251565b908152602001604051809103902060006101000a81548173ffffffffffffffffffffffffffffffffffffffff021916908373ffffffffffffffffffffffffffffffffffffffff1602179055506008846040516119589190613251565b908152602001604051809103902060009054906101000a900460ff166008846040516119849190613251565b908152602001604051809103902060006101000a81548160ff0219169083151502179055506008846040516119b99190613251565b908152602001604051809103902060006101000a81549060ff02191690557fee06bd32f8b2583fd50c0dd94d872913c9fe17bb486e0f9d4b4865752d79efa033600885604051611a099190613251565b908152602001604051809103902060009054906101000a900460ff16604051611a33929190613cce565b60405180910390a150505050565b600080611a4d83612106565b90506000816020015190506000826060015190506000836080015190506000818385611a799190613183565b611a839190613183565b90508095505050505050919050565b600781604051611aa29190613251565b908152602001604051809103902060009054906101000a900460ff1615611afe576040517f08c379a0000000000000000000000000000000000000000000000000000000008152600401611af590613d43565b60405180910390fd5b600073ffffffffffffffffffffffffffffffffffffffff16600582604051611b269190613251565b908152602001604051809103902060009054906101000a900473ffffffffffffffffffffffffffffffffffffffff1673ffffffffffffffffffffffffffffffffffffffff1614611bab576040517f08c379a0000000000000000000000000000000000000000000000000000000008152600401611ba290613daf565b60405180910390fd5b6014600660003373ffffffffffffffffffffffffffffffffffffffff1673ffffffffffffffffffffffffffffffffffffffff1681526020019081526020016000208054905010611c30576040517f08c379a0000000000000000000000000000000000000000000000000000000008152600401611c2790613e41565b60405180910390fd5b600660003373ffffffffffffffffffffffffffffffffffffffff1673ffffffffffffffffffffffffffffffffffffffff16815260200190815260200160002081908060018154018082558091505060019003906000526020600020016000909190919091509081611ca19190613b90565b5033600582604051611cb39190613251565b908152602001604051809103902060006101000a81548173ffffffffffffffffffffffffffffffffffffffff021916908373ffffffffffffffffffffffffffffffffffffffff160217905550600180811115611d1257611d11612dbd565b5b600060149054906101000a900460ff166001811115611d3457611d33612dbd565b5b03611d75576001600882604051611d4b9190613251565b908152602001604051809103902060006101000a81548160ff021916908315150217905550611dad565b6000600882604051611d879190613251565b908152602001604051809103902060006101000a81548160ff0219169083151502179055505b7fee06bd32f8b2583fd50c0dd94d872913c9fe17bb486e0f9d4b4865752d79efa033600883604051611ddf9190613251565b908152602001604051809103902060009054906101000a900460ff16604051611e09929190613cce565b60405180910390a150565b6000600a60008373ffffffffffffffffffffffffffffffffffffffff1673ffffffffffffffffffffffffffffffffffffffff168152602001908152602001600020549050919050565b611e65612664565b6000600160009054906101000a900473ffffffffffffffffffffffffffffffffffffffff1673ffffffffffffffffffffffffffffffffffffffff166340a24c67856040518263ffffffff1660e01b8152600401611ec291906129b9565b600060405180830381865afa158015611edf573d6000803e3d6000fd5b505050506040513d6000823e3d601f19601f82011682018060405250810190611f089190613fed565b9050611f1261282d565b6000808360800151905060006001811115611f3057611f2f612dbd565b5b816001811115611f4357611f42612dbd565b5b03611f515760009150611f56565b600191505b818360a001906001811115611f6e57611f6d612dbd565b5b90816001811115611f8257611f81612dbd565b5b8152505083604001518360200181815250508360600151836040019073ffffffffffffffffffffffffffffffffffffffff16908173ffffffffffffffffffffffffffffffffffffffff168152505086836000018181525050858360600181815250508483608001818152505082600b6000898152602001908152602001600020600082015181600001556020820151816001015560408201518160020160006101000a81548173ffffffffffffffffffffffffffffffffffffffff021916908373ffffffffffffffffffffffffffffffffffffffff160217905550606082015181600301556080820151816004015560a08201518160050160006101000a81548160ff0219169083600181111561209c5761209b612dbd565b5b02179055509050507f680ef5512c0efece5e242d0aa029587efcc5cf586176be0f4bf9ad68aa341243836000015184602001518560400151866060015187608001518860a001516040516120f596959493929190613744565b60405180910390a150505050505050565b61210e61282d565b600b60008381526020019081526020016000206040518060c001604052908160008201548152602001600182015481526020016002820160009054906101000a900473ffffffffffffffffffffffffffffffffffffffff1673ffffffffffffffffffffffffffffffffffffffff1673ffffffffffffffffffffffffffffffffffffffff16815260200160038201548152602001600482015481526020016005820160009054906101000a900460ff1660018111156121cf576121ce612dbd565b5b60018111156121e1576121e0612dbd565b5b815250509050919050565b60096020528060005260406000206000915054906101000a900460ff1681565b6000600160009054906101000a900473ffffffffffffffffffffffffffffffffffffffff1673ffffffffffffffffffffffffffffffffffffffff166340a24c67846040518263ffffffff1660e01b815260040161226991906129b9565b600060405180830381865afa158015612286573d6000803e3d6000fd5b505050506040513d6000823e3d601f19601f820116820180604052508101906122af9190613fed565b905060008160800151905060008260a00151905060006122ce86612106565b905060008160600151905060008060018111156122ee576122ed612dbd565b5b85600181111561230157612300612dbd565b5b03612319578184612312919061387d565b9050612329565b600182612326919061387d565b90505b80600a60008973ffffffffffffffffffffffffffffffffffffffff1673ffffffffffffffffffffffffffffffffffffffff1681526020019081526020016000205410156123ab576040517f08c379a00000000000000000000000000000000000000000000000000000000081526004016123a290614082565b60405180910390fd5b5050505050505050565b6123bd612664565b6001600960008373ffffffffffffffffffffffffffffffffffffffff1673ffffffffffffffffffffffffffffffffffffffff16815260200190815260200160002060006101000a81548160ff02191690831515021790555050565b612420612664565b60006007826040516124329190613251565b908152602001604051809103902060006101000a81548160ff02191690831515021790555050565b61246261282d565b600b60008381526020019081526020016000206040518060c001604052908160008201548152602001600182015481526020016002820160009054906101000a900473ffffffffffffffffffffffffffffffffffffffff1673ffffffffffffffffffffffffffffffffffffffff1673ffffffffffffffffffffffffffffffffffffffff16815260200160038201548152602001600482015481526020016005820160009054906101000a900460ff16600181111561252357612522612dbd565b5b600181111561253557612534612dbd565b5b815250509050919050565b600360009054906101000a900473ffffffffffffffffffffffffffffffffffffffff1681565b61256e612664565b600073ffffffffffffffffffffffffffffffffffffffff168173ffffffffffffffffffffffffffffffffffffffff16036125e05760006040517f1e4fbdf70000000000000000000000000000000000000000000000000000000081526004016125d79190612c83565b60405180910390fd5b6125e9816126eb565b50565b6008818051602081018201805184825260208301602085012081835280955050505050506000915054906101000a900460ff1681565b61262a612664565b600160078260405161263c9190613251565b908152602001604051809103902060006101000a81548160ff02191690831515021790555050565b61266c6127af565b73ffffffffffffffffffffffffffffffffffffffff1661268a6115a8565b73ffffffffffffffffffffffffffffffffffffffff16146126e9576126ad6127af565b6040517f118cdaa70000000000000000000000000000000000000000000000000000000081526004016126e09190612c83565b60405180910390fd5b565b60008060009054906101000a900473ffffffffffffffffffffffffffffffffffffffff169050816000806101000a81548173ffffffffffffffffffffffffffffffffffffffff021916908373ffffffffffffffffffffffffffffffffffffffff1602179055508173ffffffffffffffffffffffffffffffffffffffff168173ffffffffffffffffffffffffffffffffffffffff167f8be0079c531659141344cd1fd0a4f28419497f9722a3daafe3b4186f6b6457e060405160405180910390a35050565b600033905090565b5080546127c390613332565b6000825580601f106127d557506127f4565b601f0160209004906000526020600020908101906127f3919061288b565b5b50565b6040518060c001604052806000815260200160008152602001600081526020016000815260200160008152602001600081525090565b6040518060c001604052806000815260200160008152602001600073ffffffffffffffffffffffffffffffffffffffff16815260200160008152602001600081526020016000600181111561288557612884612dbd565b5b81525090565b5b808211156128a457600081600090555060010161288c565b5090565b6000604051905090565b600080fd5b600080fd5b600073ffffffffffffffffffffffffffffffffffffffff82169050919050565b60006128e7826128bc565b9050919050565b6128f7816128dc565b811461290257600080fd5b50565b600081359050612914816128ee565b92915050565b6000602082840312156129305761292f6128b2565b5b600061293e84828501612905565b91505092915050565b6000819050919050565b61295a81612947565b811461296557600080fd5b50565b60008135905061297781612951565b92915050565b600060208284031215612993576129926128b2565b5b60006129a184828501612968565b91505092915050565b6129b381612947565b82525050565b60006020820190506129ce60008301846129aa565b92915050565b600080fd5b600080fd5b6000601f19601f8301169050919050565b7f4e487b7100000000000000000000000000000000000000000000000000000000600052604160045260246000fd5b612a27826129de565b810181811067ffffffffffffffff82111715612a4657612a456129ef565b5b80604052505050565b6000612a596128a8565b9050612a658282612a1e565b919050565b600067ffffffffffffffff821115612a8557612a846129ef565b5b612a8e826129de565b9050602081019050919050565b82818337600083830152505050565b6000612abd612ab884612a6a565b612a4f565b905082815260208101848484011115612ad957612ad86129d9565b5b612ae4848285612a9b565b509392505050565b600082601f830112612b0157612b006129d4565b5b8135612b11848260208601612aaa565b91505092915050565b600060208284031215612b3057612b2f6128b2565b5b600082013567ffffffffffffffff811115612b4e57612b4d6128b7565b5b612b5a84828501612aec565b91505092915050565b600080600060608486031215612b7c57612b7b6128b2565b5b6000612b8a86828701612968565b9350506020612b9b86828701612968565b9250506040612bac86828701612905565b9150509250925092565b600080600080600080600060e0888a031215612bd557612bd46128b2565b5b6000612be38a828b01612968565b975050602088013567ffffffffffffffff811115612c0457612c036128b7565b5b612c108a828b01612aec565b9650506040612c218a828b01612968565b9550506060612c328a828b01612968565b9450506080612c438a828b01612968565b93505060a0612c548a828b01612968565b92505060c0612c658a828b01612905565b91505092959891949750929550565b612c7d816128dc565b82525050565b6000602082019050612c986000830184612c74565b92915050565b60008115159050919050565b612cb381612c9e565b82525050565b6000602082019050612cce6000830184612caa565b92915050565b60008060408385031215612ceb57612cea6128b2565b5b600083013567ffffffffffffffff811115612d0957612d086128b7565b5b612d1585828601612aec565b925050602083013567ffffffffffffffff811115612d3657612d356128b7565b5b612d4285828601612aec565b9150509250929050565b600080600060608486031215612d6557612d646128b2565b5b6000612d7386828701612968565b9350506020612d8486828701612968565b9250506040612d9586828701612968565b9150509250925092565b612da881612947565b82525050565b612db7816128dc565b82525050565b7f4e487b7100000000000000000000000000000000000000000000000000000000600052602160045260246000fd5b60028110612dfd57612dfc612dbd565b5b50565b6000819050612e0e82612dec565b919050565b6000612e1e82612e00565b9050919050565b612e2e81612e13565b82525050565b60c082016000820151612e4a6000850182612d9f565b506020820151612e5d6020850182612d9f565b506040820151612e706040850182612dae565b506060820151612e836060850182612d9f565b506080820151612e966080850182612d9f565b5060a0820151612ea960a0850182612e25565b50505050565b600060c082019050612ec46000830184612e34565b92915050565b60008060408385031215612ee157612ee06128b2565b5b6000612eef85828601612968565b9250506020612f0085828601612905565b9150509250929050565b6000819050919050565b6000612f2f612f2a612f25846128bc565b612f0a565b6128bc565b9050919050565b6000612f4182612f14565b9050919050565b6000612f5382612f36565b9050919050565b612f6381612f48565b82525050565b6000602082019050612f7e6000830184612f5a565b92915050565b612f8d81612947565b82525050565b6000819050919050565b6000612fb8612fb3612fae84612f93565b612f0a565b612947565b9050919050565b612fc881612f9d565b82525050565b6000606082019050612fe36000830186612f84565b612ff06020830185612fbf565b612ffd6040830184612f84565b949350505050565b60008151905061301481612951565b92915050565b6000602082840312156130305761302f6128b2565b5b600061303e84828501613005565b91505092915050565b600060608201905061305c6000830186612c74565b6130696020830185612c74565b61307660408301846129aa565b949350505050565b61308781612c9e565b811461309257600080fd5b50565b6000815190506130a48161307e565b92915050565b6000602082840312156130c0576130bf6128b2565b5b60006130ce84828501613095565b91505092915050565b600082825260208201905092915050565b7f5472616e73666572206661696c65640000000000000000000000000000000000600082015250565b600061311e600f836130d7565b9150613129826130e8565b602082019050919050565b6000602082019050818103600083015261314d81613111565b9050919050565b7f4e487b7100000000000000000000000000000000000000000000000000000000600052601160045260246000fd5b600061318e82612947565b915061319983612947565b92508282019050808211156131b1576131b0613154565b5b92915050565b60006040820190506131cc6000830185612c74565b6131d960208301846129aa565b9392505050565b600081519050919050565b600081905092915050565b60005b838110156132145780820151818401526020810190506131f9565b60008484015250505050565b600061322b826131e0565b61323581856131eb565b93506132458185602086016131f6565b80840191505092915050565b600061325d8284613220565b915081905092915050565b7f4e6f7420796f757220776f726b6572206b657900000000000000000000000000600082015250565b600061329e6013836130d7565b91506132a982613268565b602082019050919050565b600060208201905081810360008301526132cd81613291565b9050919050565b7f4e487b7100000000000000000000000000000000000000000000000000000000600052603260045260246000fd5b7f4e487b7100000000000000000000000000000000000000000000000000000000600052602260045260246000fd5b6000600282049050600182168061334a57607f821691505b60208210810361335d5761335c613303565b5b50919050565b600081905092915050565b60008190508160005260206000209050919050565b6000815461339081613332565b61339a8186613363565b945060018216600081146133b557600181146133ca576133fd565b60ff19831686528115158202860193506133fd565b6133d38561336e565b60005b838110156133f5578154818901526001820191506020810190506133d6565b838801955050505b50505092915050565b60006134128284613383565b915081905092915050565b600061342882612947565b915061343383612947565b925082820390508181111561344b5761344a613154565b5b92915050565b60008154905061346081613332565b9050919050565b60008190508160005260206000209050919050565b60008190508160005260206000209050919050565b60006020601f8301049050919050565b600082821b905092915050565b6000600883026134de7fffffffffffffffffffffffffffffffffffffffffffffffffffffffffffffffff826134a1565b6134e886836134a1565b95508019841693508086168417925050509392505050565b600061351b61351661351184612947565b612f0a565b612947565b9050919050565b6000819050919050565b61353583613500565b61354961354182613522565b8484546134ae565b825550505050565b600090565b61355e613551565b61356981848461352c565b505050565b5b8181101561358d57613582600082613556565b60018101905061356f565b5050565b601f8211156135d2576135a381613467565b6135ac84613491565b810160208510156135bb578190505b6135cf6135c785613491565b83018261356e565b50505b505050565b600082821c905092915050565b60006135f5600019846008026135d7565b1980831691505092915050565b600061360e83836135e4565b9150826002028217905092915050565b81810361362c575050613704565b61363582613451565b67ffffffffffffffff81111561364e5761364d6129ef565b5b6136588254613332565b613663828285613591565b6000601f8311600181146136925760008415613680578287015490505b61368a8582613602565b8655506136fd565b601f1984166136a08761347c565b96506136ab86613467565b60005b828110156136d3578489015482556001820191506001850194506020810190506136ae565b868310156136f057848901546136ec601f8916826135e4565b8355505b6001600288020188555050505b5050505050505b565b7f4e487b7100000000000000000000000000000000000000000000000000000000600052603160045260246000fd5b61373e81612e13565b82525050565b600060c08201905061375960008301896129aa565b61376660208301886129aa565b6137736040830187612c74565b61378060608301866129aa565b61378d60808301856129aa565b61379a60a0830184613735565b979650505050505050565b7f5468697320776f726b657220697320696e20626c61636b6c6973740000000000600082015250565b60006137db601b836130d7565b91506137e6826137a5565b602082019050919050565b6000602082019050818103600083015261380a816137ce565b9050919050565b7f5468697320776f726b6572206973206e6f742079657420617070726f76656400600082015250565b6000613847601f836130d7565b915061385282613811565b602082019050919050565b600060208201905081810360008301526138768161383a565b9050919050565b600061388882612947565b915061389383612947565b92508282026138a181612947565b915082820484148315176138b8576138b7613154565b5b5092915050565b7f4e6f7420656e6f756768206465706f73697465642062616c616e636500000000600082015250565b60006138f5601c836130d7565b9150613900826138bf565b602082019050919050565b60006020820190508181036000830152613924816138e8565b9050919050565b7f43726564697420746f20776f726b6572206661696c6564000000000000000000600082015250565b60006139616017836130d7565b915061396c8261392b565b602082019050919050565b6000602082019050818103600083015261399081613954565b9050919050565b7f43726564697420746f20617574686f72206661696c6564000000000000000000600082015250565b60006139cd6017836130d7565b91506139d882613997565b602082019050919050565b600060208201905081810360008301526139fc816139c0565b9050919050565b600061010082019050613a19600083018b6129aa565b613a26602083018a6129aa565b613a336040830189612c74565b613a4060608301886129aa565b613a4d60808301876129aa565b613a5a60a08301866129aa565b613a6760c08301856129aa565b613a7460e08301846129aa565b9998505050505050505050565b6000606082019050613a966000830186612c74565b613aa360208301856129aa565b613ab060408301846129aa565b949350505050565b7f4e6577206b657920616c72656164792072656769737465726564000000000000600082015250565b6000613aee601a836130d7565b9150613af982613ab8565b602082019050919050565b60006020820190508181036000830152613b1d81613ae1565b9050919050565b7f4e6577206b657920697320626c61636b6c697374656400000000000000000000600082015250565b6000613b5a6016836130d7565b9150613b6582613b24565b602082019050919050565b60006020820190508181036000830152613b8981613b4d565b9050919050565b613b99826131e0565b67ffffffffffffffff811115613bb257613bb16129ef565b5b613bbc8254613332565b613bc7828285613591565b600060209050601f831160018114613bfa5760008415613be8578287015190505b613bf28582613602565b865550613c5a565b601f198416613c0886613467565b60005b82811015613c3057848901518255600182019150602085019450602081019050613c0b565b86831015613c4d5784890151613c49601f8916826135e4565b8355505b6001600288020188555050505b505050505050565b7f4f6c64206b6579206e6f7420666f756e64000000000000000000000000000000600082015250565b6000613c986011836130d7565b9150613ca382613c62565b602082019050919050565b60006020820190508181036000830152613cc781613c8b565b9050919050565b6000604082019050613ce36000830185612c74565b613cf06020830184612caa565b9392505050565b7f54686973206b657920697320696e20626c61636b6c6973740000000000000000600082015250565b6000613d2d6018836130d7565b9150613d3882613cf7565b602082019050919050565b60006020820190508181036000830152613d5c81613d20565b9050919050565b7f4b657920616c7265616479207265676973746572656400000000000000000000600082015250565b6000613d996016836130d7565b9150613da482613d63565b602082019050919050565b60006020820190508181036000830152613dc881613d8c565b9050919050565b7f4d6178696d756d206e756d626572206f6620776f726b6572732028323029207260008201527f6561636865640000000000000000000000000000000000000000000000000000602082015250565b6000613e2b6026836130d7565b9150613e3682613dcf565b604082019050919050565b60006020820190508181036000830152613e5a81613e1e565b9050919050565b600080fd5b600080fd5b6000613e7e613e7984612a6a565b612a4f565b905082815260208101848484011115613e9a57613e996129d9565b5b613ea58482856131f6565b509392505050565b600082601f830112613ec257613ec16129d4565b5b8151613ed2848260208601613e6b565b91505092915050565b600081519050613eea816128ee565b92915050565b60028110613efd57600080fd5b50565b600081519050613f0f81613ef0565b92915050565b600060c08284031215613f2b57613f2a613e61565b5b613f3560c0612a4f565b9050600082015167ffffffffffffffff811115613f5557613f54613e66565b5b613f6184828501613ead565b600083015250602082015167ffffffffffffffff811115613f8557613f84613e66565b5b613f9184828501613ead565b6020830152506040613fa584828501613005565b6040830152506060613fb984828501613edb565b6060830152506080613fcd84828501613f00565b60808301525060a0613fe184828501613005565b60a08301525092915050565b600060208284031215614003576140026128b2565b5b600082015167ffffffffffffffff811115614021576140206128b7565b5b61402d84828501613f15565b91505092915050565b7f496e73756666696369656e74206465706f73697465642062616c616e63650000600082015250565b600061406c601e836130d7565b915061407782614036565b602082019050919050565b6000602082019050818103600083015261409b8161405f565b905091905056fea2646970667358221220a2b8dc06349f8ffe7ead2436aa96e695c24b6b1630136d57e29507e0593cf22464736f6c634300081c0033",
  "linkReferences": {
    "contracts/FeesCalculator.sol": {
      "FeesCalculator": [
        {
          "length": 20,
          "start": 2354
        }
      ]
    }
  },
  "deployedLinkReferences": {
    "contracts/FeesCalculator.sol": {
      "FeesCalculator": [
        {
          "length": 20,
          "start": 1530
        }
      ]
    }
  }
}