{
  "_format": "hh-sol-artifact-1",
  "contractName": "FeesCalculator",
  "sourceName": "contracts/FeesCalculator.sol",
  "abi": [
    {
      "inputs": [
        {
          "internalType": "uint256",
          "name": "amount",
          "type": "uint256"
        },
        {
          "internalType": "uint256",
          "name": "scale",
          "type": "uint256"
        },
        {
          "internalType": "uint256",
          "name": "promille_fee_",
          "type": "uint256"
        }
      ],
      "name": "CalculateAbstractFee",
      "outputs": [
        {
          "internalType": "uint256",
          "name": "",
          "type": "uint256"
        }
      ],
      "stateMutability": "pure",
      "type": "function"
    }
  ],
  "bytecode": "0x61038b610052600b82828239805160001a6073146045577f4e487b7100000000000000000000000000000000000000000000000000000000600052600060045260246000fd5b30600052607381538281f3fe73000000000000000000000000000000000000000030146080604052600436106100355760003560e01c8063a285b8941461003a575b600080fd5b610054600480360381019061004f919061016e565b61006a565b60405161006191906101d0565b60405180910390f35b60008083856100799190610249565b905060008486610089919061027a565b9050600085856100999190610249565b9050600086866100a9919061027a565b90508660018883866100bb91906102ab565b6100c591906102ed565b6100cf9190610321565b6100d99190610249565b82846100e591906102ab565b82866100f191906102ab565b8985886100fe91906102ab565b61010891906102ab565b61011291906102ed565b61011c91906102ed565b61012691906102ed565b9450505050509392505050565b600080fd5b6000819050919050565b61014b81610138565b811461015657600080fd5b50565b60008135905061016881610142565b92915050565b60008060006060848603121561018757610186610133565b5b600061019586828701610159565b93505060206101a686828701610159565b92505060406101b786828701610159565b9150509250925092565b6101ca81610138565b82525050565b60006020820190506101e560008301846101c1565b92915050565b7f4e487b7100000000000000000000000000000000000000000000000000000000600052601260045260246000fd5b7f4e487b7100000000000000000000000000000000000000000000000000000000600052601160045260246000fd5b600061025482610138565b915061025f83610138565b92508261026f5761026e6101eb565b5b828204905092915050565b600061028582610138565b915061029083610138565b9250826102a05761029f6101eb565b5b828206905092915050565b60006102b682610138565b91506102c183610138565b92508282026102cf81610138565b915082820484148315176102e6576102e561021a565b5b5092915050565b60006102f882610138565b915061030383610138565b925082820190508082111561031b5761031a61021a565b5b92915050565b600061032c82610138565b915061033783610138565b925082820390508181111561034f5761034e61021a565b5b9291505056fea26469706673582212201605994742b5c59bd323aa7f75423a415f62866d661f111137a08ab916e97a2864736f6c634300081c0033",
  "linkReferences": {},
  "deployedLinkReferences": {}
}