{
  "_format": "hh-sol-artifact-1",
  "contractName": "LLMNFT",
  "sourceName": "contracts/LLMNFT.sol",
  "abi": [
    {
      "inputs": [
        {
          "internalType": "string",
          "name": "name_",
          "type": "string"
        },
        {
          "internalType": "string",
          "name": "smbl_",
          "type": "string"
        }
      ],
      "stateMutability": "nonpayable",
      "type": "constructor"
    },
    {
      "inputs": [
        {
          "internalType": "address",
          "name": "sender",
          "type": "address"
        },
        {
          "internalType": "uint256",
          "name": "tokenId",
          "type": "uint256"
        },
        {
          "internalType": "address",
          "name": "owner",
          "type": "address"
        }
      ],
      "name": "ERC721IncorrectOwner",
      "type": "error"
    },
    {
      "inputs": [
        {
          "internalType": "address",
          "name": "operator",
          "type": "address"
        },
        {
          "internalType": "uint256",
          "name": "tokenId",
          "type": "uint256"
        }
      ],
      "name": "ERC721InsufficientApproval",
      "type": "error"
    },
    {
      "inputs": [
        {
          "internalType": "address",
          "name": "approver",
          "type": "address"
        }
      ],
      "name": "ERC721InvalidApprover",
      "type": "error"
    },
    {
      "inputs": [
        {
          "internalType": "address",
          "name": "operator",
          "type": "address"
        }
      ],
      "name": "ERC721InvalidOperator",
      "type": "error"
    },
    {
      "inputs": [
        {
          "internalType": "address",
          "name": "owner",
          "type": "address"
        }
      ],
      "name": "ERC721InvalidOwner",
      "type": "error"
    },
    {
      "inputs": [
        {
          "internalType": "address",
          "name": "receiver",
          "type": "address"
        }
      ],
      "name": "ERC721InvalidReceiver",
      "type": "error"
    },
    {
      "inputs": [
        {
          "internalType": "address",
          "name": "sender",
          "type": "address"
        }
      ],
      "name": "ERC721InvalidSender",
      "type": "error"
    },
    {
      "inputs": [
        {
          "internalType": "uint256",
          "name": "tokenId",
          "type": "uint256"
        }
      ],
      "name": "ERC721NonexistentToken",
      "type": "error"
    },
    {
      "anonymous": false,
      "inputs": [
        {
          "indexed": true,
          "internalType": "address",
          "name": "owner",
          "type": "address"
        },
        {
          "indexed": true,
          "internalType": "address",
          "name": "approved",
          "type": "address"
        },
        {
          "indexed": true,
          "internalType": "uint256",
          "name": "tokenId",
          "type": "uint256"
        }
      ],
      "name": "Approval",
      "type": "event"
    },
    {
      "anonymous": false,
      "inputs": [
        {
          "indexed": true,
          "internalType": "address",
          "name": "owner",
          "type": "address"
        },
        {
          "indexed": true,
          "internalType": "address",
          "name": "operator",
          "type": "address"
        },
        {
          "indexed": false,
          "internalType": "bool",
          "name": "approved",
          "type": "bool"
        }
      ],
      "name": "ApprovalForAll",
      "type": "event"
    },
    {
      "anonymous": false,
      "inputs": [
        {
          "indexed": false,
          "internalType": "uint256",
          "name": "_fromTokenId",
          "type": "uint256"
        },
        {
          "indexed": false,
          "internalType": "uint256",
          "name": "_toTokenId",
          "type": "uint256"
        }
      ],
      "name": "BatchMetadataUpdate",
      "type": "event"
    },
    {
      "anonymous": false,
      "inputs": [
        {
          "indexed": true,
          "internalType": "uint256",
          "name": "tokenId",
          "type": "uint256"
        },
        {
          "indexed": false,
          "internalType": "address",
          "name": "author",
          "type": "address"
        },
        {
          "indexed": false,
          "internalType": "string",
          "name": "hfid",
          "type": "string"
        },
        {
          "indexed": false,
          "internalType": "uint256",
          "name": "royaltyPrice",
          "type": "uint256"
        },
        {
          "indexed": false,
          "internalType": "address",
          "name": "authorWallet",
          "type": "address"
        },
        {
          "indexed": false,
          "internalType": "enum LLMNFT.Llm_type",
          "name": "modelType",
          "type": "uint8"
        },
        {
          "indexed": false,
          "internalType": "uint256",
          "name": "maxContextWindow",
          "type": "uint256"
        }
      ],
      "name": "LLMNFTCreated",
      "type": "event"
    },
    {
      "anonymous": false,
      "inputs": [
        {
          "indexed": true,
          "internalType": "uint256",
          "name": "tokenId",
          "type": "uint256"
        },
        {
          "indexed": false,
          "internalType": "uint256",
          "name": "newPrice",
          "type": "uint256"
        },
        {
          "indexed": false,
          "internalType": "uint256",
          "name": "newContextWindow",
          "type": "uint256"
        },
        {
          "indexed": false,
          "internalType": "string",
          "name": "newHfId",
          "type": "string"
        }
      ],
      "name": "LLMUpdated",
      "type": "event"
    },
    {
      "anonymous": false,
      "inputs": [
        {
          "indexed": false,
          "internalType": "uint256",
          "name": "_tokenId",
          "type": "uint256"
        }
      ],
      "name": "MetadataUpdate",
      "type": "event"
    },
    {
      "anonymous": false,
      "inputs": [
        {
          "indexed": true,
          "internalType": "address",
          "name": "from",
          "type": "address"
        },
        {
          "indexed": true,
          "internalType": "address",
          "name": "to",
          "type": "address"
        },
        {
          "indexed": true,
          "internalType": "uint256",
          "name": "tokenId",
          "type": "uint256"
        }
      ],
      "name": "Transfer",
      "type": "event"
    },
    {
      "inputs": [
        {
          "internalType": "string",
          "name": "hf_id_",
          "type": "string"
        },
        {
          "internalType": "uint256",
          "name": "price",
          "type": "uint256"
        },
        {
          "internalType": "address",
          "name": "wallet",
          "type": "address"
        },
        {
          "internalType": "enum LLMNFT.Llm_type",
          "name": "model_type_",
          "type": "uint8"
        },
        {
          "internalType": "uint256",
          "name": "max_context",
          "type": "uint256"
        }
      ],
      "name": "CreateLLM_NFT",
      "outputs": [
        {
          "internalType": "uint256",
          "name": "",
          "type": "uint256"
        }
      ],
      "stateMutability": "nonpayable",
      "type": "function"
    },
    {
      "inputs": [
        {
          "internalType": "uint256",
          "name": "token_id",
          "type": "uint256"
        }
      ],
      "name": "GetLLM",
      "outputs": [
        {
          "components": [
            {
              "internalType": "string",
              "name": "author",
              "type": "string"
            },
            {
              "internalType": "string",
              "name": "hfid",
              "type": "string"
            },
            {
              "internalType": "uint256",
              "name": "royalty_price",
              "type": "uint256"
            },
            {
              "internalType": "address",
              "name": "author_wallet",
              "type": "address"
            },
            {
              "internalType": "enum LLMNFT.Llm_type",
              "name": "model_type",
              "type": "uint8"
            },
            {
              "internalType": "uint256",
              "name": "max_context_window",
              "type": "uint256"
            }
          ],
          "internalType": "struct LLMNFT.LLM",
          "name": "",
          "type": "tuple"
        }
      ],
      "stateMutability": "view",
      "type": "function"
    },
    {
      "inputs": [
        {
          "internalType": "string",
          "name": "",
          "type": "string"
        }
      ],
      "name": "Hf_models",
      "outputs": [
        {
          "internalType": "uint256",
          "name": "",
          "type": "uint256"
        }
      ],
      "stateMutability": "view",
      "type": "function"
    },
    {
      "inputs": [
        {
          "internalType": "uint256",
          "name": "",
          "type": "uint256"
        }
      ],
      "name": "Models_metadata",
      "outputs": [
        {
          "internalType": "string",
          "name": "author",
          "type": "string"
        },
        {
          "internalType": "string",
          "name": "hfid",
          "type": "string"
        },
        {
          "internalType": "uint256",
          "name": "royalty_price",
          "type": "uint256"
        },
        {
          "internalType": "address",
          "name": "author_wallet",
          "type": "address"
        },
        {
          "internalType": "enum LLMNFT.Llm_type",
          "name": "model_type",
          "type": "uint8"
        },
        {
          "internalType": "uint256",
          "name": "max_context_window",
          "type": "uint256"
        }
      ],
      "stateMutability": "view",
      "type": "function"
    },
    {
      "inputs": [
        {
          "internalType": "uint256",
          "name": "token_id",
          "type": "uint256"
        },
        {
          "internalType": "uint256",
          "name": "new_price",
          "type": "uint256"
        },
        {
          "internalType": "uint256",
          "name": "new_context",
          "type": "uint256"
        },
        {
          "internalType": "string",
          "name": "new_hf_id",
          "type": "string"
        }
      ],
      "name": "UpdateLLMMetadata",
      "outputs": [],
      "stateMutability": "nonpayable",
      "type": "function"
    },
    {
      "inputs": [
        {
          "internalType": "address",
          "name": "to",
          "type": "address"
        },
        {
          "internalType": "uint256",
          "name": "tokenId",
          "type": "uint256"
        }
      ],
      "name": "approve",
      "outputs": [],
      "stateMutability": "nonpayable",
      "type": "function"
    },
    {
      "inputs": [
        {
          "internalType": "address",
          "name": "owner",
          "type": "address"
        }
      ],
      "name": "balanceOf",
      "outputs": [
        {
          "internalType": "uint256",
          "name": "",
          "type": "uint256"
        }
      ],
      "stateMutability": "view",
      "type": "function"
    },
    {
      "inputs": [
        {
          "internalType": "uint256",
          "name": "tokenId",
          "type": "uint256"
        }
      ],
      "name": "getApproved",
      "outputs": [
        {
          "internalType": "address",
          "name": "",
          "type": "address"
        }
      ],
      "stateMutability": "view",
      "type": "function"
    },
    {
      "inputs": [
        {
          "internalType": "address",
          "name": "owner",
          "type": "address"
        },
        {
          "internalType": "address",
          "name": "operator",
          "type": "address"
        }
      ],
      "name": "isApprovedForAll",
      "outputs": [
        {
          "internalType": "bool",
          "name": "",
          "type": "bool"
        }
      ],
      "stateMutability": "view",
      "type": "function"
    },
    {
      "inputs": [],
      "name": "name",
      "outputs": [
        {
          "internalType": "string",
          "name": "",
          "type": "string"
        }
      ],
      "stateMutability": "view",
      "type": "function"
    },
    {
      "inputs": [
        {
          "internalType": "uint256",
          "name": "tokenId",
          "type": "uint256"
        }
      ],
      "name": "ownerOf",
      "outputs": [
        {
          "internalType": "address",
          "name": "",
          "type": "address"
        }
      ],
      "stateMutability": "view",
      "type": "function"
    },
    {
      "inputs": [
        {
          "internalType": "address",
          "name": "from",
          "type": "address"
        },
        {
          "internalType": "address",
          "name": "to",
          "type": "address"
        },
        {
          "internalType": "uint256",
          "name": "tokenId",
          "type": "uint256"
        }
      ],
      "name": "safeTransferFrom",
      "outputs": [],
      "stateMutability": "nonpayable",
      "type": "function"
    },
    {
      "inputs": [
        {
          "internalType": "address",
          "name": "from",
          "type": "address"
        },
        {
          "internalType": "address",
          "name": "to",
          "type": "address"
        },
        {
          "internalType": "uint256",
          "name": "tokenId",
          "type": "uint256"
        },
        {
          "internalType": "bytes",
          "name": "data",
          "type": "bytes"
        }
      ],
      "name": "safeTransferFrom",
      "outputs": [],
      "stateMutability": "nonpayable",
      "type": "function"
    },
    {
      "inputs": [
        {
          "internalType": "address",
          "name": "operator",
          "type": "address"
        },
        {
          "internalType": "bool",
          "name": "approved",
          "type": "bool"
        }
      ],
      "name": "setApprovalForAll",
      "outputs": [],
      "stateMutability": "nonpayable",
      "type": "function"
    },
    {
      "inputs": [
        {
          "internalType": "bytes4",
          "name": "interfaceId",
          "type": "bytes4"
        }
      ],
      "name": "supportsInterface",
      "outputs": [
        {
          "internalType": "bool",
          "name": "",
          "type": "bool"
        }
      ],
      "stateMutability": "view",
      "type": "function"
    },
    {
      "inputs": [],
      "name": "symbol",
      "outputs": [
        {
          "internalType": "string",
          "name": "",
          "type": "string"
        }
      ],
      "stateMutability": "view",
      "type": "function"
    },
    {
      "inputs": [
        {
          "internalType": "uint256",
          "name": "tokenId",
          "type": "uint256"
        }
      ],
      "name": "tokenURI",
      "outputs": [
        {
          "internalType": "string",
          "name": "",
          "type": "string"
        }
      ],
      "stateMutability": "view",
      "type": "function"
    },
    {
      "inputs": [
        {
          "internalType": "address",
          "name": "from",
          "type": "address"
        },
        {
          "internalType": "address",
          "name": "to",
          "type": "address"
        },
        {
          "internalType": "uint256",
          "name": "tokenId",
          "type": "uint256"
        }
      ],
      "name": "transferFrom",
      "outputs": [],
      "stateMutability": "nonpayable",
      "type": "function"
    }
  ],
  "bytecode": "0x608060405234801561001057600080fd5b506040516135d73803806135d7833981810160405281019061003291906101d2565b81818160009081610043919061046b565b508060019081610053919061046b565b505050505061053d565b6000604051905090565b600080fd5b600080fd5b600080fd5b600080fd5b6000601f19601f8301169050919050565b7f4e487b7100000000000000000000000000000000000000000000000000000000600052604160045260246000fd5b6100c48261007b565b810181811067ffffffffffffffff821117156100e3576100e261008c565b5b80604052505050565b60006100f661005d565b905061010282826100bb565b919050565b600067ffffffffffffffff8211156101225761012161008c565b5b61012b8261007b565b9050602081019050919050565b60005b8381101561015657808201518184015260208101905061013b565b60008484015250505050565b600061017561017084610107565b6100ec565b90508281526020810184848401111561019157610190610076565b5b61019c848285610138565b509392505050565b600082601f8301126101b9576101b8610071565b5b81516101c9848260208601610162565b91505092915050565b600080604083850312156101e9576101e8610067565b5b600083015167ffffffffffffffff8111156102075761020661006c565b5b610213858286016101a4565b925050602083015167ffffffffffffffff8111156102345761023361006c565b5b610240858286016101a4565b9150509250929050565b600081519050919050565b7f4e487b7100000000000000000000000000000000000000000000000000000000600052602260045260246000fd5b6000600282049050600182168061029c57607f821691505b6020821081036102af576102ae610255565b5b50919050565b60008190508160005260206000209050919050565b60006020601f8301049050919050565b600082821b905092915050565b6000600883026103177fffffffffffffffffffffffffffffffffffffffffffffffffffffffffffffffff826102da565b61032186836102da565b95508019841693508086168417925050509392505050565b6000819050919050565b6000819050919050565b600061036861036361035e84610339565b610343565b610339565b9050919050565b6000819050919050565b6103828361034d565b61039661038e8261036f565b8484546102e7565b825550505050565b600090565b6103ab61039e565b6103b6818484610379565b505050565b5b818110156103da576103cf6000826103a3565b6001810190506103bc565b5050565b601f82111561041f576103f0816102b5565b6103f9846102ca565b81016020851015610408578190505b61041c610414856102ca565b8301826103bb565b50505b505050565b600082821c905092915050565b600061044260001984600802610424565b1980831691505092915050565b600061045b8383610431565b9150826002028217905092915050565b6104748261024a565b67ffffffffffffffff81111561048d5761048c61008c565b5b6104978254610284565b6104a28282856103de565b600060209050601f8311600181146104d557600084156104c3578287015190505b6104cd858261044f565b865550610535565b601f1984166104e3866102b5565b60005b8281101561050b578489015182556001820191506020850194506020810190506104e6565b868310156105285784890151610524601f891682610431565b8355505b6001600288020188555050505b505050505050565b61308b8061054c6000396000f3fe608060405234801561001057600080fd5b50600436106101165760003560e01c806365783bbb116100a2578063a22cb46511610071578063a22cb46514610330578063b88d4fde1461034c578063c87b56dd14610368578063c9fea9b114610398578063e985e9c5146103b457610116565b806365783bbb1461027d57806370a08231146102ad5780638a87e958146102dd57806395d89b411461031257610116565b806323b872dd116100e957806323b872dd146101b557806331d99e7a146101d157806340a24c671461020157806342842e0e146102315780636352211e1461024d57610116565b806301ffc9a71461011b57806306fdde031461014b578063081812fc14610169578063095ea7b314610199575b600080fd5b6101356004803603810190610130919061206d565b6103e4565b60405161014291906120b5565b60405180910390f35b610153610445565b6040516101609190612160565b60405180910390f35b610183600480360381019061017e91906121b8565b6104d7565b6040516101909190612226565b60405180910390f35b6101b360048036038101906101ae919061226d565b6104f3565b005b6101cf60048036038101906101ca91906122ad565b610509565b005b6101eb60048036038101906101e6919061245a565b61060b565b6040516101f89190612500565b60405180910390f35b61021b600480360381019061021691906121b8565b61081a565b604051610228919061268a565b60405180910390f35b61024b600480360381019061024691906122ad565b610a10565b005b610267600480360381019061026291906121b8565b610a30565b6040516102749190612226565b60405180910390f35b610297600480360381019061029291906126ac565b610a42565b6040516102a49190612500565b60405180910390f35b6102c760048036038101906102c291906126f5565b610a70565b6040516102d49190612500565b60405180910390f35b6102f760048036038101906102f291906121b8565b610b2a565b60405161030996959493929190612731565b60405180910390f35b61031a610ca3565b6040516103279190612160565b60405180910390f35b61034a600480360381019061034591906127cc565b610d35565b005b610366600480360381019061036191906128ad565b610d4b565b005b610382600480360381019061037d91906121b8565b610d70565b60405161038f9190612160565b60405180910390f35b6103b260048036038101906103ad9190612930565b610e83565b005b6103ce60048036038101906103c991906129b3565b610fc5565b6040516103db91906120b5565b60405180910390f35b6000634906490660e01b7bffffffffffffffffffffffffffffffffffffffffffffffffffffffff1916827bffffffffffffffffffffffffffffffffffffffffffffffffffffffff1916148061043e575061043d82611059565b5b9050919050565b60606000805461045490612a22565b80601f016020809104026020016040519081016040528092919081815260200182805461048090612a22565b80156104cd5780601f106104a2576101008083540402835291602001916104cd565b820191906000526020600020905b8154815290600101906020018083116104b057829003601f168201915b5050505050905090565b60006104e28261113b565b506104ec826111c3565b9050919050565b6105058282610500611200565b611208565b5050565b600073ffffffffffffffffffffffffffffffffffffffff168273ffffffffffffffffffffffffffffffffffffffff160361057b5760006040517f64a0ae920000000000000000000000000000000000000000000000000000000081526004016105729190612226565b60405180910390fd5b600061058f838361058a611200565b61121a565b90508373ffffffffffffffffffffffffffffffffffffffff168173ffffffffffffffffffffffffffffffffffffffff1614610605578382826040517f64283d7b0000000000000000000000000000000000000000000000000000000081526004016105fc93929190612a53565b60405180910390fd5b50505050565b6000610615611fa3565b8681602001819052508581604001818152505084816060019073ffffffffffffffffffffffffffffffffffffffff16908173ffffffffffffffffffffffffffffffffffffffff1681525050838160800190600181111561067857610677612583565b5b9081600181111561068c5761068b612583565b5b81525050828160a00181815250506001600760008282546106ad9190612ab9565b92505081905550600060075490506106c53382611434565b816008600083815260200190815260200160002060008201518160000190816106ee9190612c99565b5060208201518160010190816107049190612c99565b506040820151816002015560608201518160030160006101000a81548173ffffffffffffffffffffffffffffffffffffffff021916908373ffffffffffffffffffffffffffffffffffffffff16021790555060808201518160030160146101000a81548160ff0219169083600181111561078157610780612583565b5b021790555060a08201518160040155905050806009896040516107a49190612da7565b9081526020016040518091039020819055506000826020015190506107c98282611452565b817fdb52b24549ce275e6027cbfb3bad43901bbe705f5c7a0a539ea5b0b8a0be39ad888b8b8b8b8b60405161080396959493929190612dbe565b60405180910390a281935050505095945050505050565b610822611fa3565b600860008381526020019081526020016000206040518060c001604052908160008201805461085090612a22565b80601f016020809104026020016040519081016040528092919081815260200182805461087c90612a22565b80156108c95780601f1061089e576101008083540402835291602001916108c9565b820191906000526020600020905b8154815290600101906020018083116108ac57829003601f168201915b505050505081526020016001820180546108e290612a22565b80601f016020809104026020016040519081016040528092919081815260200182805461090e90612a22565b801561095b5780601f106109305761010080835404028352916020019161095b565b820191906000526020600020905b81548152906001019060200180831161093e57829003601f168201915b50505050508152602001600282015481526020016003820160009054906101000a900473ffffffffffffffffffffffffffffffffffffffff1673ffffffffffffffffffffffffffffffffffffffff1673ffffffffffffffffffffffffffffffffffffffff1681526020016003820160149054906101000a900460ff1660018111156109e9576109e8612583565b5b60018111156109fb576109fa612583565b5b81526020016004820154815250509050919050565b610a2b83838360405180602001604052806000815250610d4b565b505050565b6000610a3b8261113b565b9050919050565b6009818051602081018201805184825260208301602085012081835280955050505050506000915090505481565b60008073ffffffffffffffffffffffffffffffffffffffff168273ffffffffffffffffffffffffffffffffffffffff1603610ae35760006040517f89c62b64000000000000000000000000000000000000000000000000000000008152600401610ada9190612226565b60405180910390fd5b600360008373ffffffffffffffffffffffffffffffffffffffff1673ffffffffffffffffffffffffffffffffffffffff168152602001908152602001600020549050919050565b6008602052806000526040600020600091509050806000018054610b4d90612a22565b80601f0160208091040260200160405190810160405280929190818152602001828054610b7990612a22565b8015610bc65780601f10610b9b57610100808354040283529160200191610bc6565b820191906000526020600020905b815481529060010190602001808311610ba957829003601f168201915b505050505090806001018054610bdb90612a22565b80601f0160208091040260200160405190810160405280929190818152602001828054610c0790612a22565b8015610c545780601f10610c2957610100808354040283529160200191610c54565b820191906000526020600020905b815481529060010190602001808311610c3757829003601f168201915b5050505050908060020154908060030160009054906101000a900473ffffffffffffffffffffffffffffffffffffffff16908060030160149054906101000a900460ff16908060040154905086565b606060018054610cb290612a22565b80601f0160208091040260200160405190810160405280929190818152602001828054610cde90612a22565b8015610d2b5780601f10610d0057610100808354040283529160200191610d2b565b820191906000526020600020905b815481529060010190602001808311610d0e57829003601f168201915b5050505050905090565b610d47610d40611200565b83836114ae565b5050565b610d56848484610509565b610d6a610d61611200565b8585858561161d565b50505050565b6060610d7b8261113b565b506000600660008481526020019081526020016000208054610d9c90612a22565b80601f0160208091040260200160405190810160405280929190818152602001828054610dc890612a22565b8015610e155780601f10610dea57610100808354040283529160200191610e15565b820191906000526020600020905b815481529060010190602001808311610df857829003601f168201915b505050505090506000610e266117ce565b90506000815103610e3b578192505050610e7e565b600082511115610e70578082604051602001610e58929190612e26565b60405160208183030381529060405292505050610e7e565b610e798461180b565b925050505b919050565b836008600082815260200190815260200160002060030160009054906101000a900473ffffffffffffffffffffffffffffffffffffffff1673ffffffffffffffffffffffffffffffffffffffff163373ffffffffffffffffffffffffffffffffffffffff1614610f28576040517f08c379a0000000000000000000000000000000000000000000000000000000008152600401610f1f90612ebc565b60405180910390fd5b83600860008781526020019081526020016000206002018190555082600860008781526020019081526020016000206004018190555081600860008781526020019081526020016000206001019081610f819190612c99565b50847f8e22b9ec1cf48c25deecbdf823f33acaffc68c79e5063e4968a213b0f6edcadd858585604051610fb693929190612edc565b60405180910390a25050505050565b6000600560008473ffffffffffffffffffffffffffffffffffffffff1673ffffffffffffffffffffffffffffffffffffffff16815260200190815260200160002060008373ffffffffffffffffffffffffffffffffffffffff1673ffffffffffffffffffffffffffffffffffffffff16815260200190815260200160002060009054906101000a900460ff16905092915050565b60007f80ac58cd000000000000000000000000000000000000000000000000000000007bffffffffffffffffffffffffffffffffffffffffffffffffffffffff1916827bffffffffffffffffffffffffffffffffffffffffffffffffffffffff1916148061112457507f5b5e139f000000000000000000000000000000000000000000000000000000007bffffffffffffffffffffffffffffffffffffffffffffffffffffffff1916827bffffffffffffffffffffffffffffffffffffffffffffffffffffffff1916145b80611134575061113382611874565b5b9050919050565b600080611147836118de565b9050600073ffffffffffffffffffffffffffffffffffffffff168173ffffffffffffffffffffffffffffffffffffffff16036111ba57826040517f7e2732890000000000000000000000000000000000000000000000000000000081526004016111b19190612500565b60405180910390fd5b80915050919050565b60006004600083815260200190815260200160002060009054906101000a900473ffffffffffffffffffffffffffffffffffffffff169050919050565b600033905090565b611215838383600161191b565b505050565b600080611226846118de565b9050600073ffffffffffffffffffffffffffffffffffffffff168373ffffffffffffffffffffffffffffffffffffffff161461126857611267818486611ae0565b5b600073ffffffffffffffffffffffffffffffffffffffff168173ffffffffffffffffffffffffffffffffffffffff16146112f9576112aa60008560008061191b565b6001600360008373ffffffffffffffffffffffffffffffffffffffff1673ffffffffffffffffffffffffffffffffffffffff168152602001908152602001600020600082825403925050819055505b600073ffffffffffffffffffffffffffffffffffffffff168573ffffffffffffffffffffffffffffffffffffffff161461137c576001600360008773ffffffffffffffffffffffffffffffffffffffff1673ffffffffffffffffffffffffffffffffffffffff168152602001908152602001600020600082825401925050819055505b846002600086815260200190815260200160002060006101000a81548173ffffffffffffffffffffffffffffffffffffffff021916908373ffffffffffffffffffffffffffffffffffffffff160217905550838573ffffffffffffffffffffffffffffffffffffffff168273ffffffffffffffffffffffffffffffffffffffff167fddf252ad1be2c89b69c2b068fc378daa952ba7f163c4a11628f55a4df523b3ef60405160405180910390a4809150509392505050565b61144e828260405180602001604052806000815250611ba4565b5050565b806006600084815260200190815260200160002090816114729190612c99565b507ff8e1a15aba9398e019f0b49df1a4fde98ee17ae345cb5f6b5e2c27f5033e8ce7826040516114a29190612500565b60405180910390a15050565b600073ffffffffffffffffffffffffffffffffffffffff168273ffffffffffffffffffffffffffffffffffffffff160361151f57816040517f5b08ba180000000000000000000000000000000000000000000000000000000081526004016115169190612226565b60405180910390fd5b80600560008573ffffffffffffffffffffffffffffffffffffffff1673ffffffffffffffffffffffffffffffffffffffff16815260200190815260200160002060008473ffffffffffffffffffffffffffffffffffffffff1673ffffffffffffffffffffffffffffffffffffffff16815260200190815260200160002060006101000a81548160ff0219169083151502179055508173ffffffffffffffffffffffffffffffffffffffff168373ffffffffffffffffffffffffffffffffffffffff167f17307eab39ab6107e8899845ad3d59bd9653f200f220920489ca2b5937696c318360405161161091906120b5565b60405180910390a3505050565b60008373ffffffffffffffffffffffffffffffffffffffff163b11156117c7578273ffffffffffffffffffffffffffffffffffffffff1663150b7a02868685856040518563ffffffff1660e01b815260040161167c9493929190612f6f565b6020604051808303816000875af19250505080156116b857506040513d601f19601f820116820180604052508101906116b59190612fd0565b60015b61173c573d80600081146116e8576040519150601f19603f3d011682016040523d82523d6000602084013e6116ed565b606091505b50600081510361173457836040517f64a0ae9200000000000000000000000000000000000000000000000000000000815260040161172b9190612226565b60405180910390fd5b805181602001fd5b63150b7a0260e01b7bffffffffffffffffffffffffffffffffffffffffffffffffffffffff1916817bffffffffffffffffffffffffffffffffffffffffffffffffffffffff1916146117c557836040517f64a0ae920000000000000000000000000000000000000000000000000000000081526004016117bc9190612226565b60405180910390fd5b505b5050505050565b60606040518060400160405280601781526020017f68747470733a2f2f68756767696e67666163652e636f2f000000000000000000815250905090565b60606118168261113b565b5060006118216117ce565b90506000815111611841576040518060200160405280600081525061186c565b8061184b84611bc8565b60405160200161185c929190612e26565b6040516020818303038152906040525b915050919050565b60007f01ffc9a7000000000000000000000000000000000000000000000000000000007bffffffffffffffffffffffffffffffffffffffffffffffffffffffff1916827bffffffffffffffffffffffffffffffffffffffffffffffffffffffff1916149050919050565b60006002600083815260200190815260200160002060009054906101000a900473ffffffffffffffffffffffffffffffffffffffff169050919050565b80806119545750600073ffffffffffffffffffffffffffffffffffffffff168273ffffffffffffffffffffffffffffffffffffffff1614155b15611a885760006119648461113b565b9050600073ffffffffffffffffffffffffffffffffffffffff168373ffffffffffffffffffffffffffffffffffffffff16141580156119cf57508273ffffffffffffffffffffffffffffffffffffffff168173ffffffffffffffffffffffffffffffffffffffff1614155b80156119e257506119e08184610fc5565b155b15611a2457826040517fa9fbf51f000000000000000000000000000000000000000000000000000000008152600401611a1b9190612226565b60405180910390fd5b8115611a8657838573ffffffffffffffffffffffffffffffffffffffff168273ffffffffffffffffffffffffffffffffffffffff167f8c5be1e5ebec7d5bd14f71427d1e84f3dd0314c0f7b2291e5b200ac8c7c3b92560405160405180910390a45b505b836004600085815260200190815260200160002060006101000a81548173ffffffffffffffffffffffffffffffffffffffff021916908373ffffffffffffffffffffffffffffffffffffffff16021790555050505050565b611aeb838383611c96565b611b9f57600073ffffffffffffffffffffffffffffffffffffffff168373ffffffffffffffffffffffffffffffffffffffff1603611b6057806040517f7e273289000000000000000000000000000000000000000000000000000000008152600401611b579190612500565b60405180910390fd5b81816040517f177e802f000000000000000000000000000000000000000000000000000000008152600401611b96929190612ffd565b60405180910390fd5b505050565b611bae8383611d57565b611bc3611bb9611200565b600085858561161d565b505050565b606060006001611bd784611e50565b01905060008167ffffffffffffffff811115611bf657611bf561230a565b5b6040519080825280601f01601f191660200182016040528015611c285781602001600182028036833780820191505090505b509050600082602001820190505b600115611c8b578080600190039150507f3031323334353637383961626364656600000000000000000000000000000000600a86061a8153600a8581611c7f57611c7e613026565b5b04945060008503611c36575b819350505050919050565b60008073ffffffffffffffffffffffffffffffffffffffff168373ffffffffffffffffffffffffffffffffffffffff1614158015611d4e57508273ffffffffffffffffffffffffffffffffffffffff168473ffffffffffffffffffffffffffffffffffffffff161480611d0f5750611d0e8484610fc5565b5b80611d4d57508273ffffffffffffffffffffffffffffffffffffffff16611d35836111c3565b73ffffffffffffffffffffffffffffffffffffffff16145b5b90509392505050565b600073ffffffffffffffffffffffffffffffffffffffff168273ffffffffffffffffffffffffffffffffffffffff1603611dc95760006040517f64a0ae92000000000000000000000000000000000000000000000000000000008152600401611dc09190612226565b60405180910390fd5b6000611dd78383600061121a565b9050600073ffffffffffffffffffffffffffffffffffffffff168173ffffffffffffffffffffffffffffffffffffffff1614611e4b5760006040517f73c6ac6e000000000000000000000000000000000000000000000000000000008152600401611e429190612226565b60405180910390fd5b505050565b600080600090507a184f03e93ff9f4daa797ed6e38ed64bf6a1f0100000000000000008310611eae577a184f03e93ff9f4daa797ed6e38ed64bf6a1f0100000000000000008381611ea457611ea3613026565b5b0492506040810190505b6d04ee2d6d415b85acef81000000008310611eeb576d04ee2d6d415b85acef81000000008381611ee157611ee0613026565b5b0492506020810190505b662386f26fc100008310611f1a57662386f26fc100008381611f1057611f0f613026565b5b0492506010810190505b6305f5e1008310611f43576305f5e1008381611f3957611f38613026565b5b0492506008810190505b6127108310611f68576127108381611f5e57611f5d613026565b5b0492506004810190505b60648310611f8b5760648381611f8157611f80613026565b5b0492506002810190505b600a8310611f9a576001810190505b80915050919050565b6040518060c00160405280606081526020016060815260200160008152602001600073ffffffffffffffffffffffffffffffffffffffff16815260200160006001811115611ff457611ff3612583565b5b8152602001600081525090565b6000604051905090565b600080fd5b600080fd5b60007fffffffff0000000000000000000000000000000000000000000000000000000082169050919050565b61204a81612015565b811461205557600080fd5b50565b60008135905061206781612041565b92915050565b6000602082840312156120835761208261200b565b5b600061209184828501612058565b91505092915050565b60008115159050919050565b6120af8161209a565b82525050565b60006020820190506120ca60008301846120a6565b92915050565b600081519050919050565b600082825260208201905092915050565b60005b8381101561210a5780820151818401526020810190506120ef565b60008484015250505050565b6000601f19601f8301169050919050565b6000612132826120d0565b61213c81856120db565b935061214c8185602086016120ec565b61215581612116565b840191505092915050565b6000602082019050818103600083015261217a8184612127565b905092915050565b6000819050919050565b61219581612182565b81146121a057600080fd5b50565b6000813590506121b28161218c565b92915050565b6000602082840312156121ce576121cd61200b565b5b60006121dc848285016121a3565b91505092915050565b600073ffffffffffffffffffffffffffffffffffffffff82169050919050565b6000612210826121e5565b9050919050565b61222081612205565b82525050565b600060208201905061223b6000830184612217565b92915050565b61224a81612205565b811461225557600080fd5b50565b60008135905061226781612241565b92915050565b600080604083850312156122845761228361200b565b5b600061229285828601612258565b92505060206122a3858286016121a3565b9150509250929050565b6000806000606084860312156122c6576122c561200b565b5b60006122d486828701612258565b93505060206122e586828701612258565b92505060406122f6868287016121a3565b9150509250925092565b600080fd5b600080fd5b7f4e487b7100000000000000000000000000000000000000000000000000000000600052604160045260246000fd5b61234282612116565b810181811067ffffffffffffffff821117156123615761236061230a565b5b80604052505050565b6000612374612001565b90506123808282612339565b919050565b600067ffffffffffffffff8211156123a05761239f61230a565b5b6123a982612116565b9050602081019050919050565b82818337600083830152505050565b60006123d86123d384612385565b61236a565b9050828152602081018484840111156123f4576123f3612305565b5b6123ff8482856123b6565b509392505050565b600082601f83011261241c5761241b612300565b5b813561242c8482602086016123c5565b91505092915050565b6002811061244257600080fd5b50565b60008135905061245481612435565b92915050565b600080600080600060a086880312156124765761247561200b565b5b600086013567ffffffffffffffff81111561249457612493612010565b5b6124a088828901612407565b95505060206124b1888289016121a3565b94505060406124c288828901612258565b93505060606124d388828901612445565b92505060806124e4888289016121a3565b9150509295509295909350565b6124fa81612182565b82525050565b600060208201905061251560008301846124f1565b92915050565b600082825260208201905092915050565b6000612537826120d0565b612541818561251b565b93506125518185602086016120ec565b61255a81612116565b840191505092915050565b61256e81612182565b82525050565b61257d81612205565b82525050565b7f4e487b7100000000000000000000000000000000000000000000000000000000600052602160045260246000fd5b600281106125c3576125c2612583565b5b50565b60008190506125d4826125b2565b919050565b60006125e4826125c6565b9050919050565b6125f4816125d9565b82525050565b600060c0830160008301518482036000860152612617828261252c565b91505060208301518482036020860152612631828261252c565b91505060408301516126466040860182612565565b5060608301516126596060860182612574565b50608083015161266c60808601826125eb565b5060a083015161267f60a0860182612565565b508091505092915050565b600060208201905081810360008301526126a481846125fa565b905092915050565b6000602082840312156126c2576126c161200b565b5b600082013567ffffffffffffffff8111156126e0576126df612010565b5b6126ec84828501612407565b91505092915050565b60006020828403121561270b5761270a61200b565b5b600061271984828501612258565b91505092915050565b61272b816125d9565b82525050565b600060c082019050818103600083015261274b8189612127565b9050818103602083015261275f8188612127565b905061276e60408301876124f1565b61277b6060830186612217565b6127886080830185612722565b61279560a08301846124f1565b979650505050505050565b6127a98161209a565b81146127b457600080fd5b50565b6000813590506127c6816127a0565b92915050565b600080604083850312156127e3576127e261200b565b5b60006127f185828601612258565b9250506020612802858286016127b7565b9150509250929050565b600067ffffffffffffffff8211156128275761282661230a565b5b61283082612116565b9050602081019050919050565b600061285061284b8461280c565b61236a565b90508281526020810184848401111561286c5761286b612305565b5b6128778482856123b6565b509392505050565b600082601f83011261289457612893612300565b5b81356128a484826020860161283d565b91505092915050565b600080600080608085870312156128c7576128c661200b565b5b60006128d587828801612258565b94505060206128e687828801612258565b93505060406128f7878288016121a3565b925050606085013567ffffffffffffffff81111561291857612917612010565b5b6129248782880161287f565b91505092959194509250565b6000806000806080858703121561294a5761294961200b565b5b6000612958878288016121a3565b9450506020612969878288016121a3565b935050604061297a878288016121a3565b925050606085013567ffffffffffffffff81111561299b5761299a612010565b5b6129a787828801612407565b91505092959194509250565b600080604083850312156129ca576129c961200b565b5b60006129d885828601612258565b92505060206129e985828601612258565b9150509250929050565b7f4e487b7100000000000000000000000000000000000000000000000000000000600052602260045260246000fd5b60006002820490506001821680612a3a57607f821691505b602082108103612a4d57612a4c6129f3565b5b50919050565b6000606082019050612a686000830186612217565b612a7560208301856124f1565b612a826040830184612217565b949350505050565b7f4e487b7100000000000000000000000000000000000000000000000000000000600052601160045260246000fd5b6000612ac482612182565b9150612acf83612182565b9250828201905080821115612ae757612ae6612a8a565b5b92915050565b60008190508160005260206000209050919050565b60006020601f8301049050919050565b600082821b905092915050565b600060088302612b4f7fffffffffffffffffffffffffffffffffffffffffffffffffffffffffffffffff82612b12565b612b598683612b12565b95508019841693508086168417925050509392505050565b6000819050919050565b6000612b96612b91612b8c84612182565b612b71565b612182565b9050919050565b6000819050919050565b612bb083612b7b565b612bc4612bbc82612b9d565b848454612b1f565b825550505050565b600090565b612bd9612bcc565b612be4818484612ba7565b505050565b5b81811015612c0857612bfd600082612bd1565b600181019050612bea565b5050565b601f821115612c4d57612c1e81612aed565b612c2784612b02565b81016020851015612c36578190505b612c4a612c4285612b02565b830182612be9565b50505b505050565b600082821c905092915050565b6000612c7060001984600802612c52565b1980831691505092915050565b6000612c898383612c5f565b9150826002028217905092915050565b612ca2826120d0565b67ffffffffffffffff811115612cbb57612cba61230a565b5b612cc58254612a22565b612cd0828285612c0c565b600060209050601f831160018114612d035760008415612cf1578287015190505b612cfb8582612c7d565b865550612d63565b601f198416612d1186612aed565b60005b82811015612d3957848901518255600182019150602085019450602081019050612d14565b86831015612d565784890151612d52601f891682612c5f565b8355505b6001600288020188555050505b505050505050565b600081905092915050565b6000612d81826120d0565b612d8b8185612d6b565b9350612d9b8185602086016120ec565b80840191505092915050565b6000612db38284612d76565b915081905092915050565b600060c082019050612dd36000830189612217565b8181036020830152612de58188612127565b9050612df460408301876124f1565b612e016060830186612217565b612e0e6080830185612722565b612e1b60a08301846124f1565b979650505050505050565b6000612e328285612d76565b9150612e3e8284612d76565b91508190509392505050565b7f4e6f7420617574686f72697a65643a2063616c6c6572206973206e6f74206d6f60008201527f64656c20617574686f7200000000000000000000000000000000000000000000602082015250565b6000612ea6602a836120db565b9150612eb182612e4a565b604082019050919050565b60006020820190508181036000830152612ed581612e99565b9050919050565b6000606082019050612ef160008301866124f1565b612efe60208301856124f1565b8181036040830152612f108184612127565b9050949350505050565b600081519050919050565b600082825260208201905092915050565b6000612f4182612f1a565b612f4b8185612f25565b9350612f5b8185602086016120ec565b612f6481612116565b840191505092915050565b6000608082019050612f846000830187612217565b612f916020830186612217565b612f9e60408301856124f1565b8181036060830152612fb08184612f36565b905095945050505050565b600081519050612fca81612041565b92915050565b600060208284031215612fe657612fe561200b565b5b6000612ff484828501612fbb565b91505092915050565b60006040820190506130126000830185612217565b61301f60208301846124f1565b9392505050565b7f4e487b7100000000000000000000000000000000000000000000000000000000600052601260045260246000fdfea2646970667358221220eed2bf8c5bed892fef48cd3c66c81a6c037f247b7adbda686ef49ccab250b17e64736f6c634300081c0033",
  "linkReferences": {},
  "deployedLinkReferences": {}
}