{
  "_format": "hh-sol-artifact-1",
  "contractName": "LLMNFT",
  "sourceName": "contracts/LLMNFT.sol",
  "abi": [
    {
      "inputs": [
        {
          "internalType": "string",
          "name": "name_",
          "type": "string"
        },
        {
          "internalType": "string",
          "name": "smbl_",
          "type": "string"
        }
      ],
      "stateMutability": "nonpayable",
      "type": "constructor"
    },
    {
      "inputs": [
        {
          "internalType": "address",
          "name": "sender",
          "type": "address"
        },
        {
          "internalType": "uint256",
          "name": "tokenId",
          "type": "uint256"
        },
        {
          "internalType": "address",
          "name": "owner",
          "type": "address"
        }
      ],
      "name": "ERC721IncorrectOwner",
      "type": "error"
    },
    {
      "inputs": [
        {
          "internalType": "address",
          "name": "operator",
          "type": "address"
        },
        {
          "internalType": "uint256",
          "name": "tokenId",
          "type": "uint256"
        }
      ],
      "name": "ERC721InsufficientApproval",
      "type": "error"
    },
    {
      "inputs": [
        {
          "internalType": "address",
          "name": "approver",
          "type": "address"
        }
      ],
      "name": "ERC721InvalidApprover",
      "type": "error"
    },
    {
      "inputs": [
        {
          "internalType": "address",
          "name": "operator",
          "type": "address"
        }
      ],
      "name": "ERC721InvalidOperator",
      "type": "error"
    },
    {
      "inputs": [
        {
          "internalType": "address",
          "name": "owner",
          "type": "address"
        }
      ],
      "name": "ERC721InvalidOwner",
      "type": "error"
    },
    {
      "inputs": [
        {
          "internalType": "address",
          "name": "receiver",
          "type": "address"
        }
      ],
      "name": "ERC721InvalidReceiver",
      "type": "error"
    },
    {
      "inputs": [
        {
          "internalType": "address",
          "name": "sender",
          "type": "address"
        }
      ],
      "name": "ERC721InvalidSender",
      "type": "error"
    },
    {
      "inputs": [
        {
          "internalType": "uint256",
          "name": "tokenId",
          "type": "uint256"
        }
      ],
      "name": "ERC721NonexistentToken",
      "type": "error"
    },
    {
      "anonymous": false,
      "inputs": [
        {
          "indexed": true,
          "internalType": "address",
          "name": "owner",
          "type": "address"
        },
        {
          "indexed": true,
          "internalType": "address",
          "name": "approved",
          "type": "address"
        },
        {
          "indexed": true,
          "internalType": "uint256",
          "name": "tokenId",
          "type": "uint256"
        }
      ],
      "name": "Approval",
      "type": "event"
    },
    {
      "anonymous": false,
      "inputs": [
        {
          "indexed": true,
          "internalType": "address",
          "name": "owner",
          "type": "address"
        },
        {
          "indexed": true,
          "internalType": "address",
          "name": "operator",
          "type": "address"
        },
        {
          "indexed": false,
          "internalType": "bool",
          "name": "approved",
          "type": "bool"
        }
      ],
      "name": "ApprovalForAll",
      "type": "event"
    },
    {
      "anonymous": false,
      "inputs": [
        {
          "indexed": false,
          "internalType": "uint256",
          "name": "_fromTokenId",
          "type": "uint256"
        },
        {
          "indexed": false,
          "internalType": "uint256",
          "name": "_toTokenId",
          "type": "uint256"
        }
      ],
      "name": "BatchMetadataUpdate",
      "type": "event"
    },
    {
      "anonymous": false,
      "inputs": [
        {
          "indexed": true,
          "internalType": "uint256",
          "name": "tokenId",
          "type": "uint256"
        },
        {
          "indexed": false,
          "internalType": "address",
          "name": "author",
          "type": "address"
        },
        {
          "indexed": false,
          "internalType": "string",
          "name": "hfid",
          "type": "string"
        },
        {
          "indexed": false,
          "internalType": "uint256",
          "name": "royaltyPrice",
          "type": "uint256"
        },
        {
          "indexed": false,
          "internalType": "address",
          "name": "authorWallet",
          "type": "address"
        },
        {
          "indexed": false,
          "internalType": "enum LLMNFT.Llm_type",
          "name": "modelType",
          "type": "uint8"
        },
        {
          "indexed": false,
          "internalType": "uint256",
          "name": "maxContextWindow",
          "type": "uint256"
        }
      ],
      "name": "LLMNFTCreated",
      "type": "event"
    },
    {
      "anonymous": false,
      "inputs": [
        {
          "indexed": false,
          "internalType": "uint256",
          "name": "_tokenId",
          "type": "uint256"
        }
      ],
      "name": "MetadataUpdate",
      "type": "event"
    },
    {
      "anonymous": false,
      "inputs": [
        {
          "indexed": true,
          "internalType": "address",
          "name": "from",
          "type": "address"
        },
        {
          "indexed": true,
          "internalType": "address",
          "name": "to",
          "type": "address"
        },
        {
          "indexed": true,
          "internalType": "uint256",
          "name": "tokenId",
          "type": "uint256"
        }
      ],
      "name": "Transfer",
      "type": "event"
    },
    {
      "inputs": [
        {
          "internalType": "string",
          "name": "hf_id_",
          "type": "string"
        },
        {
          "internalType": "uint256",
          "name": "price",
          "type": "uint256"
        },
        {
          "internalType": "address",
          "name": "wallet",
          "type": "address"
        },
        {
          "internalType": "enum LLMNFT.Llm_type",
          "name": "model_type_",
          "type": "uint8"
        },
        {
          "internalType": "uint256",
          "name": "max_context",
          "type": "uint256"
        }
      ],
      "name": "CreateLLM_NFT",
      "outputs": [
        {
          "internalType": "uint256",
          "name": "",
          "type": "uint256"
        }
      ],
      "stateMutability": "nonpayable",
      "type": "function"
    },
    {
      "inputs": [
        {
          "internalType": "uint256",
          "name": "token_id",
          "type": "uint256"
        }
      ],
      "name": "GetLLM",
      "outputs": [
        {
          "components": [
            {
              "internalType": "string",
              "name": "author",
              "type": "string"
            },
            {
              "internalType": "string",
              "name": "hfid",
              "type": "string"
            },
            {
              "internalType": "uint256",
              "name": "royalty_price",
              "type": "uint256"
            },
            {
              "internalType": "address",
              "name": "author_wallet",
              "type": "address"
            },
            {
              "internalType": "enum LLMNFT.Llm_type",
              "name": "model_type",
              "type": "uint8"
            },
            {
              "internalType": "uint256",
              "name": "max_context_window",
              "type": "uint256"
            }
          ],
          "internalType": "struct LLMNFT.LLM",
          "name": "",
          "type": "tuple"
        }
      ],
      "stateMutability": "view",
      "type": "function"
    },
    {
      "inputs": [
        {
          "internalType": "string",
          "name": "",
          "type": "string"
        }
      ],
      "name": "Hf_models",
      "outputs": [
        {
          "internalType": "uint256",
          "name": "",
          "type": "uint256"
        }
      ],
      "stateMutability": "view",
      "type": "function"
    },
    {
      "inputs": [
        {
          "internalType": "uint256",
          "name": "",
          "type": "uint256"
        }
      ],
      "name": "Models_metadata",
      "outputs": [
        {
          "internalType": "string",
          "name": "author",
          "type": "string"
        },
        {
          "internalType": "string",
          "name": "hfid",
          "type": "string"
        },
        {
          "internalType": "uint256",
          "name": "royalty_price",
          "type": "uint256"
        },
        {
          "internalType": "address",
          "name": "author_wallet",
          "type": "address"
        },
        {
          "internalType": "enum LLMNFT.Llm_type",
          "name": "model_type",
          "type": "uint8"
        },
        {
          "internalType": "uint256",
          "name": "max_context_window",
          "type": "uint256"
        }
      ],
      "stateMutability": "view",
      "type": "function"
    },
    {
      "inputs": [
        {
          "internalType": "address",
          "name": "to",
          "type": "address"
        },
        {
          "internalType": "uint256",
          "name": "tokenId",
          "type": "uint256"
        }
      ],
      "name": "approve",
      "outputs": [],
      "stateMutability": "nonpayable",
      "type": "function"
    },
    {
      "inputs": [
        {
          "internalType": "address",
          "name": "owner",
          "type": "address"
        }
      ],
      "name": "balanceOf",
      "outputs": [
        {
          "internalType": "uint256",
          "name": "",
          "type": "uint256"
        }
      ],
      "stateMutability": "view",
      "type": "function"
    },
    {
      "inputs": [
        {
          "internalType": "uint256",
          "name": "tokenId",
          "type": "uint256"
        }
      ],
      "name": "getApproved",
      "outputs": [
        {
          "internalType": "address",
          "name": "",
          "type": "address"
        }
      ],
      "stateMutability": "view",
      "type": "function"
    },
    {
      "inputs": [
        {
          "internalType": "address",
          "name": "owner",
          "type": "address"
        },
        {
          "internalType": "address",
          "name": "operator",
          "type": "address"
        }
      ],
      "name": "isApprovedForAll",
      "outputs": [
        {
          "internalType": "bool",
          "name": "",
          "type": "bool"
        }
      ],
      "stateMutability": "view",
      "type": "function"
    },
    {
      "inputs": [],
      "name": "name",
      "outputs": [
        {
          "internalType": "string",
          "name": "",
          "type": "string"
        }
      ],
      "stateMutability": "view",
      "type": "function"
    },
    {
      "inputs": [
        {
          "internalType": "uint256",
          "name": "tokenId",
          "type": "uint256"
        }
      ],
      "name": "ownerOf",
      "outputs": [
        {
          "internalType": "address",
          "name": "",
          "type": "address"
        }
      ],
      "stateMutability": "view",
      "type": "function"
    },
    {
      "inputs": [
        {
          "internalType": "address",
          "name": "from",
          "type": "address"
        },
        {
          "internalType": "address",
          "name": "to",
          "type": "address"
        },
        {
          "internalType": "uint256",
          "name": "tokenId",
          "type": "uint256"
        }
      ],
      "name": "safeTransferFrom",
      "outputs": [],
      "stateMutability": "nonpayable",
      "type": "function"
    },
    {
      "inputs": [
        {
          "internalType": "address",
          "name": "from",
          "type": "address"
        },
        {
          "internalType": "address",
          "name": "to",
          "type": "address"
        },
        {
          "internalType": "uint256",
          "name": "tokenId",
          "type": "uint256"
        },
        {
          "internalType": "bytes",
          "name": "data",
          "type": "bytes"
        }
      ],
      "name": "safeTransferFrom",
      "outputs": [],
      "stateMutability": "nonpayable",
      "type": "function"
    },
    {
      "inputs": [
        {
          "internalType": "address",
          "name": "operator",
          "type": "address"
        },
        {
          "internalType": "bool",
          "name": "approved",
          "type": "bool"
        }
      ],
      "name": "setApprovalForAll",
      "outputs": [],
      "stateMutability": "nonpayable",
      "type": "function"
    },
    {
      "inputs": [
        {
          "internalType": "bytes4",
          "name": "interfaceId",
          "type": "bytes4"
        }
      ],
      "name": "supportsInterface",
      "outputs": [
        {
          "internalType": "bool",
          "name": "",
          "type": "bool"
        }
      ],
      "stateMutability": "view",
      "type": "function"
    },
    {
      "inputs": [],
      "name": "symbol",
      "outputs": [
        {
          "internalType": "string",
          "name": "",
          "type": "string"
        }
      ],
      "stateMutability": "view",
      "type": "function"
    },
    {
      "inputs": [
        {
          "internalType": "uint256",
          "name": "tokenId",
          "type": "uint256"
        }
      ],
      "name": "tokenURI",
      "outputs": [
        {
          "internalType": "string",
          "name": "",
          "type": "string"
        }
      ],
      "stateMutability": "view",
      "type": "function"
    },
    {
      "inputs": [
        {
          "internalType": "address",
          "name": "from",
          "type": "address"
        },
        {
          "internalType": "address",
          "name": "to",
          "type": "address"
        },
        {
          "internalType": "uint256",
          "name": "tokenId",
          "type": "uint256"
        }
      ],
      "name": "transferFrom",
      "outputs": [],
      "stateMutability": "nonpayable",
      "type": "function"
    }
  ],
  "bytecode": "0x608060405234801561001057600080fd5b5060405161331b38038061331b833981810160405281019061003291906101d2565b81818160009081610043919061046b565b508060019081610053919061046b565b505050505061053d565b6000604051905090565b600080fd5b600080fd5b600080fd5b600080fd5b6000601f19601f8301169050919050565b7f4e487b7100000000000000000000000000000000000000000000000000000000600052604160045260246000fd5b6100c48261007b565b810181811067ffffffffffffffff821117156100e3576100e261008c565b5b80604052505050565b60006100f661005d565b905061010282826100bb565b919050565b600067ffffffffffffffff8211156101225761012161008c565b5b61012b8261007b565b9050602081019050919050565b60005b8381101561015657808201518184015260208101905061013b565b60008484015250505050565b600061017561017084610107565b6100ec565b90508281526020810184848401111561019157610190610076565b5b61019c848285610138565b509392505050565b600082601f8301126101b9576101b8610071565b5b81516101c9848260208601610162565b91505092915050565b600080604083850312156101e9576101e8610067565b5b600083015167ffffffffffffffff8111156102075761020661006c565b5b610213858286016101a4565b925050602083015167ffffffffffffffff8111156102345761023361006c565b5b610240858286016101a4565b9150509250929050565b600081519050919050565b7f4e487b7100000000000000000000000000000000000000000000000000000000600052602260045260246000fd5b6000600282049050600182168061029c57607f821691505b6020821081036102af576102ae610255565b5b50919050565b60008190508160005260206000209050919050565b60006020601f8301049050919050565b600082821b905092915050565b6000600883026103177fffffffffffffffffffffffffffffffffffffffffffffffffffffffffffffffff826102da565b61032186836102da565b95508019841693508086168417925050509392505050565b6000819050919050565b6000819050919050565b600061036861036361035e84610339565b610343565b610339565b9050919050565b6000819050919050565b6103828361034d565b61039661038e8261036f565b8484546102e7565b825550505050565b600090565b6103ab61039e565b6103b6818484610379565b505050565b5b818110156103da576103cf6000826103a3565b6001810190506103bc565b5050565b601f82111561041f576103f0816102b5565b6103f9846102ca565b81016020851015610408578190505b61041c610414856102ca565b8301826103bb565b50505b505050565b600082821c905092915050565b600061044260001984600802610424565b1980831691505092915050565b600061045b8383610431565b9150826002028217905092915050565b6104748261024a565b67ffffffffffffffff81111561048d5761048c61008c565b5b6104978254610284565b6104a28282856103de565b600060209050601f8311600181146104d557600084156104c3578287015190505b6104cd858261044f565b865550610535565b601f1984166104e3866102b5565b60005b8281101561050b578489015182556001820191506020850194506020810190506104e6565b868310156105285784890151610524601f891682610431565b8355505b6001600288020188555050505b505050505050565b612dcf8061054c6000396000f3fe608060405234801561001057600080fd5b506004361061010b5760003560e01c80636352211e116100a257806395d89b411161007157806395d89b4114610307578063a22cb46514610325578063b88d4fde14610341578063c87b56dd1461035d578063e985e9c51461038d5761010b565b80636352211e1461024257806365783bbb1461027257806370a08231146102a25780638a87e958146102d25761010b565b806323b872dd116100de57806323b872dd146101aa57806331d99e7a146101c657806340a24c67146101f657806342842e0e146102265761010b565b806301ffc9a71461011057806306fdde0314610140578063081812fc1461015e578063095ea7b31461018e575b600080fd5b61012a60048036038101906101259190611f04565b6103bd565b6040516101379190611f4c565b60405180910390f35b61014861041e565b6040516101559190611ff7565b60405180910390f35b6101786004803603810190610173919061204f565b6104b0565b60405161018591906120bd565b60405180910390f35b6101a860048036038101906101a39190612104565b6104cc565b005b6101c460048036038101906101bf9190612144565b6104e2565b005b6101e060048036038101906101db91906122f1565b6105e4565b6040516101ed9190612397565b60405180910390f35b610210600480360381019061020b919061204f565b6107f3565b60405161021d9190612521565b60405180910390f35b610240600480360381019061023b9190612144565b6109e9565b005b61025c6004803603810190610257919061204f565b610a09565b60405161026991906120bd565b60405180910390f35b61028c60048036038101906102879190612543565b610a1b565b6040516102999190612397565b60405180910390f35b6102bc60048036038101906102b7919061258c565b610a49565b6040516102c99190612397565b60405180910390f35b6102ec60048036038101906102e7919061204f565b610b03565b6040516102fe969594939291906125c8565b60405180910390f35b61030f610c7c565b60405161031c9190611ff7565b60405180910390f35b61033f600480360381019061033a9190612663565b610d0e565b005b61035b60048036038101906103569190612744565b610d24565b005b6103776004803603810190610372919061204f565b610d49565b6040516103849190611ff7565b60405180910390f35b6103a760048036038101906103a291906127c7565b610e5c565b6040516103b49190611f4c565b60405180910390f35b6000634906490660e01b7bffffffffffffffffffffffffffffffffffffffffffffffffffffffff1916827bffffffffffffffffffffffffffffffffffffffffffffffffffffffff19161480610417575061041682610ef0565b5b9050919050565b60606000805461042d90612836565b80601f016020809104026020016040519081016040528092919081815260200182805461045990612836565b80156104a65780601f1061047b576101008083540402835291602001916104a6565b820191906000526020600020905b81548152906001019060200180831161048957829003601f168201915b5050505050905090565b60006104bb82610fd2565b506104c58261105a565b9050919050565b6104de82826104d9611097565b61109f565b5050565b600073ffffffffffffffffffffffffffffffffffffffff168273ffffffffffffffffffffffffffffffffffffffff16036105545760006040517f64a0ae9200000000000000000000000000000000000000000000000000000000815260040161054b91906120bd565b60405180910390fd5b60006105688383610563611097565b6110b1565b90508373ffffffffffffffffffffffffffffffffffffffff168173ffffffffffffffffffffffffffffffffffffffff16146105de578382826040517f64283d7b0000000000000000000000000000000000000000000000000000000081526004016105d593929190612867565b60405180910390fd5b50505050565b60006105ee611e3a565b8681602001819052508581604001818152505084816060019073ffffffffffffffffffffffffffffffffffffffff16908173ffffffffffffffffffffffffffffffffffffffff168152505083816080019060018111156106515761065061241a565b5b908160018111156106655761066461241a565b5b81525050828160a001818152505060016007600082825461068691906128cd565b925050819055506000600754905061069e33826112cb565b816008600083815260200190815260200160002060008201518160000190816106c79190612aad565b5060208201518160010190816106dd9190612aad565b506040820151816002015560608201518160030160006101000a81548173ffffffffffffffffffffffffffffffffffffffff021916908373ffffffffffffffffffffffffffffffffffffffff16021790555060808201518160030160146101000a81548160ff0219169083600181111561075a5761075961241a565b5b021790555060a082015181600401559050508060098960405161077d9190612bbb565b9081526020016040518091039020819055506000826020015190506107a282826112e9565b817fdb52b24549ce275e6027cbfb3bad43901bbe705f5c7a0a539ea5b0b8a0be39ad888b8b8b8b8b6040516107dc96959493929190612bd2565b60405180910390a281935050505095945050505050565b6107fb611e3a565b600860008381526020019081526020016000206040518060c001604052908160008201805461082990612836565b80601f016020809104026020016040519081016040528092919081815260200182805461085590612836565b80156108a25780601f10610877576101008083540402835291602001916108a2565b820191906000526020600020905b81548152906001019060200180831161088557829003601f168201915b505050505081526020016001820180546108bb90612836565b80601f01602080910402602001604051908101604052809291908181526020018280546108e790612836565b80156109345780601f1061090957610100808354040283529160200191610934565b820191906000526020600020905b81548152906001019060200180831161091757829003601f168201915b50505050508152602001600282015481526020016003820160009054906101000a900473ffffffffffffffffffffffffffffffffffffffff1673ffffffffffffffffffffffffffffffffffffffff1673ffffffffffffffffffffffffffffffffffffffff1681526020016003820160149054906101000a900460ff1660018111156109c2576109c161241a565b5b60018111156109d4576109d361241a565b5b81526020016004820154815250509050919050565b610a0483838360405180602001604052806000815250610d24565b505050565b6000610a1482610fd2565b9050919050565b6009818051602081018201805184825260208301602085012081835280955050505050506000915090505481565b60008073ffffffffffffffffffffffffffffffffffffffff168273ffffffffffffffffffffffffffffffffffffffff1603610abc5760006040517f89c62b64000000000000000000000000000000000000000000000000000000008152600401610ab391906120bd565b60405180910390fd5b600360008373ffffffffffffffffffffffffffffffffffffffff1673ffffffffffffffffffffffffffffffffffffffff168152602001908152602001600020549050919050565b6008602052806000526040600020600091509050806000018054610b2690612836565b80601f0160208091040260200160405190810160405280929190818152602001828054610b5290612836565b8015610b9f5780601f10610b7457610100808354040283529160200191610b9f565b820191906000526020600020905b815481529060010190602001808311610b8257829003601f168201915b505050505090806001018054610bb490612836565b80601f0160208091040260200160405190810160405280929190818152602001828054610be090612836565b8015610c2d5780601f10610c0257610100808354040283529160200191610c2d565b820191906000526020600020905b815481529060010190602001808311610c1057829003601f168201915b5050505050908060020154908060030160009054906101000a900473ffffffffffffffffffffffffffffffffffffffff16908060030160149054906101000a900460ff16908060040154905086565b606060018054610c8b90612836565b80601f0160208091040260200160405190810160405280929190818152602001828054610cb790612836565b8015610d045780601f10610cd957610100808354040283529160200191610d04565b820191906000526020600020905b815481529060010190602001808311610ce757829003601f168201915b5050505050905090565b610d20610d19611097565b8383611345565b5050565b610d2f8484846104e2565b610d43610d3a611097565b858585856114b4565b50505050565b6060610d5482610fd2565b506000600660008481526020019081526020016000208054610d7590612836565b80601f0160208091040260200160405190810160405280929190818152602001828054610da190612836565b8015610dee5780601f10610dc357610100808354040283529160200191610dee565b820191906000526020600020905b815481529060010190602001808311610dd157829003601f168201915b505050505090506000610dff611665565b90506000815103610e14578192505050610e57565b600082511115610e49578082604051602001610e31929190612c3a565b60405160208183030381529060405292505050610e57565b610e52846116a2565b925050505b919050565b6000600560008473ffffffffffffffffffffffffffffffffffffffff1673ffffffffffffffffffffffffffffffffffffffff16815260200190815260200160002060008373ffffffffffffffffffffffffffffffffffffffff1673ffffffffffffffffffffffffffffffffffffffff16815260200190815260200160002060009054906101000a900460ff16905092915050565b60007f80ac58cd000000000000000000000000000000000000000000000000000000007bffffffffffffffffffffffffffffffffffffffffffffffffffffffff1916827bffffffffffffffffffffffffffffffffffffffffffffffffffffffff19161480610fbb57507f5b5e139f000000000000000000000000000000000000000000000000000000007bffffffffffffffffffffffffffffffffffffffffffffffffffffffff1916827bffffffffffffffffffffffffffffffffffffffffffffffffffffffff1916145b80610fcb5750610fca8261170b565b5b9050919050565b600080610fde83611775565b9050600073ffffffffffffffffffffffffffffffffffffffff168173ffffffffffffffffffffffffffffffffffffffff160361105157826040517f7e2732890000000000000000000000000000000000000000000000000000000081526004016110489190612397565b60405180910390fd5b80915050919050565b60006004600083815260200190815260200160002060009054906101000a900473ffffffffffffffffffffffffffffffffffffffff169050919050565b600033905090565b6110ac83838360016117b2565b505050565b6000806110bd84611775565b9050600073ffffffffffffffffffffffffffffffffffffffff168373ffffffffffffffffffffffffffffffffffffffff16146110ff576110fe818486611977565b5b600073ffffffffffffffffffffffffffffffffffffffff168173ffffffffffffffffffffffffffffffffffffffff1614611190576111416000856000806117b2565b6001600360008373ffffffffffffffffffffffffffffffffffffffff1673ffffffffffffffffffffffffffffffffffffffff168152602001908152602001600020600082825403925050819055505b600073ffffffffffffffffffffffffffffffffffffffff168573ffffffffffffffffffffffffffffffffffffffff1614611213576001600360008773ffffffffffffffffffffffffffffffffffffffff1673ffffffffffffffffffffffffffffffffffffffff168152602001908152602001600020600082825401925050819055505b846002600086815260200190815260200160002060006101000a81548173ffffffffffffffffffffffffffffffffffffffff021916908373ffffffffffffffffffffffffffffffffffffffff160217905550838573ffffffffffffffffffffffffffffffffffffffff168273ffffffffffffffffffffffffffffffffffffffff167fddf252ad1be2c89b69c2b068fc378daa952ba7f163c4a11628f55a4df523b3ef60405160405180910390a4809150509392505050565b6112e5828260405180602001604052806000815250611a3b565b5050565b806006600084815260200190815260200160002090816113099190612aad565b507ff8e1a15aba9398e019f0b49df1a4fde98ee17ae345cb5f6b5e2c27f5033e8ce7826040516113399190612397565b60405180910390a15050565b600073ffffffffffffffffffffffffffffffffffffffff168273ffffffffffffffffffffffffffffffffffffffff16036113b657816040517f5b08ba180000000000000000000000000000000000000000000000000000000081526004016113ad91906120bd565b60405180910390fd5b80600560008573ffffffffffffffffffffffffffffffffffffffff1673ffffffffffffffffffffffffffffffffffffffff16815260200190815260200160002060008473ffffffffffffffffffffffffffffffffffffffff1673ffffffffffffffffffffffffffffffffffffffff16815260200190815260200160002060006101000a81548160ff0219169083151502179055508173ffffffffffffffffffffffffffffffffffffffff168373ffffffffffffffffffffffffffffffffffffffff167f17307eab39ab6107e8899845ad3d59bd9653f200f220920489ca2b5937696c31836040516114a79190611f4c565b60405180910390a3505050565b60008373ffffffffffffffffffffffffffffffffffffffff163b111561165e578273ffffffffffffffffffffffffffffffffffffffff1663150b7a02868685856040518563ffffffff1660e01b81526004016115139493929190612cb3565b6020604051808303816000875af192505050801561154f57506040513d601f19601f8201168201806040525081019061154c9190612d14565b60015b6115d3573d806000811461157f576040519150601f19603f3d011682016040523d82523d6000602084013e611584565b606091505b5060008151036115cb57836040517f64a0ae920000000000000000000000000000000000000000000000000000000081526004016115c291906120bd565b60405180910390fd5b805181602001fd5b63150b7a0260e01b7bffffffffffffffffffffffffffffffffffffffffffffffffffffffff1916817bffffffffffffffffffffffffffffffffffffffffffffffffffffffff19161461165c57836040517f64a0ae9200000000000000000000000000000000000000000000000000000000815260040161165391906120bd565b60405180910390fd5b505b5050505050565b60606040518060400160405280601781526020017f68747470733a2f2f68756767696e67666163652e636f2f000000000000000000815250905090565b60606116ad82610fd2565b5060006116b8611665565b905060008151116116d85760405180602001604052806000815250611703565b806116e284611a5f565b6040516020016116f3929190612c3a565b6040516020818303038152906040525b915050919050565b60007f01ffc9a7000000000000000000000000000000000000000000000000000000007bffffffffffffffffffffffffffffffffffffffffffffffffffffffff1916827bffffffffffffffffffffffffffffffffffffffffffffffffffffffff1916149050919050565b60006002600083815260200190815260200160002060009054906101000a900473ffffffffffffffffffffffffffffffffffffffff169050919050565b80806117eb5750600073ffffffffffffffffffffffffffffffffffffffff168273ffffffffffffffffffffffffffffffffffffffff1614155b1561191f5760006117fb84610fd2565b9050600073ffffffffffffffffffffffffffffffffffffffff168373ffffffffffffffffffffffffffffffffffffffff161415801561186657508273ffffffffffffffffffffffffffffffffffffffff168173ffffffffffffffffffffffffffffffffffffffff1614155b801561187957506118778184610e5c565b155b156118bb57826040517fa9fbf51f0000000000000000000000000000000000000000000000000000000081526004016118b291906120bd565b60405180910390fd5b811561191d57838573ffffffffffffffffffffffffffffffffffffffff168273ffffffffffffffffffffffffffffffffffffffff167f8c5be1e5ebec7d5bd14f71427d1e84f3dd0314c0f7b2291e5b200ac8c7c3b92560405160405180910390a45b505b836004600085815260200190815260200160002060006101000a81548173ffffffffffffffffffffffffffffffffffffffff021916908373ffffffffffffffffffffffffffffffffffffffff16021790555050505050565b611982838383611b2d565b611a3657600073ffffffffffffffffffffffffffffffffffffffff168373ffffffffffffffffffffffffffffffffffffffff16036119f757806040517f7e2732890000000000000000000000000000000000000000000000000000000081526004016119ee9190612397565b60405180910390fd5b81816040517f177e802f000000000000000000000000000000000000000000000000000000008152600401611a2d929190612d41565b60405180910390fd5b505050565b611a458383611bee565b611a5a611a50611097565b60008585856114b4565b505050565b606060006001611a6e84611ce7565b01905060008167ffffffffffffffff811115611a8d57611a8c6121a1565b5b6040519080825280601f01601f191660200182016040528015611abf5781602001600182028036833780820191505090505b509050600082602001820190505b600115611b22578080600190039150507f3031323334353637383961626364656600000000000000000000000000000000600a86061a8153600a8581611b1657611b15612d6a565b5b04945060008503611acd575b819350505050919050565b60008073ffffffffffffffffffffffffffffffffffffffff168373ffffffffffffffffffffffffffffffffffffffff1614158015611be557508273ffffffffffffffffffffffffffffffffffffffff168473ffffffffffffffffffffffffffffffffffffffff161480611ba65750611ba58484610e5c565b5b80611be457508273ffffffffffffffffffffffffffffffffffffffff16611bcc8361105a565b73ffffffffffffffffffffffffffffffffffffffff16145b5b90509392505050565b600073ffffffffffffffffffffffffffffffffffffffff168273ffffffffffffffffffffffffffffffffffffffff1603611c605760006040517f64a0ae92000000000000000000000000000000000000000000000000000000008152600401611c5791906120bd565b60405180910390fd5b6000611c6e838360006110b1565b9050600073ffffffffffffffffffffffffffffffffffffffff168173ffffffffffffffffffffffffffffffffffffffff1614611ce25760006040517f73c6ac6e000000000000000000000000000000000000000000000000000000008152600401611cd991906120bd565b60405180910390fd5b505050565b600080600090507a184f03e93ff9f4daa797ed6e38ed64bf6a1f0100000000000000008310611d45577a184f03e93ff9f4daa797ed6e38ed64bf6a1f0100000000000000008381611d3b57611d3a612d6a565b5b0492506040810190505b6d04ee2d6d415b85acef81000000008310611d82576d04ee2d6d415b85acef81000000008381611d7857611d77612d6a565b5b0492506020810190505b662386f26fc100008310611db157662386f26fc100008381611da757611da6612d6a565b5b0492506010810190505b6305f5e1008310611dda576305f5e1008381611dd057611dcf612d6a565b5b0492506008810190505b6127108310611dff576127108381611df557611df4612d6a565b5b0492506004810190505b60648310611e225760648381611e1857611e17612d6a565b5b0492506002810190505b600a8310611e31576001810190505b80915050919050565b6040518060c00160405280606081526020016060815260200160008152602001600073ffffffffffffffffffffffffffffffffffffffff16815260200160006001811115611e8b57611e8a61241a565b5b8152602001600081525090565b6000604051905090565b600080fd5b600080fd5b60007fffffffff0000000000000000000000000000000000000000000000000000000082169050919050565b611ee181611eac565b8114611eec57600080fd5b50565b600081359050611efe81611ed8565b92915050565b600060208284031215611f1a57611f19611ea2565b5b6000611f2884828501611eef565b91505092915050565b60008115159050919050565b611f4681611f31565b82525050565b6000602082019050611f616000830184611f3d565b92915050565b600081519050919050565b600082825260208201905092915050565b60005b83811015611fa1578082015181840152602081019050611f86565b60008484015250505050565b6000601f19601f8301169050919050565b6000611fc982611f67565b611fd38185611f72565b9350611fe3818560208601611f83565b611fec81611fad565b840191505092915050565b600060208201905081810360008301526120118184611fbe565b905092915050565b6000819050919050565b61202c81612019565b811461203757600080fd5b50565b60008135905061204981612023565b92915050565b60006020828403121561206557612064611ea2565b5b60006120738482850161203a565b91505092915050565b600073ffffffffffffffffffffffffffffffffffffffff82169050919050565b60006120a78261207c565b9050919050565b6120b78161209c565b82525050565b60006020820190506120d260008301846120ae565b92915050565b6120e18161209c565b81146120ec57600080fd5b50565b6000813590506120fe816120d8565b92915050565b6000806040838503121561211b5761211a611ea2565b5b6000612129858286016120ef565b925050602061213a8582860161203a565b9150509250929050565b60008060006060848603121561215d5761215c611ea2565b5b600061216b868287016120ef565b935050602061217c868287016120ef565b925050604061218d8682870161203a565b9150509250925092565b600080fd5b600080fd5b7f4e487b7100000000000000000000000000000000000000000000000000000000600052604160045260246000fd5b6121d982611fad565b810181811067ffffffffffffffff821117156121f8576121f76121a1565b5b80604052505050565b600061220b611e98565b905061221782826121d0565b919050565b600067ffffffffffffffff821115612237576122366121a1565b5b61224082611fad565b9050602081019050919050565b82818337600083830152505050565b600061226f61226a8461221c565b612201565b90508281526020810184848401111561228b5761228a61219c565b5b61229684828561224d565b509392505050565b600082601f8301126122b3576122b2612197565b5b81356122c384826020860161225c565b91505092915050565b600281106122d957600080fd5b50565b6000813590506122eb816122cc565b92915050565b600080600080600060a0868803121561230d5761230c611ea2565b5b600086013567ffffffffffffffff81111561232b5761232a611ea7565b5b6123378882890161229e565b95505060206123488882890161203a565b9450506040612359888289016120ef565b935050606061236a888289016122dc565b925050608061237b8882890161203a565b9150509295509295909350565b61239181612019565b82525050565b60006020820190506123ac6000830184612388565b92915050565b600082825260208201905092915050565b60006123ce82611f67565b6123d881856123b2565b93506123e8818560208601611f83565b6123f181611fad565b840191505092915050565b61240581612019565b82525050565b6124148161209c565b82525050565b7f4e487b7100000000000000000000000000000000000000000000000000000000600052602160045260246000fd5b6002811061245a5761245961241a565b5b50565b600081905061246b82612449565b919050565b600061247b8261245d565b9050919050565b61248b81612470565b82525050565b600060c08301600083015184820360008601526124ae82826123c3565b915050602083015184820360208601526124c882826123c3565b91505060408301516124dd60408601826123fc565b5060608301516124f0606086018261240b565b5060808301516125036080860182612482565b5060a083015161251660a08601826123fc565b508091505092915050565b6000602082019050818103600083015261253b8184612491565b905092915050565b60006020828403121561255957612558611ea2565b5b600082013567ffffffffffffffff81111561257757612576611ea7565b5b6125838482850161229e565b91505092915050565b6000602082840312156125a2576125a1611ea2565b5b60006125b0848285016120ef565b91505092915050565b6125c281612470565b82525050565b600060c08201905081810360008301526125e28189611fbe565b905081810360208301526125f68188611fbe565b90506126056040830187612388565b61261260608301866120ae565b61261f60808301856125b9565b61262c60a0830184612388565b979650505050505050565b61264081611f31565b811461264b57600080fd5b50565b60008135905061265d81612637565b92915050565b6000806040838503121561267a57612679611ea2565b5b6000612688858286016120ef565b92505060206126998582860161264e565b9150509250929050565b600067ffffffffffffffff8211156126be576126bd6121a1565b5b6126c782611fad565b9050602081019050919050565b60006126e76126e2846126a3565b612201565b9050828152602081018484840111156127035761270261219c565b5b61270e84828561224d565b509392505050565b600082601f83011261272b5761272a612197565b5b813561273b8482602086016126d4565b91505092915050565b6000806000806080858703121561275e5761275d611ea2565b5b600061276c878288016120ef565b945050602061277d878288016120ef565b935050604061278e8782880161203a565b925050606085013567ffffffffffffffff8111156127af576127ae611ea7565b5b6127bb87828801612716565b91505092959194509250565b600080604083850312156127de576127dd611ea2565b5b60006127ec858286016120ef565b92505060206127fd858286016120ef565b9150509250929050565b7f4e487b7100000000000000000000000000000000000000000000000000000000600052602260045260246000fd5b6000600282049050600182168061284e57607f821691505b60208210810361286157612860612807565b5b50919050565b600060608201905061287c60008301866120ae565b6128896020830185612388565b61289660408301846120ae565b949350505050565b7f4e487b7100000000000000000000000000000000000000000000000000000000600052601160045260246000fd5b60006128d882612019565b91506128e383612019565b92508282019050808211156128fb576128fa61289e565b5b92915050565b60008190508160005260206000209050919050565b60006020601f8301049050919050565b600082821b905092915050565b6000600883026129637fffffffffffffffffffffffffffffffffffffffffffffffffffffffffffffffff82612926565b61296d8683612926565b95508019841693508086168417925050509392505050565b6000819050919050565b60006129aa6129a56129a084612019565b612985565b612019565b9050919050565b6000819050919050565b6129c48361298f565b6129d86129d0826129b1565b848454612933565b825550505050565b600090565b6129ed6129e0565b6129f88184846129bb565b505050565b5b81811015612a1c57612a116000826129e5565b6001810190506129fe565b5050565b601f821115612a6157612a3281612901565b612a3b84612916565b81016020851015612a4a578190505b612a5e612a5685612916565b8301826129fd565b50505b505050565b600082821c905092915050565b6000612a8460001984600802612a66565b1980831691505092915050565b6000612a9d8383612a73565b9150826002028217905092915050565b612ab682611f67565b67ffffffffffffffff811115612acf57612ace6121a1565b5b612ad98254612836565b612ae4828285612a20565b600060209050601f831160018114612b175760008415612b05578287015190505b612b0f8582612a91565b865550612b77565b601f198416612b2586612901565b60005b82811015612b4d57848901518255600182019150602085019450602081019050612b28565b86831015612b6a5784890151612b66601f891682612a73565b8355505b6001600288020188555050505b505050505050565b600081905092915050565b6000612b9582611f67565b612b9f8185612b7f565b9350612baf818560208601611f83565b80840191505092915050565b6000612bc78284612b8a565b915081905092915050565b600060c082019050612be760008301896120ae565b8181036020830152612bf98188611fbe565b9050612c086040830187612388565b612c1560608301866120ae565b612c2260808301856125b9565b612c2f60a0830184612388565b979650505050505050565b6000612c468285612b8a565b9150612c528284612b8a565b91508190509392505050565b600081519050919050565b600082825260208201905092915050565b6000612c8582612c5e565b612c8f8185612c69565b9350612c9f818560208601611f83565b612ca881611fad565b840191505092915050565b6000608082019050612cc860008301876120ae565b612cd560208301866120ae565b612ce26040830185612388565b8181036060830152612cf48184612c7a565b905095945050505050565b600081519050612d0e81611ed8565b92915050565b600060208284031215612d2a57612d29611ea2565b5b6000612d3884828501612cff565b91505092915050565b6000604082019050612d5660008301856120ae565b612d636020830184612388565b9392505050565b7f4e487b7100000000000000000000000000000000000000000000000000000000600052601260045260246000fdfea26469706673582212207f8fd80c0460e885e4e02f32a8d9afc31fda48ba26fecedf3f67b921ad9aa51b64736f6c634300081c0033",
  "linkReferences": {},
  "deployedLinkReferences": {}
}